:1000000042C2000071C200006FC200006DC2000059
:100010006BC2000069C2000067C2000065C2000038
:1000200063C200000C94D30D0C94D30D0C94D30D2B
:100030005BC2000059C2000057C2000055C2000058
:1000400053C2000051C200004FC200004DC2000068
:100050004BC2000049C2000047C200000C94E01EE1
:1000600043C200000C949C190C9473193DC200000B
:100070003BC2000039C2000037C2000035C2000098
:1000800033C2000031C200002FC200002DC20000A8
:100090000C944A190C94211927C200000C94510E9B
:1000A00023C2000021C200001FC200001DC20000C8
:1000B0001BC2000019C2000017C2000015C20000D8
:1000C00013C2000011C200000FC200000C94F81807
:1000D0000C94CF1809C2000007C2000005C200003E
:1000E00003C200002F1B321B211B251B291B691B70
:1000F000361B3A1B401B441B481B4E1B521B561BF6
:10010000691B5C1B601B641B6221E121BE21B821BD
:10011000C921CC21D62100407A10F35A00A0724E9A
:1001200018090010A5D4E80000E87648170000E49C
:100130000B54020000CA9A3B000000E1F5050000E4
:1001400080969800000040420F000000A086010049
:100150000000102700000000E80300000000640019
:10016000000000000A000000000001000000000084
:100170002C76D888DC674F0823DFC1DFAE59E1B1A8
:10018000B796E5E3E453C63AE651997696E8E6C2B7
:100190008426EB898C9B62ED407C6FFCEFBC9C9FBE
:1001A00040F2BAA56FA5F490055A2AF75C936B6CE0
:1001B000F9676DC11BFCE0E40D47FEF520E6B500D4
:1001C000D0ED902E0300943577050080841E080042
:1001D00000204E0A000000C80C333333330F986EF2
:1001E00012831141EF8D2114893BE65516CFFEE6AF
:1001F000DB18D1844B381BF77C1D901DA4BBE42475
:10020000203284725E228100C9F124ECA1E53D27F1
:100210007C3C3E5E2B3D3F2F5B5D3B2C2A225C00ED
:10022000005EBCE2613FDD83C29C7E20A3FD1F41D6
:100230009DC3217FFCA2401E5F01E3BD3E6082DCC6
:10024000237D9FC1421CFEA0E1BF5D0380DE3C62B6
:10025000BEE0025CDF81633D7C22C09E1D43A1FFA6
:100260004618FAA427799BC584DA3866E5BB590796
:10027000DB856739BAE406581947A5FB7826C49A86
:10028000653BD987045AB8E6A7F91B45C6987A2476
:10029000F8A6441A99C7257B3A6486D85B05E7B966
:1002A0008CD2306EEDB3510F4E10F2AC2F7193CD56
:1002B000114FADF3702ECC92D38D6F31B2EC0E5046
:1002C000AFF1134DCE90722C6D33D18F0C52B0EE36
:1002D000326C8ED0530DEFB1F0AE4C1291CF2D7326
:1002E000CA947628ABF517490856B4EA6937D58B16
:1002F0005709EBB536688AD495CB2977F4AA481606
:10030000E9B7550B88D6346A2B7597C94A14F6A8F5
:10031000742AC896154BA9F7B6E80A54D7896B35E5
:1003200000002100240027002A002D0030003300A7
:1003300001010000040107010A0100000A0B020983
:100340000C0D0E080703040100000000000000006F
:10035000000000000000000000000000000000009D
:10036000000000000000121110000000000000005A
:10037000000000000000000000000000000000007D
:10038000FFE0FFD1A4AFFF32FFD1FFFEFFE0FFD1BE
:10039000AC00AEA5FFD1FFFEFFE0FFD11004FFFED1
:1003A000FFD0FFE0FFCAFFD140A1C0A6A22FF800F6
:1003B000278100AC00AFFF64A5FF64FF64A4FFD0F9
:1003C000FFFE00002200250028002B002E00310037
:1003D000340002010000050108010B0100002000AB
:1003E0002300260029002C002F003200000100000D
:1003F00003010601090105050505070508080808A8
:10040000020202020A0A08080404040401010101AC
:1004100001010101030303030303030304070707A7
:100420000C0C0C0C0C0C0C0C02020202060606064C
:10043000060606060B0B0B0B0B0B0B0B0102102019
:10044000200808102040102040800201020108040A
:10045000020101020408102040808040201008049E
:1004600002018004020180402010080402010804F7
:10047000020101020408102040800102040810203B
:1004800040808329DB2C11241FBECFEFD1E2DEBFD9
:10049000CDBF00E00CBF2AE0A4EDB3E001C01D9287
:1004A000A938B207E1F713E0A0E0B2E0E4E7F9E62B
:1004B00000E00BBF02C007900D92A43DB107D9F731
:1004C00012E0C2E4D2E000E006C021970109802FCB
:1004D000FE010E944C32C134D10780E00807A9F721
:1004E0000E9444270C94A9348BCDDC015996ED91E0
:1004F000FC915A973097B9F083899489A589B68978
:100500004285538564857585841B950BA60BB70BB7
:10051000811520E89207A105B10538F08FEF9FE71C
:10052000A0E0B0E0089580E090E00895CF93DF93DD
:100530001F92CDB7DEB76983DC01ED91FC9102809B
:10054000F381E02D41E050E0BE016F5F7F4F1995D0
:100550000F90DF91CF9108952091520A3091530A64
:100560002817390771F490915C0480915B04981707
:1005700041F0E0915C04F0E0E55EFB4F808190E0AB
:1005800008958FEF9FEF089508951F93CF93DF9302
:10059000DC015C962D913C915D972115310539F474
:1005A00081E090E013969C938E9312973DC05196F4
:1005B000ED91FC91529750969C915097892F809580
:1005C0001FB75E964C915E9741FB772770F941FD0E
:1005D0006095F8944081772311F0492B01C048239E
:1005E0004083E9012197F1F748E0508160FF02C0A4
:1005F000592B01C058235083E9012197F1F76695E3
:10060000415099F7772321F090818923808303C09B
:100610008081982B90831FBF5C968D919C915D97F4
:100620000197F1F721E030E0C901DF91CF911F91EF
:1006300008952091520A3091530A2817390769F416
:1006400080915B0420915C0490E0805C9F4F821B52
:10065000910960E470E00C94FB3180E090E0089533
:100660002091520A3091530A28173907B9F4909112
:100670005C0480915B04981789F0E0915C04F0E0E1
:10068000E55EFB4F808120915C0430E02F5F3F4F9F
:100690002F73332720935C0490E008958FEF9FEF32
:1006A000089585ED8093BC008091BC0084FDFCCF53
:1006B0001092DD0408954091F603262F30E0240FB8
:1006C000311D21323105DCF42091DD042430C9F4E0
:1006D000FC0180E090E0861758F43091F6032191F8
:1006E000DC01AC52BC4FA30FB11D2C930196F3CF8C
:1006F0008091F603680F6093F60380E0089581E02F
:10070000089582E008950895E091DF048091DE0469
:10071000E81730F4F0E0E052FB4F808190E008955C
:100720008FEF9FEF08959091DF048091DE0498177A
:1007300050F4E92FF0E0E052FB4F208130E09F5F62
:100740009093DF0402C02FEF3FEFC901089580911D
:10075000DE0490E02091DF04821B91090895CF927E
:10076000DF92EF92FF920F931F93CF93DF937C0161
:10077000262F972F8A0180919404882391F0C62F09
:10078000D72F6E01C40ED51ECC15DD0569F0699119
:10079000D701ED91FC910190F081E02DC7011995F1
:1007A000F3CF642F822F87DFC801DF91CF911F9194
:1007B0000F91FF90EF90DF90CF900895CF93DF934C
:1007C0001F92CDB7DEB76983209194042223D1F024
:1007D0002091B604203240F021E030E0FC01338368
:1007E000228380E090E014C080919504E82FF0E02F
:1007F000EA56FB4F998190838F5F80939504809395
:10080000B60404C061E0CE01019655DF81E090E0BE
:100810000F90DF91CF910895CF93DF93EC018D81FD
:100820008823A1F18C8187FF2DC06E857F85888903
:10083000998941E00E941023882341F1EA8980E2EE
:10084000E89FF0011124DF01A15DBA4F1097F1F08C
:100850008D81823050F44B895C896D897E895C96EC
:100860004D935D936D937C935F978F89988DA98D40
:10087000BA8DE15DFA4F938F828FB58BA48B8C81FB
:100880008F778C83DF91CF910C94D52280E0DF911C
:10089000CF910895FC01818D928D009709F0BCCF16
:1008A00008953F924F925F926F927F928F929F92A4
:1008B000AF92BF92CF92DF92EF92FF920F931F936E
:1008C000CF93DF93CDB7DEB72C970FB6F894DEBF8A
:1008D0000FBECDBF5C01DC015B968D909C905C9758
:1008E0001696CD90DD90ED90FC901997C114D1042F
:1008F000E104F10439F0BFEFCB1ADB0AEB0AFB0A83
:10090000312C07C0F401C080D180E280F380332411
:100910003394F40181859285A385B4859C01AD0152
:100920002F5F3F4F4F4F5F4F29873A874B875C8739
:10093000260137011D821E821F821886F4018185DF
:100940009285A385B4852D813E814F8158852817D6
:1009500039074A075B0708F063C089859A85AB852C
:10096000BC858C159D05AE05BF0550F482E0C82EF0
:10097000D12CE12CF12C92E0492E512C612C712CC0
:100980009E012F5F3F4FB701A601C4010E94F723CC
:10099000882309F445C089819A81AB81BC81892B68
:1009A0008A2B8B2B41F0260137019FEF491A590AF8
:1009B000690A790A05C0C414D504E604F70491F065
:1009C0002D813E814F8158852F5F3F4F4F4F5F4FA5
:1009D0002D833E834F8358873FEFC31AD30AE30A20
:1009E000F30AACCF0FEF1FEF2FEF3FE0B301A201EF
:1009F000C4010E945823882399F0D50116964D9181
:100A00005D916D917C9119974115510561057105B5
:100A100049F093018201C4010E945823811102C050
:100A200080E02AC0D50116964D925D926D927C921F
:100A30001997332051F0D301C2010196A11DB11DB8
:100A4000F40180839183A283B383F5018789908D1C
:100A5000A18DB28D892B8A2B8B2B69F4D5015796EA
:100A60004D925D926D927C925A9714968C91149748
:100A7000806814968C9381E02C960FB6F894DEBFB4
:100A80000FBECDBFDF91CF911F910F91FF90EF90DF
:100A9000DF90CF90BF90AF909F908F907F906F909E
:100AA0005F904F903F9008958F929F92AF92BF9228
:100AB000CF92DF92EF92FF920F931F93CF93DF932A
:100AC000EC018D81811102C080E077C00B891C8907
:100AD0002D893E890417150726073707A8F36A01F1
:100AE0007B01823029F4CA86DB86EC86FD860DC048
:100AF000C114D104E104F10451F41E821F8218864E
:100B000019861A861B861C861D8681E056C08A843B
:100B10009B84AC84BD84EB8DFC8D258530E0275F04
:100B20003F4FB501A4014150510961097109022EDD
:100B300004C076956795579547950A94D2F7D701E3
:100B4000C6010197A109B10904C0B695A79597956B
:100B500087952A95D2F784179507A607B70720F03F
:100B600089288A288B2849F44F89588D698D7A8D78
:100B70004E835F836887798704C0841B950BA60B1F
:100B8000B70B4C015D018E010A5F1F4F8114910468
:100B9000A104B10409F4A7CF4E815F8168857985EE
:100BA00098018B8D9C8D0E94F72391E0891A910802
:100BB000A108B1088111EACF87CFDF91CF911F91B2
:100BC0000F91FF90EF90DF90CF90BF90AF909F90EC
:100BD0008F9008958F929F92AF92BF92CF92DF92A3
:100BE000EF92FF920F931F93CF93DF9300D01F924A
:100BF000CDB7DEB77C0180E2689F600111249601C9
:100C0000215D3A4FD9011B969C91917121F0842F5F
:100C1000827409F096C0142FF701628B8091000254
:100C200090910102A0910202B091030286879787FA
:100C3000A08BB18BF601E15DFA4F4489558960E0E4
:100C400070E0BA0155274427D70157964D935D931D
:100C50006D937C935A97828D938DA0E0B0E0482BE2
:100C6000592B6A2B7B2BD70157964D935D936D9330
:100C70007C935A97D9011B968C91887159F4848D75
:100C8000958DA68DB78DF701838B948BA58BB68B35
:100C900081E012C0803109F054C097012D5E3F4FB2
:100CA000D7015B968D919C915C970E947A24882352
:100CB00009F447C084E0F7018583812F8F70D70145
:100CC00014968C931497F70116821782108611865A
:100CD0001A961D921D921D921C921D9716FF33C0ED
:100CE00015968C91813069F511FF2BC0F70143896E
:100CF000548965897689452B462B472B09F45EC0BC
:100D000040E050E0BA01C701CFDE8823D1F0F701FF
:100D10008788908CA18CB28CC38CD48C82E090E0BC
:100D2000A0E0B0E0F60180839183A283B3839E01AB
:100D30002F5F3F4FB501A401C6010E94F723811127
:100D400004C080E03BC081E039C000E010E09801C1
:100D5000B501A401C6010E945823882391F389801C
:100D60009A80AB80BC80D60157968C91803129F057
:100D700088EF9FEFAFEFBFE004C088EF9FEFA0E0E8
:100D8000B0E088169906AA06BB0688F2D7015796E6
:100D90001D921D921D921C925A97F701138A148A74
:100DA000158A168A848180688483C70135DD88238B
:100DB00041F240E050E0BA01C70176DE0F900F909B
:100DC0000F900F90DF91CF911F910F91FF90EF90B7
:100DD000DF90CF90BF90AF909F908F900895CF936A
:100DE000DF93EC0119DD882311F01D8281E0DF9192
:100DF000CF9108958FB7F89480915E048FBF0895C6
:100E000061E0FC0184810E94001B80915D048111DE
:100E100010925D0408958EBD00000DB407FEFDCF55
:100E20008EB508958FEFF7CF0F931F93CF93DF9376
:100E3000EB010E94D81B8B01F5DF8F3F49F00E9428
:100E4000D81B601B710B6C177D07B0F380E001C0ED
:100E500081E0DF91CF911F910F910895CF93DF93A0
:100E6000EC018E81882379F08F8198859C012F5F1A
:100E70003F4F38872F838230924010F4D3DFF4CF76
:100E8000CE01BEDF1E82DF91CF9108958CBD9DBD46
:100E90000895CF93DF93EC0180915D04811108C028
:100EA00081E080935D048091080990910909EEDF4B
:100EB00060E08C81DF91CF910C94001BCF92DF9288
:100EC000FF920F931F93CF93DF9300D01F92CDB764
:100ED000DEB76C01F62E29833A834B835C83BEDF39
:100EE000C601D7DF6CE271E0C6019EDF8F2D806402
:100EF00092DF08E110E05C814B813A812981DA01BF
:100F0000C901002E04C0B695A795979587950A94B8
:100F1000D2F729833A834B835C837DDF0850110924
:100F200029813A814B815C81083F8FEF180739F79F
:100F3000FF2029F0E8E0FE1204C087E803C085E93D
:100F400001C08FEF68DF10E06DDFF601828787FF59
:100F500004C01F3F11F01F5FF7CF0F900F900F904D
:100F60000F90DF91CF911F910F91FF90DF90CF9065
:100F70000895AF92BF92CF92DF92EF92FF920F93BC
:100F80001F93CF93DF93EC016901C801820F931F78
:100F90008130924008F06AC08E81882371F0888188
:100FA0009981AA81BB81481759076A077B0729F4F1
:100FB0008F819885C816D90698F5488359836A8326
:100FC0007B838B85833039F089E0440F551F661F82
:100FD000771F8A95D1F79A01AB0161E1CE016EDFEF
:100FE000882319F083E08D8341C00E94D81B5B01E8
:100FF00019DF8A878F3F49F40E94D81B6A197B0941
:101000006D327140A8F38FE003C08E3F29F08DE070
:101010008D83CE01F5DE2AC018861F8281E08E8383
:101020008F8198858C159D0538F4FCDE8F8198851D
:10103000019698878F83F4CF6701E00EF11ECE14DE
:10104000DF0429F0EFDEF60181936F01F8CF8F8185
:101050009885080F191F18870F838985882319F031
:101060000115124038F0CE01F9DE04C0CE01C8DE11
:1010700080E001C081E0DF91CF911F910F91FF903F
:10108000EF90DF90CF90BF90AF9008952F923F9256
:101090004F925F926F927F928F929F92AF92BF9288
:1010A000CF92DF92EF92FF920F931F93CF93DF9334
:1010B0001F921F92CDB7DEB7FC018581882309F40A
:1010C000D8C0848180FFD5C021E02A834389548918
:1010D0006589768982859385A485B58548175907E2
:1010E0006A077B0709F41A826F013A81832F90E027
:1010F000DE0111964D013F01B6E06B0E711C892B8C
:1011000009F47DC0D6011A964D915D916D917C9147
:101110001D975A01B1E0BB22F60125811A012B016E
:1011200089E056944794379427948A95D1F7838D14
:10113000948D223061F4FC01828D938DA48DB58D48
:10114000BC01CD01620D731D841D951D45C0DC01E0
:1011500014961C9111501221A114B104D1F4111153
:1011600018C0452B462B472B51F4F6018789908DEB
:10117000A18DB28D86839783A087B1870AC04681EF
:1011800057816085718593010E94F723882309F4B4
:1011900070C0F601238D348D86819781A085B1853D
:1011A0000297A109B109AC01BD01F901058404C090
:1011B000440F551F661F771F0A94D2F786859785BF
:1011C000A089B189840F951FA61FB71FBC01CD014F
:1011D000610F711D811D911DD60114962C9126FF62
:1011E00014C000910002109101022091020230917E
:1011F0000302601771078207930751F506C0FA8151
:10120000FF23B9F1898190E036C040E00E941023AD
:10121000882379F1F501E15DFA4FD401CF01019600
:10122000E817F90719F021912D93FACFEFEF8E1AF5
:101230009E0AF60182859385A485B5850196A11D38
:10124000B11D82879387A487B58780E090E057CF50
:10125000740101E010E09501AB01BC0180912F0702
:101260009091300786DE882321F0BFEF8B1A9B0A0E
:10127000E0CF8FEF9FEF0F900F90DF91CF911F91F5
:101280000F91FF90EF90DF90CF90BF90AF909F9025
:101290008F907F906F905F904F903F902F90089528
:1012A0004F925F926F927F92AF92BF92CF92DF92F6
:1012B000EF92FF920F931F93CF93DF93CDB7DEB7DB
:1012C0002B970FB6F894DEBF0FBECDBF7C01CE01C9
:1012D00001966C01FC0190E28BE08C0D91938E13D2
:1012E000FDCFDA0130E047E09D91992339F19E323C
:1012F00019F0E0E1F2E00AC04A3009F46FC138E0C9
:101300004AE0F2CF3196891709F468C184918111BE
:10131000F9CF431708F462C18FED890F8E3508F0BD
:101320005DC181E0830FF601E30FF11D3FE9390F45
:101330003A3108F490529083382FD6CF8981803289
:1013400009F44CC1B22E8B01DB015B968D919C910F
:101350005C97F701948F838F16961D921D921D92B4
:101360001C921997FB011286138614861586712C20
:10137000F80182859385A485B5854389548965895B
:10138000768984179507A607B70708F060C025E09F
:10139000B695A795979587952A95D1F7F82FFF7061
:1013A0006F2ED80115968C91823008F417C1C801B0
:1013B0006DDE97FD13C1F80182859385A485B585FF
:1013C0004F96A11DB11D82879387A487B587F0E250
:1013D0006F9EC0011124BC01615D7A4F61157105DA
:1013E00009F4FCC0DB012C91222319F0253EC1F445
:1013F00027C071100EC0F701628A4091000250911F
:101400000102609102027091030246875787608B48
:10141000718BFC01E15DFA4F8081811113C015C011
:101420004BE050E0C6010E947D34892B09F0A0CF2B
:101430008B2D8073803309F4D1C04B2D662DCBC02A
:101440007720C9F27724739493CF772473948B2DEC
:101450008271823109F0C2C07720D1F0D7011E9687
:101460006D917D918D919C91519741E00E94102347
:10147000882309F4B3C0F7016289F0E26F9FB001DD
:101480001124615D7A4F6115710509F078C0A6C01D
:10149000D80115968C91823009F4A0C0C80101DAF8
:1014A000882309F49BC0D8015B96ED91FC915C9771
:1014B00016964D905D906D907C901997B2E04B1A06
:1014C000510861087108058404C0440C551C661C51
:1014D000771C0A94D2F786859785A089B189480E32
:1014E000591E6A1E7B1EA480E1E04E1A5108610855
:1014F0007108AA2009F10E94D522882309F46EC040
:10150000EFE2F5E0119227E0EF32F207D9F7D301CD
:10151000C2018A0D911DA11DB11D809300029093FF
:101520000102A0930202B093030280912105816021
:1015300080932105AA94DDCFD8015B96ED91FC91B3
:101540005C9780E092E0A0E0B0E0058404C0880FE2
:10155000991FAA1FBB1F0A94D2F7F8014389548927
:1015600065897689840F951FA61FB71F838B948B7F
:10157000A58BB68BD70152961C926FE275E080E284
:10158000FB0111928A95E9F78BE0F601DB010190EE
:101590000D928A95E1F781E298E2DB0151969C93E6
:1015A0008E93509720E038E01F963C932E931E9721
:1015B00053969C938E93529759969C938E935897DB
:1015C00057963C932E9356970E94D522882331F04C
:1015D0004B2DF7016289C701FDDA01C080E02B962F
:1015E0000FB6F894DEBF0FBECDBFDF91CF911F9134
:1015F0000F91FF90EF90DF90CF90BF90AF907F90D2
:101600006F905F904F900895FC01818D928D0097AF
:1016100009F03CCD8FEF9FEF08950F931F93CF9369
:10162000DF93FC01818D928D0097A9F0EF012EDDF3
:101630008C010F3F8FEF180789F0898D9A8DFC017F
:101640004285538564857585415051096109710949
:101650002BDAC80105C080E090E002C08FEF9FEF59
:10166000DF91CF911F910F910895EF92FF920F9309
:101670001F93CF93DF93EC0179014115510561056B
:10168000710511F482E134C08B85833039F089E033
:10169000440F551F661F771F8A95D1F79A01AB013A
:1016A00068E1CE010BDC882311F084E021C08EEFCD
:1016B000B2DB87018EEFF81AF80181918F01ABDB65
:1016C0000E151F05C9F78FEFA6DB8FEFA4DBAADB92
:1016D0008A878F71853029F081E18D83CE0190DB7F
:1016E00008C068E572E0CE019FDB811106C085E18C
:1016F0008D83CE0185DB80E010C020E030E0A901C1
:101700006DE0CE01DBDB811103C08CDB882311F09F
:1017100084E1EECFCE0174DB81E0DF91CF911F91A8
:101720000F91FF90EF9008952F923F924F925F920A
:101730006F927F928F929F92AF92BF92CF92DF92E1
:10174000EF92FF920F931F93CF93DF9300D01F92DE
:10175000CDB7DEB78C015B011A01DC0115968C91C7
:1017600015978130C1F414968C9181FF14C082FFCB
:101770001AC0F801438954896589768982859385E1
:10178000A485B58584179507A607B70761F0C8013A
:101790008BD9811108C081E090E0F80193838283A6
:1017A00080E090E038C1610182C0D8015B968D91E4
:1017B0009C915C97FC01248121502A013B0139E076
:1017C00076946794579447943A95D1F7722E742083
:1017D0007A01F1E0FF22772009F475C080E092E001
:1017E0008E199F0946018C159D0508F44C01D801FE
:1017F0005B962D913C915C9716968D919D910D90E5
:10180000BC91A02D0297A109B109F901058404C07A
:10181000880F991FAA1FBB1F0A94D2F746855785C8
:1018200060897189840F951FA61FB71F9C01AD01A8
:10183000270D311D411D511D29013A01811432E04E
:10184000930609F087C08091000290910102A09157
:101850000202B091030284159505A605B70559F457
:101860008FEF9FEFDC018093000290930102A09321
:101870000202B09303029501B301A20180912F07E8
:1018800090913007F2DE882309F485CF9EEFB91AD4
:10189000C818D908F80182859385A485B585880D77
:1018A000991DA11DB11D82879387A487B587D80193
:1018B0001A964D915D916D917C911D97C114D10443
:1018C00009F073CF87C0E114F10409F087CF1696B1
:1018D0004D915D916D917C9119974115510561056F
:1018E000710559F457968D919D910D90BC91A02D45
:1018F0000097A105B10541F521C09E012F5F3F4F23
:101900000E94F723882309F44CCF89819A81AB8107
:10191000BC81F801238D348DF9012789203129F00C
:1019200048EF5FEF6FEF7FE004C048EF5FEF60E0EC
:1019300070E084179507A607B70730F0C8010E942A
:10194000510481114BCF27CFF80186839783A0875D
:10195000B18744CFE114F10429F5D8011A964D91CD
:101960005D916D917C911D9753968D919D910D90F8
:10197000BC91A02D481759076A077B0798F00E9471
:10198000D522882309F407CF409200025092010229
:10199000609202027092030280912105816080931F
:1019A000210508C041E0C301B2010E941023882331
:1019B00009F4F1CED501F701E15DFA4FCF01880DB1
:1019C000991DE817F90719F02D912193FACFA80C6A
:1019D000B91C5ECF53968D919D910D90BC91A02D19
:1019E00084179507A607B70740F4F801438B548B7B
:1019F000658B768B848180688483D80114968C9162
:101A000083FD02C0C10107C0C8010E940C048823E5
:101A100009F4C1CEF7CF0F900F900F900F90DF9188
:101A2000CF911F910F91FF90EF90DF90CF90BF90DB
:101A3000AF909F908F907F906F905F904F903F906E
:101A40002F900895CF93DF931F92CDB7DEB76983B0
:101A500041E050E0BE016F5F7F4F66DE0F90DF9187
:101A6000CF910895CF93DF93EC01898D9A8D0097E4
:101A700039F481E090E09B838A8380E090E00AC0A3
:101A8000FC011382128250DEE98DFA8D22813381AE
:101A9000232B79F7DF91CF910895FC01DB0112969A
:101AA0008D919C911397938382838CE392E0918331
:101AB000808314968C911497848315968C91159736
:101AC000858316964D915D916D917C911997468312
:101AD0005783608771871A964D915D916D917C91C6
:101AE0001D9742875387648775871E964D915D9138
:101AF0006D917C91519746875787608B718B529679
:101B00008C915297828B53964D915D916D917C9102
:101B10005697438B548B658B768B57964D915D9181
:101B20006D917C915A97478B508F618F728F5B9626
:101B30008D919C915C97948F838F0895EF92FF9283
:101B40000F931F93CF93DF93EC017B018A011B82DC
:101B50001A8288EE93E0A0E0B0E08C839D83AE8390
:101B6000BF838CE792E0998388838DE190E00E94A7
:101B700068329A8F898F009779F02DE1F701DC01A7
:101B800001900D922A95E1F74CE050E0B801CE01AA
:101B90000C960E949A34188EDF91CF911F910F916D
:101BA000FF90EF9008951F920F920FB60F9211249D
:101BB0000BB60F922F933F934F935F936F937F9347
:101BC0008F939F93AF93BF93EF93FF93E091520A4C
:101BD000F091530A309709F451C0968DA685B785C8
:101BE000858591FF04C09C91892329F447C09C916D
:101BF000892309F043C0A389B4899C918589809584
:101C000089238C93868997890197F1F7608D718D6F
:101C1000A685B785558538E020E0CB010197F1F71F
:101C2000822F90E095958795282F4C91452309F0B8
:101C30002068315091F7868D81FD209580915B045D
:101C400090E001968F73992730915C04381749F022
:101C5000A0915B04B0E0A55EBB4F2C9380935B0426
:101C600003C0868D8160868F828D938D0197F1F7F9
:101C7000A389B4899C918589892B8C93FF91EF91DD
:101C8000BF91AF919F918F917F916F915F914F9194
:101C90003F912F910F900BBE0F900FBE0F901F9092
:101CA00018951F920F920FB60F9211240BB60F9238
:101CB0002F933F934F935F936F937F938F939F9354
:101CC000AF93BF93EF93FF938091B900887F8036E5
:101CD00009F49CC068F5883209F45BC090F4803147
:101CE00009F454C038F4882309F4F6C0883009F4A4
:101CF0004DC0F6C0883109F44CC0803209F45DC093
:101D0000EFC0803409F468C048F4803309F455C04A
:101D1000883309F0E5C08093DB04D8C0803509F42E
:101D20004FC0883509F45DC0883409F0D9C0D6C0E9
:101D3000883909F4C7C0A8F4883709F467C038F4B3
:101D4000883609F463C0803709F460C0C9C0883898
:101D500009F4B8C0803909F45FC0803809F0C0C008
:101D60005BC0803B09F486C038F4803A09F466C051
:101D7000883A09F47FC0B4C0803C09F4A7C0883C0D
:101D800009F4A4C0883B09F48AC0AAC08091D80491
:101D900010C09091DA048091D904981770F5E09101
:101DA000DA0481E08E0F8093DA04F0E0E954FB4F0F
:101DB00080818093BB0085EC86C08093DB048EC05D
:101DC000E091DA0481E08E0F8093DA048091BB0009
:101DD000F0E0E954FB4F80839091DA048091D904BC
:101DE0006EC0E091DA0481E08E0F8093DA04809176
:101DF000BB00F0E0E954FB4F80838091DC0481114B
:101E00006DC081E08093D70484EA61C083E0809351
:101E1000DD0410921A04CFCF80911A04803208F0AA
:101E200051C0E0911A0481E08E0F80931A048091D2
:101E3000BB00F0E0E650FC4F8083BDCF85EC809383
:101E4000BC001092DD0480911A04803230F4E091DD
:101E50001A04F0E0E650FC4F108260911A0470E022
:101E6000E091F803F091F9038AEF93E0199510924D
:101E70001A0436C084E08093DD041092F7031092B8
:101E8000F603E091F403F091F50319958091F603C0
:101E9000811105C081E08093F6031092D403E09194
:101EA000F70381E08E0F8093F703F0E0EC52FC4FD4
:101EB00080818093BB009091F7038091F60398177F
:101EC00008F479CF85E88093BC000AC085EC809344
:101ED000BC001092DD0404C01092DB040E94510388
:101EE000FF91EF91BF91AF919F918F917F916F91F2
:101EF0005F914F913F912F910F900BBE0F900FBEAE
:101F00000F901F901895FC01E65AFF4F6081718178
:101F1000828193810895FC01648575858685978506
:101F200008950895FC0164817581868197810895E3
:101F30000895DC011696ED91FC91179712968C91FD
:101F4000481B477081E090E001C0880F4A95EAF78E
:101F5000E60FF11D3081222311F0832B02C0809502
:101F600083238083089560E0FC0182810C947D1BB3
:101F7000CF93DF93EC0160E08A810E947D1BFE011C
:101F80003A96C65ADF4F11921192EC17FD07D9F716
:101F9000DF91CF9108958F929F92AF92BF92CF928F
:101FA000DF92EF92FF920F931F93CF93DF93CDB702
:101FB000DEB76B970FB6F894DEBF0FBECDBF8C01B6
:101FC0006AEB72E08BE698E00E94A818D80112969E
:101FD0008C91109215091092130910921009109209
:101FE0000F0980930E090E94D81B4B015C0161E030
:101FF00080910E090E947D1B61E080910E090E9474
:10200000001BFFB6F89480919304811127C0EBE286
:10201000F4E08491E1E7F4E09491E82FF0E0EE0F32
:10202000FF1FE05EFC4FA591B491EC91E92321F4F0
:1020300061E085E30E94001B61E085E30E947D1B57
:102040008CB580618CBD8CB580648CBD61E084E30F
:102050000E947D1B61E083E30E947D1B80919304BD
:102060008F5F80939304FFBE82E5809308091092EE
:10207000090980910809909109090E9446075AE0D0
:10208000F52E8FEF0E940B07FA94F110FACF8AE039
:1020900099E00E94490720E030E0A90160E08AE071
:1020A00099E00E945E07F82E80931409E1E08E17F4
:1020B00049F00E94D81B68197909613D774058F3AF
:1020C00081E056C02AEA31E040E050E068E08AE072
:1020D00099E00E945E0782FF03C0F092150910C0CC
:1020E00044E0F42E0E94120780931409FA94F11030
:1020F000F9CF8A3A11F082E03BC082E08093150963
:1021000080911509823021F0C12CD12C760105C0B7
:10211000C12CD12CE12C30E4F32E20E030E0A901D9
:1021200067E38AE099E00E945E07A701960169E2F1
:102130008AE099E00E945E0780931409882349F0A1
:102140000E94D81B68197909613D774030F388E017
:102150000FC080911509823001F520E030E0A9011F
:102160006AE38AE099E00E945E07882341F086E0F6
:1021700080930F098AE099E00E940007C2C00E9484
:102180001207807C803C19F483E0809315090E943B
:1021900012070E9412070E9412078AE099E00E942B
:1021A000000780E5809308091092090981E00E94E8
:1021B0001726882329F080913909882341F0A1C08E
:1021C00080E00E941726882309F49BC0F4CF8091F9
:1021D0002D09803109F582E08093390910924B096D
:1021E00010924C0910924D0910924E0980912E09BF
:1021F00090912F09A0E0B0E025E0880F991FAA1F59
:10220000BB1F2A95D1F78093470990934809A09363
:102210004909B0934A091FC0803209F072C083E0B7
:102220008093390940913009509131096091320908
:102230007091330940934B0950934C0960934D09B9
:1022400070934E0927E439E086E199E00E947A24F0
:10225000882309F456C086E199E090935009809351
:102260004F0981E08093380910923A0910923B0996
:1022700010923C0910923D0910923E0910923F09BC
:10228000109240091092410910924209109243099C
:1022900010924409109245091092460962ED72E0CD
:1022A0008BE698E06AD7CE01019600D68B819C819F
:1022B000D80119969C938E9318978D819E81AF813A
:1022C000B885F80182879387A487B58789859A8521
:1022D000AB85BC8586879787A08BB18B8DE0FE018F
:1022E0003D96D801529601900D928A95E1F7EA8DBC
:1022F000FB8DD8019096FC93EE935F97309739F45D
:1023000027C064EE72E08BE698E037D721C0858164
:102310008823F1F082859385A485B585892B8A2B46
:102320008B2BB1F460E073E0C801069626D7F80164
:10233000878D90A1009761F00E94EF06D8015F960B
:102340008D919C9190970E94FD32F80110A2178EFA
:102350006B960FB6F894DEBF0FBECDBFDF91CF9165
:102360001F910F91FF90EF90DF90CF90BF90AF90B3
:102370009F908F9008958F929F92AF92BF92CF922D
:10238000DF92EF92FF920F931F93CF93DF93EC01B5
:1023900080918B0481110DC00E94D81B609387042B
:1023A000709388048093890490938A0481E08093D9
:1023B0008B0480917F0481110DC00E94D81B609313
:1023C0007B0470937C0480937D0490937E0481E071
:1023D00080937F040E94D81B009187041091880489
:1023E0002091890430918A04AB01BC01401B510B40
:1023F000620B730B88859985092E000CAA0BBB0B09
:1024000084179507A607B70708F095C000917904CF
:1024100010917A0478018FEFE81AF80AF0927A04A2
:10242000E09279048A810E94B91BF8013596EE0F7B
:10243000FF1FEC0FFD1F91838083E8E2EE16F1048D
:1024400021F410927A04109279042A853B85AC8598
:10245000BD852A173B072CF05A2F4B2FD901252F6A
:10246000342F8E01025F1F4FAE01465A5F4F60E06E
:1024700070E0CB01F801C190D1908F01C216D30654
:1024800054F44901330FAA08BB08680D791D8A1D51
:102490009B1D960115C0AC15BD0554F44D01BB0F35
:1024A000AA08BB08680D791D8A1D9B1DD60108C0AE
:1024B0000D2C000CEE08FF086C0D7D1D8E1D9F1D60
:1024C00004171507B9F626E230E040E050E00E941C
:1024D0003032CA01B9010E94CE2F20E030E040EA3C
:1024E00050E40E942D3020E030E040E85AE30E94A2
:1024F0002D30FE01E25AFF4F608371838283938304
:1025000020E030E040E650E40E942D302C813D81F7
:102510004E815F810E94FB30F8016083718382836A
:1025200093830E94D81B60938704709388048093E0
:10253000890490938A04DF91CF911F910F91FF90AE
:10254000EF90DF90CF90BF90AF909F908F900895C5
:102550004F925F926F927F928F929F92AF92BF92B3
:10256000CF92DF92EF92FF920F931F93CF93DF935F
:10257000EC018091710481110DC00E94D81B609301
:102580006D0470936E0480936F049093700481E0E7
:10259000809371048091650481110DC00E94D81B45
:1025A0006093610470936204809363049093640465
:1025B00081E0809365040E94D81B00916D04109106
:1025C0006E0420916F0430917004601771078207C8
:1025D000930708F4B0C00E94D81BDC01CB014496DD
:1025E000A11DB11D80936D0490936E04A0936F04A0
:1025F000B0937004E0905F04F090600487010F5F77
:102600001F4F1093600400935F048A810E94B91BDE
:10261000F7013896EE0FFF1FEC0FFD1F91838083AB
:102620000431110521F41092600410925F04CC80F3
:10263000DD80EE80FF8020E030E040EF51E4C70114
:10264000B6010E942D3020E030E04AE754E40E94B9
:102650002D304B015C01488959898A899B8948172B
:1026600059072CF0382F292FCA01432F522FFE0172
:102670007496DE01D896412C512C32012191319172
:102680002417350754F4052E000C660B770B440E07
:10269000551E661E771EA90115C08217930754F4B4
:1026A000BC01990F880B990B460E571E681E791EA8
:1026B000C90108C08901330F220B330B400E511E94
:1026C000621E731EEA17FB07C9F6C301B2010E941E
:1026D000CE2F20E030E040E951E40E945F3120E05D
:1026E00030E046E952E40E942D30A70196010E9495
:1026F0002D3020E030E04AE754E40E942D3020E005
:1027000030E040E85AE30E942D309B01AC01C50146
:10271000B4010E94FA3020E030E046E952E40E9421
:102720005F31288539854A855B850E94FA306C8740
:102730007D878E879F87DF91CF911F910F91FF90AB
:10274000EF90DF90CF90BF90AF909F908F907F9051
:102750006F905F904F9008958F929F92AF92BF922B
:10276000CF92DF92EF92FF920F931F93CF93DF935D
:10277000EC010E94D81B8E010C591F4FD801CD903F
:10278000DD90ED90FC90DC01CB018C199D09AE0928
:10279000BF09FE01E059FF4FC080D180E280F38085
:1027A0008C159D05AE05BF0508F45DC00E94D81BC1
:1027B000F80160837183828393836E01FAE5CF0E03
:1027C000D11CD601ED90FC90EE0CFF1CEC0EFD1E12
:1027D00008501109F70122853385F8018081918124
:1027E000A281B381821B930BA109B10980839183DC
:1027F000A283B3838A81BDD7D7011B969C938E9306
:102800001A97F601A081B181FD013596EE0FFF1FE9
:10281000EC0FFD1F20813181F801408151816281DF
:102820007381CB01BA01620F731F811D911D6083FB
:102830007183828393839D012F5F3F4F283231053F
:1028400024F4D6012D933C9303C0F601118210822B
:1028500028E230E040E050E00E940E32FE01E05AF3
:10286000FF4F31832083A4D78E0108591F4FD80111
:10287000CD90DD90ED90FC90DC01CB018C199D0991
:10288000AE09BF09FE01EC58FF4FC080D180E28045
:10289000F3808C159D05AE05BF0508F4C1C088D72F
:1028A000F80160837183828393833897608171819B
:1028B00080E090E00E94CC2F20E030E44CE955E429
:1028C0000E942D3020E030E040E85AE30E942D3095
:1028D0000E94C73106501109D8016D937C938885F9
:1028E0009985DC01ED91FC910480F581E02D19952D
:1028F0006B017C01F80180819181BC0180E090E056
:102900000E94CC2F4B015C0120E030E048EC51E408
:10291000C701B6010E94FA3020E53DE847E95CE3D3
:102920000E942D3020E030E040E85FE30E94FB3061
:102930009B01AC01C501B4010E945F316B017C01B8
:1029400020E030E046E153E40E94C82F87FF05C035
:102950001C821D821E821F8263C020E030E44EE490
:1029600055E4C701B6010E94F33118164CF480E01B
:1029700090E0A0EAB1E48C839D83AE83BF8350C016
:1029800020E030E040EE53E4C701B6010E94C82FBA
:1029900018166CF028E431EE4AED50E4C701B60198
:1029A0000E942D3027ED33EA40E852E416C020E0C3
:1029B00030E246EB54E4C701B6010E94C82F181656
:1029C0007CF029E23CE54FED50E4C701B6010E94DE
:1029D0002D3020E030E04EEF52E40E94FA300EC07D
:1029E0002AE939E949EA50E4C701B6010E942D30CD
:1029F00020E030E64EE055E40E94FB306C837D839E
:102A00008E839F8320E030E04AE754E46C817D812F
:102A10008E819F810E945F316C837D838E839F8333
:102A2000DF91CF911F910F91FF90EF90DF90CF90AA
:102A3000BF90AF909F908F9008952F923F924F92AA
:102A40005F926F927F928F929F92AF92BF92CF923E
:102A5000DF92EF92FF920F931F93CF93DF931F921A
:102A6000CDB7DEB71C01A62EDC01DC96BC90DC974E
:102A7000DB96EC906C01B4E0CB0ED11CDC015996D6
:102A8000ED91FC915A97C6011995F82EF101008538
:102A90001185C8010E94FF21982ED10118968D91B1
:102AA0009C9119970E940222682EB1E09B1203C0EC
:102AB0002FE0922E02C099249A94F101808591858D
:102AC0000E94F721882ED10118968D919C9119971B
:102AD0000E94F321782EF101808591850E94FB21CF
:102AE000F0E6FA1538F4009729F0080F191F91E65F
:102AF000892E13C0D10118968D919C9119970E942F
:102B0000FD21B0E4BA1538F4009729F0080F191F19
:102B100081E4882E02C00F5E1F4F7A1438F4F10151
:102B2000148A178A108E158A168A9EC07814B8F3F4
:102B3000262D30E0F80184918F3F19F40F5F1F4F6D
:102B40005AC08A104FC0D10118968D919C91199747
:102B50000E94FF2198012F5F3F4FF801882311F059
:102B60008230E1F48491D10157968C935797F90103
:102B7000249158962C935897F8013396E4915496E3
:102B8000EC935497F8013496E4915596EC9355974D
:102B9000F8013596E4915696EC9320C08491982FD5
:102BA0009F709250D10156969C93569782958F7044
:102BB00055968C935597F9012491822F8F705896D2
:102BC0008C93589722952F7057962C935797F8010E
:102BD0003296E491E295EF705496EC93011511054D
:102BE00079F442C0F8013296E491E921C9018E0FCF
:102BF000911D080F191F871409F491CF83949ACF60
:102C0000F101808591850E940222D10157963C9165
:102C1000579758962C91589755965C915597B21A9C
:102C200056969C915697B91AFB0C9FEF920F9F0DE9
:102C3000D8964C91D897DA966C916F1518F0941736
:102C400028F402C0941768F09F1558F4E50E9FEF22
:102C5000930F9E0DF10147A951AD5E1538F49417FD
:102C600038F4F10184893FC080E03DC0941710F42E
:102C70009E15B8F7080F111D395F532E56945694C0
:102C800056944F2C420E4101F0E28F0E911C652CA0
:102C9000712CF41431F35E2D58018A2D801B85159B
:102CA000F0F4F5018491D10116966D917C911797FE
:102CB00090965C9390979196FC92919793961C9224
:102CC000939792968C9394014BE3C60159830E948B
:102CD000EF21BFEFAB1ABB0A5981585FDECF060D5B
:102CE000171DF394D6CFD101DB962C91DB97082EDC
:102CF000000C990B820F911DDB968C9381E090E084
:102D00000F90DF91CF911F910F91FF90EF90DF9087
:102D1000CF90BF90AF909F908F907F906F905F907B
:102D20004F903F902F900895FB014181DC01129656
:102D30002C911297421760F013962C911397241739
:102D400038F0608115962C91621710F42481F1C837
:102D50000895FC0180819281980F928321819217BE
:102D600060F494819F5F94839381890F821710F0A0
:102D70008FEF820F838381E0089580E00895CF92E2
:102D8000DF92EF92FF920F931F93CF93DF936C012B
:102D90007A018B01C0E0D0E0CE15DF0589F0D801C3
:102DA0006D918D01D601ED91FC910190F081E02DA6
:102DB000C6011995892B11F47E0102C02196ECCF32
:102DC000C701DF91CF911F910F91FF90EF90DF909E
:102DD000CF9008950F931F93CF93DF93EC018881D9
:102DE0009981009729F02A813B812617370788F4BB
:102DF0008B016F5F7F4F0E949533009761F099833D
:102E000088831B830A832C813D81232B11F4FC01D1
:102E1000108281E001C080E0DF91CF911F910F917E
:102E20000895EF92FF920F931F93CF93DF93EC01DE
:102E30007B018A01BA01CEDF2881398181110DC061
:102E40002115310519F0C9010E94FD32198218823D
:102E50001D821C821B821A8206C01D830C83B7014F
:102E6000C9010E949334CE01DF91CF911F910F9140
:102E7000FF90EF90089581E397E0A9D221E0892B9C
:102E800009F420E0822F08958EEC97E0A0D221E093
:102E9000892B09F420E0822F08958BE698E097D2E1
:102EA00021E0892B09F420E0822F08950F931F93CE
:102EB000CF93DF93CDB7DEB7C755D1090FB6F894DE
:102EC000DEBF0FBECDBF8C0164E379E0CE01019679
:102ED0000E944D0DBE016F5F7F4FCE01CB960E94C9
:102EE0004D0D19A218A28CE392E09F8F8E8F1BA22A
:102EF00021968FAD2197811113C0F80113821282A0
:102F000088EE93E0A0E0B0E084839583A683B78346
:102F10008CE792E091838083128E118E148633C0E9
:102F2000825023E146E453E0823048F464E379E0E0
:102F3000CE014E960E94500981110EC0DECFBE0117
:102F4000655C7F4FCE014E960E9450098823A9F2FE
:102F5000CE01CB960E94EF0649A95AA96BA97CA97C
:102F6000CE014E960E945405BE01625E7F4FCE0197
:102F700001960E944D0D46E453E0BE016F5F7F4F06
:102F8000C8010E949E0DC801C95ADF4F0FB6F894C0
:102F9000DEBF0FBECDBFDF91CF911F910F9108957E
:102FA000FF920F931F93CF93DF938C0140E065E571
:102FB0000E945E22C0E0D5E0FC2E88E0F80E699108
:102FC00040E0C8010E945E22FC12F9CFDF91CF9150
:102FD0001F910F91FF900895CF93DF93C091830AC3
:102FE000D091840A2196BE018FE79AE0F3DE882310
:102FF00099F020917F0A3091800A8091830A909104
:10300000840A61E573E0820F931F0E949334D0938A
:10301000840AC093830A81E0DF91CF9108950F93D2
:103020001F93CF93DF93FC012481358100811181AF
:10303000C091830AD091840A0115110511F480E032
:103040001DC021153105C9F0C20FD31FBE018FE786
:103050009AE0C0DE882399F320917F0A3091800A9C
:103060008091830A9091840AB801820F931F0E9475
:103070009334D093840AC093830A81E0DF91CF9187
:103080001F910F910895CF93DF93EC0161157105A6
:1030900051F0FB0101900020E9F73197AF01461B89
:1030A000570BBFDE0CC088819981009711F00E94F8
:1030B000FD32198218821D821C821B821A82CE0167
:1030C000DF91CF910895FC01808191810C94FD32B4
:1030D0000F931F93CF93DF93CDB7DEB729970FB62A
:1030E000F894DEBF0FBECDBF8C01862FF801118290
:1030F0001082138212821582148250E0BE016F5F2B
:103100007F4F90E00E94302DBE016F5F7F4FC8015E
:10311000BADF29960FB6F894DEBF0FBECDBFDF91A0
:10312000CF911F910F910895FC011182108213829B
:103130001282158214826115710549F0FB0101901C
:103140000020E9F73197AF01461B570B6ACE08956F
:103150006115710579F0FB0101900020E9F73197C5
:10316000AF01461B570BDC01ED91FC910280F3810E
:10317000E02D199480E090E008950F931F93CF9372
:10318000DF93EC01E5DF8C0163E573E0CE01E0DF66
:10319000800F911FDF91CF911F910F9108951F9282
:1031A0000F920FB60F9211240BB60F922F933F93ED
:1031B0004F935F936F937F938F939F93AF93BF933F
:1031C000EF93FF9381E397E093D1FF91EF91BF914C
:1031D000AF919F918F917F916F915F914F913F91AF
:1031E0002F910F900BBE0F900FBE0F901F90189550
:1031F0001F920F920FB60F9211240BB60F922F93BE
:103200003F934F935F936F937F938F939F93AF936E
:10321000BF93EF93FF9381E397E051D1FF91EF913B
:10322000BF91AF919F918F917F916F915F914F91DE
:103230003F912F910F900BBE0F900FBE0F901F90DC
:1032400018951F920F920FB60F9211240BB60F9282
:103250002F933F934F935F936F937F938F939F939E
:10326000AF93BF93EF93FF938EEC97E041D1FF9123
:10327000EF91BF91AF919F918F917F916F915F91EE
:103280004F913F912F910F900BBE0F900FBE0F905B
:103290001F9018951F920F920FB60F9211240BB624
:1032A0000F922F933F934F935F936F937F938F93DF
:1032B0009F93AF93BF93EF93FF938EEC97E0FFD074
:1032C000FF91EF91BF91AF919F918F917F916F91FE
:1032D0005F914F913F912F910F900BBE0F900FBEBA
:1032E0000F901F9018951F920F920FB60F921124F6
:1032F0000BB60F922F933F934F935F936F937F93F0
:103300008F939F93AF93BF93EF93FF938BE698E0D8
:10331000EFD0FF91EF91BF91AF919F918F917F91EE
:103320006F915F914F913F912F910F900BBE0F9036
:103330000FBE0F901F9018951F920F920FB60F920D
:1033400011240BB60F922F933F934F935F936F937C
:103350007F938F939F93AF93BF93EF93FF938BE6EE
:1033600098E0ADD0FF91EF91BF91AF919F918F9178
:103370007F916F915F914F913F912F910F900BBE75
:103380000F900FBE0F901F901895FC01918D828DAC
:10339000981761F0828DDF01A80FB11D5D968C91A9
:1033A000928D9F5F9F73928F90E008958FEF9FEFB4
:1033B0000895FC01918D828D981731F0828DE80F70
:1033C000F11D858D90E008958FEF9FEF0895FC012A
:1033D000918D228D892F90E0805C9F4F821B9109F7
:1033E0008F739927089580E090E0892B19F055DDBF
:1033F00081111BC080E090E0892B19F045DD81111F
:1034000017C080E090E0892B19F035DD811113C0E1
:1034100080E090E0892BA1F080E090E0892B81F0A2
:103420000E94000081110AC008950E940000E2CFAE
:103430000E940000E6CF0E940000EACF0C9400003A
:103440000895FC01648175818681978108950895AE
:1034500060E070E0CB0108950E9479340F931F93D0
:10346000CF93DF93CDB7DEB7A7970FB6F894DEBF43
:103470000FBECDBFCB01BA011BA21AA21DA21CA276
:103480001FA21EA28E010F5F1F4F2AE04CE00E9478
:10349000112DBC01CE018296F6DDCE018296BFDDF4
:1034A000CE01829610DE98DDA7960FB6F894DEBFA7
:1034B0000FBECDBFDF91CF911F910F910895FC01F9
:1034C000A089B1898C91A689B78982FD0FC09C9192
:1034D000818D8F5F8F73228D821749F0218DDF01DF
:1034E000A20FB11D5D969C93818F08958C910895D4
:1034F000FC01848DDF01A80FB11DA35ABF4F2C9191
:10350000848D90E001968F739927848FA689B7895F
:103510002C93A089B1898C9180648C93938D848D38
:10352000981306C00288F389E02D80818F7D808307
:103530000895EF92FF920F931F93CF93DF93EC01C7
:1035400081E0888F9B8D8C8D981305C0E889F9895F
:10355000808185FD23C0F62E0B8D10E00F5F1F4F7D
:103560000F731127E02E8C8DE8120BC00FB607FCED
:10357000FACFE889F989808185FFF5CFCE01B8DFE0
:10358000F2CF8B8DFE01E80FF11DE35AFF4FF08261
:103590000B8FEA89FB898081806207C0EE89FF89F1
:1035A0006083E889F98980818064808381E090E08C
:1035B000DF91CF911F910F91FF90EF900895CF93DE
:1035C000DF93EC01888D8823C1F0EA89FB89808133
:1035D00085FD05C0A889B9898C9186FD0EC00FB6FE
:1035E00007FCF5CF808185FFF2CFA889B9898C913E
:1035F00085FFEDCFCE017CDFE8CFDF91CF9108953D
:10360000362F90E0FC01E65CFC4F4491FC01E45C49
:10361000FB4F2491FC01EA50FC4F9491992309F44B
:103620006BC0442309F455C050E0FA013197E231F0
:10363000F10508F04EC08827EE58FF4F8F4F0C94CD
:103640004C32809180008F7707C0809180008F7D01
:1036500003C080918000877F809380003AC084B54A
:103660008F7702C084B58F7D84BD33C08091B00058
:103670008F7703C08091B0008F7D8093B00029C008
:10368000809190008F7707C0809190008F7D03C05C
:1036900080919000877F809390001BC08091A00054
:1036A0008F7707C08091A0008F7D03C08091A0001C
:1036B000877F8093A0000DC0809120018F7707C085
:1036C000809120018F7D03C080912001877F8093AE
:1036D0002001E92FF0E0EE0FFF1FEE53FC4FA59104
:1036E000B4918FB7F894EC91311103C020952E233B
:1036F00001C02E2B2C938FBF0895CF93DF9390E0C2
:10370000FC01E45CFB4F2491FC01EA50FC4F8491E6
:10371000882361F190E0880F991FFC01E05EFC4F67
:10372000C591D491FC01EE53FC4FA591B491611168
:1037300009C09FB7F8948881209582238883EC91F3
:103740002E230BC0623061F49FB7F8943881822F2A
:10375000809583238883EC912E2B2C939FBF06C0EA
:103760008FB7F894E8812E2B28838FBFDF91CF91FC
:103770000895863308F0865390917B00282F287097
:10378000977F922B90937B008770806480937C005E
:1037900080917A00806480937A0080917A0086FD1F
:1037A000FCCF809178002091790090E0922B0895D1
:1037B0002FB7F89460911D0570911E0580911F052B
:1037C000909120052FBF08958F929F92AF92BF9244
:1037D000CF92DF92EF92FF920F931F93CF93DF93DD
:1037E0001F92CDB7DEB78C01E3DFD8011E96CD90D6
:1037F000DD90ED90FC905197DC01CB018C199D0977
:10380000AE09BF09F801C284D384E484F5848C1521
:103810009D05AE05BF0508F457C1CADFD8011E9645
:103820006D937D938D939C93519718968D919C9158
:10383000199785D6F80180859185B2DB40E06EEB63
:10384000D80118968D919C91199738D62CE0822E2C
:1038500025E0922EF801A084B18498E0C92ED12CE5
:10386000EE24E394F12CC501D6D58111FE28EE0C8F
:10387000F1E0CF1AD108B9F7D401FD924D01B5E1BD
:103880008B16B5E09B0631F7D8011896ED91FC91A7
:103890001997138615861486DF011B9633961E92A0
:1038A000AE17BF07E1F760910D0570E0762F662730
:1038B00080910C05682B072E000C880B990B0E9439
:1038C000CE2F20E030E040E85DE30E942D30609391
:1038D00008057093090580930A0590930B05F8017C
:1038E0006483758386839783A084B184D5011D96F4
:1038F0008C91811162C0C50122D6811105C0F501EC
:103900001386158614866AC040E060EFC501D6D5DF
:10391000EE24E394D12CC12CFF24F394C5017BD574
:10392000682FC501698377D56981613019F48130C9
:10393000D1F436C02D2D30E068131EC0D5011B9682
:103940008C91F81638F4F501E20FF31F83818E2174
:1039500051F402C0F81639F060E0B8E0BF1558F035
:10396000F501F48608C0F501ED0DF11D83818E2966
:10397000838361E009C0CF2CF501E20FF31F93812F
:103980008E2D809589238383C50169D5F394EE0C30
:1039900019F4D394EE24E394F7E0FD1508F0BECFBC
:1039A00080E48F1550F4D5011B96CC921B97C11063
:1039B00083C081E01D968C937FC0F5011386158628
:1039C000148680E0D5011396E0E0F5E09D91919397
:1039D00095E0E830F907D1F7811115C063E773E08E
:1039E0008BE698E0CADBD8011896ED91FC91199707
:1039F000138615861486DF011B9633961E92AE172A
:103A0000BF07E1F761C0A0E0B5E0E0E0CD01895F6C
:103A10008A1739F09D91E927F0E0E05EFD4FE491CF
:103A2000F7CF80910705E81791F06BE973E08BE61B
:103A300098E00F90DF91CF911F910F91FF90EF9041
:103A4000DF90CF90BF90AF909F908F9096CB80915A
:103A500000058031A1F0883291F06DEA73E08BE6C9
:103A600098E00F90DF91CF911F910F91FF90EF9011
:103A7000DF90CF90BF90AF909F908F9069CBF8016F
:103A8000808591855CD5D80118968D919C91199768
:103A900087DA41E064E4F801808591850F90DF9139
:103AA000CF911F910F91FF90EF90DF90CF90BF903B
:103AB000AF909F908F9002C5D50113968C9188236B
:103AC00009F47BCF81E07ECF0F90DF91CF911F91E2
:103AD0000F91FF90EF90DF90CF90BF90AF909F90AD
:103AE0008F900895CF92DF92EF92FF920F931F93E2
:103AF000CF93DF93CDB7DEB7A1970FB6F894DEBFB3
:103B00000FBECDBF8C0154DED8019196CD90DD90D3
:103B1000ED90FC909497DC01CB018C199D09AE09C6
:103B2000BF09813D9740A105B10508F43AC165E59B
:103B300073E08FE79AE0A7DA8091310A9091320A18
:103B40001D8E1C8E1F8E1E8E19A218A24AE0BE0169
:103B50006F5F7F4F0E943A2DBE016F5F7F4FCE0196
:103B60004C9691DACE014C965ADACE014C96ABDAED
:103B700033DA4AE06091330ACE010196A9DACE0128
:103B800001964DDACE0101969EDA26DA4AE060917E
:103B9000340ACE0101969CDACE01019640DACE01BC
:103BA000019691DA19DA4AE06091360ACE0101965F
:103BB0008FDACE01019633DACE01019684DA0CDA7F
:103BC0004AE06091370ACE01019682DACE01019671
:103BD00026DACE01019677DAFFD94AE06091380AF9
:103BE000CE01019675DACE01019619DACE01019661
:103BF0006ADAF2D9D8011496ED91FC91159780817B
:103C00009181009751F0DC01ED91FC910480F581E8
:103C1000E02D1995AB01BC0103C040E050E0BA01B2
:103C2000C8011CDCD8011496ED91FC911597828196
:103C30009381009751F0DC01ED91FC910480F581B6
:103C4000E02D1995AB01BC0103C040E050E0BA0182
:103C5000C80104DCD8011496ED91FC91159784817C
:103C60009581009751F0DC01ED91FC910480F58184
:103C7000E02D1995AB01BC0103C040E050E0BA0152
:103C8000C801ECDBD8011496ED91FC911597868163
:103C90009781009751F0DC01ED91FC910480F58152
:103CA000E02D1995AB01BC0103C040E050E0BA0122
:103CB000C801D4DBD8011496ED91FC91159780854D
:103CC0009185009751F0DC01ED91FC910480F58124
:103CD000E02D1995AB01BC0103C040E050E0BA01F2
:103CE000C801BCDBCE010196E1D88B819C81F80133
:103CF000918780878D819E81AF81B88582879387E8
:103D0000A487B58789859A85AB85BC858687978783
:103D1000A08BB18B8DE0FE013D96D80152960190AB
:103D20000D928A95E1F7EA8DFB8DD8019096FC9370
:103D3000EE935F97309769F18581882351F116964C
:103D4000ED91FC9117974091830A5091840A6091FC
:103D50007F0A7091800A0280F381E02D7801B6E03D
:103D6000EB0EF11CC701199563E573E0C701F0D9AB
:103D7000F801878D90A1009761F00E94EF06D801AD
:103D80005F968D919C9190970E94FD32F80110A250
:103D9000178E0EDDD80191966D937D938D939C9334
:103DA0009497A1960FB6F894DEBF0FBECDBFDF91FA
:103DB000CF911F910F91FF90EF90DF90CF900895DA
:103DC0001F920F920FB60F9211242F933F938F9350
:103DD0009F93AF93BF9380911D0590911E05A09175
:103DE0001F05B091200530911C0523E0230F2D37CE
:103DF00020F40196A11DB11D05C026E8230F0296EF
:103E0000A11DB11D20931C0580931D0590931E05D7
:103E1000A0931F05B0932005809118059091190576
:103E2000A0911A05B0911B050196A11DB11D8093AB
:103E3000180590931905A0931A05B0931B05BF911F
:103E4000AF919F918F913F912F910F900FBE0F9047
:103E50001F901895FC011282808181508383148207
:103E6000089580E00895FC01E60FF11D849190E033
:103E7000982F88273196E4918E0F911D08952EE991
:103E80003FE0009729F0F9013197F1F70197F9CF59
:103E9000089550912A056091270540912905309198
:103EA0002805A0912D05B0912E05E0912B05F091EC
:103EB0002C059FB790932605F89498E02C9187FFE6
:103EC00002C0252B01C026232C932081242B208384
:103ED000880F208123232083915081F7809126052C
:103EE0008FBF0895DB011496ED91FC91159720E0AA
:103EF00030E065E01994DB011496ED91FC91159783
:103F000020E030E062E01994DB011496ED91FC9121
:103F1000159720E030E063E01994CF92DF92EF92A2
:103F2000FF920F931F93CF93DF938C017B016A0164
:103F300080E0F601C49181110AC0CF3F09F447C067
:103F40004C2FB701C801CEDF81113FC045C0CF3F24
:103F500011F44FEFF6CFCE3F09F440C0C03FA8F5B3
:103F6000C03E30F04C2F4F70B701C801C4DF2DC0E8
:103F7000C03D30F04C2F4F70B701C801C5DF25C0E0
:103F8000C03CF0F0D7011496ED91FC91159720E01C
:103F900030E040E064E0C8011995C295C07FCE5F73
:103FA000D0E0CE016CDFD7011496ED91FC9115970E
:103FB00020E030E041E064E0C8011995CE0104C082
:103FC000C7FD03C08C2F90E05ADF80E001C081E084
:103FD000BFEFCB1ADB0AADCF80E001C081E0DF91FB
:103FE000CF911F910F91FF90EF90DF90CF900895A8
:103FF0008F929F92AF92BF92CF92DF92FF920F93D8
:104000001F93CF93DF931F921F92CDB7DEB76C0142
:104010008B01F42E490120E1421709F45FC02417F7
:10402000E8F03AE0431711F18FE0481360C041E037
:10403000C6016ADF40E0B801C6015DDF41E8B801B2
:10404000C60150DFF401408146954695B801C6018E
:1040500049DF40E0B801C60157DF01C1A1E14A17BD
:1040600009F43FC0B5E14B1789F041C0DB0114965C
:10407000ED91FC91159720E030E043E061E0199567
:1040800040EA53E0B801C60148DF31C0FB01A2801D
:10409000B38048E953E041DFD50114964C91406B61
:1040A000B801C6011FDF41E0B801C60124DFF501F8
:1040B00026813781D8011496ED91FC911597D50191
:1040C00015964C9166E0C6011995811102C080E0F9
:1040D000C7C040E0B801C60117DF09C04CE853E093
:1040E00002C040E853E0B801C60117DFB8C0D801EC
:1040F00012960D911C911397B2E3FB1609F474C04C
:10410000BF15B8F0E5E1FE1609F47AC0F7E1FF1635
:1041100009F48CC024E1F212A2C0D8011696ED91E8
:10412000FC91179715968C919F01280F311DC9019D
:1041300060C036E4F31609F489C087E4F81609F480
:1041400089C0ABE3FA128BC0F40181819381913075
:1041500029F0933031F4482F885004C048E0480FCC
:1041600001C0482F21E0D80113963C91381708F47C
:1041700020E031E0F8015281451708F430E051E0C9
:10418000481708F050E0822F852B382319F4252397
:1041900009F465C0D4011296FC90913051F030F0D2
:1041A000923049F0933051F42FEF09C020E031E014
:1041B00007C021E004C020E03FEF02C020E030E073
:1041C000F7FE08C0B401C8012A8339830E949416FF
:1041D00039812A81F4018081830F80838181820F5C
:1041E0008183FF0C69F73BC0B401C8010E9494169B
:1041F00036C01192E817F907E1F7C8012BDE2FC08E
:10420000C8010E94A916882309F461CFD801169627
:10421000ED91FC91179715968C919F01280F311DF8
:10422000C9011192E817F907E1F719C0D4011C92EE
:10423000F801828111968C93119785818150129695
:104240008C931297838113968C9309C0D80115968D
:104250008C9103C0D80111968C91F401808381E088
:104260000F900F90DF91CF911F910F91FF90DF90F2
:10427000CF90BF90AF909F908F900895860F911D23
:10428000FC0183A18F3F11F0642FBAC90895CF922A
:10429000DF92EF92FF920F931F93CF93DF931F92C2
:1042A000CDB7DEB76C018901862F90E0FC01319714
:1042B000E730F10508F088C08827EC57FF4F8F4F93
:1042C0000C944C3286010D5D1F4F760180E3E80EA1
:1042D000F11CF80180818F3F31F061E00EDA61E07E
:1042E000F80180818DD90F5F1F4F0E151F0589F7CB
:1042F00040E064E0C601C2DF40E065E0C601BEDF29
:10430000F60147A120A530E0F901EA50FC4FE49105
:10431000F0E0EE0FFF1FEE53FC4F859194919093C8
:104320002E0580932D0550E0FA01EA50FC4F849150
:10433000E82FF0E0EE0FFF1FEE53FC4F85919491B4
:1043400090932C0580932B05F901E45CFB4F24919D
:1043500020932A05FA01E45CFB4FE491E0932905E0
:10436000E095E0932805E22FE095E09327052CC027
:10437000F60183A18F3F41F160E024C0411102C0EA
:1043800041E005C040E064E0C60178DF40E062E063
:1043900019C0842F7EDD18C04423B1F0F80181914B
:1043A0008F01498376DD49814150F6CF442361F086
:1043B000F801849149836DDD0F5F1F4F49814150A2
:1043C000F5CF61E0C6015ADF81E00F90DF91CF9118
:1043D0001F910F91FF90EF90DF90CF900895DB0138
:1043E000ED91FC9119940B96FC01849108950A9625
:1043F000FC018491089568E036CD66E034CDFC017F
:1044000084910895FCDF882321F0823011F083E04D
:10441000089586E00895FC0190810180F281E02DED
:10442000F8948181892B81832281892F809528238B
:104430002283A7E0B0E01197F1F7218182238183E5
:10444000A3E2B0E01197F1F780817894EFECF0E00F
:104450003197F1F7982381E009F480E00895FC0199
:1044600090810180F281E02D892F809560FF12C03C
:10447000F8942281822382838181892B8183A3E224
:10448000B0E01197F1F78281982B9283789487EDB1
:1044900090E011C0F8942281822382838181892B4C
:1044A0008183AFEFB0E01197F1F78281982B92836F
:1044B00078948FE090E00197F1F70895CF92DF9222
:1044C000EF92FF920F931F93CF93DF931F92CDB77D
:1044D000DEB76C01E62E08E010E0FF24F39461E003
:1044E0008F2D8E2109F460E0C6014983B8DFFF0CEF
:1044F0000150110949810115110589F7411115C0B4
:10450000F894D6011196ED91FC91129791818C91BE
:104510008095892381831196ED91FC911297928168
:104520008C9180958923828378940F90DF91CF912D
:104530001F910F91FF90EF90DF90CF900895FC01B5
:1045400090810180F281E02DF8948181292F2095BE
:104550008223818378948DE743E050E0815021F1FC
:10456000DA011197F1F730813923C1F3F894828190
:10457000822382838181892B81837894ABE7B7E0A2
:104580001197F1F7F894818128232183A3E1B1E009
:104590001197F1F78081982381E009F080E0789409
:1045A000E3E6F6E03197F1F708958091210588233D
:1045B000A9F14091000250910102609102027091B4
:1045C00003022FE235E080912F07909130070E947F
:1045D000350B811102C080E0089540912205509171
:1045E000230560912405709125054115510561054C
:1045F000710591F02FE235E080912F0790913007FF
:104600000E94350B882339F310922205109223055E
:1046100010922405109225051092210581E008953D
:104620008F929F92AF92BF92EF92FF920F931F9340
:10463000CF934B015C01C42F809100029091010245
:10464000A0910202B091030288159905AA05BB0545
:10465000F9F0ABDF811102C080E020C08FE2E82ECC
:1046600085E0F82E00E012E020E030E0B501A40182
:1046700080912F07909130070E94B907882361F33A
:104680008092000290920102A0920202B092030274
:1046900080912105C82BC093210581E0CF911F9106
:1046A0000F91FF90EF90BF90AF909F908F900895E3
:1046B0004F925F926F927F928F929F92AF92BF9232
:1046C000CF92DF92EF92FF920F931F93CF93DF93DE
:1046D000EC016A017B012801390142305105610575
:1046E000710510F480E072C089859A85AB85BC8520
:1046F0000196A11DB11D84179507A607B70790F372
:104700008B889C88AD88BE888F89803129F4BB272F
:10471000AF2D9E2D8D2D09C0DB01CA0147E0B69556
:10472000A795979587954A95D1F7880E991EAA1E49
:10473000BB1E8091000290910102A0910202B091F3
:10474000030288169906AA06BB0679F48F89803180
:1047500099F4DD24EE24FF24C601880F991FFC0183
:10476000E15DFA4F5182408218C040E0C501B401BA
:1047700057DF8111EBCFB6CFE894C7F8DD24EE24E4
:10478000FF24C601880F991F880F991FFC01E15D66
:10479000FA4F40825182628273828091210581604A
:1047A000809321058A89823080F08D819E81AF813E
:1047B000B885880E991EAA1EBB1E80922205909273
:1047C0002305A0922405B092250581E0DF91CF91C9
:1047D0001F910F91FF90EF90DF90CF90BF90AF901F
:1047E0009F908F907F906F905F904F9008958F92E1
:1047F0009F92AF92BF92CF92DF92EF92FF920F9370
:104800001F93CF93DF93FC0181859285A385B485A7
:104810000196A11DB11D84179507A607B70710F4CF
:1048200080E05BC083899489A589B689C789C03136
:1048300029F4852E962EA72EBB2409C04A015B01C0
:10484000C7E0B694A79497948794CA95D1F7E901E5
:104850006A017B018F01BC01CD01680D791D8A1DA4
:104860009B1D8090000290900102A0900202B090E7
:104870000302681579058A059B0599F4F801878973
:104880008031A1F4B701A601552766277727440F89
:10489000551FFA01E15DFA4F80819181A0E0B0E0FF
:1048A00017C040E0BDDE8111E9CFBACFB701A60144
:1048B0004F77552766277727440F551F440F551FFD
:1048C000FA01E15DFA4F80819181A281B381BF70CD
:1048D00088839983AA83BB8381E0DF91CF911F9165
:1048E0000F91FF90EF90DF90CF90BF90AF909F908F
:1048F0008F9008954F925F926F927F92AF92BF9286
:10490000CF92DF92EF92FF920F931F93CF93DF939B
:1049100000D01F92CDB7DEB78C0149835A836B83D9
:104920007C835901C12CD12C7601412C82E0582E78
:10493000612C712C49815A816B817C819E012F5F92
:104940003F4FC80154DF882351F1D301C201F80160
:10495000058404C0880F991FAA1FBB1F0A94D2F7B1
:10496000C80ED91EEA1EFB1E49815A816B817C81CB
:104970008789803129F088EF9FEFAFEFBFE004C057
:1049800088EF9FEFA0E0B0E0481759076A077B0760
:1049900088F2F501C082D182E282F38281E00F9039
:1049A0000F900F900F90DF91CF911F910F91FF907B
:1049B000EF90DF90CF90BF90AF907F906F905F901F
:1049C0004F9008958F929F92AF92BF920F931F9333
:1049D000CF93DF93CDB7DEB7A1970FB6F894DEBFC4
:1049E0000FBECDBF19A2423008F44AE08E010F5D20
:1049F0001F4F842E912CA12CB12CA50194010E9453
:104A00000E32E62FB901CA0101501109EA3014F43F
:104A1000E05D01C0E95CD801EC93232B242B252B0E
:104A200061F7B8018BE698E00E94A818A1960FB62E
:104A3000F894DEBF0FBECDBFDF91CF911F910F91D4
:104A4000BF90AF909F908F9008954F925F926F921A
:104A50007F928F929F92AF92BF92CF92DF92EF920E
:104A6000FF926B017C01B42E9B01AC010E94F731D7
:104A7000882319F067EC73E027C026013701E8941A
:104A800077F82FEF3FEF4FE75FE7C301B2010E94D6
:104A9000F73181110DC02FEF3FEF4FE75FE7C30103
:104AA000B2010E94C82F18161CF46BEC73E00CC006
:104AB0002FEF3FEF4FE75FE4C701B6010E94F331EC
:104AC000181694F46FEC73E08BE698E0FF90EF908B
:104AD000DF90CF90BF90AF909F908F907F906F901E
:104AE0005F904F900C94A8182FEF3FEF4FE75FECCB
:104AF000C701B6010E94C82F87FDE4CF20E030E057
:104B0000A901C701B6010E94C82F87FF11C0E0911B
:104B10006B08F0916C080190F081E02D6DE28BE65E
:104B200098E019954C01F7FAF094F7F8F09402C068
:104B3000812C912CA12C60E070E080E09FE3AB140D
:104B400041F020E030E040E251E40E945F31A39464
:104B5000F6CF9B01AC01C701B6010E94FB302B01CF
:104B60003C010E94C7316B017C010E94CC2F9B014C
:104B7000AC01C301B2010E94FA302B013C014AE0B2
:104B8000C701B6011FDF7C01E80CF91CBB2069F0EE
:104B9000E0916B08F0916C080190F081E02D6EE2DD
:104BA0008BE698E01995E80EF91EDB2CDD2019F153
:104BB00020E030E040E251E4C301B2010E942D3018
:104BC0002B013C010E94C7314B01A12CB12C4AE0C2
:104BD000C501B401F7DEE80EF91EC501B4010E945B
:104BE000CC2F9B01AC01C301B2010E94FA302B0112
:104BF0003C01DA94DBCFC701FF90EF90DF90CF90BC
:104C0000BF90AF909F908F907F906F905F904F90EC
:104C10000895880F991FFC01E35EF54F8081918113
:104C2000DC01ED91FC910480F581E02D19948F92C7
:104C30009F92AF92BF92CF92DF92EF92FF92CF936B
:104C4000DF93C82F8AE099E09093300780932F0775
:104C5000CC2361F1C53010F080E00BC140E060E092
:104C600070E0CB01DDDC8823B9F320E1C29FC001F5
:104C70001124815E9A4FFC01E254FE4F20812F7770
:104C800059F73C96408151816281738144365105C8
:104C90006105710508F33497C080D180E280F3800C
:104CA000C114D104E104F10421F4D6CFC12CD12CDC
:104CB000760140E0C701B601B3DC882369F2809138
:104CC0003A0590913B058115924031F6A0913F0540
:104CD000AA2309F4C1CF60913D0570913E0561158D
:104CE000710509F4B9CF20913C05222309F4B4CF12
:104CF000A093280920931A0980E030E0E1E0F0E079
:104D0000C82FAF01082E02C0440F551F0A94E2F7C6
:104D10002417350741F0982F8F5F983089F789E085
:104D20008093230999CF80932309209145053091E1
:104D300046052115310519F040E050E008C02091EA
:104D400053053091540540915505509156052093D7
:104D50001B0930931C0940931D0950931E094601FD
:104D60005701860E971EA11CB11C809229099092B2
:104D70002A09A0922B09B0922C09E0914005F091EC
:104D80004105F0932F09E0932E09B0E00E94E13035
:104D9000860E971EA81EB91E809230099092310986
:104DA000A0923209B092330985E0EE0FFF1F8A9579
:104DB000E1F7E150FE4FEF2FFF27E6958E0E9F1E85
:104DC000A11CB11C8092240990922509A092260969
:104DD000B0922709209142053091430521153105F4
:104DE00021F0A90160E070E008C040914F055091AA
:104DF00050056091510570915205D701C60188197F
:104E00009909AA09BB09840F951FA61FB71F04C0E3
:104E1000B695A79597958795CA95D2F780931F0960
:104E200090932009A0932109B0932209853F2FE098
:104E30009207A105B10510F48CE018C0853F9F4F83
:104E4000A105B10510F480E111C080915B0590913E
:104E50005C05A0915D05B0915E058093300990934B
:104E60003109A0933209B093330980E280932D0970
:104E700081E0DF91CF91FF90EF90DF90CF90BF90D6
:104E8000AF909F908F900895789484B5826084BD90
:104E900084B5816084BD85B5826085BD85B581603E
:104EA00085BD80916E00816080936E0010928100BC
:104EB0008091810082608093810080918100816077
:104EC0008093810080918000816080938000809138
:104ED000B10084608093B1008091B00081608093C4
:104EE000B000809191008260809391008091910048
:104EF0008160809391008091900081608093900008
:104F00008091A10082608093A1008091A1008160C6
:104F10008093A1008091A00081608093A000809187
:104F20002101826080932101809121018160809321
:104F300021018091200181608093200180917A007D
:104F4000846080937A0080917A00826080937A00F6
:104F500080917A00816080937A0080917A008068E5
:104F600080937A001092C100E0917B08F0917C0858
:104F700082E08083E0917708F09178081082E091D8
:104F80007908F0917A088FEC808310928308E09181
:104F90007F08F091800886E08083E0917D08F091A1
:104FA0007E08808180618083E0917D08F0917E0899
:104FB000808188608083E0917D08F0917E08808107
:104FC00080688083E0917D08F0917E0880818F7DEC
:104FD00080831092DF041092DE04109295041092E8
:104FE000B6041092DD0481E08093DC041092D704B3
:104FF00061E084E10E94001B61E085E10E94001BEA
:105000008091B9008E7F8093B9008091B9008D7F27
:105010008093B90088E48093B80085E48093BC0055
:10502000CDE1DAE089919991009739F0DC01ED91B9
:10503000FC910190F081E02D1995BAE0C133DB07B6
:1050400089F7D1E0DD24DA9426E0A22E07EB14E004
:1050500030EEE32E34E0F32E42E0942E55EEC52ED2
:1050600065ECB62E0E94D81B4090400A5090410A31
:105070006090420A7090430ADC01CB0184199509C3
:10508000A609B709893E9340A105B10508F4F0C00F
:105090000E94D81B6093400A7093410A8093420A91
:1050A0009093430A8091DD048111FCCFD093DD04FD
:1050B000D093DC04D092DB041092DA04A092D904DD
:1050C000D093D8048091D80484668093D8048091CA
:1050D000D704813069F41092D7048091D80480936A
:1050E000BB008091BC0083FDF8CFB092BC0002C031
:1050F000C092BC008091DD048130E1F38091DA043C
:10510000873018F48090DA0402C097E0892EE0EE30
:10511000F4E0A7EBB4E08E2F8E19881518F48D916A
:105120008193F9CF1092DF048092DE04C0E0809179
:10513000DF04881671F0772473947C0E83E599E080
:105140000E949303EC2FF0E0EF5CF54F8087C72DB2
:10515000EECF8091B604813208F040C09091DD041A
:105160009111FCCF9092DD04D093DC04D092DB044B
:105170001092DA048093D904A6E9B4E0E7EBF4E0F6
:105180009E2F901B981718F49D919193F9CF109230
:10519000D8048091D8048093D8048091D7048130BA
:1051A00069F41092D7048091D8048093BB00809159
:1051B000BC0083FDF8CFB092BC0002C0C092BC001E
:1051C0008091DD048230E1F38091DB048F3F31F088
:1051D0008091DB04803211F08091DB041092950401
:1051E0001092B60410929404E9E3FAE090E0923051
:1051F00059F08081282F22952F708F703AE0239FDD
:10520000800D112480830FC080913B0A282F2695A2
:10521000269526952E70322F330F330F230F8F7064
:10522000820F80933B0A9F5F3196973001F7809100
:105230003F0A90E08053984F9093320A8093310A4E
:1052400080913E0A8093330A80913D0A8093340A0C
:1052500080913C0A8093350A80913B0A8093360AFC
:1052600080913A0A8093370A8091390A8093380AEC
:105270008DE1682E8AE0782ED3018D919D913D01BC
:10528000009739F0DC01ED91FC910280F381E02D73
:105290001995B1E36B16BAE07B0671F766E573E02A
:1052A0008BE698E00E94A81880E090E0B2DC42E033
:1052B000CCDB6BE573E08BE698E00E94A81881E0F8
:1052C00090E0A7DC42E0C1DB64E673E08BE698E0A7
:1052D0000E94A81883E090E09CDC42E0B6DB6BE61D
:1052E00073E08BE698E00E94A81884E090E091DCDF
:1052F00042E0ABDB63E573E08BE698E00E94A81820
:105300000E94F319AFCE0F931F93CF93DF931F9299
:10531000CDB7DEB7109234071092330748EE53E052
:1053200060E070E04093350750933607609337078D
:10533000709338078CE192E09093320780933107A5
:1053400025ED30E030933E0720933D0724ED30E01B
:105350003093400720933F0720ED30E03093420721
:105360002093410721ED30E0309344072093430719
:1053700022ED30E0309346072093450726ED30E0DC
:10538000309348072093470710924A0710924B0723
:1053900010924C0710924D071092D1071092D0072F
:1053A0004093D2075093D3076093D4077093D507E7
:1053B0009093CF078093CE072DEC30E03093DB073E
:1053C0002093DA072CEC30E03093DD072093DC07E4
:1053D00028EC30E03093DF072093DE0729EC30E043
:1053E0003093E1072093E0072AEC30E03093E307A5
:1053F0002093E2072EEC30E03093E5072093E4079A
:105400001092E7071092E8071092E9071092EA0756
:1054100010926E0810926D0840936F0850937008B8
:10542000609371087093720890936C0880936B0876
:1054300085EC90E0909378088093770884EC90E076
:1054400090937A088093790880EC90E090937C08A0
:1054500080937B0881EC90E090937E0880937D0898
:1054600082EC90E09093800880937F0886EC90E037
:105470009093820880938108109284081092850886
:10548000109286081092870865E573E08FE79AE02E
:105490000E9494181092E2091092E1098CE292E0C5
:1054A0009093E0098093DF0910921A0A10921B0A68
:1054B00010921C0A1092E8091092E7091092EA096A
:1054C0001092E9091092EC0981E08093EB0982E2E5
:1054D0008093ED091092F2091092F109E6E0FAE0EA
:1054E0009FEF8EE08E0F91938E13FDCF81E080931E
:1054F000030A21E33FE13093F9092093F8098093EF
:10550000FA091092FB091092FC0980E48093FD09CE
:105510001092FE0988E99FE09093150A8093140A7F
:105520008CE092E09093E6098093E5098DE080930A
:105530000A0A8BE080930B0A8AE08093080A89E0CC
:105540008093070A88E08093060A20E030E04AE072
:105550006CE072E083EE99E00E94EF21182FE09159
:10556000140AF091150A83E01995E091140AF0915C
:10557000150A80E019951123B1F16091E509709148
:10558000E6099E012F5F3F4F46E483EE99E00E94BB
:10559000EF2189818093E3096091E5097091E60923
:1055A0009E012F5F3F4F47E483EE99E00E94EF2179
:1055B00089818093E4096091E5097091E60920E012
:1055C00030E048E483EE99E00E94EF218093EE09F9
:1055D0006091E5097091E60926E13AE047E183EE42
:1055E00099E00E94EF2184E392E09093E009809398
:1055F000DF091092630A1092620A88EE93E0A0E03D
:10560000B0E08093640A9093650AA093660AB09311
:10561000670A8EEA92E09093610A8093600A109282
:10562000770A1092760A1092790A1092780A1092EC
:105630007B0A10927A0A10927D0A10927C0A60917D
:105640007E0A6E7F6D7F60937E0A6695617081E051
:10565000682783E00E94001B61E083E00E947D1BBD
:10566000EFE3F4E0E491E093700AE9EFF3E0E49112
:10567000F0E0EE0FFF1FEE53FC4F85919491909355
:10568000720A8093710A60E082E00E947D1B809123
:105690007E0A81FD04C061E082E00E94001B82E07E
:1056A00080936C0AEEE3F4E0E491E0936D0AE8EF96
:1056B000F3E0E491F0E0EE0FFF1FE452FC4F859120
:1056C000949190936F0A80936E0A65E573E08AE582
:1056D0009AE00E94941865E573E084E59AE00E94E0
:1056E000941880E5809308091092090910920F0917
:1056F00010921009109213091092150982E090E09F
:10570000A0E0B0E08093160990931709A0931809C0
:10571000B093190910922D09109237091092360989
:105720008CE392E090933509809334091092390903
:10573000109256091092550988EE93E0A0E0B0E06F
:105740008093570990935809A0935909B0935A0927
:1057500084E492E0909354098093530960E085E0DB
:105760000E947D1BE1E4F4E0E491E093440AEBEF56
:10577000F3E0E491F0E0EE0FFF1FE452FC4F85915F
:1057800094919093460A8093450A10924F0A109282
:10579000510A1092500AEFE4FAE012928AE0E734DC
:1057A000F807D9F781EE97E09093320A8093310A97
:1057B00084E08093330A91E19093340A8093350A10
:1057C0008EE08093360A85E08093370A1092380A7B
:1057D000EDE1FAE084E1DF011D928A95E9F711928B
:1057E0001192BAE0E133FB07D1F782E690E070D680
:1057F000FC0184E592E09183808388E390E09383C9
:105800008283148215821682178284E190E0918748
:105810008087DF01A65ABF4F1D921D921D921C92D8
:10582000139714961D921D921D921C921397F0933C
:105830001E0AE0931D0A82E190E04AD68C018EE5B3
:1058400092E0F8019183808382E593E0A0E0B0E0EC
:1058500082879387A487B58784E49AE091878087BD
:105860001093200A00931F0A88E790E031D6FC01CC
:1058700088E692E09183808387E390E0938382833C
:1058800014821582168217829F01265F3F4F80E5A2
:10589000D9011D928A95E9F7DF01A65ABF4F1196EB
:1058A0001C921E9212961D921D921D921C9213978D
:1058B000149611961C921E92129611961C921E928C
:1058C00012961D921D921D921C92139714961D9272
:1058D0001D921D921C92139714961D921D921D925B
:1058E0001C921397149649E150E060E070E04D93EC
:1058F0005D936D937C93139714964CEB52E060E0AC
:1059000070E04D935D936D937C931397118700879F
:10591000F093240AE093230A88E390E0D9D5FC01B0
:1059200082E792E09183808389E390E0938382838E
:1059300080E090E0A0EAB0E484839583A683B783F7
:10594000108611861286138614861586168617868B
:10595000F093260AE093250A85E290E0B9D5FC0190
:1059600084EA92E09183808385E390E0938382834D
:105970001186108688EE93E0A0E0B0E082879387DE
:10598000A487B5878CE792E09783868310A2178E51
:10599000128A11A212A213A214A28DE19AE0958399
:1059A0008483F093280AE093270A0F90DF91CF9128
:1059B0001F910F910895CF93DF93CDE1DAE08991A4
:1059C0009991009709F019D62AE0C133D207B9F7A7
:1059D00084E59AE00E9463188AE59AE00E946318C1
:1059E0008EEA92E09093610A8093600A8091520A55
:1059F0009091530A80569A4071F4E091730AF091A5
:105A0000740A90818091750A809589238083109211
:105A1000530A1092520A8FE79AE0DF91CF910C94CB
:105A20006318EF920F931F93CF93DF93E80147FD25
:105A300002C034E001C034E1E42F440FFF0BF7FF54
:105A400003C0F195E195F109E32E022F2E2FAE014F
:105A50002AD0CE01DF91CF911F910F91EF90089541
:105A60004532510518F4423008F004C0FB011082A1
:105A7000CB010895BB27FB015527AA27880F991F43
:105A8000AA1FA41710F0A41B83955051B9F7A05D6D
:105A9000AA3308F0A95DA193009779F7B111B193EA
:105AA0001192CB0165C24F925F926F927F929F924B
:105AB000AF92BF92CF92DF92EF92FF920F931F931C
:105AC000CF93DF93CDB7DEB729970FB6F894DEBF3B
:105AD0000FBECDBF6A01122FB02E2BE3201720F08E
