:100000001AC2000049C2000047C2000045C20000F9
:1000100043C2000041C200003FC200003DC20000D8
:100020003BC2000039C2000037C2000035C20000E8
:1000300033C2000031C200002FC200002DC20000F8
:100040002BC2000029C2000027C2000025C2000008
:1000500023C2000021C200001FC200000C94AF1E8A
:100060001BC200000C949E1B0C94751B15C2000053
:1000700013C2000011C200000FC200000DC2000038
:100080000BC2000009C2000007C2000005C2000048
:1000900003C2000001C20000FFC100000C9415194A
:1000A000FBC10000F9C10000F7C10000F5C100006C
:1000B000F3C10000F1C10000EFC10000EDC100007C
:1000C000EBC10000E9C10000E7C10000E5C100008C
:1000D000E3C10000E1C10000DFC10000DDC100009C
:1000E000DBC10000691C6C1C5B1C5F1C631CA31C37
:1000F000701C741C7A1C7E1C821C881C8C1C901C1E
:10010000A31C961C9A1C9E1C00407A10F35A00A057
:10011000724E18090010A5D4E80000E876481700D0
:1001200000E40B54020000CA9A3B000000E1F50510
:10013000000080969800000040420F000000A0865A
:1001400001000000102700000000E803000000008C
:100150006400000000000A00000000000100000030
:1001600000002C76D888DC674F0823DFC1DFAE594A
:10017000E1B1B796E5E3E453C63AE651997696E8DD
:10018000E6C28426EB898C9B62ED407C6FFCEFBC61
:100190009C9F40F2BAA56FA5F490055A2AF75C938C
:1001A0006B6CF9676DC11BFCE0E40D47FEF520E6C2
:1001B000B500D0ED902E0300943577050080841EA5
:1001C000080000204E0A000000C80C333333330F00
:1001D000986E12831141EF8D2114893BE65516CF9D
:1001E000FEE6DB18D1844B381BF77C1D901DA4BBA9
:1001F000E424203284725E228100C9F124ECA1E55E
:100200003D277C3C3E5E2B3D3F2F5B5D3B2C2A22F5
:100210005C00000020002300260029002C002F0095
:100220003200000100000301060109010505050572
:10023000070508080808020202020A0A080804045E
:10024000040401010101010101010303030303038C
:100250000303040707070C0C0C0C0C0C0C0C02021B
:10026000020206060606060606060B0B0B0B0B0B18
:100270000B0B0102102020080810204010204080A5
:10028000020102010804020101020408102040805A
:1002900080402010080402018004020180402010E8
:1002A0000804020108040201010204081020408031
:1002B0000102040810204080005EBCE2613FDD8343
:1002C000C29C7E20A3FD1F419DC3217FFCA2401E36
:1002D0005F01E3BD3E6082DC237D9FC1421CFEA026
:1002E000E1BF5D0380DE3C62BEE0025CDF81633D16
:1002F0007C22C09E1D43A1FF4618FAA427799BC506
:1003000084DA3866E5BB5907DB856739BAE40658F5
:100310001947A5FB7826C49A653BD987045AB8E6E5
:10032000A7F91B45C6987A24F8A6441A99C7257BD5
:100330003A6486D85B05E7B98CD2306EEDB3510FC5
:100340004E10F2AC2F7193CD114FADF3702ECC92B5
:10035000D38D6F31B2EC0E50AFF1134DCE90722CA5
:100360006D33D18F0C52B0EE326C8ED0530DEFB195
:10037000F0AE4C1291CF2D73CA947628ABF5174985
:100380000856B4EA6937D58B5709EBB536688AD475
:1003900095CB2977F4AA4816E9B7550B88D6346A65
:1003A0002B7597C94A14F6A8742AC896154BA9F755
:1003B000B6E80A54D7896B350000210024002700D5
:1003C0002A002D0030003300010100000401070164
:1003D0000A0100002200250028002B002E00310019
:1003E000340002010000050108010B0100000A0BA6
:1003F00002090C0D0E0807030401000000000000B4
:1004000000000000000000000000000000000000EC
:1004100000000000000000001211100000000000A9
:1004200000000000000000000000000000000000CC
:100430000000491F2D1F11241FBECFEFD1E2DEBFE8
:10044000CDBF00E00CBF27E0ACE7B3E001C01D92D8
:10045000AD3CB207E1F713E0A0E0B2E0E2E8F4E57A
:1004600000E00BBF02C007900D92AC37B107D9F77F
:1004700012E0CAE1D2E000E006C021970109802F16
:10048000FE010E94E727C931D10780E00807A9F7DC
:100490000E94F9200C94302AB3CD80917C038823EC
:1004A000A9F1409100025091010260910202709105
:1004B00003022EEB33E08091BE059091BF050E94B0
:1004C000F416811102C080E0089540917D0350919F
:1004D0007E0360917F037091800341155105610592
:1004E000710591F02EEB33E08091BE059091BF0530
:1004F0000E94F416882339F310927D0310927E0334
:1005000010927F031092800310927C0381E0089583
:10051000FC0190810180F281E02DF8948181892B8A
:1005200081832281892F809528232283A7E0B0E050
:100530001197F1F7218182238183A3E2B0E0119723
:10054000F1F780817894EFECF0E03197F1F79823A0
:1005500081E009F480E00895FC0190810180F2813E
:10056000E02D892F809560FF12C0F89422818223AC
:1005700082838181892B8183A3E2B0E01197F1F717
:100580008281982B9283789487ED90E011C0F89443
:100590002281822382838181892B8183AFEFB0E026
:1005A0001197F1F78281982B928378948FE090E0F5
:1005B0000197F1F70895CF92DF92EF92FF920F9398
:1005C0001F93CF93DF931F92CDB7DEB76C01E62E5A
:1005D00008E010E0FF24F39461E08F2D8E2109F4F0
:1005E00060E0C6014983B8DFFF0C01501109498161
:1005F0000115110589F7411115C0F894D60111961E
:10060000ED91FC91129791818C9180958923818342
:100610001196ED91FC91129792818C91809589238E
:10062000828378940F90DF91CF911F910F91FF906B
:10063000EF90DF90CF900895FC0190810180F281CE
:10064000E02DF8948181292F20958223818378944D
:100650008DE743E050E0815021F1DA011197F1F785
:1006600030813923C1F3F89482818223828381818E
:10067000892B81837894ABE7B7E01197F1F7F89471
:10068000818128232183A3E1B1E01197F1F78081D3
:10069000982381E009F080E07894E3E6F6E0319772
:1006A000F1F708958F929F92AF92BF92EF92FF92CF
:1006B0000F931F93CF934B015C01C42F80910002D5
:1006C00090910102A0910202B09103028815990550
:1006D000AA05BB05F9F0E1DE811102C080E020C06F
:1006E0008EEBE82E83E0F82E00E012E020E030E010
:1006F000B501A4018091BE059091BF050E946916C5
:10070000882361F38092000290920102A09202027B
:10071000B092030280917C03C82BC0937C0381E0DC
:10072000CF911F910F91FF90EF90BF90AF909F904E
:100730008F9008954F925F926F927F928F929F92C7
:10074000AF92BF92CF92DF92EF92FF920F931F93DF
:10075000CF93DF93EC016A017B012801390142301C
:1007600051056105710510F480E072C089859A8594
:10077000AB85BC850196A11DB11D84179507A60701
:10078000B70790F38B889C88AD88BE888F898031AD
:1007900029F4BB27AF2D9E2D8D2D09C0DB01CA0189
:1007A00047E0B695A795979587954A95D1F7880E16
:1007B000991EAA1EBB1E8091000290910102A09179
:1007C0000202B091030288169906AA06BB0679F4C4
:1007D0008F89803199F4DD24EE24FF24C601880F2F
:1007E000991FFC01E254FC4F5182408218C040E046
:1007F000C501B40157DF8111EBCFB6CFE894C7F83C
:10080000DD24EE24FF24C601880F991F880F991F4D
:10081000FC01E254FC4F40825182628273828091DB
:100820007C03816080937C038A89823080F08D8193
:100830009E81AF81B885880E991EAA1EBB1E80922C
:100840007D0390927E03A0927F03B092800381E0AB
:10085000DF91CF911F910F91FF90EF90DF90CF909C
:10086000BF90AF909F908F907F906F905F904F90D0
:1008700008958F929F92AF92BF92CF92DF92EF92A4
:10088000FF920F931F93CF93DF93FC018185928595
:10089000A385B4850196A11DB11D84179507A607F0
:1008A000B70710F480E05BC083899489A589B68975
:1008B000C789C03129F4852E962EA72EBB2409C0E6
:1008C0004A015B01C7E0B694A79497948794CA95B0
:1008D000D1F7E9016A017B018F01BC01CD01680DEF
:1008E000791D8A1D9B1D8090000290900102A090AE
:1008F0000202B0900302681579058A059B0599F4F8
:10090000F80187898031A1F4B701A6015527662730
:100910007727440F551FFA01E254FC4F80819181E3
:10092000A0E0B0E017C040E0BDDE8111E9CFBACF52
:10093000B701A6014F77552766277727440F551F24
:10094000440F551FFA01E254FC4F80819181A2812E
:10095000B381BF7088839983AA83BB8381E0DF91D1
:10096000CF911F910F91FF90EF90DF90CF90BF90AC
:10097000AF909F908F9008954F925F926F927F9269
:10098000AF92BF92CF92DF92EF92FF920F931F939D
:10099000CF93DF9300D01F92CDB7DEB78C01498390
:1009A0005A836B837C835901C12CD12C7601412C55
:1009B00082E0582E612C712C49815A816B817C8197
:1009C0009E012F5F3F4FC80154DF882351F1D301AF
:1009D000C201F801058404C0880F991FAA1FBB1F1C
:1009E0000A94D2F7C80ED91EEA1EFB1E49815A810D
:1009F0006B817C818789803129F088EF9FEFAFEF91
:100A0000BFE004C088EF9FEFA0E0B0E048175907AF
:100A10006A077B0788F2F501C082D182E282F38205
:100A200081E00F900F900F900F90DF91CF911F9169
:100A30000F91FF90EF90DF90CF90BF90AF907F909D
:100A40006F905F904F9008953F924F925F926F9298
:100A50007F928F929F92AF92BF92CF92DF92EF924E
:100A6000FF920F931F93CF93DF93CDB7DEB72C97F1
:100A70000FB6F894DEBF0FBECDBF5C01DC015B9604
:100A80008D909C905C971696CD90DD90ED90FC90AB
:100A90001997C114D104E104F10439F0BFEFCB1A66
:100AA000DB0AEB0AFB0A312C07C0F401C080D180BD
:100AB000E280F38033243394F40181859285A38509
:100AC000B4859C01AD012F5F3F4F4F4F5F4F29878A
:100AD0003A874B875C87260137011D821E821F8261
:100AE0001886F40181859285A385B4852D813E8188
:100AF0004F815885281739074A075B0708F060C0FF
:100B000089859A85AB85BC858C159D05AE05BF058D
:100B100050F482E0C82ED12CE12CF12C92E0492E29
:100B2000512C612C712C9E012F5F3F4FB701A60104
:100B3000C4019FDE882309F443C089819A81AB8177
:100B4000BC81892B8A2B8B2B41F0260137019FEF2B
:100B5000491A590A690A790A05C0C414D504E60479
:100B6000F70491F02D813E814F8158852F5F3F4FD3
:100B70004F4F5F4F2D833E834F8358873FEFC31AFC
:100B8000D30AE30AF30AADCF0FEF1FEF2FEF3FE0D9
:100B9000B301A201C401CEDD882391F0D5011696E0
:100BA0004D915D916D917C911997411551056105AC
:100BB000710541F093018201C401BCDD811102C0C5
:100BC00080E02AC0D50116964D925D926D927C927E
:100BD0001997332051F0D301C2010196A11DB11D17
:100BE000F40180839183A283B383F5018789908D7B
:100BF000A18DB28D892B8A2B8B2B69F4D501579649
:100C00004D925D926D927C925A9714968C911497A6
:100C1000806814968C9381E02C960FB6F894DEBF12
:100C20000FBECDBFDF91CF911F910F91FF90EF903D
:100C3000DF90CF90BF90AF909F908F907F906F90FC
:100C40005F904F903F900895CF93DF93EC018D819B
:100C5000882391F18C8187FF2CC06E857F858889E0
:100C6000998941E01FDD882339F1EA8980E2E89F14
:100C7000F0011124DF01A254BC4F1097E9F08D81DF
:100C8000823050F44B895C896D897E895C964D93E6
:100C90005D936D937C935F978F89988DA98DBA8DA5
:100CA000E254FC4F938F828FB58BA48B8C818F770E
:100CB0008C83DF91CF91F1CB80E0DF91CF910895CC
:100CC0008F929F92AF92BF92CF92DF92EF92FF925C
:100CD0000F931F93CF93DF93EC018D81811102C09D
:100CE00080E076C00B891C892D893E890417150781
:100CF00026073707A8F36A017B01823029F4CA86E8
:100D0000DB86EC86FD860DC0C114D104E104F1043C
:100D100051F41E821F82188619861A861B861C862D
:100D20001D8681E055C08A849B84AC84BD84EB8D94
:100D3000FC8D258530E0275F3F4FB501A401415070
:100D4000510961097109022E04C07695679557957E
:100D500047950A94D2F7D701C6010197A109B109B5
:100D600004C0B695A795979587952A95D2F78417CD
:100D70009507A607B70720F089288A288B2849F409
:100D80004F89588D698D7A8D4E835F836887798707
:100D900004C0841B950BA60BB70B4C015D018E01A3
:100DA0000A5F1F4F81149104A104B10409F4A7CF75
:100DB0004E815F816885798598018B8D9C8D59DD89
:100DC00091E0891A9108A108B1088111EBCF88CF71
:100DD000DF91CF911F910F91FF90EF90DF90CF9017
:100DE000BF90AF909F908F9008952F923F924F9217
:100DF0005F926F927F928F929F92AF92BF92CF92AB
:100E0000DF92EF92FF920F931F93CF93DF9300D067
:100E10001F92CDB7DEB78C015B011A01DC0115967C
:100E20008C9115978130C1F414968C9181FF14C078
:100E300082FF1AC0F80143895489658976898285C1
:100E40009385A485B58584179507A607B70761F034
:100E5000C80136DF811108C081E090E0F80193837A
:100E6000828380E090E034C1610183C0D8015B9649
:100E70008D919C915C97FC01248121502A013B01BA
:100E800039E076946794579447943A95D1F7722E47
:100E900074207A01F1E0FF22772009F476C080E027
:100EA00092E08E199F0946018C159D0508F44C01AE
:100EB000D8015B962D913C915C9716968D919D91F2
:100EC0000D90BC91A02D0297A109B109F9010584EB
:100ED00004C0880F991FAA1FBB1F0A94D2F746852A
:100EE000578560897189840F951FA61FB71F9C01C4
:100EF000AD01270D311D411D511D29013A018114FC
:100F000032E0930609F086C08091000290910102C0
:100F1000A0910202B091030284159505A605B705BC
:100F200059F48FEF9FEFDC01809300029093010250
:100F3000A0930202B09303029501B301A201809134
:100F4000BE059091BF050E94F416882309F484CF52
:100F50009EEFB91AC818D908F80182859385A4852F
:100F6000B585880D991DA11DB11D82879387A48722
:100F7000B587D8011A964D915D916D917C911D9721
:100F8000C114D10409F072CF83C0E114F10409F057
:100F900086CF16964D915D916D917C911997411573
:100FA00051056105710559F457968D919D910D90EC
:100FB000BC91A02D0097A105B10531F520C09E017F
:100FC0002F5F3F4F56DC882309F44CCF89819A81EB
:100FD000AB81BC81F801238D348DF9012789203143
:100FE00029F048EF5FEF6FEF7FE004C048EF5FEF5D
:100FF00060E070E084179507A607B70728F0C801DE
:1010000023DD81114CCF28CFF80186839783A087F9
:10101000B18745CFE114F10421F5D8011A964D911D
:101020005D916D917C911D9753968D919D910D9041
:10103000BC91A02D481759076A077B0790F02DDA5D
:10104000882309F409CF4092000250920102609275
:1010500002027092030280917C03816080937C0382
:1010600007C041E0C301B2011DDB882309F4F4CEBF
:10107000D501F701E254FC4FCF01880D991DE81707
:10108000F90719F02D912193FACFA80CB91C62CF62
:1010900053968D919D910D90BC91A02D841795072D
:1010A000A607B70740F4F801438B548B658B768B0A
:1010B000848180688483D80114968C9183FD02C05A
:1010C000C10106C0C801C0DD882309F4C5CEF8CF30
:1010D0000F900F900F900F90DF91CF911F910F9174
:1010E000FF90EF90DF90CF90BF90AF909F908F9048
:1010F0007F906F905F904F903F902F900895CF9387
:10110000DF931F92CDB7DEB7698341E050E0BE01A7
:101110006F5F7F4F6ADE0F90DF91CF9108958F92BE
:101120009F92AF92BF92CF92DF92EF92FF920F9376
:101130001F93CF93DF9300D01F92CDB7DEB77C0112
:1011400080E2689F60011124960122543C4FD9012E
:101150001B969C91917121F0842F827409F094C0A8
:10116000142FF701628B8091000290910102A091EF
:101170000202B091030286879787A08BB18BF6019C
:10118000E254FC4F4489558960E070E0BA0155276C
:101190004427D70157964D935D936D937C935A974F
:1011A000828D938DA0E0B0E0482B592B6A2B7B2BCE
:1011B000D70157964D935D936D937C935A97D901C0
:1011C0001B968C91887159F4848D958DA68DB78D61
:1011D000F701838B948BA58BB68B81E011C0803196
:1011E00009F052C097012D5E3F4FD7015B968D915C
:1011F0009C915C97C1DB882309F446C084E0F70129
:101200008583812F8F70D70114968C931497F701E3
:1012100016821782108611861A961D921D921D92B3
:101220001C921D9716FF32C015968C91813061F586
:1012300011FF2AC0F7014389548965897689452BB6
:10124000462B472B09F45CC040E050E0BA01C701CF
:1012500037DD8823C9F0F7018788908CA18CB28C88
:10126000C38CD48C82E090E0A0E0B0E0F6018083F3
:101270009183A283B3839E012F5F3F4FB501A401E9
:10128000C601F7DA811104C080E03AC081E038C0BD
:1012900000E010E09801B501A401C6014BDA8823F3
:1012A00099F389809A80AB80BC80D60157968C9147
:1012B000803129F088EF9FEFAFEFBFE004C088EFE7
:1012C0009FEFA0E0B0E088169906AA06BB0698F248
:1012D000D70157961D921D921D921C925A97F701A5
:1012E000138A148A158A168A848180688483C701C8
:1012F000ABDC882349F240E050E0BA01C701E0DCF2
:101300000F900F900F900F90DF91CF911F910F9141
:10131000FF90EF90DF90CF90BF90AF909F908F9015
:1013200008954F925F926F927F92AF92BF92CF9249
:10133000DF92EF92FF920F931F93CF93DF93CDB77E
:10134000DEB72B970FB6F894DEBF0FBECDBF7C0182
:10135000CE0101966C01FC0190E28BE08C0D919323
:101360008E13FDCFDA0130E047E09D91992339F1EA
:101370009E3219F0E2E0F2E00AC04A3009F46FC18F
:1013800038E04AE0F2CF3196891709F468C18491B8
:101390008111F9CF431708F462C18FED890F8E35A3
:1013A00008F05DC181E0830FF601E30FF11D3FE915
:1013B000390F3A3108F490529083382FD6CF898173
:1013C000803209F44CC1B22E8B01DB015B968D910A
:1013D0009C915C97F701948F838F16961D921D92B6
:1013E0001D921C921997FB0112861386148615868E
:1013F000712CF80182859385A485B585438954892C
:101400006589768984179507A607B70708F061C034
:1014100025E0B695A795979587952A95D1F7F82F4A
:10142000FF706F2ED80115968C91823008F417C189
:10143000C8010E94D91797FD12C1F80182859385D2
:10144000A485B5854F96A11DB11D82879387A4877A
:10145000B587F0E26F9EC0011124BC0162547C4F3D
:101460006115710509F4FBC0DB012C91222319F0F1
:10147000253EC1F427C071100EC0F701628A409169
:1014800000025091010260910202709103024687AE
:101490005787608B718BFC01E254FC4F8081811176
:1014A00013C015C04BE050E0C6010E94042A892BEE
:1014B00009F09FCF8B2D8073803309F4D0C04B2D62
:1014C000662DCAC07720C9F27724739492CF77240F
:1014D00073948B2D8271823109F0C1C07720C9F0DD
:1014E000D7011E966D917D918D919C91519741E010
:1014F000D9D8882309F4B3C0F7016289F0E26F9F5D
:10150000B001112462547C4F6115710509F078C057
:10151000A6C0D80115968C91823009F4A0C0C801EC
:1015200093DA882309F49BC0D8015B96ED91FC9176
:101530005C9716964D905D906D907C901997B2E0F7
:101540004B1A510861087108058404C0440C551CED
:10155000661C771C0A94D2F786859785A089B18985
:10156000480E591E6A1E7B1EA480E1E04E1A5108E7
:1015700061087108AA2009F10E944D02882309F42C
:101580006EC0EEEBF3E0119225E0EE3BF207D9F7E7
:10159000D301C2018A0D911DA11DB11D80930002CE
:1015A00090930102A0930202B093030280917C0306
:1015B000816080937C03AA94DDCFD8015B96ED9186
:1015C000FC915C9780E092E0A0E0B0E0058404C06C
:1015D000880F991FAA1FBB1F0A94D2F7F8014389ED
:1015E000548965897689840F951FA61FB71F838B41
:1015F000948BA58BB68BD70152961C926EEB73E041
:1016000080E2FB0111928A95E9F78BE0F601DB019C
:1016100001900D928A95E1F781E298E2DB01519603
:101620009C938E93509720E038E01F963C932E9326
:101630001E9753969C938E93529759969C938E9394
:10164000589757963C932E9356970E944D028823A5
:1016500031F04B2DF7016289C70161DD01C080E0E7
:101660002B960FB6F894DEBF0FBECDBFDF91CF91A2
:101670001F910F91FF90EF90DF90CF90BF90AF90B0
:101680007F906F905F904F900895CF93DF93EC0120
:10169000DBDA882311F01D8281E0DF91CF9108957C
:1016A000FC0164897589868997890895FC016485A0
:1016B00075858685978508950895FC0164817581F7
:1016C000868197810895CF92DF92EF92FF920F93D8
:1016D0001F93CF93DF93CDB7DEB7A1970FB6F894E2
:1016E000DEBF0FBECDBF8C010E94121DD8019196A6
:1016F000CD90DD90ED90FC909497DC01CB018C199E
:101700009D09AE09BF09813D9740A105B10508F4C7
:1017100041C167E273E08BED96E00E947314809103
:10172000C8069091C9061D8E1C8E1F8E1E8E19A292
:1017300018A24AE0BE016F5F7F4F0E942A23BE01BC
:101740006F5F7F4FCE014C960E947314CE014C9672
:101750000E94F713CE014C960E9493140E94D4135A
:101760004AE06091CA06CE0101960E940F1BCE018D
:1017700001960E94F713CE0101960E9493140E94D5
:10178000D4134AE06091CB06CE0101960E940F1B54
:10179000CE0101960E94F713CE0101960E94931488
:1017A0000E94D4134AE06091CD06CE0101960E94BA
:1017B0000F1BCE0101960E94F713CE0101960E94E5
:1017C0009314F2D74AE06091CE06CE0101960E94B2
:1017D0000F1BCE0101960E94F713CE0101960E94C5
:1017E0009314E2D74AE06091CF06CE0101960E94A1
:1017F0000F1BCE010196FBD7CE0101960E949314D8
:10180000D3D7D8011496ED91FC91159780819181E1
:10181000009751F0DC01ED91FC910480F581E02D01
:101820001995AB01BC0103C040E050E0BA01C8010A
:101830000E94F91ED8011496ED91FC9115978281B2
:101840009381009751F0DC01ED91FC910480F581CA
:10185000E02D1995AB01BC0103C040E050E0BA0196
:10186000C8010E94F91ED8011496ED91FC911597BC
:1018700084819581009751F0DC01ED91FC91048009
:10188000F581E02D1995AB01BC0103C040E050E0AB
:10189000BA01C8010E94F91ED8011496ED91FC917D
:1018A000159786819781009751F0DC01ED91FC91AD
:1018B0000480F581E02D1995AB01BC0103C040E027
:1018C00050E0BA01C8010E94F91ED8011496ED91AA
:1018D000FC91159780859185009751F0DC01ED9181
:1018E000FC910480F581E02D1995AB01BC0103C08A
:1018F00040E050E0BA01C8010E94F91ECE010196F5
:10190000C1D68B819C81F801918780878D819E81D2
:10191000AF81B88582879387A487B58789859A85A3
:10192000AB85BC8586879787A08BB18B8DE0FE0148
:101930003D96D801529601900D928A95E1F7EA8D75
:10194000FB8DD8019096FC93EE935F973097C9F08A
:1019500085818823B1F0C80106967DD7F801878D6F
:1019600090A1009759F091DED8015F968D919C91DE
:1019700090970E948428F80110A2178E80EC95E0C1
:101980006AD70E94121DD80191966D937D938D9315
:101990009C939497A1960FB6F894DEBF0FBECDBF6F
:1019A000DF91CF911F910F91FF90EF90DF90CF903B
:1019B000089560E0FC0182810C94B71CCF93DF9303
:1019C000EC0160E08A810E94B71C1B861A861D8686
:1019D0001C861F861E86198A188A1B8A1A8ADF911E
:1019E000CF9108958F929F92AF92BF92CF92DF9244
:1019F000EF92FF920F931F93CF93DF93CDB7DEB794
:101A00006B970FB6F894DEBF0FBECDBF8C016CE8AC
:101A100072E080EC95E00E944E1B61E085E30E943D
:101A2000B71CD80112968C9110926A061092680623
:101A30001092650610926406809363060E94121D40
:101A40004B015C0161E0809163060E94B71C61E07C
:101A5000809163060E943A1CFFB6F8948091B5030A
:101A6000811127C0E1E6F2E08491E7EAF2E0949187
:101A7000E82FF0E0EE0FFF1FE854FC4FA591B49162
:101A8000EC91E92321F461E085E30E943A1C61E0D6
:101A900085E30E94B71C8CB580618CBD8CB58064D9
:101AA0008CBD61E084E30E94B71C61E083E30E9487
:101AB000B71C8091B5038F5F8093B503FFBE82E5AD
:101AC00080935D0610925E0680915D0690915E06A1
:101AD0000E94F7155AE0F52E8FEF0E94BE15FA947A
:101AE000F110FACF8FE596E00E94FA1520E030E081
:101AF000A90160E08FE596E00E940E16F82E809313
:101B00006906E1E08E1749F00E94121D68197909F3
:101B1000613D774058F381E056C02AEA31E040E069
:101B200050E068E08FE596E00E940E1682FF03C049
:101B3000F0926A0610C044E0F42E0E94C51580930E
:101B40006906FA94F110F9CF8A3A11F082E03BC0AD
:101B500082E080936A0680916A06823021F0C12C6F
:101B6000D12C760105C0C12CD12CE12C30E4F32E10
:101B700020E030E0A90167E38FE596E00E940E16B1
:101B8000A701960169E28FE596E00E940E16809308
:101B90006906882349F00E94121D68197909613D80
:101BA000774030F388E00FC080916A068230D9F424
:101BB00020E030E0A9016AE38FE596E00E940E166E
:101BC000882339F086E0809364068FE596E0CCD7D1
:101BD000BCC0DBD7807C803C19F483E080936A062C
:101BE000D4D7D3D7D2D78FE596E0BED780E5809300
:101BF0005D0610925E0681E016D4882329F080915C
:101C00008E06882339F0A1C080E00DD4882309F422
:101C10009CC0F5CF80918206803109F582E08093E7
:101C20008E061092A0061092A1061092A2061092A3
:101C3000A3068091830690918406A0E0B0E025E0A1
:101C4000880F991FAA1FBB1F2A95D1F780939C0666
:101C500090939D06A0939E06B0939F061FC080326E
:101C600009F073C083E080938E0640918506509101
:101C7000860660918706709188064093A00650936F
:101C8000A1066093A2067093A3062CE936E08BE6CA
:101C900096E00E94BC04882309F457C08BE696E0C6
:101CA0009093A5068093A40681E080938D06109200
:101CB0008F06109290061092910610929206109242
:101CC0009306109294061092950610929606109222
:101CD0009706109298061092990610929A06109202
:101CE0009B0664EA72E080EC95E00E94631BCE01E3
:101CF0000196C8D48B819C81D80119969C938E93B0
:101D000018978D819E81AF81B885F801828793876E
:101D1000A487B58789859A85AB85BC858687978793
:101D2000A08BB18B8DE0FE013D96D80152960190BB
:101D30000D928A95E1F7EA8DFB8DD8019096FC9380
:101D4000EE935F97309741F428C066EB72E080EC29
:101D500095E00E94631B21C085818823F1F0828574
:101D60009385A485B585892B8A2B8B2BB1F462EDE5
:101D700072E0C80106960E94631BF801878D90A14E
:101D8000009759F082DCD8015F968D919C919097D5
:101D90000E948428F80110A2178E6B960FB6F89453
:101DA000DEBF0FBECDBFDF91CF911F910F91FF908E
:101DB000EF90DF90CF90BF90AF909F908F9008955D
:101DC000AF92BF92CF92DF92EF92FF920F931F9349
:101DD000CF93DF93EC018091AD0381110DC00E9480
:101DE000121D6093A9037093AA038093AB03909391
:101DF000AC0381E08093AD038091A10381110DC0FC
:101E00000E94121D60939D0370939E0380939F0315
:101E10009093A00381E08093A1030E94121D009182
:101E2000A9031091AA032091AB033091AC03AB013D
:101E3000BC01401B510B620B730B88859985092EE1
:101E4000000CAA0BBB0B84179507A607B70708F071
:101E500078C00E94121D6093A9037093AA03809317
:101E6000AB039093AC0300919B0310919C0378010A
:101E70008FEFE81AF80AF0929C03E0929B038A81A4
:101E80000E94F31CF8013596EE0FFF1FEC0FFD1FAB
:101E900091838083E5E0EE16F10409F052C01092C0
:101EA0009C0310929B03C8A0D9A0EAA0FBA08E01BE
:101EB000065F1F4F5E01F4E1AF0EB11CF8016191A6
:101EC00071918F01072E000C880B990B0E94BE2583
:101ED0009B01AC01C701B6010E94EB266B017C019E
:101EE0000A151B0559F720E030E040EA50E40E9453
:101EF0004F276C8F7D8F8E8F9F8F18A219A21AA2E9
:101F00001BA220E030E040EA50E40E941D2620E0C1
:101F100030E040E85AE30E941D26688F798F8A8F4F
:101F20009B8F20E030E040E650E40E941D262C818B
:101F30003D814E815F810E94EB266C8B7D8B8E8B69
:101F40009F8BDF91CF911F910F91FF90EF90DF90CA
:101F5000CF90BF90AF9008954F925F926F927F9213
:101F60008F929F92AF92BF92CF92DF92EF92FF92A9
:101F70000F931F93CF93DF93EC0180919303811113
:101F80000DC00E94121D60938F0370939003809385
:101F900091039093920381E0809393038091870350
:101FA00081110DC00E94121D6093830370938403FE
:101FB000809385039093860381E0809387030E943A
:101FC000121D00918F031091900320919103309185
:101FD0009203601771078207930708F4A1C00E945B
:101FE000121DDC01CB014496A11DB11D80938F030E
:101FF00090939003A0939103B09392030091810377
:102000001091820378018FEFE81AF80AF0928203A8
:10201000E09281038A810E94F31CF8013896EE0F4A
:10202000FF1FEC0FFD1F91838083E5E0EE16F104A6
:1020300009F076C01092820310928103CA8CDB8C67
:10204000EC8CFD8C8E01005F1F4F5E01FAE1AF0E3C
:10205000B11CF801619171918F01072E000C880B62
:10206000990B0E94BE259B01AC01C701B6010E94DD
:10207000EB266B017C010A151B0559F720E030E0C7
:1020800040EA50E40E944F274B015C016EA37FA3FE
:1020900088A799A71A8E1B8E1C8E1D8ECC80DD8082
:1020A000EE80FF8020E030E040EF51E4C701B60150
:1020B0000E941D2620E030E04AE754E40E941D26DD
:1020C0002B013C0120E030E046E952E4C501B401B7
:1020D0000E941D26A70196010E941D2620E030E0E7
:1020E0004AE754E40E941D2620E030E040E85AE32D
:1020F0000E941D269B01AC01C301B2010E94EA2689
:1021000020E030E046E952E40E944F2728853985D7
:102110004A855B850E94EA266C877D878E879F872C
:10212000DF91CF911F910F91FF90EF90DF90CF90B3
:10213000BF90AF909F908F907F906F905F904F90E7
:1021400008958F929F92AF92BF92CF92DF92EF92BB
:10215000FF920F931F93CF93DF93EC010E94121D08
:102160000AA11BA12CA13DA1DC01CB01801B910B7D
:10217000A20BB30B0EA51FA528A939A9801791079B
:10218000A207B30708F449C00E94121D6AA37BA3EB
:102190008CA39DA30C891D89C80101969D8B8C8BF6
:1021A0008A810E94F31CF8013596EE0FFF1FEC0F99
:1021B000FD1F918380838C899D89059771F51D8A08
:1021C0001C8ACE88DF88E88CF98C8E01065F1F4F51
:1021D0005E0184E1A80EB11CD8016D917D918D0145
:1021E00080E090E00E94BC259B01AC01C701B601D4
:1021F0000E94EB266B017C010A151B0569F720E0A4
:1022000030E040EA50E40E944F270E94B7277F8FBA
:102210006E8F1E8A1F8A188E198E0E94121D0EA1A3
:102220001FA128A539A5DC01CB01801B910BA20BB6
:10223000B30B0AA91BA92CA93DA980179107A207D6
:10224000B30708F4BCC00E94121D6EA37FA388A729
:1022500099A76E8D7F8D80E090E00E94BC2520E0E4
:1022600030E44CE955E40E941D2620E030E040E8CF
:102270005AE30E941D260E94B72779A368A3888588
:102280009985DC01ED91FC910480F581E02D199593
:102290006B017C0188A199A1BC0180E090E00E94C3
:1022A000BC254B015C0120E030E048EC51E4C70163
:1022B000B6010E94EA2620E53DE847E95CE30E947A
:1022C0001D2620E030E040E85FE30E94EB269B0102
:1022D000AC01C501B4010E944F276B017C0120E0D5
:1022E00030E046E153E40E94B82587FF05C01C8218
:1022F0001D821E821F8263C020E030E44EE455E45C
:10230000C701B6010E94E32718164CF480E090E064
:10231000A0EAB1E48C839D83AE83BF8350C020E0EC
:1023200030E040EE53E4C701B6010E94B82518160C
:102330006CF028E431EE4AED50E4C701B6010E948A
:102340001D2627ED33EA40E852E416C020E030E2D3
:1023500046EB54E4C701B6010E94B82518167CF07C
:1023600029E23CE54FED50E4C701B6010E941D266D
:1023700020E030E04EEF52E40E94EA260EC02AE947
:1023800039E949EA50E4C701B6010E941D2620E060
:1023900030E64EE055E40E94EB266C837D838E830D
:1023A0009F8320E030E04AE754E46C817D818E8198
:1023B0009F810E944F276C837D838E839F83DF9153
:1023C000CF911F910F91FF90EF90DF90CF90BF9032
:1023D000AF909F908F9008950F931F93CF93DF93AB
:1023E000EC0188819981009729F02A813B81261789
:1023F000370788F48B016F5F7F4F0E941C2900977D
:1024000061F0998388831B830A832C813D81232B70
:1024100011F4FC01108281E001C080E0DF91CF91D6
:102420001F910F9108958F929F92AF92BF92CF927A
:10243000DF92EF92FF92CF93DF93C82F8FE596E064
:102440009093BF058093BE05CC2369F1C53010F091
:1024500080E00DC140E060E070E0CB010E945203DB
:102460008823B1F320E1C29FC001112482559C4F03
:10247000FC01E254FE4F20812F7751F73C964081BA
:10248000518162817381443651056105710500F304
:102490003497C080D180E280F380C114D104E1047C
:1024A000F10421F4D5CFC12CD12C760140E0C70135
:1024B000B6010E945203882359F28091C90390917A
:1024C000CA038115924021F6A091CE03AA2309F4F4
:1024D000BFCF6091CC037091CD036115710509F4F4
:1024E000B7CF2091CB03222309F4B2CFA0937D066E
:1024F00020936F0680E030E0E1E0F0E0C82FAF010C
:10250000082E02C0440F551F0A94E2F7241735071E
:1025100041F0982F8F5F983089F789E08093780693
:1025200097CF809378062091D4033091D50321155D
:10253000310519F040E050E008C02091E2033091ED
:10254000E3034091E4035091E50320937006309338
:102550007106409372065093730646015701860E2A
:10256000971EA11CB11C80927E0690927F06A092BD
:102570008006B0928106E091CF03F091D003F093F2
:102580008406E0938306B0E00E94D126860E971E53
:10259000A81EB91E8092850690928606A092870694
:1025A000B092880685E0EE0FFF1F8A95E1F7E150B3
:1025B000FE4FEF2FFF27E6958E0E9F1EA11CB11C2C
:1025C0008092790690927A06A0927B06B0927C0661
:1025D0002091D1033091D2032115310521F0A901B9
:1025E00060E070E008C04091DE035091DF0360912D
:1025F000E0037091E103D701C60188199909AA097E
:10260000BB09840F951FA61FB71F04C0B695A795D9
:1026100097958795CA95D2F780937406909375061F
:10262000A0937606B0937706853F2FE09207A10529
:10263000B10510F48CE018C0853F9F4FA105B1058E
:1026400010F480E111C08091EA039091EB03A09116
:10265000EC03B091ED038093850690938606A093DA
:102660008706B093880680E28093820681E0DF913E
:10267000CF91FF90EF90DF90CF90BF90AF909F9061
:102680008F9008950F931F93CF93DF93CDB7DEB74D
:10269000C755D1090FB6F894DEBF0FBECDBF8C0170
:1026A00069E876E0CE010196FED3BE016F5F7F4FF1
:1026B000CE01CB96F8D319A218A28EE192E09F8F9B
:1026C0008E8F1BA221968FAD2197811113C0F80127
:1026D0001382128288EE93E0A0E0B0E084839583B9
:1026E000A683B7838EE592E091838083128E118E4C
:1026F000148631C0825023E148E153E0823048F42F
:1027000069E876E0CE014E960E94910981110EC0D3
:10271000DECFBE01655C7F4FCE014E960E949109CF
:102720008823A9F2CE01CB960E94450B49A95AA94C
:102730006BA97CA9CE014E960E946006BE01625E26
:102740007F4FCE010196AFD348E153E0BE016F5FEA
:102750007F4FC801F9D3C801C95ADF4F0FB6F894AB
:10276000DEBF0FBECDBFDF91CF911F910F910895B6
:10277000FF920F931F93CF93DF938C0140E065E5A9
:102780000E94DB02C6EBD3E0FC2E88E0F80E6991D4
:1027900040E0C8010E94DB02FC12F9CFDF91CF912B
:1027A0001F910F91FF900895CF93DF93C091DF06A3
:1027B000D091E0062196BE018BED96E00DDE8823D8
:1027C00099F02091DB063091DC068091DF06909134
:1027D000E00663E273E0820F931F0E941A2AD093EF
:1027E000E006C093DF0681E0DF91CF9108950F935B
:1027F0001F93CF93DF93FC012481358100811181E8
:10280000C091DF06D091E0060115110511F480E0BA
:102810001DC021153105C9F0C20FD31FBE018BEDBC
:1028200096E0DADD882399F32091DB063091DC060F
:102830008091DF069091E006B801820F931F0E94FD
:102840001A2AD093E006C093DF0681E0DF91CF9192
:102850001F910F9108950F931F93CF93DF93EC0176
:10286000A881B981EBEDF6E04481558160817181E9
:102870001296ED91FC91139719958C0165E273E026
:10288000CE010CD7800F911FDF91CF911F910F9137
:102890000895EF92FF920F931F93CF93DF93EC0174
:1028A0007B018A01BA0198DD2881398181110DC02F
:1028B0002115310519F0C9010E9484281982188256
:1028C0001D821C821B821A8206C01D830C83B701E5
:1028D000C9010E941A2ACE01DF91CF911F910F9159
:1028E000FF90EF900895CF93DF93EC016115710590
:1028F00051F0FB0101900020E9F73197AF01461B31
:10290000570BC7DF0CC088819981009711F00E9496
:102910008428198218821D821C821B821A82CE0191
:10292000DF91CF910895FC01808191810C948428DE
:10293000DC015996ED91FC915A973097B9F0838953
:102940009489A589B6894285538564857585841BDC
:10295000950BA60BB70B811520E89207A105B105D1
:1029600038F08FEF9FE7A0E0B0E0089580E090E0BE
:102970000895CF93DF931F92CDB7DEB76983DC0153
:10298000ED91FC910280F381E02D41E050E0BE0129
:102990006F5F7F4F19950F90DF91CF91089585ED6F
:1029A0008093BC008091BC0084FDFCCF10928D0709
:1029B000089540911D07262F30E0240F311D21324C
:1029C0003105DCF420918D072430C9F4FC0180E04E
:1029D00090E0861758F430911D072191DC01A55035
:1029E000B94FA30FB11D2C930196F3CF80911D0712
:1029F000680F60931D0780E0089581E0089582E0EC
:102A000008950895E0918F0780918E07E81730F4BC
:102A1000F0E0E057F84F808190E008958FEF9FEF4E
:102A2000089590918F0780918E07981750F4E92FA1
:102A3000F0E0E057F84F208130E09F5F90938F07E0
:102A400002C02FEF3FEFC901089580918E0790E0FB
:102A500020918F07821B91090895CF92DF92EF9208
:102A6000FF920F931F93CF93DF937C01262F972F15
:102A70008A0180914407882391F0C62FD72F6E01D9
:102A8000C40ED51ECC15DD0569F06991D701ED9115
:102A9000FC910190F081E02DC7011995F3CF642FCF
:102AA000822F87DFC801DF91CF911F910F91FF9097
:102AB000EF90DF90CF900895CF93DF931F92CDB723
:102AC000DEB76983209144072223D1F02091660765
:102AD000203240F021E030E0FC013383228380E0AB
:102AE00090E014C080914507E82FF0E0EA5BF84FD2
:102AF000998190838F5F809345078093660704C018
:102B000061E0CE01019655DF81E090E00F90DF910A
:102B1000CF910895FC01818D928D009711F00C9456
:102B200024060895CF93DF93EC01898D9A8D009749
:102B300039F481E090E09B838A8380E090E00BC0D1
:102B4000FC01138212820E94F506E98DFA8D228122
:102B50003381232B71F7DF91CF9108958FB7F894CC
:102B6000809143078FBF089561E0FC01848182D684
:102B70008091420781111092420708958EBD000096
:102B80000DB407FEFDCF8EB508958FEFF7CF0F93ED
:102B90001F93CF93DF93EB0145D78B01F6DF8F3F78
:102BA00041F040D7601B710B6C177D07B8F380E0D4
:102BB00001C081E0DF91CF911F910F910895CF93D4
:102BC000DF93EC018E81882379F08F8198859C01B9
:102BD0002F5F3F4F38872F838230924010F4D5DF2C
:102BE000F4CFCE01C1DF1E82DF91CF9108958CBD5D
:102BF0009DBD0895CF93DF93EC0180914207811131
:102C000008C081E08093420780915D0690915E0646
:102C1000EEDF60E08C81DF91CF912CC6CF92DF9206
:102C2000FF920F931F93CF93DF9300D01F92CDB7E6
:102C3000DEB76C01F62E29833A834B835C83BFDFBA
:102C4000C601D8DF6CE271E0C601A1DF8F2D806480
:102C500095DF08E110E05C814B813A812981DA013E
:102C6000C901002E04C0B695A795979587950A943B
:102C7000D2F729833A834B835C8380DF08501109A4
:102C800029813A814B815C81083F8FEF180739F722
:102C9000FF2029F0E8E0FE1204C087E803C085E9C0
:102CA00001C08FEF6BDF10E070DFF601828787FFD6
:102CB00004C01F3F11F01F5FF7CF0F900F900F90D0
:102CC0000F90DF91CF911F910F91FF90DF90CF90E8
:102CD0000895AF92BF92CF92DF92EF92FF920F933F
:102CE0001F93CF93DF93EC016901C801820F931FFB
:102CF0008130924008F068C08E81882371F088810D
:102D00009981AA81BB81481759076A077B0729F473
:102D10008F819885C816D90688F5488359836A83B8
:102D20007B838B85833039F089E0440F551F661F04
:102D3000771F8A95D1F79A01AB0161E1CE016EDF71
:102D4000882319F083E08D833FC06CD65B011DDFC3
:102D50008A878F3F41F466D66A197B096D327140CC
:102D6000B0F38FE003C08E3F29F08DE08D83CE015C
:102D7000FBDE2AC018861F8281E08E838F819885B2
:102D80008C159D0538F401DF8F8198850196988711
:102D90008F83F4CF6701E00EF11ECE14DF0429F01B
:102DA000F4DEF60181936F01F8CF8F819885080FCB
:102DB000191F18870F838985882319F00115124080
:102DC00038F0CE01FCDE04C0CE01CEDE80E001C0D2
:102DD00081E0DF91CF911F910F91FF90EF90DF90F5
:102DE000CF90BF90AF900895EF92FF920F931F93F3
:102DF000CF93DF93EC017901411551056105710510
:102E000011F482E134C08B85833039F089E0440FBE
:102E1000551F661F771F8A95D1F79A01AB0168E1AC
:102E2000CE01FCDE882311F084E021C08EEFA6DE07
:102E300087018EEFF81AF80181918F019FDE0E1540
:102E40001F05C9F78FEF9ADE8FEF98DE9EDE8A8727
:102E50008F71853029F081E18D83CE0185DE08C038
:102E600068E572E0CE0193DE811106C085E18D83B5
:102E7000CE017ADE80E010C020E030E0A9016DE0F4
:102E8000CE01CCDE811103C080DE882311F084E105
:102E9000EECFCE0169DE81E0DF91CF911F910F91DE
:102EA000FF90EF900895FC01DB0112968D919C91AB
:102EB0001397938382838EE192E0918380831496AB
:102EC0008C911497848315968C911597858316960B
:102ED0004D915D916D917C911997468357836087E1
:102EE00071871A964D915D916D917C911D974287E6
:102EF0005387648775871E964D915D916D917C9186
:102F0000519746875787608B718B52968C91529759
:102F1000828B53964D915D916D917C915697438B29
:102F2000548B658B768B57964D915D916D917C910D
:102F30005A97478B508F618F728F5B968D919C91C2
:102F40005C97948F838F0895EF92FF920F931F9356
:102F5000CF93DF93EC017B018A011B821A8288EEFA
:102F600093E0A0E0B0E08C839D83AE83BF838EE5C9
:102F700092E0998388838DE190E00E94EF279A8FF9
:102F8000898F009779F02DE1F701DC0101900D9216
:102F90002A95E1F74CE050E0B801CE010C960E9472
:102FA000212A188EDF91CF911F910F91FF90EF9002
:102FB00008952F923F924F925F926F927F928F92DD
:102FC0009F92AF92BF92CF92DF92EF92FF920F93B8
:102FD0001F93CF93DF931F921F92CDB7DEB7FC01F3
:102FE0008581882309F4D8C0848180FFD5C021E081
:102FF0002A83438954896589768982859385A48546
:10300000B585481759076A077B0709F41A826F01CB
:103010003A81832F90E0DE0111964D013F01B6E029
:103020006B0E711C892B09F47DC0D6011A964D9147
:103030005D916D917C911D975A01B1E0BB22F60123
:1030400025811A012B0189E05694479437942794DF
:103050008A95D1F7838D948D223061F4FC01828DA5
:10306000938DA48DB58DBC01CD01620D731D841DA2
:10307000951D45C0DC0114961C9111501221A1141C
:10308000B104D1F4111118C0452B462B472B51F434
:10309000F6018789908DA18DB28D86839783A08755
:1030A000B1870AC0468157816085718593010E946E
:1030B0003904882309F470C0F601238D348D86818C
:1030C0009781A085B1850297A109B109AC01BD0125
:1030D000F901058404C0440F551F661F771F0A9429
:1030E000D2F786859785A089B189840F951FA61F81
:1030F000B71FBC01CD01610F711D811D911DD6014E
:1031000014962C9126FF14C0009100021091010228
:103110002091020230910302601771078207930722
:1031200051F506C0FA81FF23B9F1898190E036C0DC
:1031300040E00E945203882379F1F501E254FC4FEC
:10314000D401CF010196E817F90719F021912D93C9
:10315000FACFEFEF8E1A9E0AF60182859385A48539
:10316000B5850196A11DB11D82879387A487B58778
:1031700080E090E057CF740101E010E09501AB01D1
:10318000BC018091BE059091BF05A3DD882321F08D
:10319000BFEF8B1A9B0AE0CF8FEF9FEF0F900F903E
:1031A000DF91CF911F910F91FF90EF90DF90CF9023
:1031B000BF90AF909F908F907F906F905F904F9057
:1031C0003F902F900895FC01818D928D009709F01A
:1031D000F0CE8FEF9FEF08950F931F93CF93DF9360
:1031E000FC01818D928D0097B1F0EF01E2DE8C0140
:1031F0000F3F8FEF180791F0898D9A8DFC01428562
:1032000053856485758541505109610971090E9492
:103210006006C80105C080E090E002C08FEF9FEF1C
:10322000DF91CF911F910F9108951F920F920FB6CA
:103230000F9211240BB60F922F933F934F935F93EE
:103240006F937F938F939F93AF93BF93EF93FF936E
:103250008091B900887F803609F49CC068F5883277
:1032600009F45BC090F4803109F454C038F4882329
:1032700009F4F6C0883009F44DC0F5C0883109F46E
:103280004CC0803209F45DC0EEC0803409F468C0DF
:1032900048F4803309F455C0883309F0E4C08093C2
:1032A0008B07D8C0803509F44FC0883509F45DC05C
:1032B000883409F0D8C0D6C0883909F4C7C0A8F44A
:1032C000883709F467C038F4883609F463C080375A
:1032D00009F460C0C8C0883809F4B8C0803909F45E
:1032E0005FC0803809F0BFC05BC0803B09F486C076
:1032F00038F4803A09F466C0883A09F47FC0B3C054
:10330000803C09F4A7C0883C09F4A4C0883B09F4B8
:103310008AC0A9C08091880710C090918A078091C7
:103320008907981770F5E0918A0781E08E0F8093E6
:103330008A07F0E0E959F84F80818093BB0085EC63
:1033400086C080938B078EC0E0918A0781E08E0F44
:1033500080938A078091BB00F0E0E959F84F8083A1
:1033600090918A07809189076EC0E0918A0781E079
:103370008E0F80938A078091BB00F0E0E959F84FE7
:10338000808380918C0781116DC081E080938707D5
:1033900084EA61C083E080938D0710924107CFCF0C
:1033A00080914107803208F051C0E091410781E0EF
:1033B0008E0F809341078091BB00F0E0EF5DF84FE6
:1033C0008083BDCF85EC8093BC0010928D078091E7
:1033D0004107803230F4E0914107F0E0EF5DF84FB3
:1033E00010826091410770E0E0911F07F091200783
:1033F00081E297E019951092410735C084E08093EF
:103400008D0710921E0710921D07E0911B07F09187
:103410001C07199580911D07811105C081E08093DB
:103420001D071092FB06E0911E0781E08E0F80932E
:103430001E07F0E0E550F94F80818093BB0090912A
:103440001E0780911D07981708F479CF85E88093AF
:10345000BC0009C085EC8093BC0010928D0703C0AE
:1034600010928B079CDAFF91EF91BF91AF919F91E2
:103470008F917F916F915F914F913F912F910F901D
:103480000BBE0F900FBE0F901F901895CF92DF923A
:10349000EF92FF920F931F93CF93DF936C017A010A
:1034A0008B01C0E0D0E0CE15DF0589F0D8016D9129
:1034B0008D01D601ED91FC910190F081E02DC601C6
:1034C0001995892B11F47E0102C02196ECCFC7011A
:1034D000DF91CF911F910F91FF90EF90DF90CF90F0
:1034E0000895FC01918D828D981761F0828DDF0126
:1034F000A80FB11D5D968C91928D9F5F9F73928FE7
:1035000090E008958FEF9FEF0895FC01918D828DDB
:10351000981731F0828DE80FF11D858D90E00895A8
:103520008FEF9FEF0895FC01918D228D892F90E000
:10353000805C9F4F821B91098F739927089580ECBF
:1035400095E0F1DF21E0892B09F420E0822F089536
:10355000EF92FF920F931F93CF93DF93EC0181E0E3
:10356000888F9B8D8C8D981305C0E889F98980819F
:1035700085FD23C0F62E0B8D10E00F5F1F4F0F73DC
:103580001127E02E8C8DE8120BC00FB607FCFACF86
:10359000E889F989808185FFF5CFCE014AD1F2CF44
:1035A0008B8DFE01E80FF11DE35AFF4FF0820B8F68
:1035B000EA89FB898081806207C0EE89FF89608388
:1035C000E889F98980818064808381E090E0DF91DF
:1035D000CF911F910F91FF90EF900895CF93DF93BC
:1035E000EC01888D8823C1F0EA89FB89808185FD03
:1035F00005C0A889B9898C9186FD0EC00FB607FC5D
:10360000F5CF808185FFF2CFA889B9898C9185FF9C
:10361000EDCFCE010ED1E8CFDF91CF9108950F937A
:103620001F93CF93DF93CDB7DEB729970FB6F894EA
:10363000DEBF0FBECDBF8C01862FF8011182108234
:10364000138212821582148250E0BE016F5F7F4F99
:1036500090E0F6D7BE016F5F7F4FC80144D929962D
:103660000FB6F894DEBF0FBECDBFDF91CF911F9193
:103670000F910895FC01118210821382128215822B
:1036800014826115710549F0FB0101900020E9F7F2
:103690003197AF01461B570BFCC8089561157105A2
:1036A00079F0FB0101900020E9F73197AF01461B4B
:1036B000570BDC01ED91FC910280F381E02D199410
:1036C00080E090E008950F931F93CF93DF93EC0178
:1036D000E5DF8C0165E273E0CE01E0DF800F911F32
:1036E000DF91CF911F910F9108951F920F920FB606
:1036F0000F9211240BB60F922F933F934F935F932A
:103700006F937F938F939F93AF93BF93EF93FF93A9
:1037100080EC95E08ED0FF91EF91BF91AF919F919A
:103720008F917F916F915F914F913F912F910F906A
:103730000BBE0F900FBE0F901F9018951F920F9207
:103740000FB60F9211240BB60F922F938F939F9366
:10375000EF93FF93E091D005F091D1058081E09146
:10376000D605F091D70582FD12C090818091D905D0
:103770008F5F8F732091DA05821751F0E091D905A0
:10378000F0E0E054FA4F958F8093D90501C0808115
:10379000FF91EF919F918F912F910F900BBE0F9002
:1037A0000FBE0F901F90189580E090E0892B19F0C4
:1037B000C6DE811125C080E090E0892B41F080E0D9
:1037C00090E0892B21F00E94000081111CC080E054
:1037D00090E0892B41F080E090E0892B21F00E945D
:1037E0000000811113C080E090E0892BA1F080E0FF
:1037F00090E0892B81F00E94000081110AC0089599
:103800000E940000D8CF0E940000E1CF0E9400007B
:10381000EACF0C9400000895FC01648175818681D3
:1038200097810895089560E070E0CB0108950E94AB
:10383000002AFC01848DDF01A80FB11DA35ABF4FE0
:103840002C91848D90E001968F739927848FA6899F
:10385000B7892C93A089B1898C9180648C93938DC6
:10386000848D981306C00288F389E02D80818F7DB6
:1038700080830895362F90E0FC01E451FC4F449181
:10388000FC01EE58FD4F2491FC01E45DFD4F949145
:10389000992309F46BC0442309F455C050E0FA01A0
:1038A0003197E231F10508F04EC08827EE58FF4FFE
:1038B0008F4F0C94E727809180008F7707C080910D
:1038C00080008F7D03C080918000877F809380007F
:1038D0003AC084B58F7702C084B58F7D84BD33C074
:1038E0008091B0008F7703C08091B0008F7D80936E
:1038F000B00029C0809190008F7707C08091900020
:103900008F7D03C080919000877F809390001BC0C3
:103910008091A0008F7707C08091A0008F7D03C0A9
:103920008091A000877F8093A0000DC0809120012E
:103930008F7707C0809120018F7D03C08091200187
:10394000877F80932001E92FF0E0EE0FFF1FEE52FA
:10395000FC4FA591B4918FB7F894EC91311103C04D
:1039600020952E2301C02E2B2C938FBF0895CF932B
:10397000DF9390E0FC01EE58FD4F2491FC01E45DE3
:10398000FD4F8491882361F190E0880F991FFC011D
:10399000E854FC4FC591D491FC01EE52FC4FA59127
:1039A000B491611109C09FB7F89488812095822352
:1039B0008883EC912E230BC0623061F49FB7F8949A
:1039C0003881822F809583238883EC912E2B2C9332
:1039D0009FBF06C08FB7F894E8812E2B28838FBF36
:1039E000DF91CF910895863308F0865390917B0044
:1039F000282F2870977F922B90937B00877080648C
:103A000080937C0080917A00806480937A0080911A
:103A10007A0086FDFCCF809178002091790090E0BB
:103A2000922B08952FB7F8946091C5077091C6073F
:103A30008091C7079091C8072FBF08958F929F92DA
:103A4000AF92BF92CF92DF92EF92FF920F931F93AC
:103A5000CF93DF931F92CDB7DEB78C01E3DFD801A0
:103A60001E96CD90DD90ED90FC905197DC01CB013E
:103A70008C199D09AE09BF09F801C284D384E4847E
:103A8000F5848C159D05AE05BF0508F45AC1CADF43
:103A9000D8011E966D937D938D939C9351971896A4
:103AA0008D919C9119970E941C03F8018085918546
:103AB0000E94B81340E06EEBD80118968D919C914E
:103AC00019970E94DB0224EB822E27E0922EF80148
:103AD000A084B18498E0C92ED12CEE24E394F12C7B
:103AE000C5010E9488028111FE28EE0CF1E0CF1A78
:103AF000D108B1F7D401FD924D01BDEB8B16B7E0B3
:103B00009B0629F7D8011896ED91FC911997138619
:103B100015861486DF011B9633961E92AE17BF07DB
:103B2000E1F76091B50770E0762F66278091B407C2
:103B3000682B072E000C880B990B0E94BE2520E0F5
:103B400030E040E85DE30E941D266093B00770936B
:103B5000B1078093B2079093B307F801648375832C
:103B600086839783A084B184D5011D968C918111A1
:103B700063C0C5010E941C03882309F45DC040E0B6
:103B800060EFC5010E94DB02EE24E394D12CC12C2E
:103B9000FF24F394C5010E948802682FC501698340
:103BA0000E9488026981613019F48130D1F437C0F4
:103BB0002D2D30E068131EC0D5011B968C91F81690
:103BC00038F4F501E20FF31F83818E2151F402C016
:103BD000F81639F060E0B8E0BF1558F0F501F4864A
:103BE00008C0F501ED0DF11D83818E29838361E00D
:103BF00009C0CF2CF501E20FF31F93818E2D809524
:103C000089238383C5010E94AC02F394EE0C19F45E
:103C1000D394EE24E394F7E0FD1508F0BBCF80E4E5
:103C20008F1550F4D5011B96CC921B97C1101DC067
:103C300081E01D968C9319C0F501138615861486B4
:103C400064E573E080EC95E03EDDD8011896ED91D7
:103C5000FC911997138615861486DF011B963396FF
:103C60001E92AE17BF07E1F76CC0F5018381882370
:103C700019F3D5011396E6EBF3E08D91819383E080
:103C8000EE3BF807D1F7A6EBB3E0E0E0CD01895FAA
:103C90008A1739F09D91E927F0E0E854FD4FE4914F
:103CA000F7CF8091BD03E81791F068E273E080ECF4
:103CB00095E00F90DF91CF911F910F91FF90EF90C2
:103CC000DF90CF90BF90AF909F908F90FCCC809171
:103CD000B6038031A1F0883291F06AE373E080ECA2
:103CE00095E00F90DF91CF911F910F91FF90EF9092
:103CF000DF90CF90BF90AF909F908F90CFCCD801A6
:103D000018968D919C9119970E941C03F80180854B
:103D100091850E94B81341E064E4D80118968D9112
:103D20009C9119970F90DF91CF911F910F91FF9068
:103D3000EF90DF90CF90BF90AF909F908F900C94BA
:103D4000DB020F90DF91CF911F910F91FF90EF90C9
:103D5000DF90CF90BF90AF909F908F9008951F926B
:103D60000F920FB60F9211242F933F938F939F932F
:103D7000AF93BF938091C5079091C607A091C707E5
:103D8000B091C8073091C40723E0230F2D3720F4EA
:103D90000196A11DB11D05C026E8230F0296A11DA5
:103DA000B11D2093C4078093C5079093C607A093C5
:103DB000C707B093C8078091C0079091C107A09131
:103DC000C207B091C3070196A11DB11D8093C00722
:103DD0009093C107A093C207B093C307BF91AF915F
:103DE0009F918F913F912F910F900FBE0F901F9039
:103DF00018950F931F93CF93DF93CDB7DEB7A79797
:103E00000FB6F894DEBF0FBECDBFCB01BA011BA227
:103E10001AA21DA21CA21FA21EA28E010F5F1F4F7D
:103E20002AE04CE0EED3BC01CE0182960E947314CE
:103E3000CE0182960E94F713CE0182960E949314BF
:103E40000E94D413A7960FB6F894DEBF0FBECDBF65
:103E5000DF91CF911F910F910895CF93DF93C4EB22
:103E6000D6E089919991009711F00E94842886E00C
:103E7000C83CD807B1F78FEE96E00E94931485EF07
:103E800096E00E9493148BED96E0DF91CF910C9415
:103E90009314CF92DF92EF92FF92CF93DF93109221
:103EA000C3051092C20588EEC82E83E0D82EE12CFF
:103EB000F12CC092C405D092C505E092C605F092DF
:103EC000C7058EE092E09093C1058093C00585EC14
:103ED00090E09093CD058093CC0584EC90E0909396
:103EE000CF058093CE0580EC90E09093D105809330
:103EF000D00581EC90E09093D3058093D20582ECBD
:103F000090E09093D5058093D40586EC90E0909353
:103F1000D7058093D6051092D9051092DA05109234
:103F2000DB051092DC0567E273E08BED96E0A2DB27
:103F300067E273E085EF96E09DDB67E273E08FEE6A
:103F400096E098DB80E580935D0610925E06109205
:103F50006406109265061092680610926A0682E066
:103F600090E0A0E0B0E080936B0690936C06A09385
:103F70006D06B0936E061092820610928C06109217
:103F80008B068EE192E090938A06809389061092C8
:103F90008E061092AB061092AA06C092AC06D09282
:103FA000AD06E092AE06F092AF0686E292E0909304
:103FB000A9068093A80660E085E0D9DCE7E7F2E097
:103FC000E491E093E106E1E3F2E0E491F0E0EE0F4A
:103FD000FF1FEE5EFD4F859194919093E3068093D1
:103FE000E2061092EC061092EE061092ED06ECEE50
:103FF000F6E0129286E0E43EF807D9F781EE97E00A
:104000009093C9068093C80684E08093CA0691E124
:104010009093CB068093CC068EE08093CD0685E00E
:104020008093CE061092CF06E4EBF6E084E1DF0148
:104030001D928A95E9F711921192B6E0E83CFB07D0
:10404000D1F784E290E0CBD7FC0186E392E0918344
:10405000808388E390E093838283148215821682A2
:1040600017828EE190E091878087148A158A168ADC
:10407000178A108E118E128E138E10A211A212A208
:1040800013A2F093B506E093B40682E190E0A7D7BF
:10409000EC0180E492E09983888382E593E0A0E0DC
:1040A000B0E08A879B87AC87BD8781EE96E09987D1
:1040B0008887D093B706C093B60686E390E08FD783
:1040C000FC018AE492E09183808387E390E093830C
:1040D000828314821582168217829F01265F3F4FCA
:1040E0008AE0D9011D928A95E9F7158A148A168A01
:1040F000178A108E118E128E138E148E158E178EB7
:10410000168E11A210A212A213A214A215A216A218
:1041100017A210A611A612A613A614A615A689E129
:1041200090E0A0E0B0E086A797A7A0ABB1AB8CEB86
:1041300092E0A0E0B0E082AB93ABA4ABB5ABD1878B
:10414000C087F093BB06E093BA068AE290E047D7B7
:10415000FC0184E592E09183808389E390E093837E
:10416000828380E090E0A0EAB0E484839583A68314
:10417000B7831086118612861386148615861686D6
:104180001786128E138E148E158EF093BD06E09353
:10419000BC0685E290E023D7FC0186E892E091839B
:1041A000808385E390E0938382831186108688EE76
:1041B00093E0A0E0B0E082879387A487B5878EE57F
:1041C00092E09783868310A2178E128A11A212A200
:1041D00013A214A284EB96E095838483F093BF0628
:1041E000E093BE06DF91CF91FF90EF90DF90CF90EC
:1041F0000895789484B5826084BD84B5816084BD5F
:1042000085B5826085BD85B5816085BD80916E0074
:10421000816080936E0010928100809181008260A5
:1042200080938100809181008160809381008091E2
:1042300080008160809380008091B10084608093D1
:10424000B1008091B00081608093B00080919100B6
:1042500082608093910080919100816080939100B1
:10426000809190008160809390008091A100826095
:104270008093A1008091A10081608093A100809132
:10428000A00081608093A0008091210182608093D2
:104290002101809121018160809321018091200181
:1042A00081608093200180917A00846080937A00FD
:1042B00080917A00826080937A0080917A00816098
:1042C00080937A0080917A00806880937A001092BF
:1042D000C100E091D005F091D10582E08083E091AA
:1042E000CC05F091CD051082E091CE05F091CF057F
:1042F0008FEC80831092D805E091D405F091D5051C
:1043000086E08083E091D205F091D30580818061C1
:104310008083E091D205F091D3058081886080830D
:10432000E091D205F091D305808180688083E0918F
:10433000D205F091D30580818F7D808310928F0705
:1043400010928E07109245071092660710928D0703
:1043500081E080938C071092870761E084E18ADA1C
:1043600061E085E187DA8091B9008E7F8093B900A2
:104370008091B9008D7F8093B90088E48093B80064
:1043800085E48093BC00C4EBD6E0899199910097B5
:1043900039F0DC01ED91FC910190F081E02D19954F
:1043A000B6E0C83CDB0789F7D1E0DD24DA9426E0EB
:1043B000A22E07E617E030E9E32E37E0F32E42E0C5
:1043C000942E55EEC52E65ECB62E2CDB4090D7060C
:1043D0005090D8066090D9067090DA06DC01CB01C7
:1043E00084199509A609B709893E9340A105B1052D
:1043F00008F4EFC017DB6093D7067093D80680935C
:10440000D9069093DA0680918D078111FCCFD09365
:104410008D07D0938C07D0928B0710928A07A092B9
:104420008907D093880780918807846680938807DE
:1044300080918707813069F41092870780918807FF
:104440008093BB008091BC0083FDF8CFB092BC008C
:1044500002C0C092BC0080918D078130E1F3809151
:104460008A07873018F480908A0702C097E0892E67
:10447000E0E9F7E0A7E6B7E08E2F8E19881518F46B
:104480008D918193F9CF10928F0780928E07C0E0B3
:1044900080918F07881671F0772473947C0E88EAD8
:1044A00096E00E941115EC2FF0E0E853F94F808759
:1044B000C72DEECF80916607813208F040C0909101
:1044C0008D079111FCCF90928D07D0938C07D092DD
:1044D0008B0710928A0780938907A6E4B7E0E7E686
:1044E000F7E09E2F901B981718F49D919193F9CFA8
:1044F00010928807809188078093880780918707AA
:10450000813069F410928707809188078093BB00FF
:104510008091BC0083FDF8CFB092BC0002C0C09275
:10452000BC0080918D078230E1F380918B078F3F33
:1045300031F080918B07803211F080918B071092BF
:1045400045071092660710924407E0EDF6E090E010
:10455000923059F08081282F22952F708F703AE089
:10456000239F800D112480830FC08091D206282FB5
:104570002695269526952E70322F330F330F230F55
:104580008F70820F8093D2069F5F3196973001F72C
:104590008091D60690E08053984F9093C9068093FF
:1045A000C8068091D5068093CA068091D406809370
:1045B000CB068091D3068093CC068091D20680935F
:1045C000CD068091D1068093CE068091D00680934F
:1045D000CF0684EB682E86E0782ED3018D919D91D5
:1045E0003D01009739F0DC01ED91FC910280F381EF
:1045F000E02D1995B8EC6B16B6E07B0671F7D4D8B0
:10460000E4CEEF920F931F93CF93DF93E80147FD22
:1046100002C034E001C034E1E42F440FFF0BF7FF88
:1046200003C0F195E195F109E32E022F2E2FAE0183
:104630002AD0CE01DF91CF911F910F91EF90089575
:104640004532510518F4423008F004C0FB011082D5
:10465000CB010895BB27FB015527AA27880F991F77
:10466000AA1FA41710F0A41B83955051B9F7A05DA1
:10467000AA3308F0A95DA193009779F7B111B1931E
:104680001192CB0165C24F925F926F927F929F927F
:10469000AF92BF92CF92DF92EF92FF920F931F9350
:1046A000CF93DF93CDB7DEB729970FB6F894DEBF6F
:1046B0000FBECDBF6A01122FB02E2BE3201720F0C2
:1046C000FF24F394F00E02C0BCE3FB2E0F2D27E075
:1046D000AE014F5F5F4F64D1AC018981982F997013
:1046E000913031F0E1FC06C0E0FE06C090E205C06A
:1046F0009DE203C09BE201C090E0EE2DE07183FFDC
:104700003CC0911102C083E001C084E0811718F41D
:10471000212F281B01C020E0E1110BC0F601822FE0
:1047200030E2882319F031938150FBCFC20ED11CA7
:1047300020E0992329F0D6019C93F60131966F0170
:10474000C6010396E2FE0AC03EE4D6013C9341E472
:1047500011964C93119712963C9306C03EE6F601D3
:10476000308341E641833283FC01322F40E2332320
:1047700009F442C041933150FACF82FF44C09111F5
:1047800002C083E001C084E0811718F4212F281BA8
:1047900001C020E0E1110BC0F601822F30E2882336
:1047A00019F031938150FBCFC20ED11C20E0992328
:1047B00029F0D6019C93F60131966F01C60103964C
:1047C000E2FE0BC039E4D6013C933EE411963C93E3
:1047D000119736E412963C9307C039E6F601308310
:1047E0003EE6318336E63283FC01322F40E233234A
:1047F00019F041933150FBCFFC01E20FF11D108203
:104800008EEF9FEFB7C0F1E0911101C0F0E06F2F84
:1048100070E01416150624F49A012F5F3F4F02C072
:1048200021E030E0260F371FBB2029F06B2D70E010
:104830006F5F7F4F02C060E070E0260F371F612F6F
:1048400070E0261737071CF4121B212F01C020E04F
:104850003E2D387159F4D601322F60E2332319F01E
:104860006D933150FBCFC20ED11C20E0FF2331F0FD
:10487000D6019C93B6016F5F7F4F6B01E1110BC0B6
:10488000F601922F30E3992319F031939150FBCF29
:10489000C20ED11C20E09F2D940F3A81782F7071A9
:1048A000A72E84FF03C0313309F49150191624F464
:1048B000993018F098E001C091E0E42F852F57FF60
:1048C00002C0E0E080E06E2F782FE0E0F0E0AEE2A2
:1048D0009A2E3A01691A71082A01461A570A0B2DB5
:1048E00010E01195019511096F3F8FEF780729F4BA
:1048F000D6019C92C60101966C014617570784F0B9
:10490000661677066CF47F01E40CF51CA1E0B0E0BC
:10491000AC0FBD1FEA0EFB1ED7011196BC9002C062
:1049200090E3B92E615071093196C60101967C0160
:104930006017710724F0D601BC926C01D5CF6417C3
:10494000750741F4363320F4353321F4A11002C049
:1049500081E3B82EF601B082F701822F90E288231E
:1049600019F091938150FBCFF701E20FF11D1082F6
:1049700080E090E029960FB6F894DEBF0FBECDBF61
:10498000DF91CF911F910F91FF90EF90DF90CF902B
:10499000BF90AF909F907F906F905F904F900895E1
:1049A000283008F027E03327DA01990F311D87FD01
:1049B000916000966105710539F432602E5F3D9378
:1049C00030E32A95E1F708959F3F30F08038710574
:1049D000610509F03C5F3C5F3D93913008F08068D1
:1049E000911DDF93CF931F930F93FF92EF92192F97
:1049F000987F9695E92F96959695E90FFF27EE59A2
:104A0000FE4F99273327EE24FF24A701E7010590E5
:104A10000894079428F4360FE71EF81E491F511D0D
:104A2000660F771F881F991F0694A1F705900794BA
:104A300028F4E70EF81E491F561FC11D770F881F67
:104A4000991F661F0694A1F70590079428F4F80EA5
:104A5000491F561FC71FD11D880F991F661F771F3B
:104A60000694A1F70590079420F4490F561FC71F1D
:104A7000D81F990F661F771F881F0694A9F7849186
:104A80001095177041F0D695C79557954795F794AF
:104A9000E7941A95C1F7E8E0F1E068941590159154
:104AA00035916591959105907FE27395E118F10A32
:104AB000430B560BC90BD009C0F7E10CF11E431F85
:104AC000561FC91FD01D7EF4703311F48A95E6CFAE
:104AD000E894015030F0080F0AF40027021708F498
:104AE000202F2395022F7A3328F079E37D932A959E
:104AF000E9F710C07D932A9589F6069497956795F6
:104B0000379517951794E118F10A430B560BC90B0B
:104B1000D00998F023957E9173957A3308F070E36D
:104B20007C932013B8F77E9170617D9330F083956C
:104B300071E37D9370E32A95E1F71124EF90FF90E4
:104B40000F911F91CF91DF91992787FD909508953F
:104B5000DC01FC01672F71917723E1F7329704C0E4
:104B60007C916D9370836291AE17BF07C8F308956F
:104B700040D008F481E00895E89409C097FB3EF422
:104B800090958095709561957F4F8F4F9F4F99239A
:104B9000A9F0F92F96E9BB279395F6958795779518
:104BA0006795B795F111F8CFFAF4BB0F11F460FFD8
:104BB0001BC06F5F7F4F8F4F9F4F16C0882311F030
:104BC00096E911C0772321F09EE8872F762F05C044
:104BD000662371F096E8862F70E060E02AF09A95DF
:104BE000660F771F881FDAF7880F9695879597F9D4
:104BF0000895990F0008550FAA0BE0E8FEEF16166E
:104C00001706E807F907C0F012161306E407F507C0
:104C100098F0621B730B840B950B39F40A2661F034
:104C2000232B242B252B21F408950A2609F4A140D7
:104C3000A6958FEF811D811D08950BD078C069D096
:104C400028F06ED018F0952309F05AC05FC01124E7
:104C5000A2C07ED0A0F3959FD1F3950F50E0551FD1
:104C6000629FF001729FBB27F00DB11D639FAA27C1
:104C7000F00DB11DAA1F649F6627B00DA11D661F10
:104C8000829F2227B00DA11D621F739FB00DA11D31
:104C9000621F839FA00D611D221F749F3327A00DEB
:104CA000611D231F849F600D211D822F762F6A2F87
:104CB00011249F5750408AF0E1F088234AF0EE0F0C
:104CC000FF1FBB1F661F771F881F91505040A9F719
:104CD0009E3F510570F014C05EC05F3FECF3983EFC
:104CE000DCF3869577956795B795F795E7959F5F80
:104CF000C1F7FE2B880F911D9695879597F908951A
:104D000097F99F6780E870E060E008959FEF80EC7E
:104D1000089500240A941616170618060906089521
:104D200000240A9412161306140605060895092E87
:104D30000394000C11F4882352F0BB0F40F4BF2BF6
:104D400011F460FF04C06F5F7F4F8F4F9F4F089536
:104D500057FD9058440F551F59F05F3F71F047952C
:104D6000880F97FB991F61F09F3F79F08795089511
:104D7000121613061406551FF2CF4695F1DF08C030
:104D8000161617061806991FF1CF8695710561054D
:104D900008940895E894BB2766277727CB0197F9F5
:104DA000089509D0A59F900DB49F900DA49F800DEC
:104DB000911D11240895A29FB001B39FC001A39F2C
:104DC000700D811D1124911DB29F700D811D112444
:104DD000911D08955058BB27AA270ED0A8CF99DF60
:104DE00030F09EDF20F031F49F3F11F41EF48ECF9F
:104DF0000EF4E095E7FB84CFE92FAADF80F3BA1722
:104E0000620773078407950718F071F49EF5C2CF07
:104E10000EF4E0950B2EBA2FA02D0B01B9019001D5
:104E20000C01CA01A0011124FF27591B99F0593F19
:104E300050F4503E68F11A16F040A22F232F342F61
:104E40004427585FF3CF469537952795A795F040AF
:104E50005395C9F77EF41F16BA0B620B730B840BC4
:104E6000BAF09150A1F0FF0FBB1F661F771F881F7C
:104E7000C2F70EC0BA0F621F731F841F48F48795D4
:104E800077956795B795F7959E3F08F0B3CF9395C3
:104E9000880F08F09927EE0F9795879508950CD005
:104EA00046CF3EDF40F035DF30F021F45F3F19F0B0
:104EB00027CF511170CF2ACF4BDF98F39923C9F335
:104EC0005523B1F3951B550BBB27AA276217730710
:104ED000840738F09F5F5F4F220F331F441FAA1FC4
:104EE000A9F333D00E2E3AF0E0E830D09150504084
:104EF000E695001CCAF729D0FE2F27D0660F771F32
:104F0000881FBB1F261737074807AB07B0E809F013
:104F1000BB0B802DBF01FF2793585F4F2AF09E3FA8
:104F2000510568F0EDCE37CF5F3FECF3983EDCF3F0
:104F3000869577956795B795F7959F5FC9F7880F21
:104F4000911D9695879597F90895E1E0660F771F73
:104F5000881FBB1F621773078407BA0720F0621B04
:104F6000730B840BBA0BEE1F88F7E0950895F8DEFB
:104F700088F09F5790F0B92F9927B751A0F0D1F042
:104F8000660F771F881F991F1AF0BA95C9F712C0CC
:104F9000B13081F0FFDEB1E00895FCCE672F782FAD
:104FA0008827B85F39F0B93FCCF386957795679538
:104FB000B395D9F73EF490958095709561957F4FA4
:104FC0008F4F9F4F089515DE08F48FEF0895EE0F71
:104FD000FF1F881F8BBF0790F691E02D1994CF9388
:104FE000DF938230910510F482E090E0E091CB07EE
:104FF000F091CC0720E030E0C0E0D0E0309711F134
:105000004081518148175907C0F04817590761F48A
:1050100082819381209719F09B838A832BC0909380
:10502000CC078093CB0726C02115310519F0421714
:10503000530718F49A01BE01DF01EF010280F381EA
:10504000E02DDCCF2115310509F1281B390B243067
:10505000310590F412968D919C911397611571050D
:1050600021F0FB019383828304C09093CC0780934B
:10507000CB07FD01329644C0FD01E20FF31F81937F
:105080009193225031092D933C933AC02091C90746
:105090003091CA07232B41F4209106023091070278
:1050A0003093CA072093C90720910402309105026A
:1050B0002115310541F42DB73EB7409108025091BA
:1050C0000902241B350BE091C907F091CA07E217CA
:1050D000F307A0F42E1B3F0B2817390778F0AC011B
:1050E0004E5F5F4F2417350748F04E0F5F1F5093F8
:1050F000CA074093C9078193919302C0E0E0F0E0B2
:10510000CF01DF91CF9108950F931F93CF93DF933A
:10511000009709F48CC0FC0132971382128200912F
:10512000CB071091CC070115110581F42081318145
:10513000820F931F2091C9073091CA07281739079A
:1051400079F5F093CA07E093C90771C0D80140E030
:1051500050E0AE17BF0750F412962D913C91139773
:10516000AD012115310509F1D901F3CF9D01DA0116
:105170003383228360817181860F971F8217930783
:1051800069F4EC0128813981260F371F2E5F3F4FCC
:10519000318320838A819B8193838283452B29F4E9
:1051A000F093CC07E093CB0742C01396FC93EE93A9
:1051B0001297ED01499159919E01240F351FE21775
:1051C000F30771F480819181840F951F02961196E7
:1051D0009C938E938281938113969C938E931297C6
:1051E000E0E0F0E0D80112968D919C911397009722
:1051F00019F0F8018C01F6CF8D919C9198012E5FEA
:105200003F4F820F931F2091C9073091CA0728177B
:10521000390769F4309729F41092CC071092CB0724
:1052200002C0138212821093CA070093C907DF914C
:10523000CF911F910F9108956F927F928F929F92BD
:10524000AF92BF92CF92DF92EF92FF920F931F9394
:10525000CF93DF93EC01009781F4CB01DF91CF91E5
:105260001F910F91FF90EF90DF90CF90BF90AF9084
:105270009F908F907F906F90B2CEFC01E60FF71F4A
:105280009C0122503109E217F30708F4A8C0D901A4
:105290000D911C91119706171707A8F005301105FD
:1052A00008F49BC0C80104978617970708F495C0B7
:1052B00002501109061B170B019311936D937C93F8
:1052C000CF0122DF8AC05B01A01AB10A4C01800E17
:1052D000911EA091CB07B091CC0740E050E0E12CAB
:1052E000F12C109709F44AC0A815B905D1F56D90B5
:1052F0007C901197630182E0C80ED11CCA14DB04B4
:1053000080F1A3014A195B096A0182E0C80ED11C31
:105310001296BC9012971396AC91B5E0CB16D104BF
:1053200040F0B282A38351834083D9016D937C9373
:105330000AC00E5F1F4FC301800F911FF9019183B7
:105340008083EB2DFA2FE114F10431F0D70113968D
:10535000FC93EE93129741C0F093CC07E093CB07F8
:105360003CC08D919C9111974817590708F4AC01E6
:105370007D0112960D90BC91A02DB3CF8091C907ED
:105380009091CA0788159905E1F446175707C8F4A4
:105390008091040290910502009741F48DB79EB769
:1053A0004091080250910902841B950BE817F907F8
:1053B000B0F4F093CA07E093C907F90171836083E1
:1053C0000CC0CB010CDE7C01009749F0A801BE01A6
:1053D00028D0CE0199DEC70104C0CE0102C080E012
:1053E00090E0DF91CF911F910F91FF90EF90DF90B0
:1053F000CF90BF90AF909F908F907F906F900895C7
:1054000081E090E0F8942CC0FB01DC0104C08D9198
:105410000190801921F441505040C8F7881B990B26
:105420000895FB01DC0102C001900D9241505040F3
:10543000D8F70895FB01DC0101900D920020E1F7FF
:105440000895FB01DC014150504048F001900D925D
:105450000020C9F701C01D9241505040E0F7089567
:1054600012E0CAE1D2E000E005C0802FFE01AFDD0E
:105470002196011DCB31D10780E00807B1F7F894E0
:02548000FFCF5C
:10548200FFFFFFFF0000CD07800000000000A81A08
:10549200461A931A711A851AEE1A000000007F0844
:1054A200461A000000005C152D1525151115021570
:1054B200011500000000D90CE00E500B00000000A6
:1054C200121C1E1D0C1C00000000DE0CA1105D0B46
:1054D200000000005C0BAC0F560B00000000B9147A
:1054E20092159814E318EC188A1500000000171C96
:1054F200461A171C171C171C171C00000000171C4B
:10550200461A00000000F20C630B131C496E69740A
:1055120069616C697A696E672053442063617264C1
:105522002E2E2E006361726420696E697469616C4B
:10553200697A65642E0043617264206661696C65F4
:10554200642C206F72206E6F742070726573656EAA
:105552007400596561722C4D6F6E74682C446179C8
:105562002C486F75722C4D696E7565732C5365638B
:105572006F6E642C70482C74656D702843292C441E
:105582004F286D672F6C302C656328732F6D292C83
:105592006F7270286D76290073656E736F722E6359
:1055A2007376002C000D0A00435243206973206E6B
:1055B2006F742076616C6964210044657669636565
:1055C200206973206E6F74207265636F676E697AEB
:1055D200656421006E6F206D6F72652073656E7356
:1055E2006F7273206F6E20636861696E2C20726522
:0C55F200736574207365617263682100AA
:020000023000CC
:10E000000D9489F10D94B2F10D94B2F10D94B2F129
:10E010000D94B2F10D94B2F10D94B2F10D94B2F1F0
:10E020000D94B2F10D94B2F10D94B2F10D94B2F1E0
:10E030000D94B2F10D94B2F10D94B2F10D94B2F1D0
:10E040000D94B2F10D94B2F10D94B2F10D94B2F1C0
:10E050000D94B2F10D94B2F10D94B2F10D94B2F1B0
:10E060000D94B2F10D94B2F10D94B2F10D94B2F1A0
:10E070000D94B2F10D94B2F10D94B2F10D94B2F190
:10E080000D94B2F10D94B2F10D94B2F10D94B2F180
:10E090000D94B2F10D94B2F10D94B2F10D94B2F170
:10E0A0000D94B2F10D94B2F10D94B2F10D94B2F160
:10E0B0000D94B2F10D94B2F10D94B2F10D94B2F150
:10E0C0000D94B2F10D94B2F10D94B2F10D94B2F140
:10E0D0000D94B2F10D94B2F10D94B2F10D94B2F130
:10E0E0000D94B2F141546D656761323536300041AF
:10E0F000726475696E6F206578706C6F72657220DE
:10E1000073746B3530305632206279204D4C530099
:10E11000426F6F746C6F616465723E004875683F52
:10E1200000436F6D70696C6564206F6E203D200048
:10E130004350552054797065202020203D20005FF9
:10E140005F4156525F415243485F5F3D2000415658
:10E1500052204C696243205665723D20004743437C
:10E160002056657273696F6E203D20004350552024
:10E1700049442020202020203D20004C6F7720663D
:10E18000757365202020203D20004869676820665F
:10E190007573652020203D200045787420667573D6
:10E1A00065202020203D20004C6F636B2066757336
:10E1B000652020203D20004D617220203720323024
:10E1C000313300312E362E3800342E332E350056A2
:10E1D00023202020414444522020206F7020636F70
:10E1E00064652020202020696E73747275637469E1
:10E1F0006F6E2061646472202020496E74657272B3
:10E20000757074006E6F20766563746F7200726A49
:10E210006D702020006A6D70200057686174207056
:10E220006F72743A00506F7274206E6F7420737541
:10E2300070706F72746564004D7573742062652030
:10E2400061206C6574746572002000577269747483
:10E25000696E672045450052656164696E672045B7
:10E26000450045452065727220636E743D00504F35
:10E27000525400303D5A65726F2061646472003FF1
:10E280003D43505520737461747300403D454550C3
:10E29000524F4D207465737400423D426C696E6B41
:10E2A000204C454400453D44756D70204545505215
:10E2B0004F4D00463D44756D7020464C415348001B
:10E2C000483D48656C70004C3D4C69737420492F83
:10E2D0004F20506F72747300513D51756974005234
:10E2E0003D44756D702052414D00563D73686F7707
:10E2F00020696E7465727275707420566563746FF0
:10E30000727300593D506F727420626C696E6B00BD
:10E310002A0011241FBECFEFD1E2DEBFCDBF01E046
:10E320000CBF12E0A0E0B2E0EEE1FDEF03E00BBFB6
:10E3300002C007900D92A030B107D9F712E0A0E01B
:10E34000B2E001C01D92AE30B107E1F70F9460F367
:10E350000D948DFE01E20EBF0FEF0DBF11241FBE05
:10E360000D9460F30D9400F020E030E040ED57E0B4
:10E3700005C0FA013197F1F72F5F3F4F2817390792
:10E38000C0F308959C01260F311DC901A0E0B0E043
:10E390002F5F3F4FABBFFC018791882361F08093D3
:10E3A000C6008091C00086FFFCCF8091C0008064D1
:10E3B0008093C000EACF08958DE08093C6008091DD
:10E3C000C00086FFFCCF8091C00080648093C000B5
:10E3D0008AE08093C6008091C00086FFFCCF8091C8
:10E3E000C00080648093C00008950F94C2F10F9420
:10E3F000DCF10895FC019081992359F09093C600B7
:10E400008091C00086FFFCCF8091C0008064809323
:10E41000C0003196992379F70895282F982F929567
:10E420009F70892F805D8A3308F0895F8093C600D2
:10E430008091C00086FFFCCF8091C00080648093F3
:10E44000C000822F8F70982F905D9A3308F0995FEB
:10E450009093C6008091C00086FFFCCF8091C000E1
:10E4600080648093C00008959C01FB01853691056E
:10E470001CF46330710594F0C90164E670E00F94F8
:10E480002EFE605D7F4F6093C6008091C00086FFC6
:10E49000FCCF8091C00080648093C0002B30310598
:10E4A00014F43297B4F0C90164E670E00F942EFEC4
:10E4B0006AE070E00F942EFE605D7F4F6093C600AF
:10E4C0008091C00086FFFCCF8091C0008064809363
:10E4D000C000C9016AE070E00F942EFEC0968093E0
