:100000000C9468010C9490010C9490010C94900154
:100010000C9490010C9490010C9490010C9490011C
:100020000C9490010C9490010C9490010C9490010C
:100030000C9490010C9490010C9490010C949001FC
:100040000C94181D0C9490010C94611A0C943B1A9A
:100050000C9490010C9490010C9490010C949001DC
:100060000C94A60D0C94900100407A10F35A00A055
:10007000724E18090010A5D4E80000E87648170071
:1000800000E40B54020000CA9A3B000000E1F505B1
:10009000000080969800000040420F000000A086FB
:1000A00001000000102700000000E803000000002D
:1000B0006400000000000A000000000001000000D1
:1000C00000002C76D888DC674F0823DFC1DFAE59EB
:1000D000E1B1B796E5E3E453C63AE651997696E87E
:1000E000E6C28426EB898C9B62ED407C6FFCEFBC02
:1000F0009C9F40F2BAA56FA5F490055A2AF75C932D
:100100006B6CF9676DC11BFCE0E40D47FEF520E662
:10011000B500D0ED902E0300943577050080841E45
:10012000080000204E0A000000C80C333333330FA0
:10013000986E12831141EF8D2114893BE65516CF3D
:10014000FEE6DB18D1844B381BF77C1D901DA4BB49
:10015000E424203284725E228100C9F124ECA1E5FE
:100160003D277C3C3E5E2B3D3F2F5B5D3B2C2A2296
:100170005C000000000023002600290004040404A1
:100180000404040402020202020203030303030341
:10019000010204081020408001020408102001021E
:1001A00004081020005EBCE2613FDD83C29C7E201B
:1001B000A3FD1F419DC3217FFCA2401E5F01E3BD43
:1001C0003E6082DC237D9FC1421CFEA0E1BF5D0337
:1001D00080DE3C62BEE0025CDF81633D7C22C09E2B
:1001E0001D43A1FF4618FAA427799BC584DA386617
:1001F000E5BB5907DB856739BAE406581947A5FB03
:100200007826C49A653BD987045AB8E6A7F91B45F6
:10021000C6987A24F8A6441A99C7257B3A6486D8EA
:100220005B05E7B98CD2306EEDB3510F4E10F2ACD6
:100230002F7193CD114FADF3702ECC92D38D6F31C2
:10024000B2EC0E50AFF1134DCE90722C6D33D18FB6
:100250000C52B0EE326C8ED0530DEFB1F0AE4C12AA
:1002600091CF2D73CA947628ABF517490856B4EA96
:100270006937D58B5709EBB536688AD495CB297782
:10028000F4AA4816E9B7550B88D6346A2B7597C976
:100290004A14F6A8742AC896154BA9F7B6E80A546A
:1002A000D7896B3500000000240027002A000000D9
:1002B0000000250028002B000000000800020100BB
:1002C000000304070000000000000000B31D971D9C
:1002D00011241FBECFEFD8E0DEBFCDBF12E0A0E0FB
:1002E000B1E0ECEBF2E502C005900D92A038B10749
:1002F000D9F726E0A0E8B2E001C01D92A73BB20703
:10030000E1F711E0C7E6D1E004C02197FE010E94A9
:100310005028C636D107C9F70E94491F0C945129AD
:100320000C940000FC0162A973A984A995A9089501
:10033000FC0164817581868197810895CF92DF9257
:10034000EF92FF920F931F93CF93DF93CDB7DEB75A
:10035000A1970FB6F894DEBF0FBECDBF8C010E94EF
:10036000761BD8019196CD90DD90ED90FC909497FE
:10037000DC01CB018C199D09AE09BF09813D974075
:10038000A105B10508F449C16DE172E08EE096E087
:100390000E94EA188091FB059091FC051D8E1C8E31
:1003A0001F8E1E8E19A218A24AE0BE016F5F7F4FFA
:1003B0000E94F722BE016F5F7F4FCE014C960E94D4
:1003C000EA18CE014C960E946B18CE014C960E9402
:1003D0000B190E9447184AE06091FD05CE01019675
:1003E0000E94D019CE0101960E946B18CE01019691
:1003F0000E940B190E9447184AE06091FE05CE0149
:1004000001960E94D019CE0101960E946B18CE0170
:1004100001960E940B190E9447184AE0609100065D
:10042000CE0101960E94D019CE0101960E946B1850
:10043000CE0101960E940B190E9447184AE0609174
:100440000106CE0101960E94D019CE0101960E94AC
:100450006B18CE0101960E940B190E9447184AE0C2
:1004600060910206CE0101960E94D019CE0101963C
:100470000E946B18CE0101960E940B190E9447182A
:10048000D8011496ED91FC91159780819181009788
:1004900051F0DC01ED91FC910480F581E02D09958E
:1004A000AB01BC0103C040E050E0BA01C8010E94AA
:1004B000621DD8011496ED91FC911597828193816C
:1004C000009751F0DC01ED91FC910480F581E02D65
:1004D0000995AB01BC0103C040E050E0BA01C8017E
:1004E0000E94621DD8011496ED91FC9115978481AC
:1004F0009581009751F0DC01ED91FC910480F5812C
:10050000E02D0995AB01BC0103C040E050E0BA0109
:10051000C8010E94621DD8011496ED91FC911597B7
:1005200086819781009751F0DC01ED91FC91048068
:10053000F581E02D0995AB01BC0103C040E050E01E
:10054000BA01C8010E94621DD8011496ED91FC9178
:10055000159780859185009751F0DC01ED91FC9114
:100560000480F581E02D0995AB01BC0103C040E09A
:1005700050E0BA01C8010E94621DCE0101960E949E
:10058000B1178B819C81F801918780878D819E8135
:10059000AF81B88582879387A487B58789859A8537
:1005A000AB85BC8586879787A08BB18B8DE0FE01DC
:1005B0003D96D801529601900D928A95E1F7EA8D09
:1005C000FB8DD8019096FC93EE935F973097E1F006
:1005D00085818823C9F0C80106960E94A018F801F9
:1005E000878D90A1009761F00E944F16D8015F9609
:1005F0008D919C9190970E945422F80110A2178E21
:1006000083EF94E00E94A0180E94761BD801919677
:100610006D937D938D939C939497A1960FB6F894C8
:10062000DEBF0FBECDBFDF91CF911F910F91FF9025
:10063000EF90DF90CF90089560E0FC0182810C94F0
:10064000231BCF93DF93EC0160E08A810E94231B80
:10065000FE013A96E29611921192EC17FD07D9F736
:10066000DF91CF9108958F929F92AF92BF92CF92D8
:10067000DF92EF92FF920F931F93CF93DF93CDB74B
:10068000DEB76B970FB6F894DEBF0FBECDBF8C01FF
:1006900062E871E083EF94E00E94121A61E08AE060
:1006A0000E94231BD80112968C9110929D051092E6
:1006B0009B051092980510929705809396050E94CD
:1006C000761B4B015C0161E0809196050E94231B23
:1006D00061E0809196050E94D71AFFB6F894809148
:1006E0009A02811127C0E6E8F1E08491EAE9F1E09D
:1006F0009491E82FF0E0EE0FFF1FEC55FD4FA59110
:10070000B491EC91E92321F461E08AE00E94D71AC8
:1007100061E08AE00E94231B8CB580618CBD8CB5A2
:1007200080648CBD61E08DE00E94231B61E08BE062
:100730000E94231B80919A028F5F80939A02FFBED2
:1007400082E580939005109291058091900590919B
:1007500091050E94680A5AE0F52E8FEF0E94290A3F
:10076000FA94F110FACF82E995E00E946B0A20E03A
:1007700030E0A90160E082E995E00E94810AF82E4C
:1007800080939C05E1E08E1749F00E94761B681962
:100790007909613D774058F381E056C02AEA31E09B
:1007A00040E050E068E082E995E00E94810A82FF23
:1007B00003C0F0929D0510C044E0F42E0E94300A60
:1007C00080939C05FA94F110F9CF8A3A11F082E0F7
:1007D0003BC082E080939D0580919D05823021F091
:1007E000C12CD12C760105C0C12CD12CE12C30E4D8
:1007F000F32E20E030E0A90167E382E995E00E9452
:10080000810AA701960169E282E995E00E94810AC6
:1008100080939C05882349F00E94761B681979090A
:10082000613D774030F388E00FC080919D058230B4
:1008300001F520E030E0A9016AE382E995E00E9439
:10084000810A882341F086E08093970582E995E04C
:100850000E941E0AC4C00E94300A807C803C19F4A9
:1008600083E080939D050E94300A0E94300A0E9416
:10087000300A82E995E00E941E0A80E58093900587
:100880001092910581E00E948216882329F08091C0
:10089000C105882341F0A3C080E00E94821688230E
:1008A00009F49DC0F4CF8091B505803109F582E04F
:1008B0008093C1051092D3051092D4051092D505EE
:1008C0001092D6058091B6059091B705A0E0B0E0F2
:1008D00025E0880F991FAA1FBB1F2A95D1F7809387
:1008E000CF059093D005A093D105B093D2051FC03A
:1008F000803209F074C083E08093C1054091B8054F
:100900005091B9056091BA057091BB054093D3052C
:100910005093D4056093D5057093D6052FEC35E040
:100920008EE995E00E94B210882309F458C08EE940
:1009300095E09093D8058093D70581E08093C0051A
:100940001092C2051092C3051092C4051092C505FD
:100950001092C6051092C7051092C8051092C905DD
:100960001092CA051092CB051092CC051092CD05BD
:100970001092CE056AE971E083EF94E00E94271A95
:10098000CE0101960E94B1178B819C81D8011996E6
:100990009C938E9318978D819E81AF81B885F801C5
:1009A00082879387A487B58789859A85AB85BC851F
:1009B00086879787A08BB18B8DE0FE013D96D8018D
:1009C000529601900D928A95E1F7EA8DFB8DD80140
:1009D0009096FC93EE935F97309741F429C06CEAB0
:1009E00071E083EF94E00E94271A22C0858188235A
:1009F000F9F082859385A485B585892B8A2B8B2B6D
:100A0000B9F468EC71E0C80106960E94271AF80153
:100A1000878D90A1009761F00E944F16D8015F96D4
:100A20008D919C9190970E945422F80110A2178EEC
:100A30006B960FB6F894DEBF0FBECDBFDF91CF919E
:100A40001F910F91FF90EF90DF90CF90BF90AF90EC
:100A50009F908F9008958F929F92AF92BF92CF9266
:100A6000DF92EF92FF920F931F93CF93DF93EC01EE
:100A70008091920281110DC00E94761B60938E02BC
:100A800070938F02809390029093910281E0809303
:100A900092028091860281110DC00E94761B6093A4
:100AA000820270938302809384029093850281E096
:100AB000809386020E94761B00918E0210918F0215
:100AC0002091900230919102AB01BC01401B510B6F
:100AD000620B730B88859985092E000CAA0BBB0B42
:100AE00084179507A607B70708F08DC0009180020C
:100AF0001091810278018FEFE81AF80AF0928102D2
:100B0000E09280028A810E945F1BF8013596EE0F09
:100B1000FF1FEC0FFD1F9183808384E1E816F10431
:100B200021F41092810210928002AA84BB842C8549
:100B30003D85A216B3062CF0522F432F9501A52E0A
:100B4000B42EFE013E96DE01D29660E070E0CB014D
:100B5000C190D190CA14DB0454F44501BB0CAA081F
:100B6000BB08680D791D8A1D9B1D560115C02C15EB
:100B70003D0554F48901330F220B330B600F711FB5
:100B8000821F931F960108C00D2C000CEE08FF0871
:100B90006C0D7D1D8E1D9F1DEA17FB07C9F622E116
:100BA00030E040E050E00E943128CA01B9010E94C3
:100BB0008E2520E030E040EA50E40E94ED2520E060
:100BC00030E040E85AE30E94ED256EAB7FAB88AF82
:100BD00099AF20E030E040E650E40E94ED252C8102
:100BE0003D814E815F810E94FD266AAB7BAB8CAB61
:100BF0009DAB0E94761B60938E0270938F02809350
:100C0000900290939102DF91CF911F910F91FF90ED
:100C1000EF90DF90CF90BF90AF909F908F9008950E
:100C20008F929F92AF92BF92CF92DF92EF92FF92FC
:100C3000CF93DF93EC010E94761BCCACDDACEEAC25
:100C4000FFACDC01CB018C199D09AE09BF09FE0187
:100C5000E85BFF4FC080D180E280F3808C159D055A
:100C6000AE05BF0508F44EC00E94761B6CAF7DAF89
:100C70008EAF9FAFEAA8FBA8EE0CFF1CEC0EFD1E8A
:100C8000D7011A962D913C911B978CA99DA9AEA9CD
:100C9000BFA9821B930BA109B1098CAB9DABAEAB75
:100CA000BFAB8A810E945F1BF70193878287AAA945
:100CB000BBA9FD013596EE0FFF1FEC0FFD1F208134
:100CC00031814CA95DA96EA97FA9CB01BA01620F40
:100CD000731F811D911D6CAB7DAB8EAB9FAB9D01D6
:100CE0002F5F3F4F243131051CF43BAB2AAB02C0D0
:100CF0001BAA1AAA24E130E040E050E00E940F282D
:100D000039AF28AF0E94761B7E01F0E4EF0EF11C94
:100D1000D7018D909D90AD90BC90DC01CB018819DE
:100D20009909AA09BB09FE01E45BFF4F808091800D
:100D3000A280B38088159905AA05BB0508F4BDC03B
:100D40000E94761BF701608371838283938368AD71
:100D500079AD80E090E00E948C2520E030E44CE901
:100D600055E40E94ED2520E030E040E85AE30E947F
:100D7000ED250E94DB277BAF6AAF88859985DC0172
:100D8000ED91FC910480F581E02D09956B017C01CA
:100D90008AAD9BADBC0180E090E00E948C254B01A8
:100DA0005C0120E030E048EC51E4C701B6010E944C
:100DB000FC2620E53DE847E95CE30E94ED2520E0C4
:100DC00030E040E85FE30E94FD269B01AC01C501D5
:100DD000B4010E9469276B017C0120E030E046E10C
:100DE00053E40E94872587FF05C01C821D821E8256
:100DF0001F8263C020E030E44EE455E4C701B60131
:100E00000E940A2818164CF480E090E0A0EAB1E4B1
:100E10008C839D83AE83BF8350C020E030E040EEE2
:100E200053E4C701B6010E94872518166CF028E428
:100E300031EE4AED50E4C701B6010E94ED2527EDE1
:100E400033EA40E852E416C020E030E246EB54E4D6
:100E5000C701B6010E94872518167CF029E23CE5FF
:100E60004FED50E4C701B6010E94ED2520E030E0CF
:100E70004EEF52E40E94FC260EC02AE939E949EA05
:100E800050E4C701B6010E94ED2520E030E64EE0B7
:100E900055E40E94FD266C837D838E839F8320E032
:100EA00030E04AE754E46C817D818E819F810E940D
:100EB00069276C837D838E839F83DF91CF91FF9021
:100EC000EF90DF90CF90BF90AF909F908F9008955C
:100ED000FC0190810180F281E02DF8948181892BC1
:100EE00081832281892F809528232283A7E0B0E087
:100EF0001197F1F7218182238183A3E2B0E011975A
:100F0000F1F780817894EFECF0E03197F1F79823D6
:100F100081E009F480E00895FC0190810180F28174
:100F2000E02D892F809560FF12C0F89422818223E2
:100F300082838181892B8183A3E2B0E01197F1F74D
:100F40008281982B9283789487ED90E011C0F89479
:100F50002281822382838181892B8183AFEFB0E05C
:100F60001197F1F78281982B928378948FE090E02B
:100F70000197F1F70895CF92DF92EF92FF920F93CE
:100F80001F93CF93DF931F92CDB7DEB76C01E62E90
:100F900008E010E0FF24F39461E08F2D8E2109F426
:100FA00060E0C60149830E948C07FF0C01501109C3
:100FB00049810115110581F7411115C0F894D60139
:100FC0001196ED91FC91129791818C9180958923D6
:100FD00081831196ED91FC91129792818C9180956D
:100FE0008923828378940F90DF91CF911F910F9185
:100FF000FF90EF90DF90CF900895DC015996ED912E
:10100000FC915A973097B9F083899489A589B6895C
:101010004285538564857585841B950BA60BB70B9C
:10102000811520E89207A105B10538F08FEF9FE701
:10103000A0E0B0E0089580E090E00895CF93DF93C2
:101040001F92CDB7DEB76983DC01ED91FC91028080
:10105000F381E02D41E050E0BE016F5F7F4F0995C5
:101060000F90DF91CF91089585ED8093BC00809122
:10107000BC0084FDFCCF1092770608954091BD021C
:10108000262F30E0240F311D21323105DCF4209170
:1010900077062430C9F4FC0180E090E0861758F40C
:1010A0003091BD022191DC01A556BD4FA30FB11DAA
:1010B0002C930196F3CF8091BD02680F6093BD021F
:1010C00080E0089581E0089582E008950895E09118
:1010D000790680917806E81730F4F0E0E658F94F89
:1010E000808190E008958FEF9FEF089590917906A9
:1010F00080917806981750F4E92FF0E0E658F94F00
:10110000208130E09F5F9093790602C02FEF3FEF80
:10111000C90108958091780690E020917906821B9C
:1011200091090895CF92DF92EF92FF920F931F9350
:10113000CF93DF937C01262F972F8A0180912E0673
:10114000882391F0C62FD72F6E01C40ED51ECC1563
:10115000DD0571F06991D701ED91FC910190F0816D
:10116000E02DC7010995F3CF642F822F0E943E081E
:10117000C801DF91CF911F910F91FF90EF90DF9009
:10118000CF900895CF93DF931F92CDB7DEB76983D9
:1011900020912E062223D1F020915006203240F0DB
:1011A00021E030E0FC013383228380E090E015C031
:1011B00080912F06E82FF0E0E05DF94F9981908350
:1011C0008F5F80932F068093500605C061E0CE01AB
:1011D00001960E943E0881E090E00F90DF91CF9150
:1011E0000895FC01818D928D009711F00C941B11D4
:1011F0000895CF93DF93EC01898D9A8D009739F490
:1012000081E090E09B838A8380E090E00BC0FC014A
:10121000138212820E94EF11E98DFA8D22813381AF
:10122000232B71F7DF91CF9108953F924F925F92F8
:101230006F927F928F929F92AF92BF92CF92DF92E6
:10124000EF92FF920F931F93CF93DF93CDB7DEB74B
:101250002C970FB6F894DEBF0FBECDBF5C01DC014A
:101260005B968D909C905C971696CD90DD90ED905E
:10127000FC901997C114D104E104F10439F0BFEFD7
:10128000CB1ADB0AEB0AFB0A312C07C0F401C08041
:10129000D180E280F38033243394F40181859285F8
:1012A000A385B4859C01AD012F5F3F4F4F4F5F4F2A
:1012B00029873A874B875C87260137011D821E826A
:1012C0001F821886F40181859285A385B4852D81BE
:1012D0003E814F815885281739074A075B0708F078
:1012E00063C089859A85AB85BC858C159D05AE0547
:1012F000BF0550F482E0C82ED12CE12CF12C92E0F5
:10130000492E512C612C712C9E012F5F3F4FB7014C
:10131000A601C4010E942E10882309F445C08981CA
:101320009A81AB81BC81892B8A2B8B2B41F02601C2
:1013300037019FEF491A590A690A790A05C0C4148E
:10134000D504E604F70491F02D813E814F81588544
:101350002F5F3F4F4F4F5F4F2D833E834F83588703
:101360003FEFC31AD30AE30AF30AACCF0FEF1FEF24
:101370002FEF3FE0B301A201C4010E948E0F88232A
:1013800099F0D50116964D915D916D917C911997CB
:10139000411551056105710549F093018201C401B0
:1013A0000E948E0F811102C080E02AC0D5011696DE
:1013B0004D925D926D927C921997332051F0D3013A
:1013C000C2010196A11DB11DF40180839183A28306
:1013D000B383F5018789908DA18DB28D892B8A2BDE
:1013E0008B2B69F4D50157964D925D926D927C924C
:1013F0005A9714968C911497806814968C9381E078
:101400002C960FB6F894DEBF0FBECDBFDF91CF9103
:101410001F910F91FF90EF90DF90CF90BF90AF9012
:101420009F908F907F906F905F904F903F90089526
:101430008FB7F8948091E3028FBF089561E0FC01BB
:1014400084810E94D71A8091E20281111092E202F7
:1014500008958EBD00000DB407FEFDCF8EB5089532
:101460008FEF0C94290A0F931F93CF93DF93EB0117
:101470000E94761B8B010E94300A8F3F49F00E9428
:10148000761B601B710B6C177D07A8F380E001C011
:1014900081E0DF91CF911F910F910895CF93DF935A
:1014A000EC018E81882389F08F8198859C012F5FC4
:1014B0003F4F38872F838230924018F40E94300AC1
:1014C000F3CFCE010E941E0A1E82DF91CF910895B4
:1014D0008CBD9DBD0895CF93DF93EC018091E20216
:1014E000811109C081E08093E20280919005909182
:1014F00091050E94680A60E08C81DF91CF910C9485
:10150000D71ACF92DF92FF920F931F93CF93DF935F
:1015100000D000D0CDB7DEB76C01F62E29833A8318
:101520004B835C830E944E0AC6010E946B0A6CE2E8
:1015300071E0C6010E94330A8F2D80640E94290A3F
:1015400008E110E05C814B813A812981DA01C9010F
:10155000002E04C0B695A795979587950A94D2F763
:1015600029833A834B835C830E94290A085011091E
:1015700029813A814B815C81083F8FEF180731F751
:10158000FF2029F0E8E0FE1204C087E803C085E9E7
:1015900001C08FEF0E94290A10E00E94300AF60174
:1015A000828787FF04C01F3F11F01F5FF6CF0F90A7
:1015B0000F900F900F90DF91CF911F910F91FF909F
:1015C000DF90CF900895AF92BF92CF92DF92EF92CB
:1015D000FF920F931F93CF93DF93EC016901C80132
:1015E000820F931F8130924008F070C08E81882353
:1015F00071F088819981AA81BB81481759076A07D0
:101600007B0729F48F819885C816D906B0F54883E1
:1016100059836A837B838B85833039F089E0440F5B
:10162000551F661F771F8A95D1F79A01AB0161E1BB
:10163000CE010E94810A882319F083E08D8346C081
:101640000E94761B5B010E94300A8A878F3F49F413
:101650000E94761B6A197B096D327140A0F38FE0FE
:1016600003C08E3F31F08DE08D83CE010E941E0AB3
:101670002DC018861F8281E08E838F8198858C15FE
:101680009D0540F40E94300A8F81988501969887C5
:101690008F83F3CF6701E00EF11ECE14DF0431F02B
:1016A0000E94300AF60181936F01F7CF8F819885F0
:1016B000080F191F18870F838985882319F00115D2
:1016C000124048F0CE010E944E0A05C0CE010E9491
:1016D0001E0A80E001C081E0DF91CF911F910F9140
:1016E000FF90EF90DF90CF90BF90AF900895EF9272
:1016F000FF920F931F93CF93DF93EC017901411574
:1017000051056105710511F482E13CC08B85833080
:1017100039F089E0440F551F661F771F8A95D1F76E
:101720009A01AB0168E1CE010E94810A882311F081
:1017300084E028C08EEF0E94290A87018EEFF81AF4
:10174000F80181918F010E94290A0E151F05C1F72A
:101750008FEF0E94290A8FEF0E94290A0E94300A07
:101760008A878F71853031F081E18D83CE010E94AF
:101770001E0A09C068E572E0CE010E94330A811199
:1017800007C085E18D83CE010E941E0A80E013C050
:1017900020E030E0A9016DE0CE010E94810A8111B4
:1017A00004C00E94300A882311F084E1EBCFCE01FF
:1017B0000E941E0A81E0DF91CF911F910F91FF904F
:1017C000EF900895FC01DB0112968D919C91139787
:1017D000938382838EE191E09183808314968C9130
:1017E0001497848315968C911597858316964D9141
:1017F0005D916D917C9119974683578360877187BE
:101800001A964D915D916D917C911D9742875387FA
:10181000648775871E964D915D916D917C9151976E
:1018200046875787608B718B52968C915297828B2B
:1018300053964D915D916D917C915697438B548B4E
:10184000658B768B57964D915D916D917C915A97F2
:10185000478B508F618F728F5B968D919C915C97B7
:10186000948F838F0895EF92FF920F931F93CF93DE
:10187000DF93EC017B018A011B821A8288EE93E0E0
:10188000A0E0B0E08C839D83AE83BF8384E591E0CC
:10189000998388838DE190E00E94BF219A8F898F80
:1018A000009779F02DE1F701DC0101900D922A9566
:1018B000E1F74CE050E0B801CE010C960E944229BD
:1018C000188EDF91CF911F910F91FF90EF900895A7
:1018D0002F923F924F925F926F927F928F929F9240
:1018E000AF92BF92CF92DF92EF92FF920F931F932E
:1018F000CF93DF9300D0CDB7DEB7FC01858188237D
:1019000009F4D9C0848180FFD6C021E02A834389AD
:1019100054896589768982859385A485B58548171C
:1019200059076A077B0709F41A826F013A81832FEE
:1019300090E0DE0111964D013F01B6E06B0E711C87
:10194000892B09F47DC0D6011A964D915D916D9158
:101950007C911D975A01B1E0BB22F60125811A0145
:101960002B0189E056944794379427948A95D1F7B0
:10197000838D948D223061F4FC01828D938DA48D32
:10198000B58DBC01CD01620D731D841D951D45C033
:10199000DC0114961C9111501221A114B104D1F450
:1019A000111118C0452B462B472B51F4F60187899E
:1019B000908DA18DB28D86839783A087B1870AC051
:1019C000468157816085718593010E942E1088237E
:1019D00009F471C0F601238D348D86819781A0852D
:1019E000B1850297A109B109AC01BD01F9010584D6
:1019F00004C0440F551F661F771F0A94D2F78685CF
:101A00009785A089B189840F951FA61FB71FBC01B8
:101A1000CD01610F711D811D911DD60114962C9170
:101A200026FF14C0009100011091010120910201D4
:101A300030910301601771078207930751F506C0C3
:101A4000FA81FF23C1F1898190E037C040E00E9414
:101A5000450F882381F1F501EF50FD4FD401CF01EF
:101A60000196E817F90719F021912D93FACFEFEFBE
:101A70008E1A9E0AF60182859385A485B585019606
:101A8000A11DB11D82879387A487B58780E090E070
:101A900057CF740101E010E09501AB01BC018091CA
:101AA000F1049091F2040E94E30A882321F0BFEF31
:101AB0008B1A9B0ADFCF8FEF9FEF0F900F90DF9174
:101AC000CF911F910F91FF90EF90DF90CF90BF903B
:101AD000AF909F908F907F906F905F904F903F90CE
:101AE0002F900895FC01818D928D009711F00C9438
:101AF000680C8FEF9FEF08950F931F93CF93DF93A1
:101B0000FC01818D928D0097B9F0EF010E94680C65
:101B10008C010F3F8FEF180791F0898D9A8DFC0192
:101B20004285538564857585415051096109710964
:101B30000E945911C80105C080E090E002C08FEFFB
:101B40009FEFDF91CF911F910F9108951F920F92F8
:101B50000FB60F9211242F933F934F935F936F9380
:101B60007F938F939F93AF93BF93EF93FF93809156
:101B7000B900887F803609F49CC068F5883209F482
:101B80005BC090F4803109F454C038F4882309F420
:101B9000F6C0883009F44DC0F6C0883109F44CC055
:101BA000803209F45DC0EFC0803409F468C048F4A5
:101BB000803309F455C0883309F0E5C08093750679
:101BC000D8C0803509F44FC0883509F45DC0883429
:101BD00009F0D9C0D6C0883909F4C7C0A8F488373D
:101BE00009F467C038F4883609F463C0803709F413
:101BF00060C0C9C0883809F4B8C0803909F45FC032
:101C0000803809F0C0C05BC0803B09F486C038F45E
:101C1000803A09F466C0883A09F47FC0B4C0803CB9
:101C200009F4A7C0883C09F4A4C0883B09F48AC021
:101C3000AAC08091720610C09091740680917306BC
:101C4000981770F5E091740681E08E0F809374060A
:101C5000F0E0EF5AF94F80818093BB0085EC86C09D
:101C6000809375068EC0E091740681E08E0F80939C
:101C700074068091BB00F0E0EF5AF94F8083909199
:101C80007406809173066EC0E091740681E08E0F39
:101C9000809374068091BB00F0E0EF5AF94F808387
:101CA0008091760681116DC081E08093710684EA8F
:101CB00061C083E0809377061092E102CFCF8091DC
:101CC000E102803208F051C0E091E10281E08E0F24
:101CD0008093E1028091BB00F0E0EF53FD4F8083E1
:101CE000BDCF85EC8093BC00109277068091E10215
:101CF000803230F4E091E102F0E0EF53FD4F1082CA
:101D00006091E10270E0E091BF02F091C00281ECCD
:101D100092E009951092E10236C084E08093770644
:101D20001092BE021092BD02E091BB02F091BC0283
:101D300009958091BD02811105C081E08093BD02AB
:101D400010929B02E091BE0281E08E0F8093BE0252
:101D5000F0E0E556FD4F80818093BB009091BE027C
:101D60008091BD02981708F479CF85E88093BC0074
:101D70000AC085EC8093BC001092770604C01092D4
:101D800075060E943408FF91EF91BF91AF919F912A
:101D90008F917F916F915F914F913F912F910F9014
:101DA0000FBE0F901F9018958091E4028823A9F12F
:101DB0004091000150910101609102017091030175
:101DC00021EF32E08091F1049091F2040E94770BB0
:101DD000811102C080E008954091E5025091E60231
:101DE0006091E7027091E8024115510561057105A6
:101DF00091F021EF32E08091F1049091F2040E9481
:101E0000770B882339F31092E5021092E6021092C4
:101E1000E7021092E8021092E40281E00895FC01CA
:101E200090810180F281E02DF8948181292F209505
:101E30008223818378948DE743E050E0815021F143
:101E4000DA011197F1F730813923C1F3F8948281D7
:101E5000822382838181892B81837894ABE7B7E0E9
:101E60001197F1F7F894818128232183A3E1B1E050
:101E70001197F1F78081982381E009F080E0789450
:101E8000E3E6F6E03197F1F708958F929F92AF92D3
:101E9000BF92EF92FF920F931F93CF934B015C0180
:101EA000C42F8091000190910101A0910201B09195
:101EB000030188159905AA05BB0501F10E94D40EFE
:101EC000811102C080E020C081EFE82E82E0F82E70
:101ED00000E012E020E030E0B501A4018091F104BF
:101EE0009091F2040E94E30A882361F3809200013A
:101EF00090920101A0920201B09203018091E4024C
:101F0000C82BC093E40281E0CF911F910F91FF9005
:101F1000EF90BF90AF909F908F9008954F925F92F7
:101F20006F927F928F929F92AF92BF92CF92DF92E9
:101F3000EF92FF920F931F93CF93DF93EC016A010F
:101F40007B0128013901423051056105710510F40A
:101F500080E073C089859A85AB85BC850196A11DFB
:101F6000B11D84179507A607B70790F38B889C8847
:101F7000AD88BE888F89803129F4BB27AF2D9E2D77
:101F80008D2D09C0DB01CA0147E0B695A79597954D
:101F900087954A95D1F7880E991EAA1EBB1E80917F
:101FA000000190910101A0910201B09103018816F6
:101FB0009906AA06BB0679F48F898031A1F4DD2445
:101FC000EE24FF24C601880F991FFC01EF50FD4F3E
:101FD0005182408219C040E0C501B4010E94450F02
:101FE0008111EACFB5CFE894C7F8DD24EE24FF24B1
:101FF000C601880F991F880F991FFC01EF50FD4FF4
:1020000040825182628273828091E4028160809377
:10201000E4028A89823080F08D819E81AF81B8850B
:10202000880E991EAA1EBB1E8092E5029092E602BF
:10203000A092E702B092E80281E0DF91CF911F9178
:102040000F91FF90EF90DF90CF90BF90AF909F9057
:102050008F907F906F905F904F9008958F929F9296
:10206000AF92BF92CF92DF92EF92FF920F931F93A6
:10207000CF93DF93FC0181859285A385B48501967A
:10208000A11DB11D84179507A607B70710F480E0BE
:102090005CC083899489A589B689C789C03129F430
:1020A000852E962EA72EBB2409C04A015B01C7E0EE
:1020B000B694A79497948794CA95D1F7E9016A01D9
:1020C0007B018F01BC01CD01680D791D8A1D9B1D0F
:1020D0008090000190900101A0900201B090030156
:1020E000681579058A059B0599F4F801878980317F
:1020F000A9F4B701A601552766277727440F551F76
:10210000FA01EF50FD4F80819181A0E0B0E018C04E
:1021100040E00E94450F8111E8CFB9CFB701A60179
:102120004F77552766277727440F551F440F551FB4
:10213000FA01EF50FD4F80819181A281B381BF7080
:1021400088839983AA83BB8381E0DF91CF911F911C
:102150000F91FF90EF90DF90CF90BF90AF909F9046
:102160008F9008954F925F926F927F92AF92BF923D
:10217000CF92DF92EF92FF920F931F93CF93DF9353
:1021800000D000D0CDB7DEB78C0149835A836B8372
:102190007C835901C12CD12C7601412C82E0582E30
:1021A000612C712C49815A816B817C819E012F5F4A
:1021B0003F4FC8010E942E10882351F1D301C20164
:1021C000F801058404C0880F991FAA1FBB1F0A9439
:1021D000D2F7C80ED91EEA1EFB1E49815A816B81B7
:1021E0007C818789803129F088EF9FEFAFEFBFE0D6
:1021F00004C088EF9FEFA0E0B0E0481759076A07D6
:102200007B0780F2F501C082D182E282F38281E015
:102210000F900F900F900F90DF91CF911F910F9122
:10222000FF90EF90DF90CF90BF90AF907F906F9036
:102230005F904F900895CF93DF93EC018D818823B9
:10224000A1F18C8187FF2DC06E857F858889998952
:1022500041E00E94450F882341F1EA8980E2E89F2E
:10226000F0011124DF01AF50BD4F1097F1F08D81C7
:10227000823050F44B895C896D897E895C964D93E0
:102280005D936D937C935F978F89988DA98DBA8D9F
:10229000EF50FD4F938F828FB58BA48B8C818F77FE
:1022A0008C83DF91CF910C94D40E80E0DF91CF919D
:1022B00008958F929F92AF92BF92CF92DF92EF924A
:1022C000FF920F931F93CF93DF93EC018D818111C8
:1022D00002C080E077C00B891C892D893E890417D4
:1022E000150726073707A8F36A017B01823029F416
:1022F000CA86DB86EC86FD860DC0C114D104E104DC
:10230000F10451F41E821F82188619861A861B86D4
:102310001C861D8681E056C08A849B84AC84BD8463
:10232000EB8DFC8D258530E0275F3F4FB501A40183
:102330004150510961097109022E04C076956795D3
:10234000579547950A94D2F7D701C6010197A1097D
:10235000B10904C0B695A795979587952A95D2F7A8
:1023600084179507A607B70720F089288A288B28A5
:1023700049F44F89588D698D7A8D4E835F836887C4
:10238000798704C0841B950BA60BB70B4C015D012C
:102390008E010A5F1F4F81149104A104B10409F456
:1023A000A7CF4E815F816885798598018B8D9C8D43
:1023B0000E942E1091E0891A9108A108B10881119C
:1023C000EACF87CFDF91CF911F910F91FF90EF90D0
:1023D000DF90CF90BF90AF909F908F9008952F92F5
:1023E0003F924F925F926F927F928F929F92AF92A5
:1023F000BF92CF92DF92EF92FF920F931F93CF93F2
:10240000DF9300D000D0CDB7DEB78C015B011A019D
:10241000DC0115968C9115978130C9F414968C9136
:1024200081FF15C082FF1BC0F8014389548965896B
:10243000768982859385A485B58584179507A60737
:10244000B70769F0C8010E945911811108C081E0E5
:1024500090E0F8019383828380E090E039C16101CC
:1024600083C0D8015B968D919C915C97FC0124817F
:1024700021502A013B0139E07694679457944794A0
:102480003A95D1F7722E74207A01F1E0FF2277207D
:1024900009F476C080E092E08E199F0946018C1500
:1024A0009D0508F44C01D8015B962D913C915C97F9
:1024B00016968D919D910D90BC91A02D0297A1092A
:1024C000B109F901058404C0880F991FAA1FBB1F19
:1024D0000A94D2F74685578560897189840F951FC4
:1024E000A61FB71F9C01AD01270D311D411D511DB8
:1024F00029013A01811432E0930609F088C08091E5
:10250000000190910101A0910201B0910301841595
:102510009505A605B70559F48FEF9FEFDC01809371
:10252000000190930101A0930201B0930301950172
:10253000B301A2018091F1049091F2040E94770B03
:10254000882309F484CF9EEFB91AC818D908F80176
:1025500082859385A485B585880D991DA11DB11D22
:1025600082879387A487B587D8011A964D915D918C
:102570006D917C911D97C114D10409F072CF87C071
:10258000E114F10409F086CF16964D915D916D919D
:102590007C911997411551056105710559F45796BC
:1025A0008D919D910D90BC91A02D0097A105B10535
:1025B00041F521C09E012F5F3F4F0E942E108823BE
:1025C00009F44BCF89819A81AB81BC81F801238DBD
:1025D000348DF9012789203129F048EF5FEF6FEF43
:1025E0007FE004C048EF5FEF60E070E0841795077C
:1025F000A607B70730F0C8010E94150981114ACF1C
:1026000026CFF80186839783A087B18743CFE11453
:10261000F10429F5D8011A964D915D916D917C9147
:102620001D9753968D919D910D90BC91A02D4817AB
:1026300059076A077B0798F00E94D40E882309F493
:1026400006CF409200015092010160920201709207
:1026500003018091E40281608093E40208C041E0BC
:10266000C301B2010E94450F882309F4F0CED501C1
:10267000F701EF50FD4FCF01880D991DE817F907BD
:1026800019F02D912193FACFA80CB91C5ECF539667
:102690008D919D910D90BC91A02D84179507A60753
:1026A000B70740F4F801438B548B658B768B84819C
:1026B00080688483D80114968C9183FD02C0C10187
:1026C00007C0C8010E941B11882309F4C0CEF7CFB0
:1026D0000F900F900F900F90DF91CF911F910F915E
:1026E000FF90EF90DF90CF90BF90AF909F908F9032
:1026F0007F906F905F904F903F902F900895CF9371
:10270000DF931F92CDB7DEB7698341E050E0BE0191
:102710006F5F7F4F0E94EF110F90DF91CF9108956F
:102720008F929F92AF92BF92CF92DF92EF92FF92E1
:102730000F931F93CF93DF9300D000D0CDB7DEB7B8
:102740007C0180E2689F6001112496012F503D4F6B
:10275000D9011B969C91917121F0842F827409F00C
:1027600097C0142FF701628B8091000190910101B5
:10277000A0910201B091030186879787A08BB18B4E
:10278000F601EF50FD4F4489558960E070E0BA01D1
:1027900055274427D70157964D935D936D937C93AE
:1027A0005A97828D938DA0E0B0E0482B592B6A2B6D
:1027B0007B2BD70157964D935D936D937C935A97DE
:1027C000D9011B968C91887159F4848D958DA68DB5
:1027D000B78DF701838B948BA58BB68B81E012C0EC
:1027E000803109F055C097012D5E3F4FD7015B96B0
:1027F0008D919C915C970E94B210882309F448C087
:1028000084E0F7018583812F8F70D70114968C9314
:102810001497F70116821782108611861A961D9258
:102820001D921D921C921D9716FF34C015968C9117
:10283000813071F511FF2CC0F701438954896589F6
:102840007689452B462B472B09F461C040E050E0C8
:10285000BA01C7010E9459118823D1F0F701878876
:10286000908CA18CB28CC38CD48C82E090E0A0E0E0
:10287000B0E0F60180839183A283B3839E012F5F32
:102880003F4FB501A401C6010E942E10811104C062
:1028900080E03DC081E03BC000E010E09801B50160
:1028A000A401C6010E948E0F882391F389809A802B
:1028B000AB80BC80D60157968C91803129F088EF8F
:1028C0009FEFAFEFBFE004C088EF9FEFA0E0B0E064
:1028D00088169906AA06BB0688F2D70157961D925C
:1028E0001D921D921C925A97F701138A148A158A19
:1028F000168A848180688483C7010E941B11882303
:1029000039F240E050E0BA01C7010E9459110F901E
:102910000F900F900F90DF91CF911F910F91FF902B
:10292000EF90DF90CF90BF90AF909F908F900895E1
:102930004F925F926F927F92AF92BF92CF92DF924F
:10294000EF92FF920F931F93CF93DF93CDB7DEB734
:102950002B970FB6F894DEBF0FBECDBF7C01CE0122
:1029600001966C01FC0190E28BE08C0D91938E132B
:10297000FDCFDA0130E047E09D91992339F19E3295
:1029800019F0E2E6F1E00AC04A3009F472C138E019
:102990004AE0F2CF3196891709F46BC18491811115
:1029A000F9CF431708F465C18FED890F8E3508F014
:1029B00060C181E0830FF601E30FF11D3FE9390F9C
:1029C0003A3108F490529083382FD6CF89818032E3
:1029D00009F44FC1B22E8B01DB015B968D919C9166
:1029E0005C97F701948F838F16961D921D921D920E
:1029F0001C921997FB011286138614861586712C7A
:102A0000F80182859385A485B585438954896589B4
:102A1000768984179507A607B70708F061C025E0F7
:102A2000B695A795979587952A95D1F7F82FFF70BA
:102A30006F2ED80115968C91823008F41AC1C80106
:102A40000E94680C97FD15C1F80182859385A485C5
:102A5000B5854F96A11DB11D82879387A487B58741
:102A6000F0E26F9EC0011124BC016F507D4F6115D3
:102A7000710509F4FEC0DB012C91222319F0253EDB
:102A8000C1F427C071100EC0F701628A40910001A5
:102A900050910101609102017091030146875787AF
:102AA000608B718BFC01EF50FD4F8081811113C051
:102AB00015C04BE050E0C6010E942529892B09F082
:102AC0009FCF8B2D8073803309F4D3C04B2D662D9F
:102AD000CCC07720C9F27724739492CF7724739473
:102AE0008B2D8271823109F0C4C07720D1F0D701DB
:102AF0001E966D917D918D919C91519741E00E9420
:102B0000450F882309F4B5C0F7016289F0E26F9F91
:102B1000B00111246F507D4F6115710509F079C026
:102B2000A8C0D80115968C91823009F4A2C0C801C2
:102B30000E941509882309F49CC0D8015B96ED9189
:102B4000FC915C9716964D905D906D907C901997D6
:102B5000B2E04B1A510861087108058404C0440CA6
:102B6000551C661C771C0A94D2F786859785A08928
:102B7000B189480E591E6A1E7B1EA480E1E04E1AE0
:102B8000510861087108AA2009F10E94D40E882317
:102B900009F46FC0E1EFF2E0119224E0E13FF207A7
:102BA000D9F7D301C2018A0D911DA11DB11D8093DA
:102BB000000190930101A0930201B0930301809161
:102BC000E40281608093E402AA94DDCFD8015B9691
:102BD000ED91FC915C9780E092E0A0E0B0E005848C
:102BE00004C0880F991FAA1FBB1F0A94D2F7F801CF
:102BF0004389548965897689840F951FA61FB71F5D
:102C0000838B948BA58BB68BD70152961C9261EF68
:102C100072E080E2FB0111928A95E9F78BE0F60100
:102C2000DB0101900D928A95E1F781E298E2DB01E8
:102C300051969C938E93509720E038E01F963C93DA
:102C40002E931E9753969C938E93529759969C93CE
:102C50008E93589757963C932E9356970E94D40E76
:102C6000882339F04B2DF7016289C7010E94901328
:102C700001C080E02B960FB6F894DEBF0FBECDBF2B
:102C8000DF91CF911F910F91FF90EF90DF90CF9048
:102C9000BF90AF907F906F905F904F900895CF93CB
:102CA000DF93EC010E941B11882311F01D8281E04B
:102CB000DF91CF9108950F931F93CF93DF93EC0192
:102CC00088819981009729F02A813B81261737074F
:102CD00088F48B016F5F7F4F0E945628009761F048
:102CE000998388831B830A832C813D81232B11F4D4
:102CF000FC01108281E001C080E0DF91CF911F9143
:102D00000F9108958F929F92AF92BF92CF92DF92D0
:102D1000EF92FF92CF93DF93C82F82E995E09093D3
:102D2000F2048093F104CC2369F1C53010F080E007
:102D30000DC140E060E070E0CB010E94450F8823A8
:102D4000B1F320E1C29FC00111248F519D4FFC01BE
:102D5000E254FE4F20812F7751F73C9640815181FC
:102D600062817381443651056105710500F3349722
:102D7000C080D180E280F380C114D104E104F10469
:102D800021F4D5CFC12CD12C760140E0C701B6018A
:102D90000E94450F882359F28091FC029091FD0218
:102DA0008115924021F6A0910103AA2309F4BFCF17
:102DB0006091FF02709100036115710509F4B7CFAE
:102DC0002091FE02222309F4B2CFA093B0052093F4
:102DD000A20580E030E0E1E0F0E0C82FAF01082E6E
:102DE00002C0440F551F0A94E2F72417350741F03B
:102DF000982F8F5F983089F789E08093AB0597CF44
:102E00008093AB052091070330910803211531050C
:102E100019F040E050E008C02091150330911603EE
:102E200040911703509118032093A3053093A405F4
:102E30004093A5055093A60546015701860E971E9F
:102E4000A11CB11C8092B1059092B205A092B3056D
:102E5000B092B405E0910203F0910303F093B7053B
:102E6000E093B605B0E00E94AB26860E971EA81E22
:102E7000B91E8092B8059092B905A092BA05B09299
:102E8000BB0585E0EE0FFF1F8A95E1F7E150FE4F8D
:102E9000EF2FFF27E6958E0E9F1EA11CB11C80927E
:102EA000AC059092AD05A092AE05B092AF05209111
:102EB0000403309105032115310521F0A90160E0DB
:102EC00070E008C040911103509112036091130308
:102ED00070911403D701C60188199909AA09BB0981
:102EE000840F951FA61FB71F04C0B695A795979589
:102EF0008795CA95D2F78093A7059093A805A093CC
:102F0000A905B093AA05853F2FE09207A105B10559
:102F100010F48CE018C0853F9F4FA105B10510F457
:102F200080E111C080911D0390911E03A0911F03A9
:102F3000B09120038093B8059093B905A093BA058A
:102F4000B093BB0580E28093B50581E0DF91CF911E
:102F5000FF90EF90DF90CF90BF90AF909F908F90B9
:102F600008950F931F93CF93DF93CDB7DEB7C75567
:102F7000D1090FB6F894DEBF0FBECDBF8C016CEB4C
:102F800075E0CE0101960E94E20BBE016F5F7F4F9C
:102F9000CE01CB960E94E20B19A218A28EE191E01D
:102FA0009F8F8E8F1BA221968FAD2197811113C009
:102FB000F8011382128288EE93E0A0E0B0E08483EF
:102FC0009583A683B78384E591E091838083128EF5
:102FD000118E148633C0825023E14EE052E08230DD
:102FE00048F46CEB75E0CE014E960E949814811166
:102FF0000EC0DECFBE01655C7F4FCE014E960E94B3
:1030000098148823A9F2CE01CB960E944F1649A9A5
:103010005AA96BA97CA9CE014E960E945911BE01F6
:10302000625E7F4FCE0101960E94E20B4EE052E0BD
:10303000BE016F5F7F4FC8010E94330CC801C95A9F
:10304000DF4F0FB6F894DEBF0FBECDBFDF91CF913B
:103050001F910F910895FF920F931F93CF93DF93CA
:103060008C0140E065E50E94BB07C9EED2E0FC2E72
:1030700088E0F80E699140E0C8010E94BB07FC128D
:10308000F9CFDF91CF911F910F91FF900895CF93CA
:10309000DF93C0911206D09113062196BE018EE0F7
:1030A00096E00E945B16882399F020910E063091DD
:1030B0000F06809112069091130669E172E0820F6B
:1030C000931F0E943B29D0931306C093120681E000
:1030D000DF91CF9108950F931F93CF93DF93FC015E
:1030E0002481358100811181C0911206D09113068F
:1030F0000115110511F480E01EC021153105D1F034
:10310000C20FD31FBE018EE096E00E945B1688239B
:1031100091F320910E0630910F0680911206909146
:103120001306B801820F931F0E943B29D093130608
:10313000C093120681E0DF91CF911F910F91089506
:103140000F931F93CF93DF93EC01A881B981EEE039
:10315000F6E044815581608171811296ED91FC9178
:10316000139709958C016BE172E0CE010E94121A4F
:10317000800F911FDF91CF911F910F910895EF92D2
:10318000FF920F931F93CF93DF93EC017B018A0192
:10319000BA010E945B162881398181110DC0211569
:1031A000310519F0C9010E945422198218821D822A
:1031B0001C821B821A8206C01D830C83B701C901C1
:1031C0000E943B29CE01DF91CF911F910F91FF907B
:1031D000EF900895CF93DF93EC016115710559F0DD
:1031E000FB0101900020E9F73197AF01461B570B17
:1031F0000E94BF180CC088819981009711F00E942D
:103200005422198218821D821C821B821A82CE01CE
:10321000DF91CF910895FC01808191810C9454221B
:10322000CF92DF92EF92FF920F931F93CF93DF9392
:103230006C017A018B01C0E0D0E0CE15DF0589F08A
:10324000D8016D918D01D601ED91FC910190F08135
:10325000E02DC6010995892B11F47E0102C021964B
:10326000ECCFC701DF91CF911F910F91FF90EF90AD
:10327000DF90CF900895FC01918D828D981761F0B9
:10328000828DDF01A80FB11D5D968C91928D9F5F9D
:103290009F73928F90E008958FEF9FEF0895FC0148
:1032A000918D828D981731F0828DE80FF11D858DFB
:1032B00090E008958FEF9FEF089583EF94E00E94D0
:1032C000931A21E0892B09F420E0822F0895EF92D0
:1032D000FF920F931F93CF93DF93EC0181E0888FD0
:1032E0009B8D8C8D981305C0E889F989808185FDB7
:1032F00024C0F62E0B8D10E00F5F1F4F0F731127A8
:10330000E02E8C8DE8120CC00FB607FCFACFE889CE
:10331000F989808185FFF5CFCE010E94B61AF1CFE1
:103320008B8DFE01E80FF11DE35AFF4FF0820B8FEA
:10333000EA89FB898081806207C0EE89FF8960830A
:10334000E889F98980818064808381E090E0DF9161
:10335000CF911F910F91FF90EF900895CF93DF933E
:10336000EC01888D8823C9F0EA89FB89808185FD7D
:1033700005C0A889B9898C9186FD0FC00FB607FCDE
:10338000F5CF808185FFF2CFA889B9898C9185FF1F
:10339000EDCFCE010E94B61AE7CFDF91CF9108950D
:1033A0000F931F93CF93DF93CDB7DEB729970FB657
:1033B000F894DEBF0FBECDBF8C01862FF8011182BD
:1033C0001082138212821582148250E0BE016F5F58
:1033D0007F4F90E00E94EC22BE016F5F7F4FC801DB
:1033E0000E94EA1829960FB6F894DEBF0FBECDBF33
:1033F000DF91CF911F910F910895FC0111821082EE
:1034000013821282158214826115710551F0FB013D
:1034100001900020E9F73197AF01461B570B0C9440
:10342000BF1808956115710579F0FB010190002026
:10343000E9F73197AF01461B570BDC01ED91FC9189
:103440000280F381E02D099480E090E008950F93CD
:103450001F93CF93DF93EC010E94121A8C016BE152
:1034600072E0CE010E94121A800F911FDF91CF915E
:103470001F910F9108951F920F920FB60F92112472
:103480002F933F934F935F936F937F938F939F936C
:10349000AF93BF93EF93FF9383EF94E00E94B61A2C
:1034A000FF91EF91BF91AF919F918F917F916F911C
:1034B0005F914F913F912F910F900FBE0F901F90F2
:1034C00018951F920F920FB60F9211242F938F937E
:1034D0009F93EF93FF93E0910305F09104058081A2
:1034E000E0910905F0910A0582FD12C0908180915A
:1034F0000C058F5F8F7320910D05821751F0E091BD
:103500000C05F0E0ED50FB4F958F80930C0501C04A
:103510008081FF91EF919F918F912F910F900FBE1E
:103520000F901F901895FC01918D228D892F90E0AE
:10353000805C9F4F821B91098F739927089580E0CB
:1035400090E0892B29F00E945D1981110C940000F4
:103550000895FC016481758186819781089508959D
:1035600060E070E0CB0108950E942029FC01848D69
:10357000DF01A80FB11DA35ABF4F2C91848D90E09D
:1035800001968F739927848FA689B7892C93A08978
:10359000B1898C9180648C93938D848D981306C02F
:1035A0000288F389E02D80818F7D8083089590E0EB
:1035B000FC01E854FD4F3491FC01E057FE4F24918B
:1035C000FC01E458FE4FE491EE2309F43BC03323A1
:1035D00039F1333091F038F43130A9F0323001F55F
:1035E00084B58F7D12C0373091F03830A1F034307F
:1035F000B9F4809180008F7D03C0809180008F7727
:10360000809380000DC084B58F7784BD09C0809100
:10361000B0008F7703C08091B0008F7D8093B000A1
:10362000F0E0EE0FFF1FE255FD4FA591B4918FB76B
:10363000F894EC91611103C020952E2301C02E2B2C
:103640002C938FBF0895CF93DF9390E0FC01E05758
:10365000FE4F2491FC01E458FE4F8491882361F1D0
:1036600090E0880F991FFC01EC55FD4FC591D49156
:10367000FC01E255FD4FA591B491611109C09FB7BE
:10368000F8948881209582238883EC912E230BC0A7
:10369000623061F49FB7F8943881822F809583233C
:1036A0008883EC912E2B2C939FBF06C08FB7F89484
:1036B000E8812E2B28838FBFDF91CF9108958E3024
:1036C00008F08E508770806480937C0080917A002F
:1036D000806480937A0080917A0086FDFCCF80918F
:1036E00078002091790090E0922B08952FB7F894FC
:1036F0006091AF067091B0068091B1069091B206CC
:103700002FBF08958F929F92AF92BF92CF92DF9278
:10371000EF92FF920F931F93CF93DF931F92CDB73A
:10372000DEB78C010E94761BD8011E96CD90DD90ED
:10373000ED90FC905197DC01CB018C199D09AE09ED
:10374000BF09F801C284D384E484F5848C159D05F7
:10375000AE05BF0508F45EC10E94761BD8011E9617
:103760006D937D938D939C93519718968D919C9119
:1037700019970E940F0FF801808591850E942B18E0
:1037800040E06EEBD80118968D919C9119970E949C
:10379000BB072EE9822E26E0922EF801A084B18488
:1037A00098E0C92ED12CEE24E394F12CC5010E949F
:1037B00068078111FE28EE0CF1E0CF1AD108B1F7AD
:1037C000D401FD924D01B7EA8B16B6E09B0629F7AE
:1037D000D8011896ED91FC911997138615861486D9
:1037E000DF011B9633961E92AE17BF07E1F760917B
:1037F0009F0670E0762F662780919E06682B072E25
:10380000000C880B990B0E948E2520E030E040E8E8
:103810005DE30E94ED2560939A0670939B0680936A
:103820009C0690939D06F801648375838683978335
:10383000A084B184D5011D968C91811163C0C5010E
:103840000E940F0F882309F45DC040E060EFC501BE
:103850000E94BB07EE24E394D12CC12CFF24F394E7
:10386000C5010E946807682FC50169830E94680727
:103870006981613019F48130D1F437C02D2D30E0E9
:1038800068131EC0D5011B968C91F81638F4F5010B
:10389000E20FF31F83818E2151F402C0F81639F034
:1038A00060E0B8E0BF1558F0F501F48608C0F501F6
:1038B000ED0DF11D83818E29838361E009C0CF2C3A
:1038C000F501E20FF31F93818E2D80958923838369
:1038D000C5010E948C07F394EE0C19F4D394EE24E6
:1038E000E394F7E0FD1508F0BBCF80E48F1550F4AA
:1038F000D5011B96CC921B97C1101EC081E01D966E
:103900008C931AC0F50113861586148668E572E05B
:1039100083EF94E00E94271AD8011896ED91FC914C
:103920001997138615861486DF011B9633961E920F
:10393000AE17BF07E1F76EC0F5018381882311F34D
:10394000D5011396E9EEF2E08D91819382E0E13F9B
:10395000F807D1F7A9EEB2E0E0E0CD01895F8A1760
:1039600039F09D91E927F0E0EC55FE4FE491F7CF57
:103970008091F002E81799F06CE272E083EF94E036
:103980000F90DF91CF911F910F91FF90EF90DF90FB
:10399000CF90BF90AF909F908F900C94271A8091FA
:1039A000E9028031A9F0883299F06EE372E083EF8A
:1039B00094E00F90DF91CF911F910F91FF90EF90C6
:1039C000DF90CF90BF90AF909F908F900C94121A81
:1039D000D80118968D919C9119970E940F0FF801AC
:1039E000808591850E942B1841E064E4D8011896E7
:1039F0008D919C9119970F90DF91CF911F910F910D
:103A0000FF90EF90DF90CF90BF90AF909F908F90FE
:103A10000C94BB070F90DF91CF911F910F91FF90F6
:103A2000EF90DF90CF90BF90AF909F908F900895D0
:103A30001F920F920FB60F9211242F933F938F93E3
:103A40009F93AF93BF938091AF069091B006A091E2
:103A5000B106B091B2063091AE0623E0230F2D37A8
:103A600020F40196A11DB11D05C026E8230F029682
:103A7000A11DB11D2093AE068093AF069093B006B2
:103A8000A093B106B093B2068091AA069091AB06BE
:103A9000A091AC06B091AD060196A11DB11D809319
:103AA000AA069093AB06A093AC06B093AD06BF9167
:103AB000AF919F918F913F912F910F900FBE0F90DB
:103AC0001F9018950F931F93CF93DF93CDB7DEB759
:103AD000A7970FB6F894DEBF0FBECDBFCB01BA01DA
:103AE0001BA21AA21DA21CA21FA21EA28E010F5F62
:103AF0001F4F2AE04CE00E949F21BC01CE0182961C
:103B00000E94EA18CE0182960E946B18CE0182961E
:103B10000E940B190E944718A7960FB6F894DEBFB3
:103B20000FBECDBFDF91CF911F910F910895CF931D
:103B3000DF93C7EED5E089919991009711F00E942B
:103B4000542285E0CB3FD807B1F782E296E00E948D
:103B50000B1988E296E00E940B198EE096E0DF9147
:103B6000CF910C940B19CF92DF92EF92FF92CF93EB
:103B7000DF931092F6041092F50488EEC82E83E0CD
:103B8000D82EE12CF12CC092F704D092F804E092E8
:103B9000F904F092FA048EE091E09093F40480939B
:103BA000F30485EC90E0909300058093FF0484EC8F
:103BB00090E0909302058093010580EC90E0909353
:103BC00004058093030581EC90E0909306058093B3
:103BD000050582EC90E0909308058093070586EC3C
:103BE00090E090930A058093090510920C051092BD
:103BF0000D0510920E0510920F056DE172E08EE03A
:103C000096E00E94FD196DE172E088E296E00E9464
:103C1000FD196DE172E082E296E00E94FD1980E5F7
:103C20008093900510929105109297051092980537
:103C300010929B0510929D0582E090E0A0E0B0E01C
:103C400080939E0590939F05A093A005B093A10536
:103C50001092B5051092BF051092BE058EE191E05D
:103C60009093BD058093BC051092C1051092DE05AE
:103C70001092DD05C092DF05D092E005E092E105EB
:103C8000F092E20586E291E09093DC058093DB05FB
:103C900060E085E00E94231BE5E9F1E0E491E09318
:103CA0001406E1E8F1E0E491F0E0EE0FFF1FEE58BA
:103CB000FE4F85919491909316068093150610926D
:103CC0001F061092210610922006EFE1F6E01292F4
:103CD00086E0E731F807D9F781EE97E09093FC058D
:103CE0008093FB0584E08093FD0591E19093FE05B0
:103CF0008093FF058EE08093000685E080930106A7
:103D000010920206E7EEF5E084E1DF011D928A954C
:103D1000E9F711921192B5E0EB3FFB07D1F78AE387
:103D200090E00E94BF21FC0186E391E091838083B3
:103D300080E190E093838283148215821682178239
:103D400084E190E09187808712AA13AA14AA15AA89
:103D500016AA17AA10AE11AEF093E805E093E70596
:103D600082E190E00E94BF21EC0180E491E0998320
:103D7000888382E593E0A0E0B0E08A879B87AC87E8
:103D8000BD8784E196E099878887D093EA05C09340
:103D9000E90580E590E00E94BF21FC018AE491E002
:103DA000918380838FE090E09383828314821582D5
:103DB000168217829F01265F3F4F88E2D9011D922C
:103DC0008A95E9F713AA12AA14AA15AA16AA17AA7D
:103DD00011AE10AE13AE12AE14AE15AE16AE17AED7
:103DE000DF01A05CBF4F1D921D921D921C92139784
:103DF00014961D921D921D921C921397149649E1E0
:103E000050E060E070E04D935D936D937C93139769
:103E100014964CEB52E060E070E04D935D936D932F
:103E20007C931397D187C087F093EE05E093ED055F
:103E300085E290E00E94BF21FC018CE791E0918334
:103E4000808384E090E0938382831186108688EEDD
:103E500093E0A0E0B0E082879387A487B58784E5EC
:103E600091E09783868310A2178E128A11A212A264
:103E700013A214A287EE95E095838483F093F20554
:103E8000E093F105DF91CF91FF90EF90DF90CF901D
:103E90000895CF93DF93CDB7DEB7A3970FB6F8940D
:103EA000DEBF0FBECDBF789484B5826084BD84B57B
:103EB000816084BD85B5826085BD85B5816085BD25
:103EC00080916E00816080936E00109281008091DD
:103ED0008100826080938100809181008160809365
:103EE0008100809180008160809380008091B1008A
:103EF00084608093B1008091B00081608093B000B5
:103F000080917A00846080937A0080917A00826048
:103F100080937A0080917A00816080937A0080910A
:103F20007A00806880937A001092C100E0910305C6
:103F3000F091040582E08083E091FF04F091000598
:103F40001082E0910105F09102058FEC80831092C0
:103F50000B05E0910705F091080586E08083E0916C
:103F60000505F0910605808180618083E09105055B
:103F7000F0910605808188608083E0910505F091CD
:103F80000605808180688083E0910505F091060533
:103F900080818F7D8083109279061092780610922E
:103FA0002F06109250061092770681E080937606D5
:103FB0001092710661E082E10E94D71A61E083E10C
:103FC0000E94D71A8091B9008E7F8093B9008091AA
:103FD000B9008D7F8093B90088E48093B80085E4B0
:103FE0008093BC0007EE15E0D8018D919D918D0165
:103FF000009739F0DC01ED91FC910190F081E02D0A
:104000000995B5E00B3F1B0779F711E00FEF21E5AC
:10401000222E26E0322E3AE7A32E36E0B32EFE0102
:104020003196FBA3EAA3E75BF6404F014AE0442E3A
:10403000512C612C712C0E94761BC0900A06D090E6
:104040000B06E0900C06F0900D06DC01CB018C19FC
:104050009D09AE09BF09893E9340A105B10508F449
:10406000F2C00E94761B60930A0670930B06809341
:104070000C0690930D06809177068111FCCF10936A
:10408000770610937606009375061092740686E004
:1040900080937306109372068091720684668093F3
:1040A000720680917106813061F4109271068091E0
:1040B00072068093BB008091BC0083FDF8CF85EC35
:1040C00001C085EE8093BC00809177068130E1F3DA
:1040D00080917406873018F4E090740602C097E06F
:1040E000E92EEAE7F6E0A1E5B6E08E2F8A198E15F3
:1040F00018F48D918193F9CF10927906E0927806A9
:10410000F12C80917906E81671F0DD24D394DF0C50
:104110008BED95E00E947608EF2DF0E0E550FA4F28
:104120008087FD2CEECF80915006813208F041C08F
:10413000909177069111FCCF92E0909377061093BF
:104140007606009375061092740680937306A0E3BA
:10415000B6E0E1E5F6E09E2F9219981718F49D91CC
:104160009193F9CF10927206809172068093720635
:1041700080917106813061F410927106809172060F
:104180008093BB008091BC0083FDF8CF85EC01C01B
:1041900085EE8093BC00809177068230E1F38091B8
:1041A00075068F3F31F080917506803211F0809155
:1041B000750610922F061092500610922E06E3E01C
:1041C000F6E090E0923059F08081282F22952F70F0
:1041D0008F703AE0239F800D112480830FC080915F
:1041E0000506282F2695269526952E70322F330FFB
:1041F000330F230F8F70820F809305069F5F3196D8
:10420000973001F78091090690E08053984F909382
:10421000FC058093FB05809108068093FD05809145
:1042200007068093FE05809106068093FF05809126
:104230000506809300068091040680930106809114
:1042400003068093020687EEE82E85E0F82ED7015C
:104250008D919D917D01009739F0DC01ED91FC91EC
:104260000280F381E02D0995BBEFEB16B5E0FB066C
:1042700071F76EE172E083EF94E00E94121A809170
:10428000B3069091B406009719F49A82898206C009
:10429000EAA1FBA1E81BF90BFA83E98329813A81A2
:1042A0006901330FEE08FF08F7FE26C0E091F30422
:1042B000F091F4040190F081E02D6DE283EF94E041
:1042C000099522273327A9012C193D094E095F09B9
:1042D00019A2CE0181967C01CA01B901A301920104
:1042E0000E940F28605DD7016E937D012115310575
:1042F0004105510589F715C0A701960119A2FE01D4
:10430000B1967F01CA01B901A30192010E940F2851
:10431000605DD7016E937D01211531054105510581
:1043200089F7B70183EF94E00E94121A6BE172E003
:1043300083EF94E00E94121A0E949F1A7CCEEF92A3
:104340000F931F93CF93DF93E80147FD02C034E042
:1043500001C034E1E42F440FFF0BF7FF03C0F195D8
:10436000E195F109E32E022F2E2FAE010E941123B9
:10437000CE01DF91CF911F910F91EF900895CF93D0
:10438000DF938230910510F482E090E0E091B50671
:10439000F091B60620E030E0C0E0D0E0309711F1B7
:1043A0004081518148175907C0F04817590761F4F7
:1043B00082819381209719F09B838A832BC09093ED
:1043C000B6068093B50626C02115310519F04217AF
:1043D000530718F49A01BE01DF01EF010280F38157
:1043E000E02DDCCF2115310509F1281B390B2430D4
:1043F000310590F412968D919C911397611571057A
:1044000021F0FB019383828304C09093B6068093CE
:10441000B506FD01329644C0FD01E20FF31F819302
:104420009193225031092D933C933AC02091B306C9
:104430003091B406232B41F42091060130910701FD
:104440003093B4062093B306209104013091050106
:104450002115310541F42DB73EB740910801509127
:104460000901241B350BE091B306F091B406E21765
:10447000F307A0F42E1B3F0B2817390778F0AC0187
:104480004E5F5F4F2417350748F04E0F5F1F509364
:10449000B4064093B3068193919302C0E0E0F0E04C
:1044A000CF01DF91CF9108950F931F93CF93DF93A7
:1044B000009709F48CC0FC0132971382128200919C
:1044C000B5061091B6060115110581F420813181E0
:1044D000820F931F2091B3063091B4062817390735
:1044E00079F5F093B406E093B30671C0D80140E0CB
:1044F00050E0AE17BF0750F412962D913C911397E0
:10450000AD012115310509F1D901F3CF9D01DA0182
:104510003383228360817181860F971F82179307EF
:1045200069F4EC0128813981260F371F2E5F3F4F38
:10453000318320838A819B8193838283452B29F455
:10454000F093B606E093B50642C01396FC93EE9343
:104550001297ED01499159919E01240F351FE217E1
:10456000F30771F480819181840F951F0296119653
:104570009C938E938281938113969C938E93129732
:10458000E0E0F0E0D80112968D919C91139700978E
:1045900019F0F8018C01F6CF8D919C9198012E5F56
:1045A0003F4F820F931F2091B3063091B406281716
:1045B000390769F4309729F41092B6061092B506BF
:1045C00002C0138212821093B4060093B306DF91E7
:1045D000CF911F910F9108954532510520F442303B
:1045E00010F00C94F722FB011082CB010895BB2739
:1045F000FB015527AA27880F991FAA1FA41710F09F
:10460000A41B83955051B9F7A05DAA3308F0A95DAA
:10461000A193009779F7B111B1931192CB010C944A
:1046200077254F925F926F927F929F92AF92BF9247
:10463000CF92DF92EF92FF920F931F93CF93DF936E
:10464000CDB7DEB729970FB6F894DEBF0FBECDBF4A
:104650006A01122FB02E2BE3201720F0FF24F394D1
:10466000F00E02C0BCE3FB2E0F2D27E0AE014F5F22
:104670005F4F0E949F24AC018981982F99709130DF
:1046800031F0E1FC06C0E0FE06C090E205C09DE20C
:1046900003C09BE201C090E0EE2DE07183FF3CC0BF
:1046A000911102C083E001C084E0811718F4212F2A
:1046B000281B01C020E0E1110BC0F601822F30E27F
:1046C000882319F031938150FBCFC20ED11C20E01A
:1046D000992329F0D6019C93F60131966F01C6010A
:1046E0000396E2FE0AC03EE4D6013C9341E41196F3
:1046F0004C93119712963C9306C03EE6F601308328
:1047000041E641833283FC01322F40E2332309F436
:1047100042C041933150FACF82FF44C0911102C090
:1047200083E001C084E0811718F4212F281B01C009
:1047300020E0E1110BC0F601822F30E2882319F04E
:1047400031938150FBCFC20ED11C20E0992329F078
:10475000D6019C93F60131966F01C6010396E2FEE5
:104760000BC039E4D6013C933EE411963C9311977B
:1047700036E412963C9307C039E6F60130833EE6F4
:10478000318336E63283FC01322F40E2332319F0C5
:1047900041933150FBCFFC01E20FF11D10828EEFEF
:1047A0009FEFB7C0F1E0911101C0F0E06F2F70E012
:1047B0001416150624F49A012F5F3F4F02C021E022
:1047C00030E0260F371FBB2029F06B2D70E06F5FA4
:1047D0007F4F02C060E070E0260F371F612F70E04E
:1047E000261737071CF4121B212F01C020E03E2D95
:1047F000387159F4D601322F60E2332319F06D93EA
:104800003150FBCFC20ED11C20E0FF2331F0D60186
:104810009C93B6016F5F7F4F6B01E1110BC0F601F6
:10482000922F30E3992319F031939150FBCFC20EB0
:10483000D11C20E09F2D940F3A81782F7071A72E04
:1048400084FF03C0313309F49150191624F49930D0
:1048500018F098E001C091E0E42F852F57FF02C0C7
:10486000E0E080E06E2F782FE0E0F0E0AEE29A2EFC
:104870003A01691A71082A01461A570A0B2D10E0ED
:104880001195019511096F3F8FEF780729F4D60133
:104890009C92C60101966C014617570784F0661674
:1048A00077066CF47F01E40CF51CA1E0B0E0AC0FDE
:1048B000BD1FEA0EFB1ED7011196BC9002C090E30B
:1048C000B92E615071093196C60101967C016017BD
:1048D000710724F0D601BC926C01D5CF641775071F
:1048E00041F4363320F4353321F4A11002C081E3C2
:1048F000B82EF601B082F701822F90E2882319F0DA
:1049000091938150FBCFF701E20FF11D108280E0FF
:1049100090E029960FB6F894DEBF0FBECDBFDF91B1
:10492000CF911F910F91FF90EF90DF90CF90BF90AC
:10493000AF909F907F906F905F904F900895283038
:1049400008F027E03327DA01990F311D87FD9160C8
:1049500000966105710539F432602E5F3D9330E3B6
:104960002A95E1F708959F3F30F080387105610581
:1049700009F03C5F3C5F3D93913008F08068911DE9
:10498000DF93CF931F930F93FF92EF92192F987F8E
:104990009695E92F96959695E90FFF27EE53FF4FD1
:1049A00099273327EE24FF24A701E70105900894F7
:1049B000079428F4360FE71EF81E491F511D660F95
:1049C000771F881F991F0694A1F70590079428F474
:1049D000E70EF81E491F561FC11D770F881F991F2C
:1049E000661F0694A1F70590079428F4F80E491F56
:1049F000561FC71FD11D880F991F661F771F06946A
:104A0000A1F70590079420F4490F561FC71FD81F20
:104A1000990F661F771F881F0694A9F78491109538
:104A2000177041F0D695C79557954795F794E79439
:104A30001A95C1F7E8E6F0E0689415901591359164
:104A40006591959105907FE27395E118F10A430B0A
:104A5000560BC90BD009C0F7E10CF11E431F561FBE
:104A6000C91FD01D7EF4703311F48A95E6CFE89407
:104A7000015030F0080F0AF40027021708F4202F25
:104A80002395022F7A3328F079E37D932A95E9F76D
:104A900010C07D932A9589F606949795679537956A
:104AA00017951794E118F10A430B560BC90BD0095F
:104AB00098F023957E9173957A3308F070E37C9398
:104AC0002013B8F77E9170617D9330F0839571E388
:104AD0007D9370E32A95E1F71124EF90FF900F91F9
:104AE0001F91CF91DF91992787FD90950895DC0163
:104AF000FC01672F71917723E1F7329704C07C9115
:104B00006D9370836291AE17BF07C8F308950E943A
:104B1000C92508F481E00895E89409C097FB3EF4A4
:104B200090958095709561957F4F8F4F9F4F9923FA
:104B3000A9F0F92F96E9BB279395F6958795779578
:104B40006795B795F111F8CFFAF4BB0F11F460FF38
:104B50001BC06F5F7F4F8F4F9F4F16C0882311F090
:104B600096E911C0772321F09EE8872F762F05C0A4
:104B7000662371F096E8862F70E060E02AF09A953F
:104B8000660F771F881FDAF7880F9695879597F934
:104B90000895990F0008550FAA0BE0E8FEEF1616CE
:104BA0001706E807F907C0F012161306E407F50721
:104BB00098F0621B730B840B950B39F40A2661F095
:104BC000232B242B252B21F408950A2609F4A14038
:104BD000A6958FEF811D811D08950E9400260C94DB
:104BE00071260E94632638F00E946A2620F09523E1
:104BF00011F00C945A260C94602611240C94A526CE
:104C00000E94822670F3959FC1F3950F50E0551FC7
:104C1000629FF001729FBB27F00DB11D639FAA2711
:104C2000F00DB11DAA1F649F6627B00DA11D661F60
:104C3000829F2227B00DA11D621F739FB00DA11D81
:104C4000621F839FA00D611D221F749F3327A00D3B
:104C5000611D231F849F600D211D822F762F6A2FD7
:104C600011249F5750409AF0F1F088234AF0EE0F3C
:104C7000FF1FBB1F661F771F881F91505040A9F769
:104C80009E3F510580F00C945A260C94A5265F3F58
:104C9000E4F3983ED4F3869577956795B795F795A5
:104CA000E7959F5FC1F7FE2B880F911D969587951D
:104CB00097F9089597F99F6780E870E060E008959C
:104CC0009FEF80EC089500240A9416161706180624
:104CD0000906089500240A94121613061406050600
:104CE0000895092E0394000C11F4882352F0BB0F91
:104CF00040F4BF2B11F460FF04C06F5F7F4F8F4FF4
:104D00009F4F089557FD9058440F551F59F05F3F2E
:104D100071F04795880F97FB991F61F09F3F79F0DD
:104D200087950895121613061406551FF2CF46955F
:104D3000F1DF08C0161617061806991FF1CF8695E1
:104D40007105610508940895E894BB2766277727C5
:104D5000CB0197F908950E94ED26A59F900DB49F71
:104D6000900DA49F800D911D112408952F923F92C4
:104D70004F925F926F927F928F929F92AF92BF926B
:104D8000CF92DF92EF92FF920F931F93CF93DF9317
:104D9000CDB7DEB7CA1BDB0B0FB6F894DEBF0FBE74
:104DA000CDBF09942A88398848885F846E847D84C1
:104DB0008C849B84AA84B984C884DF80EE80FD80C3
:104DC0000C811B81AA81B981CE0FD11D0FB6F89439
:104DD000DEBF0FBECDBFED010895A29FB001B39F0E
:104DE000C001A39F700D811D1124911DB29F700DF4
:104DF000811D1124911D08955058BB27AA270E9498
:104E000014270C9471260E94632638F00E946A26AB
:104E100020F039F49F3F19F426F40C9460260EF428
:104E2000E095E7FB0C945A26E92F0E94822658F35E
:104E3000BA17620773078407950720F079F4A6F57F
:104E40000C94A4260EF4E0950B2EBA2FA02D0B0186
:104E5000B90190010C01CA01A0011124FF27591BBF
:104E600099F0593F50F4503E68F11A16F040A22FC5
:104E7000232F342F4427585FF3CF46953795279536
:104E8000A795F0405395C9F77EF41F16BA0B620B35
:104E9000730B840BBAF09150A1F0FF0FBB1F661F7C
:104EA000771F881FC2F70EC0BA0F621F731F841FBF
:104EB00048F4879577956795B795F7959E3F08F0E5
:104EC000B0CF9395880F08F09927EE0F97958795A7
:104ED00008950E947D270C9471260E946A2658F03E
:104EE0000E94632640F029F45F3F29F00C945A2673
:104EF00051110C94A5260C9460260E94822668F31A
:104F00009923B1F3552391F3951B550BBB27AA2782
:104F100062177307840738F09F5F5F4F220F331FBC
:104F2000441FAA1FA9F335D00E2E3AF0E0E832D084
:104F300091505040E695001CCAF72BD0FE2F29D087
:104F4000660F771F881FBB1F261737074807AB0759
:104F5000B0E809F0BB0B802DBF01FF2793585F4FCE
:104F60003AF09E3F510578F00C945A260C94A526F1
:104F70005F3FE4F3983ED4F3869577956795B795B0
:104F8000F7959F5FC9F7880F911D9695879597F9BB
:104F90000895E1E0660F771F881FBB1F6217730734
:104FA0008407BA0720F0621B730B840BBA0BEE1F49
:104FB00088F7E09508950E948A2688F09F5798F018
:104FC000B92F9927B751B0F0E1F0660F771F881F0E
:104FD000991F1AF0BA95C9F714C0B13091F00E9428
:104FE000A426B1E008950C94A426672F782F882773
:104FF000B85F39F0B93FCCF3869577956795B3954F
:10500000D9F73EF490958095709561957F4F8F4FBD
:105010009F4F08950E94C92508F48FEF0895A1E2DB
:105020001A2EAA1BBB1BFD010DC0AA1FBB1FEE1F22
:10503000FF1FA217B307E407F50720F0A21BB30B6D
:10504000E40BF50B661F771F881F991F1A9469F7E9
:1050500060957095809590959B01AC01BD01CF0145
:105060000895052E97FB1EF400940E94482857FDD2
:1050700007D00E940F2807FC03D04EF40C94482858
:1050800050954095309521953F4F4F4F5F4F089574
:1050900090958095709561957F4F8F4F9F4F0895A4
:1050A000EE0FFF1F0590F491E02D0994A0E0B0E011
:1050B000ECE5F8E20C94BA26EC01009721F4CB0160
:1050C0000E94BF21B8C0FC01E60FF71F9C012250CF
:1050D0003109E217F30708F4ACC0D9010D911C9116
:1050E000119706171707B0F00530110508F49FC097
:1050F000C80104978617970708F499C00250110950
:10510000061B170B019311936D937C93CF010E94A3
:1051100054228DC05B01A01AB10A4C01800E911E71
:10512000A091B506B091B60640E050E0E12CF12C1C
:10513000109709F44AC0A815B905D1F56D907C9077
:105140001197630182E0C80ED11CCA14DB0480F100
:10515000A3014A195B096A0182E0C80ED11C1296AC
:10516000BC9012971396AC91B5E0CB16D10440F0E9
:10517000B282A38351834083D9016D937C930AC08B
:105180000E5F1F4FC301800F911FF9019183808330
:10519000EB2DFA2FE114F10431F0D7011396FC93B3
:1051A000EE93129744C0F093B606E093B5063FC065
:1051B0008D919C9111974817590708F4AC017D0116
:1051C00012960D90BC91A02DB3CF8091B306909113
:1051D000B40688159905E1F446175707C8F480917D
:1051E000040190910501009741F48DB79EB740915D
:1051F000080150910901841B950BE817F907C8F4C1
:10520000F093B406E093B306F901718360830FC095
:10521000CB010E94BF217C01009759F0A801BE017B
:105220000E943229CE010E945422C70104C0CE013F
:1052300002C080E090E0CDB7DEB7EEE00C94D62659
:1052400081E090E0F8940C945129FB01DC0104C04A
:105250008D910190801921F441505040C8F7881B6E
:10526000990B0895FB01DC0102C001900D924150A1
:105270005040D8F70895FB01DC0101900D92002009
:10528000E1F70895FB01DC014150504048F00190E6
:105290000D920020C9F701C01D9241505040E0F727
:1052A000089511E0C7E6D1E004C0FE010E94502835
:0C52B0002196C836D107C9F7F894FFCF4B
:1052BC00FFFFFFFF0000B706800000000000671929
:1052CC001019931A3B194F19AE19000000007F13E7
:1052DC00101900000000C20892088A0876086708B6
:1052EC006608000000001C032B0592010000000062
:1052FC00AF1A821BA91A00000000210310069801A6
:10530C00000000001E08F908FD07720D7C0DF10865
:10531C0000000000B41A1019B41AB41AB41AB41A52
:10532C0000000000B41A10190000000033039E01A5
:10533C00B01A496E697469616C697A696E67205339
:10534C004420636172642E2E2E00636172642069A6
:10535C006E697469616C697A65642E00436172646C
:10536C00206661696C65642C206F72206E6F7420EE
:10537C0070726573656E7400596561722C4D6F6E39
:10538C0074682C4461792C486F75722C4D696E755C
:10539C0065732C5365636F6E642C70482C74656D4B
:1053AC00702843292C444F286D672F6C302C656373
:1053BC0028732F6D292C6F7270286D7629007365F8
:1053CC006E736F722E637376002C000D0A0066727A
:1053DC0065654D656D6F727928293D0043524320F8
:1053EC006973206E6F742076616C6964210044656A
:1053FC0076696365206973206E6F74207265636FC4
:10540C00676E697A656421006E6F206D6F7265201E
:10541C0073656E736F7273206F6E20636861696E53
:10542C002C2072657365742073656172636821004A
:107E0000112484B714BE81FFF0D085E080938100F7
:107E100082E08093C00088E18093C10086E0809377
:107E2000C20080E18093C4008EE0C9D0259A86E02C
:107E300020E33CEF91E0309385002093840096BBD3
:107E4000B09BFECF1D9AA8958150A9F7CC24DD24C4
:107E500088248394B5E0AB2EA1E19A2EF3E0BF2EE7
:107E6000A2D0813461F49FD0082FAFD0023811F036
:107E7000013811F484E001C083E08DD089C08234E0
:107E800011F484E103C0853419F485E0A6D080C0E4
:107E9000853579F488D0E82EFF2485D0082F10E0AE
:107EA000102F00270E291F29000F111F8ED06801E7
:107EB0006FC0863521F484E090D080E0DECF843638
:107EC00009F040C070D06FD0082F6DD080E0C81688
:107ED00080E7D80618F4F601B7BEE895C0E0D1E017
:107EE00062D089930C17E1F7F0E0CF16F0E7DF06D8
:107EF00018F0F601B7BEE89568D007B600FCFDCFD4
:107F0000A601A0E0B1E02C9130E011968C91119780
:107F100090E0982F8827822B932B1296FA010C0160
:107F200087BEE89511244E5F5F4FF1E0A038BF0790
:107F300051F7F601A7BEE89507B600FCFDCF97BE46
:107F4000E89526C08437B1F42ED02DD0F82E2BD052
:107F50003CD0F601EF2C8F010F5F1F4F84911BD097
:107F6000EA94F801C1F70894C11CD11CFA94CF0C13
:107F7000D11C0EC0853739F428D08EE10CD085E9AC
:107F80000AD08FE07ACF813511F488E018D01DD067
:107F900080E101D065CF982F8091C00085FFFCCF94
:107FA0009093C60008958091C00087FFFCCF809118
:107FB000C00084FD01C0A8958091C6000895E0E648
:107FC000F0E098E1908380830895EDDF803219F02E
:107FD00088E0F5DFFFCF84E1DECF1F93182FE3DFCA
:107FE0001150E9F7F2DF1F91089580E0E8DFEE27F6
:047FF000FF270994CA
:027FFE00040479
:0400000300007E007B
:00000001FF