:100000000C9468010C9490010C9490010C94900154
:100010000C9490010C9490010C9490010C9490011C
:100020000C9490010C9490010C9490010C9490010C
:100030000C9490010C9490010C9490010C949001FC
:100040000C9496110C9490010C943A0F0C94140F8C
:100050000C9490010C9490010C9490010C949001DC
:100060000C947B0C0C94900100407A10F35A00A081
:10007000724E18090010A5D4E80000E87648170071
:1000800000E40B54020000CA9A3B000000E1F505B1
:10009000000080969800000040420F000000A086FB
:1000A00001000000102700000000E803000000002D
:1000B0006400000000000A000000000001000000D1
:1000C00000002C76D888DC674F0823DFC1DFAE59EB
:1000D000E1B1B796E5E3E453C63AE651997696E87E
:1000E000E6C28426EB898C9B62ED407C6FFCEFBC02
:1000F0009C9F40F2BAA56FA5F490055A2AF75C932D
:100100006B6CF9676DC11BFCE0E40D47FEF520E662
:10011000B500D0ED902E0300943577050080841E45
:10012000080000204E0A000000C80C333333330FA0
:10013000986E12831141EF8D2114893BE65516CF3D
:10014000FEE6DB18D1844B381BF77C1D901DA4BB49
:10015000E424203284725E228100C9F124ECA1E5FE
:100160003D277C3C3E5E2B3D3F2F5B5D3B2C2A2296
:100170005C00005EBCE2613FDD83C29C7E20A3FD8B
:100180001F419DC3217FFCA2401E5F01E3BD3E6075
:1001900082DC237D9FC1421CFEA0E1BF5D0380DEA7
:1001A0003C62BEE0025CDF81633D7C22C09E1D4359
:1001B000A1FF4618FAA427799BC584DA3866E5BB07
:1001C0005907DB856739BAE406581947A5FB782635
:1001D000C49A653BD987045AB8E6A7F91B45C69867
:1001E0007A24F8A6441A99C7257B3A6486D85B0519
:1001F000E7B98CD2306EEDB3510F4E10F2AC2F71C7
:1002000093CD114FADF3702ECC92D38D6F31B2ECF4
:100210000E50AFF1134DCE90722C6D33D18F0C5226
:10022000B0EE326C8ED0530DEFB1F0AE4C1291CFD8
:100230002D73CA947628ABF517490856B4EA693786
:10024000D58B5709EBB536688AD495CB2977F4AAB4
:100250004816E9B7550B88D6346A2B7597C94A14E6
:10026000F6A8742AC896154BA9F7B6E80A54D78998
:100270006B3500000000240027002A000000000069
:10028000250028002B0000000008000201000003E8
:100290000407000000000000000000000000230030
:1002A00026002900040404040404040402020202D7
:1002B0000202030303030303010204081020408029
:1002C000010204081020010204081020D31DB71DEC
:1002D00011241FBECFEFD8E0DEBFCDBF12E0A0E0FB
:1002E000B1E0EAE8FBE402C005900D92A836B10740
:1002F000D9F726E0A8E6B2E001C01D92AD39B207F9
:10030000E1F711E0C7E6D1E004C02197FE010E94A9
:10031000B724C636D107C9F70E94D71B0C94B8255D
:100320000C940000DC015996ED91FC915A9730979E
:10033000B9F083899489A589B689428553856485F6
:100340007585841B950BA60BB70B811520E89207CA
:10035000A105B10538F08FEF9FE7A0E0B0E0089568
:1003600080E090E00895CF93DF931F92CDB7DEB782
:100370006983DC01ED91FC910280F381E02D41E085
:1003800050E0BE016F5F7F4F09950F90DF91CF91D5
:10039000089585ED8093BC008091BC0084FDFCCF66
:1003A0001092FA02089540918A02262F30E0240F1D
:1003B000311D21323105DCF42091FA022430C9F4D8
:1003C000FC0180E090E0861758F430918A02219178
:1003D000DC01A859BD4FA30FB11D2C930196F3CF9B
:1003E00080918A02680F60938A0280E0089581E01C
:1003F000089582E008950895E091FC028091FB0247
:10040000E81730F4F0E0E350FD4F808190E008956C
:100410008FEF9FEF08959091FC028091FB02981757
:1004200050F4E92FF0E0E350FD4F208130E09F5F72
:100430009093FC0202C02FEF3FEFC9010895809115
:10044000FB0290E02091FC02821B91090895CF925B
:10045000DF92EF92FF920F931F93CF93DF937C0174
:10046000262F972F8A018091B102882391F0C62F01
:10047000D72F6E01C40ED51ECC15DD0571F0699124
:10048000D701ED91FC910190F081E02DC701099514
:10049000F3CF642F822F0E94D301C801DF91CF9147
:1004A0001F910F91FF90EF90DF90CF900895CF9321
:1004B000DF931F92CDB7DEB769832091B10222236B
:1004C000D1F02091D302203240F021E030E0FC0155
:1004D0003383228380E090E015C08091B202E82F40
:1004E000F0E0ED54FD4F998190838F5F8093B202CD
:1004F0008093D30205C061E0CE0101960E94D30132
:1005000081E090E00F90DF91CF910895CF93DF933A
:10051000EC018D818823A1F18C8187FF2DC06E8530
:100520007F858889998941E00E949D13882341F144
:10053000EA8980E2E89FF0011124DF01A45ABC4F50
:100540001097F1F08D81823050F44B895C896D8970
:100550007E895C964D935D936D937C935F978F89B5
:10056000988DA98DBA8DE45AFC4F938F828FB58BED
:10057000A48B8C818F778C83DF91CF910C94621345
:1005800080E0DF91CF910895FC01818D928D0097DD
:1005900011F00C94860208953F924F925F926F92F1
:1005A0007F928F929F92AF92BF92CF92DF92EF9203
:1005B000FF920F931F93CF93DF93CDB7DEB72C97A6
:1005C0000FB6F894DEBF0FBECDBF5C01DC015B96B9
:1005D0008D909C905C971696CD90DD90ED90FC9060
:1005E0001997C114D104E104F10439F0BFEFCB1A1B
:1005F000DB0AEB0AFB0A312C07C0F401C080D18072
:10060000E280F38033243394F40181859285A385BD
:10061000B4859C01AD012F5F3F4F4F4F5F4F29873E
:100620003A874B875C87260137011D821E821F8215
:100630001886F40181859285A385B4852D813E813C
:100640004F815885281739074A075B0708F063C0B0
:1006500089859A85AB85BC858C159D05AE05BF0542
:1006600050F482E0C82ED12CE12CF12C92E0492EDE
:10067000512C612C712C9E012F5F3F4FB701A601B9
:10068000C4010E948614882309F445C089819A8197
:10069000AB81BC81892B8A2B8B2B41F02601370142
:1006A0009FEF491A590A690A790A05C0C414D5048A
:1006B000E604F70491F02D813E814F8158852F5F2C
:1006C0003F4F4F4F5F4F2D833E834F8358873FEF00
:1006D000C31AD30AE30AF30AACCF0FEF1FEF2FEFD1
:1006E0003FE0B301A201C4010E94E613882399F000
:1006F000D50116964D915D916D917C91199741159B
:1007000051056105710549F093018201C4010E9400
:10071000E613811102C080E02AC0D50116964D92E1
:100720005D926D927C921997332051F0D301C201F2
:100730000196A11DB11DF40180839183A283B3832F
:10074000F5018789908DA18DB28D892B8A2B8B2BFA
:1007500069F4D50157964D925D926D927C925A97AD
:1007600014968C911497806814968C9381E02C9643
:100770000FB6F894DEBF0FBECDBFDF91CF911F91B2
:100780000F91FF90EF90DF90CF90BF90AF909F9030
:100790008F907F906F905F904F903F9008958F92D1
:1007A0009F92AF92BF92CF92DF92EF92FF920F9300
:1007B0001F93CF93DF93EC018D81811102C080E004
:1007C00077C00B891C892D893E89041715072607D8
:1007D0003707A8F36A017B01823029F4CA86DB86D9
:1007E000EC86FD860DC0C114D104E104F10451F47E
:1007F0001E821F82188619861A861B861C861D86F5
:1008000081E056C08A849B84AC84BD84EB8DFC8DD2
:10081000258530E0275F3F4FB501A40141505109C4
:1008200061097109022E04C0769567955795479521
:100830000A94D2F7D701C6010197A109B10904C0F2
:10084000B695A795979587952A95D2F7841795071A
:10085000A607B70720F089288A288B2849F44F89F2
:10086000588D698D7A8D4E835F836887798704C040
:10087000841B950BA60BB70B4C015D018E010A5F23
:100880001F4F81149104A104B10409F4A7CF4E8134
:100890005F816885798598018B8D9C8D0E94861477
:1008A00091E0891A9108A108B1088111EACF87CF98
:1008B000DF91CF911F910F91FF90EF90DF90CF903C
:1008C000BF90AF909F908F9008958F929F92AF921C
:1008D000BF92CF92DF92EF92FF920F931F93CF932D
:1008E000DF9300D000D0CDB7DEB77C0180E2689FF7
:1008F000600111249601245A3C4FD9011B969C910A
:10090000917121F0842F827409F097C0142FF701A0
:10091000628B8091000190910101A0910201B09140
:10092000030186879787A08BB18BF601E45AFC4FB1
:100930004489558960E070E0BA0155274427D70102
:1009400057964D935D936D937C935A97828D938DBB
:10095000A0E0B0E0482B592B6A2B7B2BD701579690
:100960004D935D936D937C935A97D9011B968C910F
:10097000887159F4848D958DA68DB78DF701838B81
:10098000948BA58BB68B81E012C0803109F055C0E5
:1009900097012D5E3F4FD7015B968D919C915C979F
:1009A0000E940A15882309F448C084E0F701858372
:1009B000812F8F70D70114968C931497F7011682AC
:1009C0001782108611861A961D921D921D921C92F6
:1009D0001D9716FF34C015968C91813071F511FF6B
:1009E0002CC0F7014389548965897689452B462BAC
:1009F000472B09F461C040E050E0BA01C7010E94F2
:100A0000CF038823D1F0F7018788908CA18CB28C1A
:100A1000C38CD48C82E090E0A0E0B0E0F60180834B
:100A20009183A283B3839E012F5F3F4FB501A40141
:100A3000C6010E948614811104C080E03DC081E09F
:100A40003BC000E010E09801B501A401C6010E947E
:100A5000E613882391F389809A80AB80BC80D6010D
:100A600057968C91803129F088EF9FEFAFEFBFE070
:100A700004C088EF9FEFA0E0B0E088169906AA06B0
:100A8000BB0688F2D70157961D921D921D921C92AB
:100A90005A97F701138A148A158A168A8481806806
:100AA0008483C7010E948602882339F240E050E027
:100AB000BA01C7010E94CF030F900F900F900F90C3
:100AC000DF91CF911F910F91FF90EF90DF90CF902A
:100AD000BF90AF909F908F900895CF93DF93EC01DC
:100AE0000E948602882311F01D8281E0DF91CF9160
:100AF00008958FB7F8948091B0028FBF089561E098
:100B0000FC0184810E946C0F8091AF0281111092D0
:100B1000AF0208958EBD00000DB407FEFDCF8EB567
:100B200008958FEF0C948A050F931F93CF93DF9353
:100B3000EB010E94F40F8B010E9491058F3F49F059
:100B40000E94F40F601B710B6C177D07A8F380E007
:100B500001C081E0DF91CF911F910F910895CF9354
:100B6000DF93EC018E81882389F08F8198859C0129
:100B70002F5F3F4F38872F838230924018F40E94B6
:100B80009105F3CFCE010E947F051E82DF91CF91A8
:100B900008958CBD9DBD0895CF93DF93EC018091A6
:100BA000AF02811109C081E08093AF028091FB0503
:100BB0009091FC050E94C90560E08C81DF91CF9186
:100BC0000C946C0FCF92DF92FF920F931F93CF93F1
:100BD000DF9300D000D0CDB7DEB76C01F62E2983AD
:100BE0003A834B835C830E94AF05C6010E94CC050B
:100BF0006CE271E0C6010E9494058F2D80640E9412
:100C00008A0508E110E05C814B813A812981DA0193
:100C1000C901002E04C0B695A795979587950A94AB
:100C2000D2F729833A834B835C830E948A0508505C
:100C3000110929813A814B815C81083F8FEF1807A8
:100C400031F7FF2029F0E8E0FE1204C087E803C076
:100C500085E901C08FEF0E948A0510E00E9491058E
:100C6000F601828787FF04C01F3F11F01F5FF6CF98
:100C70000F900F900F900F90DF91CF911F910F91D8
:100C8000FF90DF90CF900895AF92BF92CF92DF9206
:100C9000EF92FF920F931F93CF93DF93EC016901C3
:100CA000C801820F931F8130924008F070C08E817E
:100CB000882371F088819981AA81BB8148175907DF
:100CC0006A077B0729F48F819885C816D906B0F585
:100CD000488359836A837B838B85833039F089E02D
:100CE000440F551F661F771F8A95D1F79A01AB01F4
:100CF00061E1CE010E94E205882319F083E08D8333
:100D000046C00E94F40F5B010E9491058A878F3FC5
:100D100049F40E94F40F6A197B096D327140A0F307
:100D20008FE003C08E3F31F08DE08D83CE010E94B5
:100D30007F052DC018861F8281E08E838F81988564
:100D40008C159D0540F40E9491058F819885019630
:100D500098878F83F3CF6701E00EF11ECE14DF0476
:100D600031F00E949105F60181936F01F7CF8F81D9
:100D70009885080F191F18870F838985882319F014
:100D80000115124048F0CE010E94AF0505C0CE010A
:100D90000E947F0580E001C081E0DF91CF911F912B
:100DA0000F91FF90EF90DF90CF90BF90AF9008959C
:100DB0002F923F924F925F926F927F928F929F926B
:100DC000AF92BF92CF92DF92EF92FF920F931F9359
:100DD000CF93DF9300D0CDB7DEB7FC0185818823A8
:100DE00009F4D9C0848180FFD6C021E02A834389D9
:100DF00054896589768982859385A485B585481748
:100E000059076A077B0709F41A826F013A81832F19
:100E100090E0DE0111964D013F01B6E06B0E711CB2
:100E2000892B09F47DC0D6011A964D915D916D9183
:100E30007C911D975A01B1E0BB22F60125811A0170
:100E40002B0189E056944794379427948A95D1F7DB
:100E5000838D948D223061F4FC01828D938DA48D5D
:100E6000B58DBC01CD01620D731D841D951D45C05E
:100E7000DC0114961C9111501221A114B104D1F47B
:100E8000111118C0452B462B472B51F4F6018789C9
:100E9000908DA18DB28D86839783A087B1870AC07C
:100EA000468157816085718593010E94861488234D
:100EB00009F471C0F601238D348D86819781A08558
:100EC000B1850297A109B109AC01BD01F901058401
:100ED00004C0440F551F661F771F0A94D2F78685FA
:100EE0009785A089B189840F951FA61FB71FBC01E4
:100EF000CD01610F711D811D911DD60114962C919C
:100F000026FF14C0009100011091010120910201FF
:100F100030910301601771078207930751F506C0EE
:100F2000FA81FF23C1F1898190E037C040E00E943F
:100F30009D13882381F1F501E45AFC4FD401CF01C0
:100F40000196E817F90719F021912D93FACFEFEFE9
:100F50008E1A9E0AF60182859385A485B585019631
:100F6000A11DB11D82879387A487B58780E090E09B
:100F700057CF740101E010E09501AB01BC018091F5
:100F80005C0590915D050E944406882321F0BFEF27
:100F90008B1A9B0ADFCF8FEF9FEF0F900F90DF919F
:100FA000CF911F910F91FF90EF90DF90CF90BF9066
:100FB000AF909F908F907F906F905F904F903F90F9
:100FC0002F9008954F925F926F927F92AF92BF924F
:100FD000CF92DF92EF92FF920F931F93CF93DF9305
:100FE000CDB7DEB72B970FB6F894DEBF0FBECDBFDF
:100FF0007C01CE0101966C01FC0190E28BE08C0D2E
:1010000091938E13FDCFDA0130E047E09D91992353
:1010100039F19E3219F0E2E6F1E00AC04A3009F4F3
:1010200072C138E04AE0F2CF3196891709F46BC1FA
:1010300084918111F9CF431708F465C18FED890FB1
:101040008E3508F060C181E0830FF601E30FF11DDA
:101050003FE9390F3A3108F490529083382FD6CFB8
:101060008981803209F44FC1B22E8B01DB015B967E
:101070008D919C915C97F701948F838F16961D92AA
:101080001D921D921C921997FB01128613861486DD
:101090001586712CF80182859385A485B5854389D1
:1010A00054896589768984179507A607B70708F0DC
:1010B00061C025E0B695A795979587952A95D1F7B4
:1010C000F82FFF706F2ED80115968C91823008F49E
:1010D0001AC1C8010E94D80697FD15C1F801828582
:1010E0009385A485B5854F96A11DB11D82879387F1
:1010F000A487B587F0E26F9EC0011124BC01645A39
:101100007C4F6115710509F4FEC0DB012C9122238F
:1011100019F0253EC1F427C071100EC0F701628A94
:101120004091000150910101609102017091030111
:1011300046875787608B718BFC01E45AFC4F808196
:10114000811113C015C04BE050E0C6010E948C25F0
:10115000892B09F09FCF8B2D8073803309F4D3C086
:101160004B2D662DCCC07720C9F27724739492CF93
:10117000772473948B2D8271823109F0C4C077205B
:10118000D1F0D7011E966D917D918D919C915197D3
:1011900041E00E949D13882309F4B5C0F7016289DC
:1011A000F0E26F9FB0011124645A7C4F6115710504
:1011B00009F079C0A8C0D80115968C91823009F445
:1011C000A2C0C8010E94CC02882309F49CC0D801A7
:1011D0005B96ED91FC915C9716964D905D906D90AD
:1011E0007C901997B2E04B1A510861087108058488
:1011F00004C0440C551C661C771C0A94D2F78685E3
:101200009785A089B189480E591E6A1E7B1EA4804D
:10121000E1E04E1A510861087108AA2009F10E9404
:101220006213882309F46FC0ECE5F3E0119225E026
:10123000EC35F207D9F7D301C2018A0D911DA11D2A
:10124000B11D8093000190930101A0930201B0931E
:10125000030180913603816080933603AA94DDCF29
:10126000D8015B96ED91FC915C9780E092E0A0E064
:10127000B0E0058404C0880F991FAA1FBB1F0A9401
:10128000D2F7F8014389548965897689840F951FBF
:10129000A61FB71F838B948BA58BB68BD701529655
:1012A0001C926CE573E080E2FB0111928A95E9F7EC
:1012B0008BE0F601DB0101900D928A95E1F781E266
:1012C00098E2DB0151969C938E93509720E038E092
:1012D0001F963C932E931E9753969C938E935297F2
:1012E00059969C938E93589757963C932E93569766
:1012F0000E946213882339F04B2DF7016289C701E0
:101300000E94650401C080E02B960FB6F894DEBF02
:101310000FBECDBFDF91CF911F910F91FF90EF9046
:10132000DF90CF90BF90AF907F906F905F904F9085
:101330000895FC01818D928D009711F00C94D806D0
:101340008FEF9FEF08950F931F93CF93DF93FC01CF
:10135000818D928D0097B9F0EF010E94D8068C0123
:101360000F3F8FEF180791F0898D9A8DFC01428510
:1013700053856485758541505109610971090E9441
:10138000CF03C80105C080E090E002C08FEF9FEF5F
:10139000DF91CF911F910F910895EF92FF920F93DC
:1013A0001F93CF93DF93EC0179014115510561053E
:1013B000710511F482E13CC08B85833039F089E0FE
:1013C000440F551F661F771F8A95D1F79A01AB010D
:1013D00068E1CE010E94E205882311F084E028C074
:1013E0008EEF0E948A0587018EEFF81AF80181912D
:1013F0008F010E948A050E151F05C1F78FEF0E940D
:101400008A058FEF0E948A050E9491058A878F7155
:10141000853031F081E18D83CE010E947F0509C0C6
:1014200068E572E0CE010E949405811107C085E154
:101430008D83CE010E947F0580E013C020E030E064
:10144000A9016DE0CE010E94E205811104C00E9455
:101450009105882311F084E1EBCFCE010E947F0536
:1014600081E0DF91CF911F910F91FF90EF90089550
:101470002F923F924F925F926F927F928F929F92A4
:10148000AF92BF92CF92DF92EF92FF920F931F9392
:10149000CF93DF9300D000D0CDB7DEB78C015B01D6
:1014A0001A01DC0115968C9115978130C9F41496B8
:1014B0008C9181FF15C082FF1BC0F80143895489BC
:1014C0006589768982859385A485B5858417950776
:1014D000A607B70769F0C8010E94CF03811108C0B1
:1014E00081E090E0F8019383828380E090E039C14D
:1014F000610183C0D8015B968D919C915C97FC0142
:10150000248121502A013B0139E076946794579455
:1015100047943A95D1F7722E74207A01F1E0FF22B8
:10152000772009F476C080E092E08E199F09460189
:101530008C159D0508F44C01D8015B962D913C91CA
:101540005C9716968D919D910D90BC91A02D029760
:10155000A109B109F901058404C0880F991FAA1FC8
:10156000BB1F0A94D2F74685578560897189840F1D
:10157000951FA61FB71F9C01AD01270D311D411DF1
:10158000511D29013A01811432E0930609F088C007
:101590008091000190910101A0910201B09103019D
:1015A00084159505A605B70559F48FEF9FEFDC016B
:1015B0008093000190930101A0930201B093030175
:1015C0009501B301A20180915C0590915D050E9497
:1015D000CD09882309F484CF9EEFB91AC818D90819
:1015E000F80182859385A485B585880D991DA11D77
:1015F000B11D82879387A487B587D8011A964D912C
:101600005D916D917C911D97C114D10409F072CF49
:1016100087C0E114F10409F086CF16964D915D91D3
:101620006D917C911997411551056105710559F42A
:1016300057968D919D910D90BC91A02D0097A1057D
:10164000B10541F521C09E012F5F3F4F0E948614D6
:10165000882309F44BCF89819A81AB81BC81F80141
:10166000238D348DF9012789203129F048EF5FEF70
:101670006FEF7FE004C048EF5FEF60E070E0841739
:101680009507A607B70730F0C8010E94CC02811168
:101690004ACF26CFF80186839783A087B18743CFAF
:1016A000E114F10429F5D8011A964D915D916D91DF
:1016B0007C911D9753968D919D910D90BC91A02D7D
:1016C000481759076A077B0798F00E94621388231E
:1016D00009F406CF4092000150920101609202018C
:1016E000709203018091360381608093360308C0B5
:1016F00041E0C301B2010E949D13882309F4F0CE9A
:10170000D501F701E45AFC4FCF01880D991DE81768
:10171000F90719F02D912193FACFA80CB91C5ECFCF
:1017200053968D919D910D90BC91A02D8417950796
:10173000A607B70740F4F801438B548B658B768B73
:10174000848180688483D80114968C9183FD02C0C3
:10175000C10107C0C8010E948602882309F4C0CED7
:10176000F7CF0F900F900F900F90DF91CF911F91B7
:101770000F91FF90EF90DF90CF90BF90AF909F9030
:101780008F907F906F905F904F903F902F90089533
:10179000CF93DF931F92CDB7DEB7698341E050E06E
:1017A000BE016F5F7F4F0E94380A0F90DF91CF918B
:1017B0000895CF93DF93EC01898D9A8D009739F4CA
:1017C00081E090E09B838A8380E090E00BC0FC0185
:1017D000138212820E94380AE98DFA8D22813381A8
:1017E000232B71F7DF91CF910895FC01DB01129655
:1017F0008D919C911397938382838EE191E09183E5
:10180000808314968C911497848315968C911597E8
:10181000858316964D915D916D917C9119974683C4
:101820005783608771871A964D915D916D917C9178
:101830001D9742875387648775871E964D915D91EA
:101840006D917C91519746875787608B718B52962B
:101850008C915297828B53964D915D916D917C91B5
:101860005697438B548B658B768B57964D915D9134
:101870006D917C915A97478B508F618F728F5B96D9
:101880008D919C915C97948F838F0895EF92FF9236
:101890000F931F93CF93DF93EC017B018A011B828F
:1018A0001A8288EE93E0A0E0B0E08C839D83AE8343
:1018B000BF838AE491E0998388838DE190E00E9460
:1018C000361F9A8F898F009779F02DE1F701DC019F
:1018D00001900D922A95E1F74CE050E0B801CE015D
:1018E0000C960E94A925188EDF91CF911F910F9120
:1018F000FF90EF9008951F920F920FB60F92112450
:101900002F933F934F935F936F937F938F939F9307
:10191000AF93BF93EF93FF938091B900887F803698
:1019200009F49CC068F5883209F45BC090F48031FA
:1019300009F454C038F4882309F4F6C0883009F457
:101940004DC0F6C0883109F44CC0803209F45DC046
:10195000EFC0803409F468C048F4803309F455C0FE
:10196000883309F0E5C08093F802D8C0803509F4C7
:101970004FC0883509F45DC0883409F0D9C0D6C09D
:10198000883909F4C7C0A8F4883709F467C038F467
:10199000883609F463C0803709F460C0C9C088384C
:1019A00009F4B8C0803909F45FC0803809F0C0C0BC
:1019B0005BC0803B09F486C038F4803A09F466C005
:1019C000883A09F47FC0B4C0803C09F4A7C0883CC1
:1019D00009F4A4C0883B09F48AC0AAC08091F5022A
:1019E00010C09091F7028091F602981770F5E0917F
:1019F000F70281E08E0F8093F702F0E0EC52FD4F8A
:101A000080818093BB0085EC86C08093F8028EC0F5
:101A1000E091F70281E08E0F8093F7028091BB0086
:101A2000F0E0EC52FD4F80839091F7028091F60236
:101A30006EC0E091F70281E08E0F8093F7028091F3
:101A4000BB00F0E0EC52FD4F80838091F9028111E0
:101A50006DC081E08093F40284EA61C083E08093EA
:101A6000FA021092AE02CFCF8091AE02803208F01F
:101A700051C0E091AE0281E08E0F8093AE02809162
:101A8000BB00F0E0E257FD4F8083BDCF85EC809333
:101A9000BC001092FA028091AE02803230F4E091E4
:101AA000AE02F0E0E257FD4F10826091AE0270E0AE
:101AB000E0918C02F0918D028EE892E009951092EF
:101AC000AE0236C084E08093FA0210928B0210922C
:101AD0008A02E0918802F0918902099580918A0238
:101AE000811105C081E080938A0210926802E09122
:101AF0008B0281E08E0F80938B02F0E0E859FD4F5E
:101B000080818093BB0090918B0280918A0298170C
:101B100008F479CF85E88093BC000AC085EC8093F7
:101B2000BC001092FA0204C01092F8020E94C9018F
:101B3000FF91EF91BF91AF919F918F917F916F91A5
:101B40005F914F913F912F910F900FBE0F901F907B
:101B50001895CF92DF92EF92FF920F931F93CF933E
:101B6000DF936C017A018B01C0E0D0E0CE15DF0578
:101B700089F0D8016D918D01D601ED91FC91019014
:101B8000F081E02DC6010995892B11F47E0102C078
:101B90002196ECCFC701DF91CF911F910F91FF905C
:101BA000EF90DF90CF900895FC01918D828D981772
:101BB00061F0828DDF01A80FB11D5D968C91928D31
:101BC0009F5F9F73928F90E008958FEF9FEF08952E
:101BD000FC01918D828D981731F0828DE80FF11DF7
:101BE000858D90E008958FEF9FEF0895FC01918D12
:101BF000228D892F90E0805C9F4F821B91098F730B
:101C0000992708958EE595E00E94F60D21E0892B35
:101C100009F420E0822F0895FC01848DDF01A80FD4
:101C2000B11DA35ABF4F2C91848D90E001968F7304
:101C30009927848FA689B7892C93A089B1898C9123
:101C400080648C93938D848D981306C00288F389E9
:101C5000E02D80818F7D80830895EF92FF920F9316
:101C60001F93CF93DF93EC0181E0888F9B8D8C8D48
:101C7000981305C0E889F989808185FD24C0F62E76
:101C80000B8D10E00F5F1F4F0F731127E02E8C8D0F
:101C9000E8120CC00FB607FCFACFE889F9898081F9
:101CA00085FFF5CFCE010E940C0EF1CF8B8DFE018A
:101CB000E80FF11DE35AFF4FF0820B8FEA89FB8991
:101CC0008081806207C0EE89FF896083E889F98995
:101CD00080818064808381E090E0DF91CF911F91CB
:101CE0000F91FF90EF900895CF93DF93EC01888DD3
:101CF0008823C9F0EA89FB89808185FD05C0A88910
:101D0000B9898C9186FD0FC00FB607FCF5CF808195
:101D100085FFF2CFA889B9898C9185FFEDCFCE01DF
:101D20000E940C0EE7CFDF91CF91089580E090E004
:101D3000892B29F00E94020E81110C940000089555
:101D4000FC016481758186819781089508950E94C0
:101D500087250F931F93CF93DF93CDB7DEB72997D6
:101D60000FB6F894DEBF0FBECDBF8C01862FF801F1
:101D700011821082138212821582148250E0BE01F9
:101D80006F5F7F4F90E00E946320BE016F5F7F4FC7
:101D9000C8010E94FA1929960FB6F894DEBF0FBE4B
:101DA000CDBFDF91CF911F910F910895FC0111825A
:101DB000108213821282158214826115710551F00E
:101DC000FB0101900020E9F73197AF01461B570B4B
:101DD0000C94CF1908956115710579F0FB010190FC
:101DE0000020E9F73197AF01461B570BDC01ED915D
:101DF000FC910280F381E02D099480E090E0089549
:101E00000F931F93CF93DF93EC010E94EB0E8C0195
:101E100068E771E0CE010E94EB0E800F911FDF9109
:101E2000CF911F910F9108951F920F920FB60F92AD
:101E300011242F933F934F935F936F937F938F93CF
:101E40009F93AF93BF93EF93FF938EE595E00E942E
:101E50000C0EFF91EF91BF91AF919F918F917F9168
:101E60006F915F914F913F912F910F900FBE0F9007
:101E70001F9018951F920F920FB60F9211242F9357
:101E80008F939F93EF93FF93E0916E05F0916F0511
:101E90008081E0917405F091750582FD12C09081FA
:101EA000809177058F5F8F7320917805821751F0AD
:101EB000E0917705F0E0E25AFA4F958F809377052D
:101EC00001C08081FF91EF919F918F912F910F9091
:101ED0000FBE0F901F90189590E0FC01EA57FD4F40
:101EE0003491FC01E854FD4F2491FC01EC55FD4F69
:101EF000E491EE2309F43BC0332339F1333091F000
:101F000038F43130A9F0323001F584B58F7D12C03C
:101F1000373091F03830A1F03430B9F4809180003E
:101F20008F7D03C0809180008F77809380000DC0EB
:101F300084B58F7784BD09C08091B0008F7703C0CE
:101F40008091B0008F7D8093B000F0E0EE0FFF1F16
:101F5000E458FD4FA591B4918FB7F894EC916111BD
:101F600003C020952E2301C02E2B2C938FBF0895E4
:101F7000CF93DF9390E0FC01E854FD4F2491FC01E6
:101F8000EC55FD4F8491882361F190E0880F991FF3
:101F9000FC01EE58FD4FC591D491FC01E458FD4F72
:101FA000A591B491611109C09FB7F89488812095DB
:101FB00082238883EC912E230BC0623061F49FB79B
:101FC000F8943881822F809583238883EC912E2B7F
:101FD0002C939FBF06C08FB7F894E8812E2B2883DF
:101FE0008FBFDF91CF9108952FB7F894609132039E
:101FF0007091330380913403909135032FBF08957E
:102000008F929F92AF92BF92CF92DF92EF92FF9208
:102010000F931F93CF93DF931F92CDB7DEB78C0141
:102020000E94F40FD8011E96CD90DD90ED90FC90AB
:102030005197DC01CB018C199D09AE09BF09F8014C
:10204000C284D384E484F5848C159D05AE05BF0558
:1020500008F45EC10E94F40FD8011E966D937D9323
:102060008D939C93519718968D919C9119970E94EE
:102070002C13F801808591850E943B1940E06EEB9E
:10208000D80118968D919C9119970E94EA1221E22D
:10209000822E23E0922EF801A084B18498E0C92E0C
:1020A000D12CEE24E394F12CC5010E9497128111EA
:1020B000FE28EE0CF1E0CF1AD108B1F7D401FD9261
:1020C0004D01BAE28B16B3E09B0629F7D8011896AA
:1020D000ED91FC911997138615861486DF011B96E6
:1020E00033961E92AE17BF07E1F76091220370E0AE
:1020F000762F662780912103682B072E000C880B12
:10210000990B0E94002320E030E040E85DE30E944C
:102110003B2360931D0370931E0380931F039093D2
:102120002003F8016483758386839783A084B18438
:10213000D5011D968C91811163C0C5010E942C139D
:10214000882309F45DC040E060EFC5010E94EA12F7
:10215000EE24E394D12CC12CFF24F394C5010E94FA
:102160009712682FC50169830E94971269816130B7
:1021700019F48130D1F437C02D2D30E068131EC022
:10218000D5011B968C91F81638F4F501E20FF31F78
:1021900083818E2151F402C0F81639F060E0B8E076
:1021A000BF1558F0F501F48608C0F501ED0DF11DDD
:1021B00083818E29838361E009C0CF2CF501E20F72
:1021C000F31F93818E2D809589238383C5010E94FF
:1021D000BB12F394EE0C19F4D394EE24E394F7E0DD
:1021E000FD1508F0BBCF80E48F1550F4D5011B9688
:1021F000CC921B97C1101EC081E01D968C931AC013
:10220000F50113861586148667EA71E08EE595E080
:102210000E94000FD8011896ED91FC911997138632
:1022200015861486DF011B9633961E92AE17BF07E4
:10223000E1F76EC0F5018381882311F3D501139670
:10224000E4E5F3E08D91819383E0EC35F807D1F775
:10225000A4E5B3E0E0E0CD01895F8A1739F09D91F4
:10226000E927F0E0EE58FE4FE491F7CF80915B0351
:10227000E81799F06BE771E08EE595E00F90DF913C
:10228000CF911F910F91FF90EF90DF90CF90BF9073
:10229000AF909F908F900C94000F809154038031E9
:1022A000A9F0883299F06DE871E08EE595E00F9025
:1022B000DF91CF911F910F91FF90EF90DF90CF9022
:1022C000BF90AF909F908F900C94EB0ED801189612
:1022D0008D919C9119970E942C13F801808591850E
:1022E0000E943B1941E064E4D80118968D919C91BD
:1022F00019970F90DF91CF911F910F91FF90EF9061
:10230000DF90CF90BF90AF909F908F900C94EA1287
:102310000F90DF91CF911F910F91FF90EF90DF9081
:10232000CF90BF90AF909F908F9008951F920F9283
:102330000FB60F9211242F933F938F939F93AF93D8
:10234000BF938091320390913303A0913403B091F5
:1023500035033091310323E0230F2D3720F401960C
:10236000A11DB11D05C026E8230F0296A11DB11DB8
:10237000209331038093320390933303A09334036B
:10238000B093350380912D0390912E03A0912F03DC
:10239000B09130030196A11DB11D80932D03909340
:1023A0002E03A0932F03B0933003BF91AF919F9161
:1023B0008F913F912F910F900FBE0F901F90189506
:1023C000FC0162A973A984A995A9089560E0FC01A4
:1023D00082810C94B80F0F931F93CF93DF93EC017E
:1023E00080914B0381110DC00E94F40F609347034D
:1023F000709348038093490390934A0381E080934C
:102400004B0380913F0381110DC00E94F40F609334
:102410003B0370933C0380933D0390933E0381E024
:1024200080933F030E94F40F0091470310914803EB
:102430002091490330914A03AB01BC01401B510B71
:10244000620B730B88859985092E000CAA0BBB0BB8
:1024500084179507A607B70708F064C08A818E30F5
:1024600008F08E508770806480937C0080917A00A1
:10247000806480937A0080917A0086FDFCCF609121
:1024800078008091790070E0782B072E000C880B83
:10249000990B0E940023FE01FE9660837183828364
:1024A00093832AAD3BAD4CAD5DAD0E944B2420E043
:1024B00030E040E05FE30E943B23FE01EE5BFF4F14
:1024C00060837183828393836AAF7BAF8CAF9DAF50
:1024D00020E030E040EA50E40E943B2320E030E07E
:1024E00040E85AE30E943B236EAB7FAB88AF99AFC5
:1024F00020E030E040E650E40E943B232C813D8107
:102500004E815F810E944B246AAB7BAB8CAB9DAB51
:102510000E94F40F6093470370934803809349032C
:1025200090934A03DF91CF911F910F910895FC0181
:1025300090810180F281E02DF8948181892B818343
:102540002281892F809528232283A7E0B0E011976C
:10255000F1F7218182238183A3E2B0E01197F1F7A3
:1025600080817894EFECF0E03197F1F7982381E0E7
:1025700009F480E00895FC0190810180F281E02D52
:10258000892F809560FF12C0F89422818223828374
:102590008181892B8183A3E2B0E01197F1F78281D9
:1025A000982B9283789487ED90E011C0F894228163
:1025B000822382838181892B8183AFEFB0E01197E1
:1025C000F1F78281982B928378948FE090E00197C5
:1025D000F1F70895CF92DF92EF92FF920F931F933E
:1025E000CF93DF931F92CDB7DEB76C01E62E08E0E4
:1025F00010E0FF24F39461E08F2D8E2109F460E058
:10260000C60149830E94BB12FF0C01501109498188
:102610000115110581F7411115C0F894D6011196E5
:10262000ED91FC91129791818C9180958923818302
:102630001196ED91FC91129792818C91809589234E
:10264000828378940F90DF91CF911F910F91FF902B
:10265000EF90DF90CF900895FC0190810180F2818E
:10266000E02DF8948181292F20958223818378940D
:102670008DE743E050E0815021F1DA011197F1F745
:1026800030813923C1F3F89482818223828381814E
:10269000892B81837894ABE7B7E01197F1F7F89431
:1026A000818128232183A3E1B1E01197F1F7808193
:1026B000982381E009F080E07894E3E6F6E0319732
:1026C000F1F70895809136038823A9F14091000124
:1026D0005091010160910201709103012CE533E0FA
:1026E00080915C0590915D050E94CD09811102C029
:1026F00080E0089540913703509138036091390389
:1027000070913A03411551056105710591F02CE571
:1027100033E080915C0590915D050E94CD0988238E
:1027200039F3109237031092380310923903109244
:102730003A031092360381E008958F929F92AF92F0
:10274000BF92EF92FF920F931F93CF934B015C01C7
:10275000C42F8091000190910101A0910201B091DC
:10276000030188159905AA05BB0501F10E946213B2
:10277000811102C080E020C08CE5E82E83E0F82EB5
:1027800000E012E020E030E0B501A40180915C059A
:1027900090915D050E944406882361F380920001B8
:1027A00090920101A0920201B09203018091360340
:1027B000C82BC093360381E0CF911F910F91FF90FA
:1027C000EF90BF90AF909F908F9008954F925F923F
:1027D0006F927F928F929F92AF92BF92CF92DF9231
:1027E000EF92FF920F931F93CF93DF93EC016A0157
:1027F0007B0128013901423051056105710510F452
:1028000080E073C089859A85AB85BC850196A11D42
:10281000B11D84179507A607B70790F38B889C888E
:10282000AD88BE888F89803129F4BB27AF2D9E2DBE
:102830008D2D09C0DB01CA0147E0B695A795979594
:1028400087954A95D1F7880E991EAA1EBB1E8091C6
:10285000000190910101A0910201B091030188163D
:102860009906AA06BB0679F48F898031A1F4DD248C
:10287000EE24FF24C601880F991FFC01E45AFC4F87
:102880005182408219C040E0C501B4010E949D13ED
:102890008111EACFB5CFE894C7F8DD24EE24FF24F8
:1028A000C601880F991F880F991FFC01E45AFC4F3D
:1028B000408251826282738280913603816080936C
:1028C00036038A89823080F08D819E81AF81B88500
:1028D000880E991EAA1EBB1E809237039092380361
:1028E000A0923903B0923A0381E0DF91CF911F911A
:1028F0000F91FF90EF90DF90CF90BF90AF909F909F
:102900008F907F906F905F904F9008958F929F92DD
:10291000AF92BF92CF92DF92EF92FF920F931F93ED
:10292000CF93DF93FC0181859285A385B4850196C1
:10293000A11DB11D84179507A607B70710F480E005
:102940005CC083899489A589B689C789C03129F477
:10295000852E962EA72EBB2409C04A015B01C7E035
:10296000B694A79497948794CA95D1F7E9016A0120
:102970007B018F01BC01CD01680D791D8A1D9B1D56
:102980008090000190900101A0900201B09003019D
:10299000681579058A059B0599F4F80187898031C6
:1029A000A9F4B701A601552766277727440F551FBD
:1029B000FA01E45AFC4F80819181A0E0B0E018C098
:1029C00040E00E949D138111E8CFB9CFB701A60165
:1029D0004F77552766277727440F551F440F551FFC
:1029E000FA01E45AFC4F80819181A281B381BF70CA
:1029F00088839983AA83BB8381E0DF91CF911F9164
:102A00000F91FF90EF90DF90CF90BF90AF909F908D
:102A10008F9008954F925F926F927F92AF92BF9284
:102A2000CF92DF92EF92FF920F931F93CF93DF939A
:102A300000D000D0CDB7DEB78C0149835A836B83B9
:102A40007C835901C12CD12C7601412C82E0582E77
:102A5000612C712C49815A816B817C819E012F5F91
:102A60003F4FC8010E948614882351F1D301C2014F
:102A7000F801058404C0880F991FAA1FBB1F0A9480
:102A8000D2F7C80ED91EEA1EFB1E49815A816B81FE
:102A90007C818789803129F088EF9FEFAFEFBFE01D
:102AA00004C088EF9FEFA0E0B0E0481759076A071D
:102AB0007B0780F2F501C082D182E282F38281E05D
:102AC0000F900F900F900F90DF91CF911F910F916A
:102AD000FF90EF90DF90CF90BF90AF907F906F907E
:102AE0005F904F9008958F929F92AF92BF92CF9236
:102AF000DF92EF92FF920F931F93CF93DF93CDB7A7
:102B0000DEB76B970FB6F894DEBF0FBECDBF8C015A
:102B10006FEC71E08EE595E00E94EB0E61E08AE0DB
:102B20000E94B80FD80112968C911092080610924C
:102B300006061092030610920206809301060E9478
:102B4000F40F4B015C0161E0809101060E94B80F17
:102B500061E0809101060E946C0FFFB6F8948091AD
:102B60005303811127C0EEEAF2E08491E2ECF2E037
:102B70009491E82FF0E0EE0FFF1FEE58FD4FA59166
:102B8000B491EC91E92321F461E08AE00E946C0F9A
:102B900061E08AE00E94B80F8CB580618CBD8CB575
:102BA00080648CBD61E08DE00E94B80F61E08BE035
:102BB0000E94B80F809153038F5F80935303FFBE31
:102BC00082E58093FB051092FC058091FB059091B6
:102BD000FC050E94C9055AE0F52E8FEF0E948A0578
:102BE000FA94F110FACF8DEF95E00E94CC0520E029
:102BF00030E0A90160E08DEF95E00E94E205F82E3B
:102C000080930706E1E08E1749F00E94F40F6819DF
:102C10007909613D774058F381E056C02AEA31E0F6
:102C200040E050E068E08DEF95E00E94E20582FF11
:102C300003C0F092080610C044E0F42E0E949105F3
:102C400080930706FA94F110F9CF8A3A11F082E0E6
:102C50003BC082E08093080680910806823021F014
:102C6000C12CD12C760105C0C12CD12CE12C30E433
:102C7000F32E20E030E0A90167E38DEF95E00E949C
:102C8000E205A701960169E28DEF95E00E94E20559
:102C900080930706882349F00E94F40F6819790988
:102CA000613D774030F388E00FC0809108068230A4
:102CB00001F520E030E0A9016AE38DEF95E00E9484
:102CC000E205882341F086E0809302068DEF95E0CF
:102CD0000E947F05C4C00E949105807C803C19F44D
:102CE00083E0809308060E9491050E9491050E944E
:102CF00091058DEF95E00E947F0580E58093FB05AF
:102D00001092FC0581E00E949217882329F080919F
:102D10002C06882341F0A3C080E00E9492178823EC
:102D200009F49DC0F4CF80912006803109F582E03E
:102D300080932C0610923E0610923F061092400699
:102D4000109241068091210690912206A0E0B0E009
:102D500025E0880F991FAA1FBB1F2A95D1F78093E2
:102D60003A0690933B06A0933C06B0933D061FC0E5
:102D7000803209F074C083E080932C0640912306D2
:102D800050912406609125067091260640933E06D8
:102D900050933F0660934006709341062AE336E065
:102DA00089E096E00E940A15882309F458C089E05A
:102DB00096E0909343068093420681E080932B0631
:102DC00010922D0610922E0610922F0610923006A9
:102DD0001092310610923206109233061092340689
:102DE0001092350610923606109237061092380669
:102DF0001092390667EE71E08EE595E00E94000FB3
:102E0000CE0101960E94C1188B819C81D801199630
:102E10009C938E9318978D819E81AF81B885F80120
:102E200082879387A487B58789859A85AB85BC857A
:102E300086879787A08BB18B8DE0FE013D96D801E8
:102E4000529601900D928A95E1F7EA8DFB8DD8019B
:102E50009096FC93EE935F97309741F429C069EF09
:102E600071E08EE595E00E94000F22C085818823E5
:102E7000F9F082859385A485B585892B8A2B8B2BC8
:102E8000B9F465E172E0C80106960E94000FF801EE
:102E9000878D90A1009761F00E946D05D8015F9623
:102EA0008D919C9190970E94CB1FF80110A2178ED4
:102EB0006B960FB6F894DEBF0FBECDBFDF91CF91FA
:102EC0001F910F91FF90EF90DF90CF90BF90AF9048
:102ED0009F908F9008950F931F93CF93DF93EC01F2
:102EE00088819981009729F02A813B81261737072D
:102EF00088F48B016F5F7F4F0E94BD24009761F0C3
:102F0000998388831B830A832C813D81232B11F4B1
:102F1000FC01108281E001C080E0DF91CF911F9120
:102F20000F9108958F929F92AF92BF92CF92DF92AE
:102F3000EF92FF92CF93DF93C82F8DEF95E09093A0
:102F40005D0580935C05CC2369F1C53010F080E00D
:102F50000DC140E060E070E0CB010E949D1388232A
:102F6000B1F320E1C29FC0011124845B9C4FFC019E
:102F7000E254FE4F20812F7751F73C9640815181DA
:102F800062817381443651056105710500F3349700
:102F9000C080D180E280F380C114D104E104F10447
:102FA00021F4D5CFC12CD12C760140E0C701B60168
:102FB0000E949D13882359F28091670390916803C2
:102FC0008115924021F6A0916C03AA2309F4BFCF8A
:102FD00060916A0370916B036115710509F4B7CFB5
:102FE00020916903222309F4B2CFA0931B062093FA
:102FF0000D0680E030E0E1E0F0E0C82FAF01082EE0
:1030000002C0440F551F0A94E2F72417350741F018
:10301000982F8F5F983089F789E08093160697CFB5
:1030200080931606209172033091730321153105A8
:1030300019F040E050E008C02091800330918103F6
:10304000409182035091830320930E0630930F0624
:10305000409310065093110646015701860E971EA5
:10306000A11CB11C80921C0690921D06A0921E0607
:10307000B0921F06E0916D03F0916E03F09322066B
:10308000E0932106B0E00E94F923860E971EA81E49
:10309000B91E8092230690922406A0922506B09233
:1030A000260685E0EE0FFF1F8A95E1F7E150FE4FFF
:1030B000EF2FFF27E6958E0E9F1EA11CB11C80925C
:1030C000170690921806A0921906B0921A0620913F
:1030D0006F03309170032115310521F0A90160E0E3
:1030E00070E008C040917C0350917D0360917E03A5
:1030F00070917F03D701C60188199909AA09BB09F4
:10310000840F951FA61FB71F04C0B695A795979566
:103110008795CA95D2F78093120690931306A093D1
:103120001406B0931506853F2FE09207A105B1055F
:1031300010F48CE018C0853F9F4FA105B10510F435
:1031400080E111C08091880390918903A0918A0346
:10315000B0918B038093230690932406A0932506B9
:10316000B093260680E28093200681E0DF91CF9124
:10317000FF90EF90DF90CF90BF90AF909F908F9097
:1031800008950F931F93CF93DF93CDB7DEB7C75545
:10319000D1090FB6F894DEBF0FBECDBF8C0167E238
:1031A00076E0CE0101960E94F50BBE016F5F7F4F66
:1031B000CE01CB960E94F50B19A218A28EE191E0E8
:1031C0009F8F8E8F1BA221968FAD2197811113C0E7
:1031D000F8011382128288EE93E0A0E0B0E08483CD
:1031E0009583A683B7838AE491E091838083128ECE
:1031F000118E148633C0825023E14BE552E08230B9
:1032000048F467E276E0CE014E960E94E207811113
:103210000EC0DECFBE01655C7F4FCE014E960E9490
:10322000E2078823A9F2CE01CB960E946D0549A939
:103230005AA96BA97CA9CE014E960E94CF03BE016C
:10324000625E7F4FCE0101960E94F50B4BE552E086
:10325000BE016F5F7F4FC8010E94460CC801C95A6A
:10326000DF4F0FB6F894DEBF0FBECDBFDF91CF9119
:103270001F910F910895FF920F931F93CF93DF93A8
:103280008C0140E065E50E94EA12C4E5D3E0FC2E23
:1032900088E0F80E699140E0C8010E94EA12FC1231
:1032A000F9CFDF91CF911F910F91FF900895CF93A8
:1032B000DF93C0917D06D0917E062196BE0189E7FD
:1032C00096E00E946B17882399F02091790630913F
:1032D0007A0680917D0690917E0666E672E0820F06
:1032E000931F0E94A225D0937E06C0937D0681E0A5
:1032F000DF91CF9108950F931F93CF93DF93FC013C
:103300002481358100811181C0917D06D0917E0696
:103310000115110511F480E01EC021153105D1F011
:10332000C20FD31FBE0189E796E00E946B17882366
:1033300091F32091790630917A0680917D069091E3
:103340007E06B801820F931F0E94A225D0937E06AD
:10335000C0937D0681E0DF91CF911F910F91089579
:103360000F931F93CF93DF93EC01A881B981E9E715
:10337000F6E044815581608171811296ED91FC9156
:10338000139709958C0168E771E0CE010E94EB0E5E
:10339000800F911FDF91CF911F910F910895EF92B0
:1033A000FF920F931F93CF93DF93EC017B018A0170
:1033B000BA010E946B172881398181110DC0211536
:1033C000310519F0C9010E94CB1F198218821D8294
:1033D0001C821B821A8206C01D830C83B701C9019F
:1033E0000E94A225CE01DF91CF911F910F91FF90F6
:1033F000EF900895CF93DF93EC016115710559F0BB
:10340000FB0101900020E9F73197AF01461B570BF4
:103410000E94CF190CC088819981009711F00E94F9
:10342000CB1F198218821D821C821B821A82CE0138
:10343000DF91CF910895FC01808191810C94CB1F85
:1034400060E070E0CB0108950F931F93CF93DF935B
:10345000CDB7DEB7A7970FB6F894DEBF0FBECDBFCE
:10346000CB01BA011BA21AA21DA21CA21FA21EA25E
:103470008E010F5F1F4F2AE04CE00E94161FBC0117
:10348000CE0182960E94FA19CE0182960E947B1983
:10349000CE0182960E941B1A0E945719A7960FB65A
:1034A000F894DEBF0FBECDBFDF91CF911F910F917A
:1034B0000895CF92DF92EF92FF920F931F93CF93D5
:1034C000DF93CDB7DEB7A1970FB6F894DEBF0FBE7E
:1034D000CDBF8C010E94F40FD8019196CD90DD9064
:1034E000ED90FC909497DC01CB018C199D09AE09FD
:1034F000BF09813D9740A105B10508F449C16AE7BC
:1035000071E089E796E00E94FA1980916606909131
:1035100067061D8E1C8E1F8E1E8E19A218A24AE0F1
:10352000BE016F5F7F4F0E946E20BE016F5F7F4FB5
:10353000CE014C960E94FA19CE014C960E947B193E
:10354000CE014C960E941B1A0E9457194AE06091C6
:103550006806CE0101960E94A90ECE0101960E9436
:103560007B19CE0101960E941B1A0E9457194AE04E
:1035700060916906CE0101960E94A90ECE010196C6
:103580000E947B19CE0101960E941B1A0E945719B6
:103590004AE060916B06CE0101960E94A90ECE0111
:1035A00001960E947B19CE0101960E941B1A0E946F
:1035B00057194AE060916C06CE0101960E94A90E4F
:1035C000CE0101960E947B19CE0101960E941B1A22
:1035D0000E9457194AE060916D06CE0101960E9443
:1035E000A90ECE0101960E947B19CE0101960E9480
:1035F0001B1A0E945719D8011496ED91FC9115974A
:1036000080819181009751F0DC01ED91FC91048063
:10361000F581E02D0995AB01BC0103C040E050E00D
:10362000BA01C8010E94241AD8011496ED91FC91A8
:10363000159782819381009751F0DC01ED91FC9107
:103640000480F581E02D0995AB01BC0103C040E089
:1036500050E0BA01C8010E94241AD8011496ED91D5
:10366000FC91159784819581009751F0DC01ED91D3
:10367000FC910480F581E02D0995AB01BC0103C0EC
:1036800040E050E0BA01C8010E94241AD801149603
:10369000ED91FC91159786819781009751F0DC019F
:1036A000ED91FC910480F581E02D0995AB01BC0101
:1036B00003C040E050E0BA01C8010E94241AD801BA
:1036C0001496ED91FC91159780859185009751F0A6
:1036D000DC01ED91FC910480F581E02D0995AB01B1
:1036E000BC0103C040E050E0BA01C8010E94241AA6
:1036F000CE0101960E94C1188B819C81F8019187AF
:1037000080878D819E81AF81B88582879387A487CA
:10371000B58789859A85AB85BC8586879787A08B79
:10372000B18B8DE0FE013D96D801529601900D922D
:103730008A95E1F7EA8DFB8DD8019096FC93EE9384
:103740005F973097E1F085818823C9F0C80106961C
:103750000E94B019F801878D90A1009761F00E9436
:103760006D05D8015F968D919C9190970E94CB1F1B
:10377000F80110A2178E8EE595E00E94B0190E9404
:10378000F40FD80191966D937D938D939C939497AC
:10379000A1960FB6F894DEBF0FBECDBFDF91CF91DB
:1037A0001F910F91FF90EF90DF90CF900895789444
:1037B00084B5826084BD84B5816084BD85B5826036
:1037C00085BD85B5816085BD80916E0081608093E7
:1037D0006E00109281008091810082608093810050
:1037E0008091810081608093810080918000816060
:1037F000809380008091B10084608093B1008091BB
:10380000B00081608093B00080917A0084608093E2
:103810007A0080917A00826080937A0080917A00A9
:10382000816080937A0080917A00806880937A002A
:103830001092C100E0916E05F0916F0582E08083E7
:10384000E0916A05F0916B051082E0916C05F091B2
:103850006D058FEC808310927605E0917205F091F2
:10386000730586E08083E0917005F0917105808199
:1038700080618083E0917005F0917105808188609E
:103880008083E0917005F09171058081806880836C
:10389000E0917005F091710580818F7D8083109299
:1038A000FC021092FB021092B2021092D30210920C
:1038B000FA0281E08093F9021092F40261E082E161
:1038C0000E946C0F61E083E10E946C0F8091B9004F
:1038D0008E7F8093B9008091B9008D7F8093B9006D
:1038E00088E48093B80085E48093BC00C2E5D6E00C
:1038F00089919991009739F0DC01ED91FC9101904B
:10390000F081E02D0995B6E0C636DB0789F7D1E0F6
:10391000DD24DA9426E0A22E04ED12E03DEFE32E42
:1039200032E0F32E42E0942E55EEC52E65ECB62E15
:103930000E94F40F409075065090760660907706CE
:1039400070907806DC01CB0184199509A609B709A6
:10395000893E9340A105B10508F4F0C00E94F40F20
:103960006093750670937606809377069093780639
:103970008091FA028111FCCFD093FA02D093F90220
:10398000D092F8021092F702A092F602D093F502BC
:103990008091F50284668093F5028091F402813073
:1039A00069F41092F4028091F5028093BB0080913B
:1039B000BC0083FDF8CFB092BC0002C0C092BC0036
:1039C0008091FA028130E1F38091F702873018F498
:1039D0008090F70202C097E0892EEDEFF2E0A4EDAF
:1039E000B2E08E2F8E19881518F48D918193F9CF3E
:1039F0001092FC028092FB02C0E08091FC028816CB
:103A000071F0772473947C0E86E496E00E940B029A
:103A1000EC2FF0E0EA59F94F8087C72DEECF809167
:103A2000D302813208F040C09091FA029111FCCF8C
:103A30009092FA02D093F902D092F8021092F70213
:103A40008093F602A3EBB2E0E4EDF2E09E2F901B30
:103A5000981718F49D919193F9CF1092F5028091E7
:103A6000F5028093F5028091F402813069F410929E
:103A7000F4028091F5028093BB008091BC0083FD2D
:103A8000F8CFB092BC0002C0C092BC008091FA0294
:103A90008230E1F38091F8028F3F31F08091F8029B
:103AA000803211F08091F8021092B2021092D3028B
:103AB0001092B102EEE6F6E090E0923059F080818B
:103AC000282F22952F708F703AE0239F800D1124AC
:103AD00080830FC080917006282F26952695269505
:103AE0002E70322F330F330F230F8F70820F80937E
:103AF00070069F5F3196973001F78091740690E0D1
:103B00008053984F90936706809366068091730662
:103B10008093680680917206809369068091710691
:103B200080936A068091700680936B0680916F0681
:103B300080936C0680916E0680936D0682E5682EF8
:103B400086E0782ED3018D919D913D01009739F04B
:103B5000DC01ED91FC910280F381E02D0995B6E640
:103B60006B16B6E07B0671F70E94960EE1CECF93FE
:103B7000DF93C2E5D6E089919991009711F00E94F8
:103B8000CB1F86E0C636D807B1F78DE896E00E94D5
:103B90001B1A83E996E00E941B1A89E796E0DF91E1
:103BA000CF910C941B1ACF92DF92EF92FF9210925A
:103BB00061051092600588EEC82E83E0D82EE12CB6
:103BC000F12CC0926205D0926305E0926405F092F8
:103BD00065058EE091E090935F0580935E0585EC2E
:103BE00090E090936B0580936A0584EC90E090934D
:103BF0006D0580936C0580EC90E090936F05809349
:103C00006E0581EC90E0909371058093700582ECD5
:103C100090E0909373058093720586EC90E090930A
:103C200075058093740510927705109278051092AF
:103C3000790510927A056AE771E089E796E00E94BB
:103C4000D60E6AE771E083E996E00E94D60E6AE735
:103C500071E08DE896E00E94D60E80E58093FB052A
:103C60001092FC05109202061092030610920606AE
:103C70001092080682E090E0A0E0B0E08093090690
:103C800090930A06A0930B06B0930C0610922006A0
:103C900010922A06109229068EE191E09093280650
:103CA0008093270610922C0610924906109248061F
:103CB000C0924A06D0924B06E0924C06F0924D0616
:103CC00086E291E0909347068093460660E085E0A7
:103CD0000E94B80FEDEBF2E0E491E0937F06E9EA91
:103CE000F2E0E491F0E0EE0FFF1FE656FD4F859104
:103CF0009491909381068093800610928A06109288
:103D00008C0610928B06EAE8F6E0129286E0E23822
:103D1000F807D9F781EE97E09093670680936606DF
:103D200084E08093680691E19093690680936A0627
:103D30008EE080936B0685E080936C0610926D0692
:103D4000E2E5F6E084E1DF011D928A95E9F7119240
:103D50001192B6E0E636FB07D1F786E490E00E94C8
:103D6000361FFC0186E391E09183808380E190E03F
:103D700093838283148215821682178284E190E0F5
:103D80009187808712AA13AA14AA15AA16AA17AA9D
:103D900010AE11AEF0935306E093520682E190E02C
:103DA0000E94361FFC0180E491E09183808382E5CC
:103DB00093E0A0E0B0E082879387A487B5878FE780
:103DC00096E091878087F0935506E093540685E24C
:103DD00090E00E94361FFC0182E791E0918380838E
:103DE00084E090E0938382831186108688EE93E0CE
:103DF000A0E0B0E082879387A487B5878AE491E04A
:103E00009783868310A2178E128A11A212A213A280
:103E100014A282E596E095838483F0935D06E09397
:103E20005C06FF90EF90DF90CF900895EF920F9394
:103E30001F93CF93DF93E80147FD02C034E001C038
:103E400034E1E42F440FFF0BF7FF03C0F195E19538
:103E5000F109E32E022F2E2FAE010E948820CE0101
:103E6000DF91CF911F910F91EF900895CF93DF9342
:103E70008230910510F482E090E0E0919B06F09191
:103E80009C0620E030E0C0E0D0E0309711F14081A6
:103E9000518148175907C0F04817590761F48281CA
:103EA0009381209719F09B838A832BC090939C0663
:103EB00080939B0626C02115310519F04217530740
:103EC00018F49A01BE01DF01EF010280F381E02DB9
:103ED000DCCF2115310509F1281B390B24303105C0
:103EE00090F412968D919C9113976115710521F0B4
:103EF000FB019383828304C090939C0680939B066E
:103F0000FD01329644C0FD01E20FF31F81939193AE
:103F1000225031092D933C933AC02091990630915B
:103F20009A06232B41F4209106013091070130932A
:103F30009A062093990620910401309105012115DC
:103F4000310541F42DB73EB7409108015091090168
:103F5000241B350BE0919906F0919A06E217F307BE
:103F6000A0F42E1B3F0B2817390778F0AC014E5FE9
:103F70005F4F2417350748F04E0F5F1F50939A0686
:103F8000409399068193919302C0E0E0F0E0CF0165
:103F9000DF91CF9108950F931F93CF93DF930097F5
:103FA00009F48CC0FC0132971382128200919B06A7
:103FB00010919C060115110581F420813181820F39
:103FC000931F2091990630919A062817390779F5A1
:103FD000F0939A06E093990671C0D80140E050E052
:103FE000AE17BF0750F412962D913C911397AD0177
:103FF0002115310509F1D901F3CF9D01DA01338390
:10400000228360817181860F971F8217930769F45D
:10401000EC0128813981260F371F2E5F3F4F3183F6
:1040200020838A819B8193838283452B29F4F0939B
:104030009C06E0939B0642C01396FC93EE93129766
:10404000ED01499159919E01240F351FE217F307A5
:1040500071F480819181840F951F029611969C9333
:104060008E938281938113969C938E931297E0E0B6
:10407000F0E0D80112968D919C911397009719F05A
:10408000F8018C01F6CF8D919C9198012E5F3F4FE6
:10409000820F931F2091990630919A0628173907AD
:1040A00069F4309729F410929C0610929B0602C086
:1040B0001382128210939A0600939906DF91CF9192
:1040C0001F910F9108954532510520F4423010F0B0
:1040D0000C946E20FB011082CB010895BB27FB01DD
:1040E0005527AA27880F991FAA1FA41710F0A41BF1
:1040F00083955051B9F7A05DAA3308F0A95DA1934B
:10410000009779F7B111B1931192CB010C94EE2283
:104110004F925F926F927F929F92AF92BF92CF9297
:10412000DF92EF92FF920F931F93CF93DF93CDB760
:10413000DEB729970FB6F894DEBF0FBECDBF6A0178
:10414000122FB02E2BE3201720F0FF24F394F00E53
:1041500002C0BCE3FB2E0F2D27E0AE014F5F5F4F87
:104160000E941622AC018981982F9970913031F00C
:10417000E1FC06C0E0FE06C090E205C09DE203C07F
:104180009BE201C090E0EE2DE07183FF3CC09111F5
:1041900002C083E001C084E0811718F4212F281B9E
:1041A00001C020E0E1110BC0F601822F30E288232C
:1041B00019F031938150FBCFC20ED11C20E099231E
:1041C00029F0D6019C93F60131966F01C601039642
:1041D000E2FE0AC03EE4D6013C9341E411964C93C2
:1041E000119712963C9306C03EE6F601308341E6F5
:1041F00041833283FC01322F40E2332309F442C071
:1042000041933150FACF82FF44C0911102C083E044
:1042100001C084E0811718F4212F281B01C020E081
:10422000E1110BC0F601822F30E2882319F031939F
:104230008150FBCFC20ED11C20E0992329F0D6017A
:104240009C93F60131966F01C6010396E2FE0BC006
:1042500039E4D6013C933EE411963C93119736E441
:1042600012963C9307C039E6F60130833EE631836F
:1042700036E63283FC01322F40E2332319F04193BA
:104280003150FBCFFC01E20FF11D10828EEF9FEF4A
:10429000B7C0F1E0911101C0F0E06F2F70E014168B
:1042A000150624F49A012F5F3F4F02C021E030E051
:1042B000260F371FBB2029F06B2D70E06F5F7F4FFB
:1042C00002C060E070E0260F371F612F70E02617F4
:1042D00037071CF4121B212F01C020E03E2D38713E
:1042E00059F4D601322F60E2332319F06D93315027
:1042F000FBCFC20ED11C20E0FF2331F0D6019C93EE
:10430000B6016F5F7F4F6B01E1110BC0F601922F79
:1043100030E3992319F031939150FBCFC20ED11C99
:1043200020E09F2D940F3A81782F7071A72E84FF83
:1043300003C0313309F49150191624F4993018F060
:1043400098E001C091E0E42F852F57FF02C0E0E024
:1043500080E06E2F782FE0E0F0E0AEE29A2E3A0196
:10436000691A71082A01461A570A0B2D10E0119597
:10437000019511096F3F8FEF780729F4D6019C92C0
:10438000C60101966C014617570784F0661677063A
:104390006CF47F01E40CF51CA1E0B0E0AC0FBD1F94
:1043A000EA0EFB1ED7011196BC9002C090E3B92E15
:1043B000615071093196C60101967C016017710741
:1043C00024F0D601BC926C01D5CF6417750741F477
:1043D000363320F4353321F4A11002C081E3B82E26
:1043E000F601B082F701822F90E2882319F09193B1
:1043F0008150FBCFF701E20FF11D108280E090E0C9
:1044000029960FB6F894DEBF0FBECDBFDF91CF91D6
:104410001F910F91FF90EF90DF90CF90BF90AF90E2
:104420009F907F906F905F904F900895283008F094
:1044300027E03327DA01990F311D87FD916000963F
:104440006105710539F432602E5F3D9330E32A95A2
:10445000E1F708959F3F30F080387105610509F05C
:104460003C5F3C5F3D93913008F08068911DDF9385
:10447000CF931F930F93FF92EF92192F987F9695EA
:10448000E92F96959695E90FFF27EE53FF4F992751
:104490003327EE24FF24A701E70105900894079431
:1044A00028F4360FE71EF81E491F511D660F771FAF
:1044B000881F991F0694A1F70590079428F4E70E2A
:1044C000F81E491F561FC11D770F881F991F661FB1
:1044D0000694A1F70590079428F4F80E491F561F7B
:1044E000C71FD11D880F991F661F771F0694A1F75C
:1044F0000590079420F4490F561FC71FD81F990F26
:10450000661F771F881F0694A9F78491109517706E
:1045100041F0D695C79557954795F794E7941A9526
:10452000C1F7E8E6F0E06894159015913591659132
:10453000959105907FE27395E118F10A430B560BB4
:10454000C90BD009C0F7E10CF11E431F561FC91F4C
:10455000D01D7EF4703311F48A95E6CFE8940150B3
:1045600030F0080F0AF40027021708F4202F2395D3
:10457000022F7A3328F079E37D932A95E9F710C06A
:104580007D932A9589F606949795679537951795A3
:104590001794E118F10A430B560BC90BD00998F098
:1045A00023957E9173957A3308F070E37C93201302
:1045B000B8F77E9170617D9330F0839571E37D93C0
:1045C00070E32A95E1F71124EF90FF900F911F916E
:1045D000CF91DF91992787FD90950895DC01FC012B
:1045E000672F71917723E1F7329704C07C916D9327
:1045F00070836291AE17BF07C8F30895E89409C0AD
:1046000097FB3EF490958095709561957F4F8F4F05
:104610009F4F9923A9F0F92F96E9BB279395F6951B
:10462000879577956795B795F111F8CFFAF4BB0F99
:1046300011F460FF1BC06F5F7F4F8F4F9F4F16C0FD
:10464000882311F096E911C0772321F09EE8872F87
:10465000762F05C0662371F096E8862F70E060E043
:104660002AF09A95660F771F881FDAF7880F9695BC
:10467000879597F908950E944E230C94BF230E94BA
:10468000B12338F00E94B82320F0952311F00C9448
:10469000A8230C94AE2311240C94F3230E94D0235E
:1046A00070F3959FC1F3950F50E0551F629FF00185
:1046B000729FBB27F00DB11D639FAA27F00DB11D9E
:1046C000AA1F649F6627B00DA11D661F829F222727
:1046D000B00DA11D621F739FB00DA11D621F839FAE
:1046E000A00D611D221F749F3327A00D611D231F84
:1046F000849F600D211D822F762F6A2F11249F57D2
:1047000050409AF0F1F088234AF0EE0FFF1FBB1FD4
:10471000661F771F881F91505040A9F79E3F510593
:1047200080F00C94A8230C94F3235F3FE4F3983EAD
:10473000D4F3869577956795B795F795E7959F5F3D
:10474000C1F7FE2B880F911D9695879597F90895CF
:1047500097F99F6780E870E060E008959FEF80EC34
:10476000089500240A9416161706180609060895D7
:1047700000240A9412161306140605060895092E3D
:104780000394000C11F4882352F0BB0F40F4BF2BAC
:1047900011F460FF04C06F5F7F4F8F4F9F4F0895EC
:1047A00057FD9058440F551F59F05F3F71F04795E2
:1047B000880F97FB991F61F09F3F79F087950895C7
:1047C000121613061406551FF2CF4695F1DF08C0E6
:1047D000161617061806991FF1CF86957105610503
:1047E00008940895E894BB2766277727CB0197F9AB
:1047F00008950E943B24A59F900DB49F900DA49F07
:10480000800D911D112408952F923F924F925F9237
:104810006F927F928F929F92AF92BF92CF92DF92D0
:10482000EF92FF920F931F93CF93DF93CDB7DEB735
:10483000CA1BDB0B0FB6F894DEBF0FBECDBF0994C9
:104840002A88398848885F846E847D848C849B8420
:10485000AA84B984C884DF80EE80FD800C811B812E
:10486000AA81B981CE0FD11D0FB6F894DEBF0FBE5D
:10487000CDBFED010895A29FB001B39FC001A39FDA
:10488000700D811D1124911DB29F700D811D112489
:10489000911D08955058BB27AA270E9462240C94AA
:1048A000BF230E94B12338F00E94B82320F039F4CE
:1048B0009F3F19F426F40C94AE230EF4E095E7FB29
:1048C0000C94A823E92F0E94D02358F3BA1762074B
:1048D00073078407950720F079F4A6F50C94F2236A
:1048E0000EF4E0950B2EBA2FA02D0B01B90190010B
:1048F0000C01CA01A0011124FF27591B99F0593F4F
:1049000050F4503E68F11A16F040A22F232F342F96
:104910004427585FF3CF469537952795A795F040E4
:104920005395C9F77EF41F16BA0B620B730B840BF9
:10493000BAF09150A1F0FF0FBB1F661F771F881FB1
:10494000C2F70EC0BA0F621F731F841F48F4879509
:1049500077956795B795F7959E3F08F0B0CF9395FB
:10496000880F08F09927EE0F979587950895EE0F19
:10497000FF1F0590F491E02D0994A0E0B0E0E3EC76
:10498000F4E20C940824EC01009721F4CB010E947E
:10499000361FB8C0FC01E60FF71F9C0122503109F9
:1049A000E217F30708F4ACC0D9010D911C911197DF
:1049B00006171707B0F00530110508F49FC0C801AD
:1049C00004978617970708F499C002501109061B2F
:1049D000170B019311936D937C93CF010E94CB1F12
:1049E0008DC05B01A01AB10A4C01800E911EA091EE
:1049F0009B06B0919C0640E050E0E12CF12C109712
:104A000009F44AC0A815B905D1F56D907C901197AD
:104A1000630182E0C80ED11CCA14DB0480F1A3013B
:104A20004A195B096A0182E0C80ED11C1296BC903B
:104A300012971396AC91B5E0CB16D10440F0B28238
:104A4000A38351834083D9016D937C930AC00E5F89
:104A50001F4FC301800F911FF90191838083EB2DBC
:104A6000FA2FE114F10431F0D7011396FC93EE9381
:104A7000129744C0F0939C06E0939B063FC08D9133
:104A80009C9111974817590708F4AC017D011296C3
:104A90000D90BC91A02DB3CF8091990690919A066C
:104AA00088159905E1F446175707C8F48091040169
:104AB00090910501009741F48DB79EB74091080190
:104AC00050910901841B950BE817F907C8F4F0937E
:104AD0009A06E0939906F901718360830FC0CB01B8
:104AE0000E94361F7C01009759F0A801BE010E9468
:104AF0009925CE010E94CB1FC70104C0CE0102C080
:104B000080E090E0CDB7DEB7EEE00C94242481E0A5
:104B100090E0F8940C94B825FB01DC0104C08D9161
:104B20000190801921F441505040C8F7881B990B1F
:104B30000895FB01DC0102C001900D9241505040EC
:104B4000D8F70895FB01DC0101900D920020E1F7F8
:104B50000895FB01DC014150504048F001900D9256
:104B60000020C9F701C01D9241505040E0F7089560
:104B700011E0C7E6D1E004C0FE010E94B7242196EF
:0A4B8000C836D107C9F7F894FFCF3B
:104B8A00FFFFFFFF00009D068000000000002D0EC1
:104B9A00A90DF60DD40DE80D740E00000000C80B27
:104BAA00A90D00000000570227021F020B02FC0198
:104BBA00FB0100000000E611EB11E011000000000B
:104BCA00A60E0010A00E00000000B301D90B92013E
:104BDA009909A309C40200000000A70EA90DA70E97
:104BEA00A70EA70EA70E00000000A70EA90D000031
:104BFA0000007315591A201A0D0A004352432069FE
:104C0A0073206E6F742076616C6964210044657646
:104C1A00696365206973206E6F74207265636F67BC
:104C2A006E697A656421006E6F206D6F72652073FC
:104C3A00656E736F7273206F6E20636861696E2C84
:104C4A002072657365742073656172636821004917
:104C5A006E697469616C697A696E6720534420636E
:104C6A006172642E2E2E006361726420696E69740B
:104C7A0069616C697A65642E0043617264206661B9
:104C8A00696C65642C206F72206E6F742070726577
:104C9A0073656E7400596561722C4D6F6E74682C61
:104CAA004461792C486F75722C4D696E7565732C49
:104CBA005365636F6E642C70482C74656D7028435D
:104CCA00292C444F286D672F6C302C656328732F6D
:104CDA006D292C6F7270286D76290073656E736F5B
:084CEA00722E637376002C00AA
:107E0000112484B714BE81FFF0D085E080938100F7
:107E100082E08093C00088E18093C10086E0809377
:107E2000C20080E18093C4008EE0C9D0259A86E02C
:107E300020E33CEF91E0309385002093840096BBD3
:107E4000B09BFECF1D9AA8958150A9F7CC24DD24C4
:107E500088248394B5E0AB2EA1E19A2EF3E0BF2EE7
:107E6000A2D0813461F49FD0082FAFD0023811F036
:107E7000013811F484E001C083E08DD089C08234E0
:107E800011F484E103C0853419F485E0A6D080C0E4
:107E9000853579F488D0E82EFF2485D0082F10E0AE
:107EA000102F00270E291F29000F111F8ED06801E7
:107EB0006FC0863521F484E090D080E0DECF843638
:107EC00009F040C070D06FD0082F6DD080E0C81688
:107ED00080E7D80618F4F601B7BEE895C0E0D1E017
:107EE00062D089930C17E1F7F0E0CF16F0E7DF06D8
:107EF00018F0F601B7BEE89568D007B600FCFDCFD4
:107F0000A601A0E0B1E02C9130E011968C91119780
:107F100090E0982F8827822B932B1296FA010C0160
:107F200087BEE89511244E5F5F4FF1E0A038BF0790
:107F300051F7F601A7BEE89507B600FCFDCF97BE46
:107F4000E89526C08437B1F42ED02DD0F82E2BD052
:107F50003CD0F601EF2C8F010F5F1F4F84911BD097
:107F6000EA94F801C1F70894C11CD11CFA94CF0C13
:107F7000D11C0EC0853739F428D08EE10CD085E9AC
:107F80000AD08FE07ACF813511F488E018D01DD067
:107F900080E101D065CF982F8091C00085FFFCCF94
:107FA0009093C60008958091C00087FFFCCF809118
:107FB000C00084FD01C0A8958091C6000895E0E648
:107FC000F0E098E1908380830895EDDF803219F02E
:107FD00088E0F5DFFFCF84E1DECF1F93182FE3DFCA
:107FE0001150E9F7F2DF1F91089580E0E8DFEE27F6
:047FF000FF270994CA
:027FFE00040479
:0400000300007E007B
:00000001FF