:1040000000800020D5690000BD690000BD69000086
:1040100000000000000000000000000000000000A0
:10402000000000000000000000000000BD6900006A
:104030000000000000000000BD690000296A0000C7
:10404000BD690000BD690000BD690000BD690000D8
:10405000BD690000BD690000BD690000C1690000C4
:10406000BD69000009690000BD690000BD6900006C
:10407000AD5C0000BD69000019690000BD69000069
:10408000BD690000BD690000BD690000BD69000098
:1040900000000000BD690000BD690000BD690000AE
:1040A000BD690000BD690000BD690000BD69000078
:1040B0000000000010B5064C2378002B07D1054BFB
:1040C000002B02D0044800E000BF0123237010BD84
:1040D0006401002000000000D4DA000008B5084B9D
:1040E000002B03D00748084900E000BF07480368D9
:1040F000002B03D0064B002B00D0984708BDC046CC
:1041000000000000D4DA00006801002060010020F7
:104110000000000008B5034802F042F9024802F02E
:1041200043FB08BD94010020AC01002038B50521F7
:104130000B4801F00DFB0B4D281C02F0C9F80A4C8E
:104140000A49221C281C06F06FFE094D281C02F0AB
:10415000DBFA281C0749221C06F066FE38BDC04663
:10416000800100209401002000000020F162000086
:10417000AC0100207567000008B59621890105484B
:1041800003F088FA044802F0B5F8044802F0FFFA98
:1041900008BDC0468405002094010020AC01002029
:1041A00013B502686B46D97107335468191C012294
:1041B000A04716BD38B5041C006A0025A84202D1EC
:1041C000012363600AE0456092B200F017FF236AA2
:1041D0005B68002B02D001236360281C38BD006A95
:1041E00008B5002801D000F083FD08BD13B56C466A
:1041F0000734211C012200F09FFC012801D1207806
:1042000000E0014800B216BDFFFF0000006A08B5DB
:10421000002802D0FFF7EAFF01E00120404208BD7C
:1042200038B5051C006A00280AD0FFF7DFFF041C20
:10423000631C05D0286A0169013900F027FD201CA4
:1042400038BD0000F8B5FA239B0083600D4B0025B4
:104250000833041C4560036028200F1C161C06F060
:1042600021FE2062A8420AD0391C282206F03DFE19
:10427000201C1030311C0C2206F059FF2577201C21
:10428000F8BDC04640D00000FA2292008260044A85
:104290000023083243600260036203747047C04623
:1042A00040D00000036A002B01D0186901E0012012
:1042B00040427047006A002800D0C0697047000083
:1042C00038B5041C006A00280BD0201CFFF7F2FF51
:1042D000051C201CFFF7E6FF024B281A984200D964
:1042E000181C38BDFF7F000010B5041C006A0028B0
:1042F00006D000F039FD206A06F0DEFD00232362BF
:1043000010BD006A002803D0407A431E9841C0B215
:10431000704738B50A1C0121041C00F0C7F90028B9
:1043200001D1002018E0251C10350122281C211C79
:1043300001F0D0F8021E08D0201C3830291C00F0F3
:10434000D1FB431E9841C0B206E0281C211C01F09D
:10435000C1F80028E5D0EFE738BD00004B684360A6
:104360000A4B03600B7A03724B7A4372CB68C360CB
:104370000B6903614B6943610B7E0376CB69C361B3
:104380000B6A496A036241627047C04680D00000F0
:10439000F0B59DB0051C383108A802920393FFF7D1
:1043A000DDFF244A12AF0023029C7B6012927B72D5
:1043B00008AE201C2F2106F09FFE00282ED0237867
:1043C0002F2B01D10134F4E7001BC0B2031C0C28D1
:1043D00000D90C23DBB21A1C211C04A8019306F09F
:1043E000A6FE019A002304A9381C8B5400F0BCFCE3
:1043F000381C311C04AA012300F066FD002804D1FA
:104400000C4B68602B60687210E0019B301CE41854
:1044100000F0AAFC331C3E1C1F1CCAE70299039A39
:10442000641A1460281C311CFFF798FF281C1DB06B
:10443000F0BDC04680D00000F0B5A3B0051C1F1C25
:1044400004A803AB161C0191FFF7A2FF039BF6180B
:104450003378002B07D104A918A8FFF77FFF281C89
:1044600018A91E4A34E000230EAC636063726B46E9
:1044700019331B4A1B780E92002B03D1281CFFF71F
:1044800003FF27E0023B012B09D80199201C38319A
:10449000321C3B1C00F018FD00280BD1EEE7201C5D
:1044A00004A9321C3B1C00F00FFD0028E6D004A834
:1044B00000F05AFC06231F4203D0201C159900F07F
:1044C000E5FB211C18A8FFF749FF281C18A9321C7E
:1044D000FFF7B8FE281C23B0F0BDC04660D0000036
:1044E00080D00000084B02211961191C00223031D4
:1044F0000A7006495A719A719A721A73DA6399634B
:1045000041331A707047C046D401002080D00000AB
:1045100008B5011C014801F039FA08BD5C0400200F
:1045200008B50248FF2101F031FA08BD5C04002003
:1045300008B50121007902F0D3FC054B1A78002A56
:1045400004D0002203481A7001F00EFA08BDC046DC
:10455000400200205C04002010B5084B041C1A78AF
:10456000002A06D101221A70054B064806CB01F03D
:10457000DFF92079002102F0B3FC10BD40020020D9
:10458000380200205C04002010B58379041C002B45
:104590000DD023895A1C2281054A934202D8FFF785
:1045A000BFFFF6E7201CFFF7C3FF0023A37110BD78
:1045B0000102000000B5062903D91623437100202B
:1045C0001CE00F4B052913D8081C002204F038FB0F
:1045D000030507090B0D0B4908E00B4906E00B49E1
:1045E00004E00B4902E00B4900E00B49196002E0CE
:1045F0000A4A1A6000221A715A71012000BDC04691
:1046000038020020001BB70000093D0080841E0016
:1046100040420F0020A1070090D0030048E80100AD
:1046200038B50C1C02F00EFA051CFFF779FFFF28C5
:1046300008D002F007FAABB280B2C01AA042F4DB95
:10464000002000E0012038BDF8B5041C0E1C171C2A
:10465000FFF79AFF201CFFF77FFF96214900201CDF
:10466000FFF7DEFF40203043FFF752FF1825381CCC
:10467000E840C0B2083DFFF74BFF2B1C0833F6D1D2
:104680009520002E03D08720082E00D0FF20FFF7B2
:104690003FFF0025FFF744FF43B2E072002B04DA2E
:1046A000FF2D02D00135EDB2F4E7F8BDF7B50025D6
:1046B00002710573857285714571041C019102F0C8
:1046C000C1F9012187B2207902F0B0FB01212079E4
:1046D00002F006FC434E301C01F002F9424B434904
:1046E0001D715D711960301C5A6801F021F90A25AD
:1046F000013DFF20EDB2FFF70BFF002DF8D1301C7C
:1047000001F032F9201CFFF727FF0021201C0A1CB2
:10471000FFF79AFF061CE072012809D002F092F917
:10472000C01BFA2380B2DB009842EED901233CE0A3
:10473000D522201C08215200FFF786FF04231842CF
:1047400001D026730BE01E1CFFF7EAFE013EF6B215
:10475000E072002EF8D10223AA2826D12373267BEB
:10476000023E73425E41B60737210022201CFFF74C
:104770006BFF321C201C2921FFF766FF021CE07230
:1047800009D002F05FF9C01BFA2380B2DB00984227
:10479000EAD9082309E0237B022B19D1201C3A21F6
:1047A000FFF752FF002805D006236371201CFFF796
:1047B000BFFE15E0FFF7B4FEC0231840984201D1B8
:1047C00003232373FFF7ACFEFFF7AAFEFFF7A8FE53
:1047D000201CFFF7ADFE201C0199FFF7EBFE051C26
:1047E000281CFEBD5C0400203802002090D003008D
:1047F00038B5041C02F026F9051CFFF791FEE072A3
:10480000FF280AD102F01EF9ABB280B2C01A96237B
:104810005B009842F1DD0F2302E0FE2806D00D2355
:10482000201C6371FFF784FE002000E0012038BDEA
:10483000F8B5041C0F1C151C1E1E45D09A188023A9
:104840009B009A4242DC8379002B05D0026891429A
:1048500002D10389AB4216D9237B2760032B00D0FA
:104860007F023A1C201C1121FFF7EEFE071E02D02A
:10487000032363712AE0201CFFF7BAFF002825D02C
:1048800001232781A3712389AB4205D2FFF748FE9C
:10489000238901332381F6E7069D069AAB1A9BB262
:1048A000B34204D2FFF73CFE28700135F5E72389B7
:1048B000A27AF3189BB22381002A02D0064A9342BF
:1048C00002D9201CFFF760FE012003E0201CFFF747
:1048D0002FFE0020F8BDC046FF01000007B5802371
:1048E00000929B000022FFF7A3FF0EBD70B5051CD0
:1048F000081C161CFFF70CFE0024305DFFF708FEB5
:10490000013480239B009C42F7D1FF20FFF700FE7B
:10491000FF20FFF7FDFDFFF703FE1F23E8720340B2
:104920000120052B05D01123281C6B71FFF700FE19
:10493000002070BD70B50B1C041C161C002901D191
:10494000122328E0027B032A00D04B02201C1821EE
:104950001A1CFFF779FE051E01D004231BE0201C62
:10496000FE21321CFFF7C2FF002815D09621201C23
:104970008900FFF755FE002801D115230BE0201C0C
:104980000D212A1CFFF760FE002803D1FFF7C8FDA8
:10499000002806D014236371201CFFF7C9FD0020F6
:1049A00003E0201CFFF7C4FD012070BD034B044A47
:1049B0001A6000225A711A717047C04638020020EE
:1049C00000093D00021C10B50C32041C0121406A94
:1049D00000F0F6FC00280AD0236A0120002B06D143
:1049E000E368227A236280235B421343237210BD63
:1049F00070B5041CFFF7E6FF002801D100201BE082
:104A0000636AE6681A7C023E96405A691D79B618B8
:104A1000002D08D0701E401900F01EFC0028EDD0BB
:104A2000013DEDB2F4E7636A01201A7C80239B000C
:104A30009340E269D318E36170BD000010B5041C17
:104A4000406900F0E5FB002803D0207E014B4001C7
:104A5000C01810BD50020020F0B5002387B0071C1D
:104A60000E1C2022F25401330B2BFAD10721002512
:104A700001913C78002C2AD02E2C06D1019B0A2BC8
:104A80002BD00A21082501911FE002A81449102209
:104A900006F02BFA002302A9CA5C002A03D00133D6
:104AA000A242F8D119E0019B9D4216D8231C213B5C
:104AB0005D2B12D8221C6B1C613ADBB27519192AC6
:104AC00001D8203CE4B22C701D1C0137D1E73078AE
:104AD0002038431E9841C0B200E0002007B0F0BD6E
:104AE00062D0000038B5427A041C0D1C002A01D0A7
:104AF00000201FE04B1CDB7F102B06D102234372EA
:104B000002624B8C5B01C3610CE0202BF0D10323CC
:104B10004372496A221C01621C32281C00F0EAFB25
:104B20000028E5D00023012065622072E360236144
:104B30006361237638BD0000F0B5437A85B0041C6C
:104B40000E1C0392002B01D13A4811E0037AD807DA
:104B5000FAD5E26920690399131A994201D99BB2E7
:104B6000039303990291029B002B04D1039988B20D
:104B700000B205B0F0BD2369617ADF05FF0D5A0A66
:104B8000606A022902D1416A51181BE00579013D92
:104B90002A40D5B2002F0DD1002D0BD1002B02D110
:104BA000226AE26006E0221CE1680C3200F072FB2F
:104BB0000028C9D0636AE1681A7C02395B699140B8
:104BC000C91849198022029D9200D31B9D4200DD25
:104BD0009DB2237A580601D4954218D1164B1B6812
:104BE000994214D0154B3A1C186800962B1CFFF7FD
:104BF0001FFE0028A8D0761901E0DF1BF6192169F5
:104C0000029A4B19551BADB223610295ABE7081C04
:104C1000002100F0FDFA002896D0094B321CFF1845
:104C200079193B1C8B42E8D018780133107001329F
:104C3000F8E7C046FFFF0000040000204C020020FF
:104C40005002002073B5437A041C012B01D80020C8
:104C500016E003696D460735DE05291C0122360F73
:104C6000FFF76AFF012801D12B7800E0054B1BB24A
:104C70000133ECD0236970011F332361024BC0184C
:104C800076BDC046FFFF00005002002070B5041C36
:104C9000407A0D1C00282AD0E269914201D90020F7
:104CA00025E0022821D0002D01D1E5601DE0626AD7
:104CB0002169137C681E09334A1ED840DA40031E5E
:104CC000934201D3002902D1226AE26000E0831AF4
:104CD0001E1C002E09D0221C606AE1680C3200F014
:104CE000D9FA013E0028F4D101E02561012070BD10
:104CF00038B5051C407A002833D02B7A7F2B2DD96C
:104D0000281C0121FFF79AFE041E2AD06B7A012B82
:104D100007D82B7F03776B7F4377AB7F8377EB7F5E
:104D2000C3772B6A9AB21B0C23751B0A63750D4B54
:104D3000A2761B68120AE276002B0BD0201C211CE5
:104D4000183016319847637E227E1B021343A374EA
:104D50001B0AE3742A7A7F2313402B7200F02EFA89
:104D6000FFE738BD4402002010B5041CFFF7C0FF68
:104D7000002802D000236372012010BD73B5427A6F
:104D8000041C0D1C0020012A4BD1207A022318405C
:104D900047D0E3690020994243D8101C002B40D033
:104DA000201C291C2669FFF771FF002825D0606AA6
:104DB000002D06D1216A00F067FB00281DD0256276
:104DC0001DE0E16801AA00F065FA002815D0606ACC
:104DD0000199431CDB7F102B01D1124B00E0124BD9
:104DE00099420CD200F050FB002806D0606AE168BE
:104DF0000E4A00F0A1FA002801D1002011E0227A29
:104E000080235B421343E5612372201CFFF770FF90
:104E10000028F2D0291EB14200D9311C201CFFF716
:104E200035FF76BDF8FF0000F8FFFF0FFFFFFF0F13
:104E300038B5234B151C4A01D318041CD87A11220B
:104E4000104204D04222154201D0002036E01D4A13
:104E50002176126862615A7D187DD97E1202024362
:104E6000987E09021204014311432162D87A182264
:104E700002400CD15A7F197F12020A43997FDB7FCF
:104E800009040A431B061343E361012309E0102AC6
:104E9000DBD1221C606A1C3200F02CFA0028D4D02E
:104EA000042363720F2300212B402372E1602161F0
:104EB00001206A0602D5201CFFF760FF38BDC046FE
:104EC0005002002004000020F0B5457A87B0041C91
:104ED0000E1C0193002D00D086E0101C03A9FFF7E3
:104EE000BBFD002800D180E0726A2F1C6262F56071
:104EF00035613369F269934226D2DB051B0F301C02
:104F00000093FFF79FFE011E6FD00378002B01D0A6
:104F1000E52B0BD1002F04D1009B2376344B1B686B
:104F200063610B780127002BE3D10DE003A80B226E
:104F300005F0CCFF0028DCD1019A30231340302B40
:104F400053D0201C00994BE0019A12231340122BDE
:104F50004BD1002F06D0201C0121FFF76FFD061E4C
:104F60000AD142E0737A022B3FD0301CFFF740FD9C
:104F700000283AD01F4E277600212022301C05F051
:104F8000D6FF301C03A90B2205F0AFFF1A4B1B689C
:104F9000002B05D0301C311C10300E31984706E034
:104FA00021223274B373282208237274F373737C42
:104FB000327C1B021343FF221A401B0AF3747376E0
:104FC000F37BB2743276B27B1B021343B3751B0AB8
:104FD000F37500F0F3F8002807D0217E019A201C19
:104FE000FFF726FF051C00E00025281C07B0F0BDD8
:104FF000040000205002002044020020F0B5437A53
:1050000087B0041C0D1C0392012B0DD1037A990764
:105010000AD55A070CD5E16922698A4208D0201CBA
:10502000FFF734FE002803D1012363600020AAE0CB
:10503000039B01933BE0606A730A0779F605013F21
:105040001F40FFB2F60D002F36D080229200921B37
:10505000019992B20B1C914200D9131C9BB202938E
:10506000636AE1681A7C023991405A698B18029A86
:10507000DF1980239B009A423FD1444B1968B94203
:1050800002D1012252421A60414B391C18682A1C75
:10509000FFF750FC0028C7D080229200AD1801997C
:1050A000029A8B1A21699BB201938B182361019A92
:1050B0002669002ABFD149E0002EC6D1E168002947
:1050C00003D1236A002B16D10FE005AA00F0E2F805
:1050D000002858D0626A059B0132D27F102A01D184
:1050E0002C4A00E02C4A934205D3201CFFF76AFCAF
:1050F0000028AAD198E7E360A7E7002E0FD1236923
:10510000E1698B420BD300F059F800288CD01F4B7B
:1051100001211F60214B1A780A431A7006E0381CDF
:10512000012100F075F8002800D17DE71C4B2A1CF6
:10513000F618029BF118331C8B4204D01078013210
:1051400018700133F8E79E1BAD19A8E7E169237ACF
:105150008E4201D9E66106E0124A1268002A06D0A2
:10516000039A002A03D08022524213432372237AE7
:10517000190701D4039806E0201CFFF7B9FD0028A9
:1051800000D151E7F6E707B0F0BDC04604000020AB
:105190004C020020F8FF0000F8FFFF0F5004002031
:1051A000500200204402002007B56B46D971073336
:1051B000191C0122FFF722FF0EBD0000F8B50F4FAA
:1051C00001203B78002B18D00D4E0E4B0E4D196868
:1051D00030682A1CFFF7AEFB00280ED00B4C21686C
:1051E000002907D030682A1CFFF7A4FB002804D050
:1051F0000023236000233B700120F8BD50040020F1
:105200004C02002004000020500200204802002030
:1052100070B50D4D041C2B680E1C83420ED0FFF799
:10522000CDFF002801D100200DE0084B211C18689B
:10523000074AFFF753FB0028F5D02C60054B0120EF
:105240001A7816431E7070BD040000204C02002026
:10525000500200205004002010B5041CFFF7AEFFE0
:1052600000280FD00023084A0021995480220133DE
:1052700092009342F7D1054B01201C60044B1A7831
:1052800002431A7010BDC0465002002004000020E6
:1052900050040020C36870B501330C1C151C9942E2
:1052A00001D9002021E0461CF17FC269E3091029E1
:1052B00000D1230A98180D4B1B68984207D1F27F42
:1052C0000B4B102A09D1E4B264001B5B0BE00021F8
:1052D000FFF79EFF0028F2D1E3E77F221440A400ED
:1052E0001B591B011B092B60012070BD040000200D
:1052F0005002002073B5051C0191161C0024281CC7
:10530000019901AAFFF7C6FF002810D02A7C80234C
:105310009B009340E4186B1CDB7F019A102B01D19A
:10532000034B00E0034B9A42E9D33460012076BD81
:10533000F8FF0000F8FFFF0FF7B5051C0C1C0192E9
:10534000012932D9C3680020013399422ED86F1C3D
:10535000FA7FEE69CB09102A00D10B0A9E19144B73
:105360001B689E4208D1FA7F124B102A0BD1E4B27F
:10537000019A64001A530BE0301C0021FFF748FF2C
:105380000028F0D112E07F221440019AA4001A51A3
:10539000094B01201A7802431A702B7E834205D9EB
:1053A000AB68F618054B1E6000E00020FEBDC0464D
:1053B0000400002050020020500400204802002079
:1053C000F0B5156887B0061C0291171C002D03D09C
:1053D00000210135019106E0029B0568013B5A421C
:1053E0005341DBB20193F2680023013203922C1C7B
:1053F00000930099F268914221D2039B9C4201D90B
:105400000224251C301C211C05AAFFF743FF00289D
:1054100015D00599631C002901D01D1C03E00299D9
:105420005A1B8A4204D0009A1C1C01320092E0E709
:10543000301C211C134AFFF77FFF00280BD10020EE
:105440001DE0631E301C191C221C0093FFF774FF23
:105450000028F4D0009CAC42F3D83968002906D16A
:1054600001993D60002909D00135356006E0301C06
:105470002A1CFFF761FF0028F2D1E0E7012007B006
:10548000F0BDC046FFFFFF0F022337B5051C0C1C03
:105490000360281C211C01AAFFF7FCFE002812D083
:1054A000281C211C0022FFF747FF00280BD06B1C93
:1054B000DB7F019C102B01D1044B00E0044B9C428C
:1054C000E7D3012000E000203EBDC046F8FF000009
:1054D000F8FFFF0FF8B5444B041C151C196029D0C8
:1054E000042A01D900207DE00020011CFFF790FE76
:1054F0000028F7D02D013D4BA935FF355D19AA795C
:10550000AB1D5006EED1EA7CA97C12020A43297D2C
:1055100009040A43697D09060A43632AE2D9AA7B82
:10552000ED7B2D0215439A7ADB7A120415431B0694
:105530001D43D7D0281C0021FFF76AFE0028D1D0D8
:105540002A4B197BDA7A0902114380229200914298
:10555000C8D11A7C002AC5D0D9890029C2D0597B6C
:105560000029BFD02276002221712274227C0120E2
:105570009040814204D0501C2074072AF6D9B1E72C
:10558000D98A002900D1596AA160D8892818E06118
:105590001F693E02360C6684B7B21E7C71430E183A
:1055A0001348790109184912711866626161187D02
:1055B000DE7C0002304300D1186A6D1A2818D040F2
:1055C000021CE0600B48611C824201D80C2307E0FA
:1055D0000948824201D8102302E0DB6A636220237B
:1055E000CB770120F8BDC0464C02002050020020BD
:1055F000FF010000F40F0000F4FF000003684268A0
:1056000072B6536062B67D200138C0B200281DD04A
:1056100020210139FDD1116A0B42F5D072B65361D8
:10562000936062B6F02149010139FDD172B68C2137
:105630005360C9000139FDD1106A034058425841F6
:10564000C0B262B6CD225201013AFDD170470CC8FA
:10565000C8070AD572B6A0215A619A600139FDD1F6
:105660009A6162B6DC239B0009E072B682215A611E
:10567000C9009A600139FDD19A6162B65023013B9D
:10568000FDD170470368426872B630219360536160
:105690000139FDD1A02153600139FDD1106A62B6F4
:1056A000D4229200013AFDD10340581E8341D8B262
:1056B0007047F7B5041C0F1C019208250126391C00
:1056C00031404B1E9941C9B2201C7600013DFFF7C5
:1056D000BEFFF6B2002DF2D1019A002A06D172B6B1
:1056E000226863685A6022685A6162B6F7BDF8B5ED
:1056F000071C082500240126381CFFF7C3FF0028DB
:1057000000D034437600013DF6B2002DF4D1201CC8
:10571000F8BD70B500220E1C5521051CFFF7C9FF0E
:105720000024315D281C00220134FFF7C2FF082C41
:10573000F7D170BD00230374837443740723C21828
:10574000002111728B4201D0013BF8E77047000045
:1057500038B5041C0D1C081C002101F067FB182241
:105760005543084B01215A195268EB569140064A9D
:10577000DB019B18201C21606360FFF7DBFF201C0E
:1057800038BDC04624D3000000440041F0B585B0C8
:105790000391867C041C151C002E5AD1FFF72EFFA6
:1057A000002857D0201C002D02D0F021321C01E02F
:1057B000EC212A1CFFF77DFF0126002101910291B7
:1057C000351C201CFFF75EFF071C201CFFF75AFF4B
:1057D000012F02D1012816D132E0019AA318874285
:1057E00019D1277CBD4204D21F7A37407A1E9741D7
:1057F00002E0EF1B7A425741FFB2002F03D1082D80
:1058000008D8657406E00199012763181A7A3243B3
:105810001A7203E002951A7AB2431A727600201CBB
:10582000391C0135F6B2FFF712FFEDB2002E04D19C
:10583000019B01260133DBB20193019A072AC0D9EB
:10584000402D06D9029B2374002B07D10123A3749A
:1058500004E000202074A07460740BE0237A002B15
:10586000F7D00023E218127A0399CA540133082BA7
:10587000F8D1012005B0F0BD031C00200139C9B2E8
:10588000FF2905D01A7801335040024A105CF5E731
:105890007047C04688D00000437A002B04D1837241
:1058A000C372C36001234372704730B585B0041CD6
:1058B00002AD00680291039201F042FD6B79E1793B
:1058C000227A00932068002301F0A2FE2979206843
:1058D000029A01F005FD206801F028FD05B030BDF9
:1058E00070B5041C1826FFF7D7FF2079331C4343FB
:1058F0000D4D0821EB18595601F022FBA079331CFD
:1059000043430821EB18595601F01AFB607908212E
:105910004643AD19695601F013FB044B201C06CB1E
:10592000FFF7C3FF70BDC04624D30000540400201D
:1059300007B5837A00910192002B0DD09A0706D506
:10594000EFF310835A425341C37272B604E0DA0790
:1059500002D58289034B9A600099019AFFF7A5FF4F
:1059600007BDC04600180040837A002B0BD09A0771
:1059700004D5C37A002B06D062B604E0DA0702D55C
:105980008289014BDA6070470018004008B5006852
:1059900001F0DFFC08BD0000094B0A4A0A491A6001
:1059A00000225A711A71094B1960122119711421C0
:1059B00099711521597101215A72D9711A72704762
:1059C0005404002000093D00540600205C0400201F
:1059D000F8B5051C0F1C161C0024B44208D02B6817
:1059E000395D1B68281C9847002801D00134F4E772
:1059F000201CF8BD704708B5183001F0D9FB08BD70
:105A000008B5183001F0E2FB08BD38B5837D0D1CE8
:105A1000002B06D0041C6034201C01F0E6FB00289B
:105A200001D0002004E0201C291C01F0B2FB012061
:105A300038BD08B5183001F0CFFB08BDF7B50193AC
:105A4000FA239B0083600B4B00250833041C456040
:105A5000036018300F1C161C01F090FB201C6030F6
:105A600001F08CFB019B27612675A575201C6375D1
:105A7000FEBDC04688D1000070B50D49041C006908
:105A800001F0EAFD206901F07FFC1826207D331C1F
:105A90004343084D0821EB18595601F051FA607D37
:105AA00008214643AD19695601F04AFA70BDC04657
:105AB000A086010024D30000F7B5041C00200E1CB2
:105AC000151C0193824231D0271C1837381C01F075
:105AD0006BFB2069311C012201F092FC002823D0CD
:105AE000206901F0FCFC011C381C01F052FB01266E
:105AF0002069AE420ED001F063FC0221206901F062
:105B000069FC206901F0EBFC011C381C01F041FB31
:105B10000136EDE701F04CFC019B002B05D020691C
:105B2000032101F057FC00E0051CE8B2FEBD08B5FA
:105B30000123FFF7C1FF08BDF8B50022031C8275E1
:105B4000A833041C0F1C0069197801F059FC0028C7
:105B500005D12069032101F03DFC02251DE0261C32
:105B60006036301C01F032FB00280FD0301C256954
:105B700001F01EFBC1B2281C01F071FC0028EED11F
:105B80002069032101F026FC032506E0051C002FF7
:105B900003D02069032101F01DFC281CF8BD08B5C5
:105BA0000121FFF7C9FF08BD38B5041C006901F0E9
:105BB00074FC002879D0206901F07DFC00280ED10A
:105BC000206901F082FC00281FD0206901F078FCD8
:105BD00000281AD0206901F07DFC002815D1206929
:105BE00001F0EEFB2069032101F0F4FB231CB0332C
:105BF0001D68002D04D02368201C9B689847A84787
:105C0000201C183001F0D0FA4FE0206901F05DFC53
:105C1000031C2069002B16D001F0D2FB2069032160
:105C200001F0D8FB206901F055FC00283DD0201C74
:105C3000603001F0B9FA0123A375AC342368002B5E
:105C400033D0984731E001F031FC00282DD0206995
:105C500001F040FC251C00280FD06035281C01F005
:105C6000B5FAFF21002803D0281C01F0A1FAC1B227
:105C7000206901F005FCA07517E01835281C01F01B
:105C8000B4FA031C2069002B02D001F091FB08E05C
:105C900001F025FC011C281C01F07BFA206901F0B1
:105CA0008FFB2069032101F095FB38BD08B5024840
:105CB000FFF77AFF08BDC0466C04002008B5034812
:105CC000034910221123FFF7B9FE08BD6C04002020
:105CD00044060020F8B50C4F0C4E391C301C01F066
:105CE000F8FD0B4D0B4C291C221C301C05F09CF8B8
:105CF000094E391C301C01F0ECFD301C291C221C03
:105D000005F092F8F8BDC046A6D700002C0500208B
:105D1000457800000000002020050020C168806850
:105D2000704710B50021041C406801F07FF8002383
:105D30006361A361E3612362636210BD0000000040
:105D4000F7B5124D104C124B19270833061C47604B
:105D50008460C5600191036000211422143005F0B5
:105D6000E6F80023B362B363F36333647364B3642C
:105D7000F364AF239B007365019B346375633765E0
:105D8000301C3361FEBDC046000000000000000072
:105D9000B8D10000C046C046F8B5061C00F052FE5F
:105DA000736CC01A336D98422ED300F04BFEB46A68
:105DB0007064631CB362706800F0CEFF0434A4000A
:105DC000B36A34196060052B1ED10027B762346BAB
:105DD000756BF319586904F083FF0437021C0B1C20
:105DE000201C291C03F0CAF9142F02D0041C0D1C1E
:105DF000EFE7084B064A03F0DDFC03F019F8064A0A
:105E0000064B32637363F063F8BDC046C046C046BC
:105E1000000000000000144000000000000000002E
:105E200073B5061C00F00EFEB36CC01A736D984279
:105E300000D27FE000F006FEB064F06B04F050FF8B
:105E40003E4B3D4A04F020F93D4A3E4B04F01CF91C
:105E500002F0EEFF3064306903689B689847041CC9
:105E6000306C0D1C04F03CFF374A384B0090019118
:105E7000201C291C04F098FB354A364B04F004F929
:105E8000354A364B03F07AF9021C0B1C0098019935
:105E900003F090FC324A334B041C0D1C02F0A0FFAF
:105EA000002802D0304A314B09E0201C291C304A1E
:105EB000304B02F0A9FF002804D02F4A2F4BB260CC
:105EC000F36037E0201C291C2D4A2E4B02F092FF74
:105ED000002808D02C4A2D4B201C291C04F0D4F893
:105EE0002B4A2C4B0FE0201C291C2B4A2B4B02F079
:105EF00081FF00280AD02A4A2A4B201C291C04F0C2
:105F0000C3F8294A294B04F04FFB09E0284A294BE2
:105F1000201C291C04F0B8F8274A284B03F02EF95E
:105F2000274A284BB060F160B068F16803F042FC8A
:105F3000B060F16073BDC046000000000088B3404F
:105F4000000000000000503F000000000000394049
:105F50008B6CE7FBA9F1923F000000000000F03FCE
:105F60000000000000C062400000000000000000CF
:105F70000000000000C8A9400000000000003440FC
:105F80000000000000007C405C8FC2F5285C1B40D4
:105F900014AE47E17A1450400000000000C496405F
:105FA000EC51B81E85EB1B400000000000C05F40B4
:105FB00033333333333315400000000000CCA140AD
:105FC0000000000000408F4010B5041CFFF7E4FE05
:105FD000201CFFF725FF10BD7047C169806970471D
:105FE000F0B54F4D01272A6885B0061C4D4C3A424A
:105FF00003D100F027FD2F6020604B4D01272B6857
:106000003B4204D100F01EFD484B2F60186000F0A9
:1060100019FD2268904269D300F014FD143020600D
:10602000434C706825686B1C236000F095FE0835B2
:106030002368AD00A851052B58D100272760B46B09
:10604000F56BF319186A04F00DFE0437021C0B1CE3
:10605000201C291C03F092F8142F02D0041C0D1CE4
:10606000EFE7244B224A03F0A5FB234A234B041CF1
:106070000D1C34657565B263F363B268F368009212
:106080000193101C191C1E4A1E4B03F0FDFF1E4AF3
:106090001E4B03F0F9FF1E4A1E4B02900391201C79
:1060A000291C03F0F1FF009A019B03F0EDFF164A53
:1060B000164B03F0E9FF184A184B03F0E5FF021CEA
:1060C0000B1C0298039904F06FFA114A114B03F06C
:1060D00071FB041C30690D1C04F036FE021C0B1C05
:1060E000201C291C04F060FAB061F16105B0F0BD1C
:1060F000000000000000144000000000000000004C
:106100000000000000003E400000000000408F4002
:106110000000000000C05240000000000000503F9E
:106120003C050020440500204805002038050020DB
:1061300040050020C046C0460D4B083303601B23BA
:106140004360084B064A8260C36000230361064A2D
:10615000064B8261C3618263C3637047C046C04619
:1061600000000000000014400000000000000000DB
:10617000D0D10000C046C046C16A806A704708B5E9
:106180004068002100F052FE08BD00000000000041
:10619000F8B53B4D01272B68061C3A4C3B4203D116
:1061A00000F050FC2F602060374D01272B683B42E8
:1061B00004D100F047FC354B2F60186000F042FC22
:1061C0002368C01AF368984248D900F03BFC20606D
:1061D0002F4C706825686B1C236000F0BDFD0435F2
:1061E0002368AD00A851052B38D100272760346CF7
:1061F000756CF319186904F035FD0437021C0B1C8B
:10620000201C291C02F0BAFF142F02D0041C0D1C04
:10621000EFE7144B124A03F0CDFA134A134BB06365
:10622000F163326473640F4B0D4A03F02DFF104A83
:10623000104B03F029FF104A104B3063716303F0D9
:1062400023FF041CB0680D1C04F07EFD021C0B1C17
:10625000201C291C02F092FFB062F162F8BDC0461A
:1062600000000000000014400000000000000000DA
:10627000000000000000503F0000000000000C4043
:10628000580500205C050020500500205405002022
:106290004C050020C046C0460B4B083303601A2350
:1062A0004360002383601E23C360064B044A82625E
:1062B000C36202634363026443647047C046C046DE
:1062C0000000000000000000E8D10000C046C04609
:1062D000064B112203600423037183710E23C371E3
:1062E000052303720023427143727047E1070000E7
:1062F0007047000008B50248FFF7BEFB08BDC04666
:106300006C04002030B5C11D031C1A1AD2B2022A37
:1063100008D09A7A0A2514096C430F252A40A2183E
:106320009A7208E0027B0A255406640F6C430F251D
:106330002A40A218027301338B42E6D1037CFA2271
:10634000D2009B180360C37B0371837B4371437B43
:106350008371037BC371C37A0372837A437230BD46
:10636000F8B50E4C061C3221201C0722FFF7DFFB7C
:106370000025201CFFF744FB002808D0201CFFF755
:106380003AFB6F1CFFB27519A8723D1CF1E7102390
:10639000013BFDD1201CFFF702FCF8BD6C0400207E
:1063A00010B5041C00F04EFB6369C01AFA239B0071
:1063B000984208D900F046FB6061201CFFF7D0FF2F
:1063C000201CFFF79FFF10BD024901487047C046DF
:1063D000000000000000000070B5224D8AB0041CCF
:1063E0002149281C00F062FE0E20012100F01EFD54
:1063F0001E4E2179301CFDF78CFF002804D1281C8B
:106400001B4900F069FE2BE0281C1A4900F064FECD
:10641000311C01A8184A1323FEF70EF8049B0298BA
:106420000399A361231C206161611C3305AA43CA3F
:1064300043C31278251C1A70099B0C35E362281C93
:10644000FDF75FFF00280BD0281CFDF72BFF00286D
:1064500006D1281C094900F03FFE281CFDF744FF27
:106460000AB070BD8405002000D20000D4010020D5
:1064700018D2000034D2000046D2000051D20000F1
:1064800038B5074B041C08330360042343600C3009
:106490000D1CFDF7F9FE0023A560201C236338BD09
:1064A000A0D2000010B50A2186B0009103A801F027
:1064B00057FA074C03A9201C01F085FA03A801F044
:1064C000C1F9201C034901F085FA06B010BDC04691
:1064D0006005002097D20000F0B58BB0041C00F0DE
:1064E000B1FA216BFA23401ADB00984200D8E0E0B1
:1064F000734D7449281C01F0FFF9734F0A22396863
:1065000001A801F01BFA01A9281C01F05CFA01A8FE
:1065100001F098F96D4E281C311C01F05BFA0A223B
:10652000397901A801F0F9F901A9281C01F04BFA09
:1065300001A801F087F9311C281C01F04BFA0A224E
:10654000797901A801F0E9F901A9281C01F03BFAC9
:1065500001A801F077F9311C281C01F03BFA0A224E
:10656000F97901A801F0D9F901A9281C01F02BFA49
:1065700001A801F067F9311C281C01F02BFA0A224E
:10658000397A01A801F0C9F901A9281C01F01BFA08
:1065900001A801F057F9311C281C01F01BFA0A224E
:1065A000797A01A801F0B9F901A9281C01F00BFAC8
:1065B00001A801F047F9281C311C01F00BFAA3686F
:1065C0001868002806D003689B689847021C0B1CBB
:1065D000201C02E0201C394B374AFFF763FFA368F9
:1065E0005868002806D003689B689847021C0B1C5B
:1065F000201C02E0201C314B2F4AFFF753FFA368F9
:106600009868002806D003689B689847021C0B1CFA
:10661000201C02E0201C294B274AFFF743FFA368F8
:10662000D868002806D003689B689847021C0B1C9A
:10663000201C02E0201C214B1F4AFFF733FFA368F8
:106640001869002806D003689B689847021C0B1C39
:10665000201C02E0201C194B174AFFF723FF1C499E
:1066600001A81C4A1323FDF7E7FE029B0498039F31
:106670002361231CA06167611C3305AA83CA83C3FD
:106680001278261C1A7009990C36E162301CFDF74D
:1066900038FE00280AD0291C301C00F013FD301CE5
:1066A000FDF722FE0C48291C00F00CFD00F0CAF991
:1066B00020630BB0F0BDC0460000000000000000E9
:1066C00060050020A6D700009401002097D20000AA
:1066D000D401002046D2000084050020C046C046F8
:1066E00010B5054C0549201C01F0F3F8201C0449A5
:1066F000044A04F099FB10BD60050020A6D70000F5
:10670000457800000000002038B500212822041C34
:1067100004F00DFC00230022E2500433282BFAD1B0
:10672000482000F091FC051CFFF7B6FD25602020F5
:1067300000F08AFC0E49051C00F048F865605820FE
:1067400000F082FC6168051CFFF7FAFAE56058204A
:1067500000F07AFC051CFFF7EFFC2561342000F007
:1067600073FC211C051CFFF78BFE6561201C38BDE6
:106770008001002038B5051C00242859002801D0CC
:1067800000F066FC0434282CF7D1281C38BD38B53D
:10679000051C00242859002802D00268126890477E
:1067A0000434282CF6D138BD38B5051C00242859EE
:1067B000002802D00268526890470434282CF6D191
:1067C00038BD7047C168806870470000034B0161A5
:1067D00008330360024B43617047C046B8D20000E3
:1067E000520300000000000070B5041C324D006927
:1067F000002932D1291C0122FEF7C8FF002807D149
:106800002E492F4800F068FC2069FEF793FF0AE04C
:10681000281C0721FFF730F8EB79834206D028487F
:10682000284900F059FC234921483DE02B78102BE2
:1068300006D0282B04D02449214800F037FCF2E789
:106840002069FEF7DBFE2069291CFEF762FF206944
:1068500044210122FEF72DFF22E0FEF7CFFE291C86
:106860002069FEF756FF2069BE210022FEF721FFB6
:1068700000252069FEF73BFF144EA8550135092D70
:10688000F7D12069FEF756FF70783378000218437D
:1068900002F018FCF621890502F0EAFA0C4B1860A8
:1068A0000B4B186804F050FA70BDC046C046C04695
:1068B00000000000000000007C050020D0D2000095
:1068C00084050020F8D200000AD3000070050020E3
:1068D0006C050020C046C04610B5041C00F0B2F89C
:1068E000A369C01A636998420CD300F0ABF8012188
:1068F000A061201CFFF778FFA060E160201C002150
:10690000FFF772FF10BD000008B5024800F012FF4B
:1069100008BDC046E405002008B5024800F00AFFA3
:1069200008BDC04684050020F7B5164F1649381C2F
:1069300000F065FC1549164800F061FC1549164841
:1069400000F05DFC1549164800F059FC1549164841
:1069500000F055FC154D03260124281C144900F0B5
:106960004EFC391C0096231C01940022114800F0B3
:10697000BDFE0096291C0194242223230E4800F01A
:10698000B5FEF7BD4806002000080042000C00429A
:106990004C06002000100042500600200014004267
:1069A000440600200018004254060020580600202B
:1069B000001C0042E405002084050020FEE70000E2
:1069C00008B5034B1B68002B00D0984708BDC04694
:1069D0005C06002038B50F490F4CA14204D100F0ED
:1069E00055F800F011FB0BE00C4D8D42F7D0002361
:1069F000CA18E818A24204D2006804331060F7E70E
:106A0000FEE79042EBD0064B064A9342E7D20022C3
:106A100004C3F9E70000002064010020D8DA000078
:106A2000640100205C0C002008B500F02CF8002860
:106A300001D100F01DF808BD014B18607047C04639
:106A40005C060020014B18687047C04660060020B5
:106A500070B5041E08D0054B1D681E1C00F012F80E
:106A600033685B1BA342F9D370BDC04660060020AB
:106A700008B5034B1A6801321A6000F045FB08BDE7
:106A800060060020704700207047000070B54A4A39
:106A90001E21536802208B430343484953608B698E
:106AA000082423438B61464C464B9C829C8A20439E
:106AB0009882101CDA689407FCD5434A01241470AC
:106AC0001478E50704D5404C647864B2002CF7DBF9
:106AD00001249460547864B2002CFBDB3B4D3A4CAB
:106AE0006560547864B2002CFBDB8225364CED01E6
:106AF0006580547864B2002CFBDB9C8C8025AC4311
:106B00009C84DC68E606FCD5314D2E4CE562DD68E0
:106B10002C4CEE06FBD5A58C2E4E3543A584DD68A6
:106B2000284CEE06FBD5A58C02263543A584DC68EF
:106B30002506FCD5234CE4686606F8D5DC68E50636
:106B4000FCD500249460547864B2002CFBDB224D09
:106B50001D4C656055781C4C6DB2002DFADB1E6A29
:106B60001E4D35401D621D6A8026B5431D620323FC
:106B7000A3601B4B636053785BB2002BFBDB0023ED
:106B80000B72184A4B728B72CB72174BFF211A6033
:106B9000164B174A1B6812685C01D20E2140114344
:106BA0009A06520F12020B1C1343124A13854368B4
:106BB00080221343436070BD004000410004004048
:106BC0000C06000000080040000C00400105010018
:106BD000B805FF7D040A000000070300FFFCFFFF6B
:106BE00003060100006CDC02080000202460800025
:106BF0002060800000400042314BFA21186810B537
:106C0000890002F027F82F4B0138984224D82E4AE9
:106C10002E4B5060186AC0210002000A0906014389
:106C200019620024072194601160196A8022090208
:106C3000090A12060A431A62254BFC211A6A0A4302
:106C40001A62196AFC2292010A431A62196AA02286
:106C5000D2020A431A6200E0FEE7201C0021013440
:106C600000F0E4F8132CF8D11A4C63785BB2002BD7
:106C7000FADB194B6380194B5A7ED209012AFAD0EC
:106C8000E422D2009A803F22DA70597E134AC90961
:106C90000129FAD0C0235B0100201361907000F03D
:106CA0002DF863785BB2002BFBDB0D4A094B5A8051
:106CB0000C4BDA79D209012AFAD041225A7010BD60
:106CC00008000020FFFFFF0010E000E000ED00E002
:106CD00000040040000C00401E4000000040004244
:106CE0002140000000480042914205D002D9891A93
:106CF000C84001E0511A88407047000000B5144AAE
:106D0000517E131CC9090129F9D00138042813D870
:106D10001969104A0A401A615A780F218A4301F012
:106D20008FFF030509070300012102E0032100E0B2
:106D300002210A435A700AE01169F0231B050B4334
:106D4000136153780F218B4302210B43537000BD15
:106D500000400042FFFFFFF010B5041E172C00D8C2
:106D60001834201C012100F0EBF8182C0CD12A4B10
:106D7000DA79D209012AFAD01A7802218A431A70E4
:106D8000DA79D209012AFBD0244B5A7ED209012A92
:106D9000FAD018225443224A18691419217C1F2260
:106DA00090431140021C0A431A61597E1B4AC909CB
:106DB0000129FAD01178022001431170597E174A37
:106DC000C9090129FAD0117B022001431173012165
:106DD0001176597E114AC9090129FAD0117B022086
:106DE000014311731A7ED107FCD50C4A508B80B237
:106DF000597E0A4AC9090129FAD011780224A1430F
:106E000011705A7ED209012AFBD0064B1968064B35
:106E10001A68FFF769FF10BD0048004200400042B9
:106E200024D300000C0000201000002010B518240E
:106E3000021C201C5043274B1818007A40B2013026
:106E400046D0032944D8081C211C01F0F9FE023366
:106E50001121624398569A18C3011F4852681B18A3
:106E600099184031022008700121914059602FE0AB
:106E70006243985618499A185268C3015B189918CA
:106E800040310620087001219140596099611FE04E
:106E900051435A56104859184B68D2011118C81856
:106EA0004030062404700120984048600B49521875
:106EB00050600DE0624398569A18C3010648526824
:106EC0001B189918403102200870012191409960E7
:106ED00010BDC04624D300000044004110440041CE
:106EE00018235843134AF0B5131808241C570134CB
:106EF0001FD08256104ED2015D6801249019231CC8
:106F00008668AB401E420BD10E1C771EBE41401955
:106F100034404030A50004780426B4432C43047068
:106F2000002903D105495218536002E0024E92191C
:106F30009361F0BD24D3000000440041104400419F
:106F400018224243F8B52D4D0824AA181457031CE3
:106F5000621C50D0481C00240C284CD801F070FE54
:106F6000071E1E1E1E1E1E1E1E0A0A0A0A000124DD
:106F7000644240E0092902D1181C002103E00A29DB
:106F800004D1181C0221FFF751FF23E000240B2934
:106F900031D1181C0121FFF749FF2CE0182253437F
:106FA000EA185268EB560120141C04405508DB0116
:106FB000002C11D0124C1B195D1930352E780C01A4
:106FC0000F21314021439A18C9B2297040321378F9
:106FD0001843107000240EE0094E0F279B195D190D
:106FE00030352E789A18BE433143C9B229704032E9
:106FF000137818431070201CF8BDC04624D300003D
:10700000004400417047000010B5FFF7F5FD03F0A4
:1070100023FFFFF7F7FF0120FFF71AFD084C201CA4
:1070200000F0F8FE201C00F06DFFFDF7A5F8FDF75D
:1070300071F8044B002BFAD000E000BFF7E7C04620
:10704000130B00200000000008B503F02BFF08BD63
:1070500008B503F031FF08BDF7B58A18061C0D1CF2
:1070600001920C1C019B671B9C4207D0336821785E
:107070001B68301C984701340028F3D1381CFEBD32
:1070800038B5051C0C1C081E07D004F049F82B6805
:10709000021C5B68281C211C984738BD10B5046889
:1070A0000B1C9A6809686368984710BD08B5FFF71C
:1070B000E7FF08BD08B50249FFF7E2FF08BDC0467B
:1070C000A4D7000038B5041CFFF7E8FF051C201CFE
:1070D000FFF7F0FF401938BD38B5041CFFF7D0FFAB
:1070E000051C201CFFF7E6FF281838BD014B18606F
:1070F0007047C04614000020024B012252421A6021
:107100007047C04614000020154A1368581C25D04B
:10711000013B1360002B21D172B6124A124B04328C
:107120009A4207D8BFF34F8F104A114BDA60BFF372
:107130004F8F11E00F4B197DC807FBD5188B20210D
:10714000FF319208520001431983DA610A4A1A801A
:107150001A7DD107FCD5E5E7C046FDE77047C0467C
:107160001400002000400000030200000400FA05A3
:1071700000ED00E00040004102A5FFFF10B5002136
:107180004022041C03F0D3FE0023201C236463640C
:1071900010BD026C10B53F23541C2340446CA34225
:1071A00001D08154036410BD00230364436470471D
:1071B000436C026C934206D0C25C3F2101330B400A
:1071C0004364101C01E0012040427047026C436C94
:1071D000D01A00D540307047436C026C934201D006
:1071E000C05C01E0012040427047026C3F23013245
:1071F0001A40436CD01A43425841C0B270470160F4
:107200007047F7B508AC267804689D1E27686C1E89
:10721000A541ECB2920705683A4327063A432A6033
:107220000268072529405068B501002C00D05C0396
:10723000294301430C435460F7BD30B50368C025B2
:107240001C68AD0312052A402243C024A40209048D
:1072500021401143196003685A6814435C6030BDD3
:10726000036801211A680A431A6002681168012341
:107270001942FBD1D1691942F8D170470368022144
:107280001A680A431A600268D3699907FCD47047E8
:1072900003681A7ED10702D41A7E9107FCD5704785
:1072A000036800225A8370470368187E4007C00FA6
:1072B00070470368187EC009704703688022197EF2
:1072C00052420A431A7670470368188DC0B270475D
:1072D00003681A7E01200242FBD019857047000026
:1072E00070B5036801268D07ED0F31401C686D07EE
:1072F000090729432143196004685100034801F03C
:10730000A9FC0138C0B2207370BDC046006CDC021D
:10731000036801211A680A431A6002681168012390
:107320001942FBD1D1691942F8D170470368022193
:107330001A680A431A600268D3699907FCD4704737
:107340000368DA699107FCD41A6802218A431A603B
:10735000704703689A6A520A52021143996203689D
:107360001A7E5107FCD5986AC0B2704703680121A4
:107370001A680A431A600268116801231942FBD196
:10738000D1691942F8D17047036802211A680A438B
:107390001A600368DA699107FCD45A8B30218A435A
:1073A00010210A435A830268D3695907FCD47047F5
:1073B0000368802219685968D2020A435A607047EC
:1073C0000368034A196859680A405A607047C04602
:1073D000FFFFFBFF30B5036803241D680C40074A1C
:1073E000596824040A40ED0622436D0F5A60052DAA
:1073F00003D10268D3695907FCD430BDFFFFFCFFFD
:1074000049001143036830B5CDB2598B03240909F3
:107410002140012904D0598B09090C40022CF4D1D8
:10742000596AC90AC902294359620368002A03D16B
:107430001A7ED107FCD50DE0187E012240081040CD
:1074400008D1197E1142F7D05968C02292020A432E
:107450005A6003E05B8B01209B08984330BD0368B2
:10746000283319700268107E0123184003D1518B14
:107470001942F8D003E0528B181C920890437047D1
:10748000036828331970036800201A7E510703D55A
:107490005B8B01209B089843704703681868C006FF
:1074A000400F043843425841C0B270470368187E09
:1074B0004007C00F70470368187E012318407047CB
:1074C0000368588BC006C00F70470368187E80079A
:1074D000C00F70470368588B0007C00F70470368E0
:1074E0001A68D206520F052A02D11A7E9107FCD5DE
:1074F00028331878C0B270470368224A30B59342E7
:1075000011D0214A934211D0204A934211D0204AEF
:10751000934211D01F4A934211D01F4A934230D157
:107520000E2319220DE0092314220AE00A23152252
:1075300007E00B23162204E00C23172201E00D23A1
:107540001822DCB2154901209B08A0409B0008606E
:107550005B180320C021890004405D58E000FF242F
:107560008440A5432C1CC0258540281C204358502E
:107570008023DB011A430A4B5A805A7852B2002A00
:10758000FBDB30BD00080042000C0042001000424E
:107590000014004200180042001C004200E100E01C
:1075A000000C0040F8B5041C151C0E1C1F1CFFF736
:1075B000A3FF201CFFF754FEB1001C220A406907FC
:1075C0002368090C0A431A60226884239375012EEC
:1075D0001AD10821012D00D110210C4B79431868D4
:1075E000C00001F037FB236807219A890140D204CB
:1075F0004903D20C0A439A8123680004C20C98897B
:10760000400B400310439881F8BDC046080000209D
:10761000F7B5019308AB041C1F780D1C161CFFF76F
:1076200077FE201CFFF768FFBF070C221743C0221C
:10763000920336051640C02292022D0423683E4371
:1076400001991540354307221D600A4080212368B7
:1076500089020A435A60F7BD38B5041C0D1CFFF7B8
:107660004BFF201CFFF782FE236814221A60074B91
:107670006900186801F0EEFA2468421EE068FF23F2
:107680001A4098431043E06038BDC046080000200F
:107690000120704708B50368014ADB69984708BDB7
:1076A0001304000010B5041C0069FFF7D9FD201C6D
:1076B0001430FFF779FD10BD08B50069FFF7E8FD4C
:1076C00008BD08B51430FFF781FD08BD08B51430BA
:1076D000FFF782FD08BD08B51430FFF769FD08BD4E
:1076E00008B50069FFF7F4FD012008BDF7B51D1CC2
:1076F00008AB1B78041C009309AB1B78161C019384
:1077000000234360FA239B008360094B0F1C08335E
:1077100003601430FFF732FD009A231C5C332761AD
:107720009A70019A1E705D70201CDA70FEBDC04612
:10773000B8D7000010B5041C0069FFF7B5FD00289C
:1077400007D02069FFF7C0FD011C201C1430FFF793
:1077500020FD2069FFF7ADFD002805D02069FFF767
:10776000ACFD2069FFF79CFD10BDF023081C1840FC
:107770003038434258417047F0231B0119408023A1
:107780009B0099420CD0C0239B00994206D08023D5
:107790005B000520994204D0002002E0072000E0B1
:1077A000062070470F231940012905D002394B42AA
:1077B0004B410220C01A00E000207047F0B5031CC6
:1077C00085B003915C33041C182718783B1C434395
:1077D0001B4E0821F3185956151CFFF7B1FB231C4B
:1077E0005D33187808214743F6197156FFF7A8FB57
:1077F00001210A1C039B2069FFF7D4FE291C201CD1
:10780000FFF7BAFF291C071C201CFFF7CBFF291C20
:10781000061C201CFFF7A9FF391C0090331C2069AF
:107820000122FFF7EEFC231C5F331978013B1A7825
:107830002069FFF702FD2069FFF720FD05B0F0BDCC
:1078400024D3000010B5041C006803F035FB201C95
:1078500010BD10B5041C0068002801D003F02CFBFB
:1078600000232360A360636010BD38B5041C0D1CA9
:107870000068013103F000FC002801D021C4012080
:1078800038BD036810B5041C002B02D043688B423E
:1078900009D2201CFFF7E9FF002805D0A368002BC0
:1078A00001D122681370012010BD70B50E1C111C8F
:1078B000041C151CFFF7E5FF002803D1201CFFF76F
:1078C000C8FF04E0A5602068311C03F021FC201CE7
:1078D00070BD38B50023041C0D1C03604360836039
:1078E000994207D0081C03F01BFC291C021C201C19
:1078F000FFF7DBFF201C38BD38B5041C0D1E08D077
:10790000081C03F00DFC291C021C201CFFF7CDFFF6
:1079100001E0FFF79EFF201C38BD1FB50023041CAB
:10792000036043608360081C01A901F041F8201C3A
:1079300001A9FFF7E1FF201C04B010BD10B5002322
:107940008AB0041C036043608360081C01A901F035
:107950002FF8201C01A9FFF7CFFF201C0AB010BD93
:1079600070B58CB01D1C10AB1B78141C002202607B
:107970004260826003A99A1C061C52B20091201C2E
:10798000291C01F019F8011C301CFFF7B5FF301C51
:107990000CB070BDF8B5041C0F1C866801D1002521
:1079A0000FE00125002A0CD09619311CFFF769FF62
:1079B0000028F4D02268A368391CD01803F0A8FB73
:1079C000A660281CF8BD08B50B1C9A680968FFF76B
:1079D000E1FF08BD38B5051C0C1C081E06D003F0DD
:1079E0009FFB211C021C281CFFF7D4FF38BD0000A0
:1079F00070B5C2B219495301CB189E68184DC02406
:107A00002E40A40526439E60164E8001096830185A
:107A1000083258605201505C0726B04301263043BB
:107A200050549E6935402C439C610F4C5C61505C06
:107A30007024A0431024204350549C680B488A189B
:107A40002040802464032043986098684021800B84
:107A50008003986053790B43537170BD1C0B002059
:107A6000FFFFFF8F3409002070070020FF3F00F068
:107A700038B5041C08CC01211A78051C0A431A7079
:107A80008022201C0021520003F051FA2B689A78C2
:107A9000D107FCD45C6238BD134BF0B51B68990369
:107AA0005A029B01C90ED20E5B0F1F2900D105217E
:107AB0001F2A00D11D22072B00D1032304688E0149
:107AC000278D0A491F2539403143218501682A4005
:107AD0000C8DAC4322430A8502681903108D044BB8
:107AE00003400B431385F0BD246080003FF8FFFF87
:107AF000FF8FFFFFEFF3108303600123436072B633
:107B000070470368002B02D162B6BFF36F8F7047D6
:107B100037B50569041C6846002D12D1FFF7EAFF4E
:107B2000019B013B03D3621DD57FEDB2F9E76846A7
:107B30000193FFF7E6FF0020854217D0206AE36932
:107B400013E0FFF7D7FF019B0025013B04D3221C64
:107B500034321578EDB2F8E768460193FFF7D1FFAC
:107B60000020854202D0206BE36AC01A3EBD0000AF
:107B7000436810B51A68037A01215B01D318FF33FB
:107B80009A7A0A439A72037A42685B01D318C268F0
:107B90009C6891040B4A090922400A439A60037ABF
:107BA00042685B01D3189A684021920B92039A6055
:107BB00043681A68037A08335B01D3181A790A43B9
:107BC0001A7110BDFF3F00F0F7B50569041C0E1CCB
:107BD000171C6846002D1FD1FFF78CFF019B013B4E
:107BE0005A1C06D0621DD17F5A1E00293AD0131CA0
:107BF000F6E768460193FFF784FF0025E369BD427D
:107C000035D0226A934232D25A1CE261A269D3185B
:107C10001B7873550135F1E7FFF76CFF019B013BC2
:107C20005A1C08D0221C343215785A1EEDB2002D91
:107C300018D0131CF4E768460193FFF762FF002594
:107C4000E36ABD4226D0226B934241D322E0621DFB
:107C50000021D17730321678581E8E4214D1031C81
:107C60005A1CF4D168460193FFF74BFF38E0226AB3
:107C7000934235D10023E361012323616846FFF776
:107C800039FF019B013BEBE71170201C0193FFF7CB
:107C90006FFFF6E7226B934222D10023E362236158
:107CA0006846FFF727FF019B013B5A1CDAD0221CD4
:107CB00034320021117001321678581E8E4201D1E3
:107CC000031CF2E71170201C0193FFF751FFEAE754
:107CD0005A1CE262A26AD3181B7873550135AFE7CC
:107CE000281CFEBD37B54368027A1B680832520172
:107CF0009A18041CD0790123FF21184253D0D37164
:107D0000A068656962680140002D20D149015218C0
:107D1000916863618904890C2162A16A6846516097
:107D2000621DD377FFF7E6FE019B013B5A1C33D05F
:107D3000221C34321178581EC9B20132002903D0F6
:107D400001930123137023E01170031CEEE74B0134
:107D5000D3189A68A5699204920C2263002262618A
:107D600068465D60FFF7C6FE019B013B01E01170B4
:107D70002B1C591C10D0221C343201201070621DA3
:107D8000D17F5D1EC9B230320029F0D0019310704E
:107D90006846FFF7B6FE06E068460193FFF7B1FEBE
:107DA000201CFFF7E5FE37BD37B500236C46E371B5
:107DB0000734201C0D1C00F059FE2B681818286091
:107DC00000F0FCFE211C00F0B3FE2B6818182860A0
:107DD00020783EBD03290BD10D4BB2221B68520007
:107DE000985C8021494201439954022168220CE0A9
:107DF00001290CD1064B92221B685200985C80210D
:107E000049420143995402212822FF329954704774
:107E10001C0B002038B5304B00240121051C1F200D
:107E20001C70FFF703F81F200121FFF759F82B4BB7
:107E30001E2001211C70FEF7F9FF1E200121FFF713
:107E40004FF8274B2021DA6901200A43DA61254BDC
:107E500006241A7802431A70234B0F221978914393
:107E6000197019782143197020490C782043087043
:107E700019780A401A701A7860210A431A701C4B4C
:107E80001C4A5A805A78D209FCD11B48FEF7D4FD0F
:107E90001A4C201CFFF7ECFD201CFFF7FDFD2368AA
:107EA0007F2219780A401A701A7804210A431A703E
:107EB0001A890C218A431A81C121114A890050581C
:107EC0000002000A5050802111601A7802210A43F2
:107ED0001A7001232B7038BD30090020180B0020C8
:107EE00000040040584400413C44004159440041D2
:107EF000000C004006400000298900001C0B0020F7
:107F000000E100E00078002810D0094B01211B6837
:107F10001A898A431A811A8B08210A431A831A8BF9
:107F200004210A431A83034B00221A607047C0469B
:107F30001C0B0020200C00200F4B9A69920B92031F
:107F40009A611B680222FF331A729879802252428A
:107F500002439A711A7A9007FCD5084B081C997A4B
:107F60007F221040914301439972997A80225242B4
:107F70000A439A727047C0461C0B00200050004113
:107F800010B50B790C1C002B0BD1081C00F07CFDEC
:107F9000002804D1094B9A69920B92039A6101203F
:107FA0000BE000F00BFE211C00F0F6FD0028F6D1DE
:107FB000024B9A69920B92039A6110BD1C0B002030
:107FC000F8B50D1C832A16D1CAB242495301CB1809
:107FD0009C694148AD012040C024A405204398611C
:107FE0003E48083245195D610B685201D15C702032
:107FF0008143402065E0022A45D13820FFF724F86C
:10800000374B344F8026036076000023421D036205
:1080100003614361C36147608560C660D3772F32D7
:10802000041CC36203631370301C537002F03AFFE8
:10803000A061301C02F036FFFF232A1C1A405201B7
:10804000A062BF18B968244A07260A40C0218905E2
:108050000A43BA60A1686268194012680831490190
:10806000885CAD00B043032630438854A168626841
:108070000B405B01A169D3185960201CFFF778FD04
:10808000184BEC5025E0822A1ED1CAB21149530187
:10809000CB189C691048AD012040C024A4052043A2
:1080A00098610E48083245195D610B6852019918B4
:1080B0000C798020404220430871D15C70208143BC
:1080C00030200143D15404E0002A02D1081CFFF7FC
:1080D0008FFCF8BD1C0B0020FFFFFF8F70070020F6
:1080E000F0D70000F40A002038B5051C0124064B27
:1080F000A200D258002A06D0211C281C0134FFF708
:108100005FFFE4B2F3E738BD1800002008B5084B64
:108110008A00D058002803D003689B68984706E07F
:10812000C9B2044B4901591888688004800C08BD05
:10813000F40A00201C0B002010B50C1CFFF7E6FF12
:1081400000280CD0064BE1B21B68083149015918D0
:108150004A7980235B4213434B710223CB7110BDDC
:108160001C0B002070B5CAB2134B1448540189018E
:108170005918031959609D68114908322940802512
:10818000AD022943996099684026890B890399605B
:108190000368510159180D7935430D715101591872
:1081A00089794D06FAD551015918C979CD07FAD503
:1081B0000419A068C0B270BD340900201C0B002057
:1081C000FF3F00F038B50C4B141C1B680D1CFF332F
:1081D0005A7940210A435A710021FFF7C3FFA04298
:1081E00000D9201C0023A34204D0044A9A5CEA541C
:1081F0000133F8E738BDC0461C0B002034090020CD
:1082000010B5C9B20C48490143189A689204920CFF
:108210003F2A08D9141C9A68403CA404920BA40C71
:108220009203224302E09A68920B92039A604118EB
:108230008868C0B210BDC0461C0B0020F0B51C1CE5
:108240002F4B85B01B68061C0D1C0292002B51D0D1
:108250002C4F3978C9B2002902D11E20FEF740FE0A
:1082600064233B70284BAA00D058002805D003682F
:1082700002995B68221C984740E0301C291CFFF7DC
:1082800045FFA04204D2301C291CFFF73FFF041C0D
:10829000291C301CFFF7B4FF1C4FE9B24A010191C1
:1082A000396803928B18FF335A7A01210A4318491F
:1082B0005A72AB01C9180298221C02F016FE002C5B
:1082C0001BD0301C291CFFF721FF002815D1019B72
:1082D0003A6808335B01D3181979402001431971BA
:1082E0000121D97103995318FF339A7A01210A4366
:1082F0009A7202E00120404200E0201C05B0F0BD6F
:10830000200C0020180B0020F40A00201C0B002079
:108310003409002013B56C460734221C0123FFF7F3
:108320008DFF012801D1207801E00120404216BDD7
:10833000F0B51C1C3F4B85B01B680E1C0292002B35
:108340006AD08023DB019C4266D83B4D2978C9B2B4
:10835000002902D11F20FEF7C3FD642300222B70E9
:108360000092002C56D0354DF7B22B6801933B1C80
:108370000833019A5B01D3189B79DB091AD0304B83
:108380003049186800F066FC2F4B1721584300F065
:1083900061FC3B1C0833019A5B01D318DB799A0717
:1083A00008D42A4B9A5D002A38D1421E002835D0C5
:1083B000101CEEE7254B00229A55251E3F2D00D9B3
:1083C0003F25234AB301D318181C02992A1C039392
:1083D00002F08BFD194A7B01D318039AA9045A6154
:1083E0009A69890C920B92030A439A613B1C019A89
:1083F00008335B01D3180222DA7159798022524284
:108400000A435A71009B029A5B1952190093641B2C
:108410000292A6E700980BE0012008E001229A559D
:108420007B01ED18AB69101C9B0B9B03AB614042B9
:1084300005B0F0BD200C0020300900201C0B0020EE
:108440000800002040420F00701101006807002062
:108450007007002070B50E4D1C1C8B01ED18281CF8
:108460000E1C111C221C02F040FDF6B209497601D7
:1084700089194D618A69084B201C13408B618B69F7
:10848000A2049B0B920C9B0313438B6170BDC046EF
:10849000700700201C0B0020FF3F00F0F7B5114BC8
:1084A00001901B780F1C141C002B19D10E4B1E7849
:1084B000002E01D1151C08E00C4D0D482E888019A6
:1084C000361902F012FD2E800AE0002D08D0BA19EC
:1084D0002B1C01980021FFF7BDFF36182D1AF4E779
:1084E000201CFEBD120B0020100B00206607002090
:1084F00065060020F8B50E1C00AF151E012D28D909
:10850000D31DDB08DB006A46D21A9546081C02F030
:1085100007FE01306C464000032320706370022286
:10852000AA420ED23378002B0BD0511CC9B20136AF
:10853000A354A94204D0002302326354D2B2EFE71D
:108540002A1C0548211CFFF7A9FF431E9841C0B211
:1085500000E00020BD46F8BD130B002008B5044B19
:1085600000221A70034B04491A88FFF797FF08BDD1
:10857000100B00206607002065060020F0B5204A99
:1085800087B001230026009102A91370051C0296F2
:10859000FFF70AFC03AC092701903A1C201C311C90
:1085A00002F0C5FC02236370A023E371FA23237257
:1085B000029B0122DB196380019B62712371104AC7
:1085C000009B27701670BB4205D1281C211C1A1C69
:1085D000FFF764FF11E00B4B01221A700A4B211CBC
:1085E0003A1C281C1E800296FFF758FF281C02A97F
:1085F000FFF7DAFB281CFFF7B1FF012007B0F0BD41
:10860000120B0020100B00206607002070B5CE78FA
:108610008AB0051C0C1C022E08D1C9882348FFF71C
:10862000ADFF031C581E8341D8B23DE000F0C6FAEE
:10863000211C00F092FA002803D0C3171B1AD80F90
:1086400032E0012E04D1E2881949112A27D823E00B
:10865000032E29D1A278002A05D11649E2880B7889
:10866000934219D81BE0022A03D1A279281C12498F
:1086700004E0012A05D1A2791049281CFFF73AFF2E
:1086800012E0032A10D100F099FA01A900F075FA5E
:10869000A279281C01A9F1E7D2B2002A00D10A78F8
:1086A000281CFFF7FBFE01200AB070BD130B002051
:1086B0000CD8000008D800001ED8000000D8000028
:1086C00073B5051C48780C1C0B2878D800F0B8FA54
:1086D000081C7728773E4306474B686F00206FE001
:1086E000097801AA002903D111705170281C09E0F2
:1086F000002313705370334B1B78012B00D1137080
:10870000281C002102234FE08A780023012A04D18B
:1087100001AA137053702C4BEEE72A4A137049E0FC
:108720008E78012E07D1284B01AA00211E701170EE
:10873000281C331C38E0002E08D1224A0123137074
:10874000224A9169890B8903916138E0A178281C3C
:10875000FFF7F2FB33E0281CFFF758FF30E0281C3E
:1087600000211B4A1FE00A780020D30628D1281CCC
:10877000FFF7BAFCA2781549154B02241A600A6863
:108780002A23FF33D05C2043D0544A20FF30145CAE
:1087900001231C4314548A69920B92038A610EE0F0
:1087A0000C4A281C00210123FFF754FE07E08A78B9
:1087B000084B1A60054B9A69920B92039A6101204B
:1087C00076BDC04664060020110B00201C0B002063
:1087D000200C0020140B0020F8B54B4B071C1C7814
:1087E000002C00D08EE0494D2868838B19070DD5E9
:1087F000201CFFF7FDF82B6810201A1CFF32917A1D
:1088000001439172424A146008229A832B689A8B22
:1088100050071FD504229A833E4B1A78002A0AD0AB
:108820001A78013AD2B21A701B78002B03D11F209C
:108830000121FEF755FB384B1A78002A0AD01A7826
:10884000013AD2B21A701B78002B03D11E200121ED
:10885000FEF746FB2B68FF331A7AD10626D5102285
:108860001A725A7940210A432C495A710A786023B6
:10887000381C1A4202D1FFF723FF01E0FFF780FB0B
:10888000002806D02B688022FF33997952420A4390
:1088900001E0234B20229A712B68FF331A7A50068D
:1088A00004D540221A72597A0A435A722968FE2363
:1088B0000E8C00241E40E1B2002E23D0321C012376
:1088C00022411A4216D0221C28680832520182180E
:1088D000D079184203D1D279DA401A4207D0114B2D
:1088E000A200D058002809D003681B6898470123CC
:1088F000A3409E430134092CDDD103E0381CFFF76F
:1089000069FAF4E7F8BDC046100B00201C0B0020EC
:10891000200C002030090020180B00203409002012
:10892000FF500041F40A002008B50248FFF754FF49
:1089300008BDC046130B0020014A024B1A60704765
:10894000005000411C0B0020F0B58DB0061C0D1C22
:10895000019228D0131C023B222B26D803AC009492
:10896000002E12D0301C019900F0B8F9301C0F1CF9
:10897000019900F06FF9631C061C092F01DC3037E8
:1089800000E0573727701C1CEAE7009A9442E9D0B0
:108990002B1C009A944204D9013C22781A700133AE
:1089A000F7E700221A70281C00E000200DB0F0BD8F
:1089B00008B5FFF7C9FF08BD70B586B0041C0D1CD3
:1089C0000A9E064901A802F075FB301C01A9221C71
:1089D0002B1C02F06FFB301C06B070BD29D80000C4
:1089E0003F20704713B502686B46D971073354684E
:1089F000191C0122A04716BD08B500690221FFF726
:108A000085FB08BD08B500690321FFF795FB08BD8C
:108A100038B50D1C041C131C006903212A1CFFF728
:108A200087FC002801D10123636038BD10B5054CD7
:108A300023685A1C04D10368DB6898472060031C34
:108A4000181C10BD90000020074A08B51368591C77
:108A500004D0012149421160181C03E00069022181
:108A6000FFF758FC08BDC0469000002008B5037809
:108A700003490233037042220248FFF70FFD08BD8D
:108A80004C000020130B002010B50178031C427825
:108A90000020A12908D1212A2FD1184818490722DE
:108AA000FFF7FCFC012028E0212926D1202A05D14E
:108AB000134907221148FFF785FB04E0222A10D151
:108AC0009A780F4BDA710E4B96221968D2009142B8
:108AD00010D1DC7901231C400CD1FA20FEF706FBF3
:108AE0000AE0232A09D1DA789B7812021A43054B4F
:108AF0001A6002E0FEF700FB002010BD130B0020FF
:108B00004000002048000020064BFA2189009960AF
:108B1000054900220831196004495A6019611A7622
:108B20007047C046240C002038D80000130B0020EA
:108B300070B544680E1C0025002C09D02368201C49
:108B40005B68311C9847002804DB2D18E468F3E7C4
:108B5000281C01E00120404270BD38B544680D1C5E
:108B6000002C08D02368201C9B68291C98470028EB
:108B700002D1E468F4E7201C38BD38B544680D1C08
:108B8000002C07D02368201C291CDB689847E46868
:108B90002D18F5E72C7038BD38B544680D1C002C35
:108BA00008D02368201C1B68291C9847002803D183
:108BB000E468F4E7201C00E0012038BD064B0122E8
:108BC000196810B51140054805D102240470042429
:108BD000447041601A6010BD480C0020400C002019
:108BE0000B1C011C021C30B519430220002900D1C6
:108BF00030BD802109068B4216D00D4904205C1837
:108C00000C498C42F4D90C4D5C198C42F0D90B4CB8
:108C1000590049080320A142EAD9074C0020A1428B
:108C2000E6D150425041E3E7002AE1D0EFE7C046E9
:108C30000000F0FFFFFFDF7F0000F07FFFFF0F006D
:108C400002B4714649084900095C49008E4402BCDF
:108C50007047C046002934D00123002210B4884256
:108C60002CD301242407A14204D2814202D209015B
:108C70001B01F8E7E400A14204D2814202D249007C
:108C80005B00F8E7884201D3401A1A434C08A0421F
:108C900002D3001B5C0822438C08A04202D3001BB5
:108CA0009C082243CC08A04202D3001BDC082243CC
:108CB000002803D01B0901D00909E3E7101C10BCF0
:108CC0007047002801D00020C04307B4024802A129
:108CD0004018029003BDC046D90000000029F0D022
:108CE00003B5FFF7B9FF0EBC4243891A1847C046C7
:108CF000002941D010B4041C4C40A446012300229A
:108D0000002900D54942002800D5404288422CD392
:108D100001242407A14204D2814202D209011B018D
:108D2000F8E7E400A14204D2814202D249005B008C
:108D3000F8E7884201D3401A1A434C08A04202D3F4
:108D4000001B5C0822438C08A04202D3001B9C0835
:108D50002243CC08A04202D3001BDC082243002897
:108D600003D01B0901D00909E3E7101C6446002C5D
:108D700000D5404210BC7047002806D003DB00201D
:108D8000C043400801E08020000607B4024802A169
:108D90004018029003BDC046190000000029EBD026
:108DA00003B5FFF7A7FF0EBC4243891A1847C04618
:108DB0007047C0468446101C62468C46191C6346A8
:108DC00000E0C0461FB501F0E1F8002801D4002101
:108DD000C8421FBD10B501F011F84042013010BD6E
:108DE00010B501F0D3F8002801DB002010BD0120F0
:108DF00010BDC04610B501F0C9F8002801DD002003
:108E000010BD012010BDC04610B501F041F800288A
:108E100001DC002010BD012010BDC04610B501F0DE
:108E200037F8002801DA002010BD012010BDC0462F
:108E300038B50E4B0C4A041C0D1CFFF7EFFF002841
:108E400004D1201C291C01F0D9FE38BD074B064A6D
:108E5000201C291C01F0A8FB01F0D0FE80231B067A
:108E6000C018F2E7C046C046000000000000E04124
:108E7000F0B55F4656464D464446F0B444024600BF
:108E800083B00F1C640A360EC50F002E41D0FF2E92
:108E900022D080231B0400201C43E4007F3E824636
:108EA0008046391C4B007F02C90F7F0A1B0E8B4680
:108EB0003BD0FF2B34D0802212041743FF007F3BAE
:108EC00000215A466A40019252460A430F2A63D84B
:108ED0007A48920082589746002C3FD108220223FC
:108EE00092469846DDE70195404602282AD1019A2C
:108EF00001251540FF2300246402DB05600AED070D
:108F00001843284303B03CBC90469946A246AB4662
:108F1000F0BD002C27D10420012282469046C0E7F4
:108F2000391C4A1E91410231CBE70121002FC8D0E4
:108F3000381C01F05BFF431F9F4076235B421B1AE6
:108F40000021BEE7032800D1AEE001284FD10198EF
:108F500042461040C5B200230024CDE70C23032075
:108F60009A4680469DE7201C01F040FF7626431F6D
:108F70009C4076420023361A9A46984691E7802410
:108F80000025E403FF23B7E75B463C1C01938846BA
:108F9000AAE73C1C8846A7E7250C24043A0C240CBD
:108FA0003F04F6183F0C211C231C794353436F43A5
:108FB0005543FB180A0C9B18B1469F4202D98022E8
:108FC0005202AD1809041A04090C521894011B0C22
:108FD000611E8C41920EED181443AD012C43230108
:108FE00005D5012263080120144081441C434B46EF
:108FF0007F33002B2DDD600704D00F222240042A8E
:1090000000D00434220103D52D4B1C404B46803345
:10901000FE2B17DD019B01251D400024FF236BE77C
:109020008020C003044208D0074206D1041C3C4300
:109030006402640A5D46FF235EE704436402640A37
:10904000FF2359E70198A4010125640ADBB205401A
:1090500052E77E235B424A469B1A1B2B05DD019B90
:1090600001251D400024002346E7221CDA404B4620
:109070009E339C40231C5C1EA3411343580704D01D
:109080000F221A40042A00D004335A0105D5019B4F
:1090900001251D40002401232EE701989C01012594
:1090A000640A0540002327E78027FF03019B3C4318
:1090B000640201251D40640AFF231DE760D80000FB
:1090C000FFFFFFF770B5041E3CD0C60F00D044422E
:1090D000201C01F08BFE9E23251C1B1A962B0CDCFA
:1090E000083884406402640ADBB2321C6402DB0587
:1090F000600AD2071843104370BD992B0ADD052280
:10910000121A211CD1400A1C011C1B318D40691E02
:109110008D411543052801DD421F9540164C2C401A
:109120006A0704D00F221540042D00D004346101D9
:109130000CD59F23181AFF281AD0A401640AC3B2C1
:10914000321CD3E7002200230024CFE7E408FF2BE2
:1091500004D06402640ADBB2321CC7E7002C04D0DE
:109160008020C00304436402640A321CFF23BDE76D
:10917000321CFF230024B9E7FFFFFFFBF8B55F4671
:10918000564644464D46F0B40C034D00CE0F610ADE
:10919000440F2143C400180380465800400D824606
:1091A000D80F84464046400A530F0343D0006D0D4C
:1091B000371C83465246664500D19DE0AF1A002F0A
:1091C00000DC03E1002A38D1184300D0E4E0630753
:1091D00009D00F232340042B05D0231DA342A44113
:1091E000644209191C1C080200D478E0CE4B6A1CAA
:1091F0009A4200D105E1CD4BE408194048075205D9
:10920000490204430B0B520D371C002000211B03A5
:10921000201C1C0B0B0D1B05C54D2343520552088A
:109220001D4015436D006D08FF07291C39433CBCE8
:1092300090469946A246AB46F8BDBB488542C6D08B
:10924000802000040343382F00DDECE01F2F00DDF9
:1092500020E12020C01B1A1C814682405846F8405D
:109260000243944658464A469040421E9041FB4075
:10927000624602431F1CA21A9442A4416442C91BC5
:10928000091B141C0B02A2D549024F0A002F00D162
:10929000C4E0381C01F0AAFD021C083A1F2A00DDB8
:1092A000B7E02821091A201C9740C8400743944082
:1092B000954200DDA9E0551B691C1F2900DDD8E09F
:1092C0001F22551B3B1C221CAB40CA40AC40651EF4
:1092D000AC411343CF401C43391C002577E74807B6
:1092E000E4086A05C908520D371C04438E4B9D42A1
:1092F00048D009030B0B88E7AA1A9446002A00DC21
:1093000098E05046002853D08748854200D15EE758
:109310008020000403436246382A00DDFDE01F2A56
:1093200000DD4BE120226046101A1A1C8240824662
:10933000914658466246D0404A46024390465846B7
:1093400052469040421E9041424602436046C3400E
:109350001219A242A441644259180919141C0802A6
:1093600000D434E7704B01359D4200D124E16F4BAE
:1093700060081940012323401C1C0443CB071C43F5
:10938000490824E70B1C234300D1C7E180231B03BA
:109390000B431B031B0B38E7013F002F64D15846DA
:1093A000221A9442A4416442C91A091B141C69E799
:1093B0005846184300D10AE70122524294446046BD
:1093C000002800D0C5E058460219C2E7002F72D12C
:1093D000681C4005400D012800DCDEE05A46A21A58
:1093E0009442BF41C81A7F42C71B380200D488E0AC
:1093F0005A46141BA3459241591A52428F1A664687
:1094000044E7371C00230024FFE64849AD1A3940E1
:10941000DDE6271C28388740002449E7201C01F09E
:10942000E5FC203038E75A461A43531E9A41D2B21F
:10943000002720E7002A00D0DDE0681C4205520D1D
:10944000012A00DC8EE0384DA84200D1B3E05D4631
:109450002A19A242A441644259180919CC0752089A
:1094600014434908051CB2E62F48854200D0EAE6BD
:10947000ADE62B1C1F3B3A1CDA40131C20296DD093
:109480003F22551BAF403C43601E84411C430021DA
:1094900000259CE6381C20381A1CC240101C202FC6
:1094A0005ED04022D71BBB405A461A43531E9A41F6
:1094B00002430027DFE6002D3CD01B4DAA4500D11A
:1094C00094E080252D047F422943382F00DDADE054
:1094D0001F2F00DD2CE12025ED1B081C261CA840B9
:1094E000FE40AC400643651EAC413443F9405D4646
:1094F0002C1BA34592415B1A5242991A5546664667
:10950000C0E6131C3B43141C002B00D0BEE6002712
:109510000022002500210024E8E65A461A43531E83
:109520009A41D2B2002313E7FF070000FFFF7FFF3D
:10953000FFFF0F800D1C254358D0FF43002F51D152
:10954000041BA3459241591A5242891A5546664650
:1095500098E69648854200D0DDE638E6002792E797
:109560000023A1E7081C2043002D00D0C0E0002804
:1095700000D1FBE05846184300D128E658460219AE
:10958000A242A441644259180919141C0A0200D4C9
:109590001DE6874B0125194019E6081C2043002DC4
:1095A00039D100286DD15946194300D1BDE0191CAD
:1095B0005C4666460BE6051C2A1CABE76046203875
:1095C0001A1CC24060469146202800D1ABE04022E0
:1095D000121A93405A461A43531E9A414B461A4355
:1095E0000023B5E6714DAA4500D06EE7191C5C4614
:1095F00055466646EBE5002D1ED10D1C254373D064
:10960000D543002D6DD15C445C45924159185242BE
:1096100089185546A3E6002849D15946194300D177
:1096200096E0191C5C466646604DD0E50C43611E11
:109630008C41E4B200215AE75C4DAA4554D0554212
:10964000802210040143382D00DD85E01F2D00DD50
:1096500095E02022501B0A1C84468240201CE840D2
:109660000243904662469440601E84414246144341
:10967000E9405C445C459241CB18524299185546EA
:109680006DE65846184300D1A1E55846271ABC425A
:109690009241C81A5242801A02026AD55846041BE7
:1096A000A3459241591A5242891A66468FE5584697
:1096B000184336D04807E40804438020C908000353
:1096C000014208D0DD08054205D15946CA085C07A9
:1096D0001443291C6646630FC9001943E400334D47
:1096E00075E5324A9245AED1191C5C4655466EE589
:1096F000002837D05846184313D080254807E4087F
:10970000C9082D0304432942E5D0D8082842E2D1F4
:109710005D46EA085C071443011CDCE700230024D3
:1097200073E5224D53E5002354E700270022F1E6BC
:109730003D1C203D0A1CEA40151C202F31D040263C
:10974000F71BB9400C43611E8C412C430021CEE62F
:10975000164A0027151CDDE60C43611E8C41E4B25D
:10976000002186E7191C5C46104D30E5191C5C464B
:109770002DE5031C3B43D8D0011C3C1C27E52020D1
:10978000404240190A1CC2409046202D0BD0402078
:10979000451BA9400C43611E8C4145462C430021CA
:1097A00067E70021CEE70021F4E7C046FF0700008D
:1097B000FFFF7FFFF0B5564644465F464D46F0B486
:1097C0001F1C0B031B0B98464B0087B0041C8146E3
:1097D0005B0DC80F161C9A460090002B51D06A4BA7
:1097E0009A4531D08022414652030A43630FD2008A
:1097F0001A43664B90460025E20091469A440024A5
:1098000002953B031B0B9B46FD0F7B00311C5B0D40
:10981000019560D05C4A934254D080215846490358
:109820000143720FC9001143584A8B469B18F1003F
:109830000020009A04436A4003920F2C00D9ADE047
:10984000534EA4003459A746404604436ED100212C
:1098500002250824884689460295D2E7009C029892
:10986000C34649460194022864D0032800D1ABE2E4
:10987000012800D038E2019A002402400025A146C8
:1098800060E0434623434AD04046002800D1C0E16F
:1098900001F0ACFA031E272B00DDB3E128210D1ADD
:1098A000211C083B4246E9409A400D1C1543221CEE
:1098B0009A40A8469146374B00251B1A9A46002429
:1098C00002959EE75A4616430320002EB1D1B346B7
:1098D00000210220ADE75A4632431BD05B46002BE5
:1098E00000D18AE1584601F081FA272800DD7DE1A8
:1098F0002822171A011C321C08395B46FA408B409B
:10990000171C1F43331C8B40BB46191C214B1B1AD1
:1099100000208EE70027BB460021012089E70020B8
:10992000012504248046814602956AE703250C241C
:10993000029566E7019C0394039D01222A400024BE
:10994000114DA146002000212403260B0C0D2405F7
:10995000114B34432D0523402B435B005B08D2079A
:10996000191C4846114307B03CBC90469946A24694
:10997000AB46F0BD0022802424039146024DE1E76E
:1099800000240025A146DDE7FF07000001FCFFFFE2
:10999000A0D800000DFCFFFFFFFF0F805546ED1A19
:1099A0000495D84500D953E100D14EE1049C00252F
:1099B000013C4E4604944746A946584603020C0E05
:1099C0001C430902250C23041B0C0091381C291C84
:1099D0000193FFF73FF9019983464143381C8A46BA
:1099E000291CFFF77BF9330C090419438A450CD96C
:1099F0005B460919013B8C4200D947E18A4500D8F2
:109A000044E102225242934409195346CB1A181CCE
:109A1000291C9846FFF71EF9071C0198291C78435A
:109A200082464046FFF75AF936040B04360C33439E
:109A30009A4509D91B197A1E9C4200D924E19A45FE
:109A400000D821E1023F1B195E4632041743380C4F
:109A5000BB46009E009F51463F0C32045B1A59469C
:109A6000BA46120C0F043F0C904651467A434F43BE
:109A70004146414356467043CF19160CBE19B142B8
:109A800002D980277F02C019310C12043604120C4F
:109A90004018B618834200D2C4E000D1BEE0191AC3
:109AA0004846861BB145BF417F42CF1BA74200D12C
:109AB00013E1291C381CFFF7CDF8019902904143AE
:109AC000381C8946291CFFF709F9330C090419438E
:109AD00089450CD9029B0919013B8C4200D9FFE052
