:100000000C9498010C94C0010C94C0010C94C00194
:100010000C94C0010C94C0010C94C0010C94C0015C
:100020000C94C0010C94C0010C94C0010C94C0014C
:100030000C94C0010C94C0010C94C0010C94C0013C
:100040000C94DD0F0C94C0010C94791F0C94531F79
:100050000C94C0010C94C0010C94C0010C94C0011C
:100060000C9453090C94C0014E414E494E495459C9
:10007000494E46CDCCCC3D0AD7233C17B7D1387773
:10008000CC2B329595E6241FB14F0A000020410089
:1000900000C84200401C4620BCBE4CCA1B0E5AAED3
:1000A000C59D7400407A10F35A00A0724E180900E2
:1000B00010A5D4E80000E87648170000E40B5402CD
:1000C0000000CA9A3B000000E1F505000080969808
:1000D00000000040420F000000A086010000001058
:1000E0002700000000E8030000000064000000009A
:1000F000000A00000000000100000000002C76D87B
:1001000088DC674F0823DFC1DFAE59E1B1B796E560
:10011000E3E453C63AE651997696E8E6C28426EBC4
:10012000898C9B62ED407C6FFCEFBC9C9F40F2BAD7
:10013000A56FA5F490055A2AF75C936B6CF9676D6F
:10014000C11BFCE0E40D47FEF520E6B500D0ED90C4
:100150002E0300943577050080841E080000204E91
:100160000A000000C80C333333330F986E1283112A
:1001700041EF8D2114893BE65516CFFEE6DB18D101
:10018000844B381BF77C1D901DA4BBE424203284D3
:10019000725E228100C9F124ECA1E53D27005EBC1E
:1001A000E2613FDD83C29C7E20A3FD1F419DC321F0
:1001B0007FFCA2401E5F01E3BD3E6082DC237D9F89
:1001C000C1421CFEA0E1BF5D0380DE3C62BEE002D6
:1001D0005CDF81633D7C22C09E1D43A1FF4618FA6F
:1001E000A427799BC584DA3866E5BB5907DB8567A8
:1001F00039BAE406581947A5FB7826C49A653BD955
:1002000087045AB8E6A7F91B45C6987A24F8A6448D
:100210001A99C7257B3A6486D85B05E7B98CD2303A
:100220006EEDB3510F4E10F2AC2F7193CD114FAD57
:10023000F3702ECC92D38D6F31B2EC0E50AFF11320
:100240004DCE90722C6D33D18F0C52B0EE326C8E3D
:10025000D0530DEFB1F0AE4C1291CF2D73CA9476FE
:1002600028ABF517490856B4EA6937D58B5709EB1F
:10027000B536688AD495CB2977F4AA4816E9B755DC
:100280000B88D6346A2B7597C94A14F6A8742AC805
:1002900096154BA9F7B6E80A54D7896B357C3C3ED6
:1002A0005E2B3D3F2F5B5D3B2C2A225C0000000053
:1002B00000230026002900040404040404040402AA
:1002C00002020202020303030303030102040810F3
:1002D00020408001020408102001020408102000C0
:1002E000000000240027002A00000000002500284C
:1002F000002B0000000008000201000003040700BA
:100300000000000000000020204F72703D200020FF
:100310002045633D2000202044303D200020205413
:10032000656D703D200050683D2000005E204A2031
:1003300011241FBECFEFD8E0DEBFCDBF26E0ACE476
:10034000B2E001C01D92A539B207E1F712E0A0E0CA
:10035000B1E0E6E9FAE502C005900D92AC34B107D0
:10036000D9F711E0C7E9D1E004C02197FE010E944E
:10037000102BC639D107C9F70E9437220C943E2DA5
:100380000C940000DC015996ED91FC915A9730973E
:10039000B9F083899489A589B68942855385648596
:1003A0007585841B950BA60BB70B811520E892076A
:1003B000A105B10538F08FEF9FE7A0E0B0E0089508
:1003C00080E090E00895CF93DF931F92CDB7DEB722
:1003D0006983DC01ED91FC910280F381E02D41E025
:1003E00050E0BE016F5F7F4F09950F90DF91CF9175
:1003F000089585ED8093BC008091BC0084FDFCCF06
:1004000010926C06089540916E02262F30E0240F62
:10041000311D21323105DCF420916C062430C9F401
:10042000FC0180E090E0861758F430916E02219133
:10043000DC01A45BBD4FA30FB11D2C930196F3CF3C
:1004400080916E02680F60936E0280E0089581E0F3
:10045000089582E008950895E0916E0680916D06FA
:10046000E81730F4F0E0E159F94F808190E0089509
:100470008FEF9FEF089590916E0680916D0698170B
:1004800050F4E92FF0E0E159F94F208130E09F5F0F
:1004900090936E0602C02FEF3FEFC901089580913F
:1004A0006D0690E020916E06821B91090895CF920F
:1004B000DF92EF92FF920F931F93CF93DF937C0114
:1004C000262F972F8A0180912306882391F0C62F2B
:1004D000D72F6E01C40ED51ECC15DD0571F06991C4
:1004E000D701ED91FC910190F081E02DC7010995B4
:1004F000F3CF642F822F0E940302C801DF91CF91B6
:100500001F910F91FF90EF90DF90CF900895CF93C0
:10051000DF931F92CDB7DEB7698320912306222394
:10052000D1F020914506203240F021E030E0FC017E
:100530003383228380E090E015C080912406E82F69
:10054000F0E0EB5DF94F998190838F5F80932406F3
:100550008093450605C061E0CE0101960E9403022A
:1005600081E090E00F90DF91CF910895CF93DF93DA
:10057000EC01898D9A8D009739F481E090E09B839E
:100580008A8380E090E00BC0FC01138212820E94FB
:100590006718E98DFA8D22813381232B71F7DF9162
:1005A000CF910895CF93DF93EC018D818823A1F142
:1005B0008C8187FF2DC06E857F858889998941E070
:1005C0000E94DA14882341F1EA8980E2E89FF00171
:1005D0001124DF01AE50BD4F1097F1F08D818230B4
:1005E00050F44B895C896D897E895C964D935D934F
:1005F0006D937C935F978F89988DA98DBA8DEE50FE
:10060000FD4F938F828FB58BA48B8C818F778C83DA
:10061000DF91CF910C949F1480E0DF91CF910895EA
:10062000FC01818D928D009711F00C94D2020895F7
:100630008F929F92AF92BF92CF92DF92EF92FF92F2
:100640000F931F93CF93DF93EC018D81811102C033
:1006500080E077C00B891C892D893E890417150716
:1006600026073707A8F36A017B01823029F4CA867E
:10067000DB86EC86FD860DC0C114D104E104F104D3
:1006800051F41E821F82188619861A861B861C86C4
:100690001D8681E056C08A849B84AC84BD84EB8D2A
:1006A000FC8D258530E0275F3F4FB501A401415007
:1006B000510961097109022E04C076956795579515
:1006C00047950A94D2F7D701C6010197A109B1094C
:1006D00004C0B695A795979587952A95D2F7841764
:1006E0009507A607B70720F089288A288B2849F4A0
:1006F0004F89588D698D7A8D4E835F83688779879E
:1007000004C0841B950BA60BB70B4C015D018E0139
:100710000A5F1F4F81149104A104B10409F4A7CF0B
:100720004E815F816885798598018B8D9C8D0E94B3
:10073000C31591E0891A9108A108B1088111EACF87
:1007400087CFDF91CF911F910F91FF90EF90DF90B6
:10075000CF90BF90AF909F908F9008958F929F926F
:10076000AF92BF92CF92DF92EF92FF920F931F93BF
:10077000CF93DF9300D000D0CDB7DEB77C0180E20D
:10078000689F6001112496012E503D4FD9011B96A0
:100790009C91917121F0842F827409F097C0142FDD
:1007A000F701628B8091000190910101A0910201FB
:1007B000B091030186879787A08BB18BF601EE502D
:1007C000FD4F4489558960E070E0BA015527442700
:1007D000D70157964D935D936D937C935A97828D75
:1007E000938DA0E0B0E0482B592B6A2B7B2BD701CF
:1007F00057964D935D936D937C935A97D9011B96B1
:100800008C91887159F4848D958DA68DB78DF701E3
:10081000838B948BA58BB68B81E012C0803109F05D
:1008200055C097012D5E3F4FD7015B968D919C91EE
:100830005C970E944716882309F448C084E0F701BA
:100840008583812F8F70D70114968C931497F701AD
:1008500016821782108611861A961D921D921D927D
:100860001C921D9716FF34C015968C91813071F53E
:1008700011FF2CC0F7014389548965897689452B7E
:10088000462B472B09F461C040E050E0BA01C70194
:100890000E9418038823D1F0F7018788908CA18CDF
:1008A000B28CC38CD48C82E090E0A0E0B0E0F60182
:1008B00080839183A283B3839E012F5F3F4FB50155
:1008C000A401C6010E94C315811104C080E03DC08F
:1008D00081E03BC000E010E09801B501A401C60131
:1008E0000E942315882391F389809A80AB80BC8075
:1008F000D60157968C91803129F088EF9FEFAFEFAA
:10090000BFE004C088EF9FEFA0E0B0E08816990632
:10091000AA06BB0688F2D70157961D921D921D921A
:100920001C925A97F701138A148A158A168A8481B1
:1009300080688483C7010E94D202882339F240E094
:1009400050E0BA01C7010E9418030F900F900F905A
:100950000F90DF91CF911F910F91FF90EF90DF905B
:10096000CF90BF90AF909F908F900895CF93DF93DB
:10097000EC010E94D202882311F01D8281E0DF91F8
:10098000CF9108953F924F925F926F927F928F9294
:100990009F92AF92BF92CF92DF92EF92FF920F930E
:1009A0001F93CF93DF93CDB7DEB72C970FB6F89494
:1009B000DEBF0FBECDBF5C01DC015B968D909C90CD
:1009C0005C971696CD90DD90ED90FC901997C11430
:1009D000D104E104F10439F0BFEFCB1ADB0AEB0AD2
:1009E000FB0A312C07C0F401C080D180E280F38083
:1009F00033243394F40181859285A385B4859C01C9
:100A0000AD012F5F3F4F4F4F5F4F29873A874B878D
:100A10005C87260137011D821E821F821886F40121
:100A200081859285A385B4852D813E814F8158852E
:100A3000281739074A075B0708F063C089859A853C
:100A4000AB85BC858C159D05AE05BF0550F482E0D5
:100A5000C82ED12CE12CF12C92E0492E512C612C86
:100A6000712C9E012F5F3F4FB701A601C4010E9468
:100A7000C315882309F445C089819A81AB81BC8163
:100A8000892B8A2B8B2B41F0260137019FEF491AC6
:100A9000590A690A790A05C0C414D504E604F704A2
:100AA00091F02D813E814F8158852F5F3F4F4F4FF1
:100AB0005F4F2D833E834F8358873FEFC31AD30A7E
:100AC000E30AF30AACCF0FEF1FEF2FEF3FE0B301C4
:100AD000A201C4010E942315882399F0D50116961E
:100AE0004D915D916D917C9119974115510561056D
:100AF000710549F093018201C4010E9423158111FF
:100B000002C080E02AC0D50116964D925D926D928A
:100B10007C921997332051F0D301C2010196A11D97
:100B2000B11DF40180839183A283B383F50187898A
:100B3000908DA18DB28D892B8A2B8B2B69F4D501D9
:100B400057964D925D926D927C925A9714968C9125
:100B50001497806814968C9381E02C960FB6F894C5
:100B6000DEBF0FBECDBFDF91CF911F910F91FF90E0
:100B7000EF90DF90CF90BF90AF909F908F907F903D
:100B80006F905F904F903F9008958FB7F894809149
:100B900094028FBF089561E0FC0184810E94AB1F25
:100BA0008091930281111092930208958EBD0000EE
:100BB0000DB407FEFDCF8EB508958FEF0C94D605CA
:100BC0000F931F93CF93DF93EB010E94C70A8B0112
:100BD0000E94DD058F3F49F00E94C70A601B710B20
:100BE0006C177D07A8F380E001C081E0DF91CF9111
:100BF0001F910F910895CF93DF93EC018E8188238D
:100C000089F08F8198859C012F5F3F4F38872F8314
:100C10008230924018F40E94DD05F3CFCE010E948D
:100C2000CB051E82DF91CF9108958CBD9DBD0895A7
:100C3000CF93DF93EC0180919302811109C081E091
:100C40008093930280919105909192050E941506E0
:100C500060E08C81DF91CF910C94AB1FCF92DF923B
:100C6000FF920F931F93CF93DF9300D000D0CDB7A7
:100C7000DEB76C01F62E29833A834B835C830E9496
:100C8000FB05C6010E9418066CE271E0C6010E94D5
:100C9000E0058F2D80640E94D60508E110E05C819C
:100CA0004B813A812981DA01C901002E04C0B69531
:100CB000A795979587950A94D2F729833A834B8312
:100CC0005C830E94D6050850110929813A814B8125
:100CD0005C81083F8FEF180731F7FF2029F0E8E02B
:100CE000FE1204C087E803C085E901C08FEF0E94AF
:100CF000D60510E00E94DD05F601828787FF04C05B
:100D00001F3F11F01F5FF6CF0F900F900F900F90C5
:100D1000DF91CF911F910F91FF90DF90CF900895B9
:100D2000AF92BF92CF92DF92EF92FF920F931F93F9
:100D3000CF93DF93EC016901C801820F931F8130CB
:100D4000924008F070C08E81882371F0888199816B
:100D5000AA81BB81481759076A077B0729F48F814D
:100D60009885C816D906B0F5488359836A837B8372
:100D70008B85833039F089E0440F551F661F771F3C
:100D80008A95D1F79A01AB0161E1CE010E942E064E
:100D9000882319F083E08D8346C00E94C70A5B0157
:100DA0000E94DD058A878F3F49F40E94C70A6A19AD
:100DB0007B096D327140A0F38FE003C08E3F31F0AC
:100DC0008DE08D83CE010E94CB052DC018861F8239
:100DD00081E08E838F8198858C159D0540F40E945B
:100DE000DD058F819885019698878F83F3CF670102
:100DF000E00EF11ECE14DF0431F00E94DD05F60195
:100E000081936F01F7CF8F819885080F191F18877D
:100E10000F838985882319F00115124048F0CE010F
:100E20000E94FB0505C0CE010E94CB0580E001C0F9
:100E300081E0DF91CF911F910F91FF90EF90DF90B4
:100E4000CF90BF90AF900895EF92FF920F931F93B2
:100E5000CF93DF93EC0179014115510561057105CF
:100E600011F482E13CC08B85833039F089E0440F76
:100E7000551F661F771F8A95D1F79A01AB0168E16C
:100E8000CE010E942E06882311F084E028C08EEF48
:100E90000E94D60587018EEFF81AF80181918F0123
:100EA0000E94D6050E151F05C1F78FEF0E94D605CB
:100EB0008FEF0E94D6050E94DD058A878F718530ED
:100EC00031F081E18D83CE010E94CB0509C068E538
:100ED00072E0CE010E94E005811107C085E18D839B
:100EE000CE010E94CB0580E013C020E030E0A901D4
:100EF0006DE0CE010E942E06811104C00E94DD0526
:100F0000882311F084E1EBCFCE010E94CB0581E074
:100F1000DF91CF911F910F91FF90EF900895FC0109
:100F2000DB0112968D919C911397938382838EE1BE
:100F300091E09183808314968C9114978483159605
:100F40008C911597858316964D915D916D917C914D
:100F5000199746835783608771871A964D915D91E3
:100F60006D917C911D9742875387648775871E9684
:100F70004D915D916D917C91519746875787608B1C
:100F8000718B52968C915297828B53964D915D91B5
:100F90006D917C915697438B548B658B768B5796CE
:100FA0004D915D916D917C915A97478B508F618FD8
:100FB000728F5B968D919C915C97948F838F08952F
:100FC000EF92FF920F931F93CF93DF93EC017B017E
:100FD0008A011B821A8288EE93E0A0E0B0E08C8345
:100FE0009D83AE83BF8388E691E0998388838DE1FA
:100FF00090E00E94162B9A8F898F009779F02DE14F
:10100000F701DC0101900D922A95E1F74CE050E0E8
:10101000B801CE010C960E942F2D188EDF91CF9132
:101020001F910F91FF90EF9008952F923F924F9252
:101030005F926F927F928F929F92AF92BF92CF9268
:10104000DF92EF92FF920F931F93CF93DF9300D025
:10105000CDB7DEB7FC018581882309F4D9C084812E
:1010600080FFD6C021E02A83438954896589768927
:1010700082859385A485B585481759076A077B073C
:1010800009F41A826F013A81832F90E0DE011196F4
:101090004D013F01B6E06B0E711C892B09F47DC038
:1010A000D6011A964D915D916D917C911D975A01D3
:1010B000B1E0BB22F60125811A012B0189E056948B
:1010C0004794379427948A95D1F7838D948D223055
:1010D00061F4FC01828D938DA48DB58DBC01CD0191
:1010E000620D731D841D951D45C0DC0114961C9175
:1010F00011501221A114B104D1F4111118C0452BC3
:10110000462B472B51F4F6018789908DA18DB28D26
:1011100086839783A087B1870AC0468157816085FF
:10112000718593010E94C315882309F471C0F601EB
:10113000238D348D86819781A085B1850297A10981
:10114000B109AC01BD01F901058404C0440F551F6C
:10115000661F771F0A94D2F786859785A089B18983
:10116000840F951FA61FB71FBC01CD01610F711D14
:10117000811D911DD60114962C9126FF14C000915B
:1011800000011091010120910201309103016017CB
:1011900071078207930751F506C0FA81FF23C1F159
:1011A000898190E037C040E00E94DA14882381F101
:1011B000F501EE50FD4FD401CF010196E817F90774
:1011C00019F021912D93FACFEFEF8E1A9E0AF601B6
:1011D00082859385A485B5850196A11DB11D828761
:1011E0009387A487B58780E090E057CF740101E032
:1011F00010E09501AB01BC018091F2049091F304E1
:101200000E949006882321F0BFEF8B1A9B0ADFCF44
:101210008FEF9FEF0F900F90DF91CF911F910F9164
:10122000FF90EF90DF90CF90BF90AF909F908F9006
:101230007F906F905F904F903F902F900895FC01AA
:10124000818D928D009711F00C9415088FEF9FEF10
:1012500008950F931F93CF93DF93FC01818D928D9F
:101260000097B9F0EF010E9415088C010F3F8FEF36
:10127000180791F0898D9A8DFC014285538564850C
:10128000758541505109610971090E941803C8010F
:1012900005C080E090E002C08FEF9FEFDF91CF911B
:1012A0001F910F9108951F920F920FB60F92112464
:1012B0002F933F934F935F936F937F938F939F935E
:1012C000AF93BF93EF93FF938091B900887F8036EF
:1012D00009F49CC068F5883209F45BC090F4803151
:1012E00009F454C038F4882309F4F6C0883009F4AE
:1012F0004DC0F6C0883109F44CC0803209F45DC09D
:10130000EFC0803409F468C048F4803309F455C054
:10131000883309F0E5C080936A06D8C0803509F4A7
:101320004FC0883509F45DC0883409F0D9C0D6C0F3
:10133000883909F4C7C0A8F4883709F467C038F4BD
:10134000883609F463C0803709F460C0C9C08838A2
:1013500009F4B8C0803909F45FC0803809F0C0C012
:101360005BC0803B09F486C038F4803A09F466C05B
:10137000883A09F47FC0B4C0803C09F4A7C0883C17
:1013800009F4A4C0883B09F48AC0AAC0809167060A
:1013900010C09091690680916806981770F5E091E9
:1013A000690681E08E0F80936906F0E0EA5BF94FF1
:1013B00080818093BB0085EC86C080936A068EC0D6
:1013C000E091690681E08E0F809369068091BB00F1
:1013D000F0E0EA5BF94F808390916906809168069E
:1013E0006EC0E091690681E08E0F8093690680915E
:1013F000BB00F0E0EA5BF94F808380916B068111BE
:101400006DC081E08093660684EA61C083E08093CA
:101410006C0610929202CFCF80919202803208F037
:1014200051C0E091920281E08E0F809392028091F0
:10143000BB00F0E0EE58FD4F8083BDCF85EC80937C
:10144000BC0010926C0680919202803230F4E091E0
:101450009202F0E0EE58FD4F10826091920270E02F
:10146000E0917002F091710282E792E0099510928A
:10147000920236C084E080936C0610926F02109244
:101480006E02E0916C02F0916D02099580916E02FE
:10149000811105C081E080936E0210924C02E091B0
:1014A0006F0281E08E0F80936F02F0E0E45BFD4FEE
:1014B00080818093BB0090916F0280916E0298179B
:1014C00008F479CF85E88093BC000AC085EC80934E
:1014D000BC0010926C0604C010926A060E94F901CA
:1014E000FF91EF91BF91AF919F918F917F916F91FC
:1014F0005F914F913F912F910F900FBE0F901F90D2
:101500001895FC01648175818681978108950895FD
:1015100060E070E0CB010895FC01648975898689DB
:10152000978908950F931F93CF93DF93CDB7DEB7BD
:10153000A7970FB6F894DEBF0FBECDBFCB01BA019F
:101540001BA21AA21DA21CA21FA21EA28E010F5F27
:101550001F4F2AE04CE00E942124BC01CE0182965C
:101560000E94DE1DCE0182960E94AA1DCE018296A7
:101570000E94FF1D0E94A21DA7960FB6F894DEBF21
:101580000FBECDBFDF91CF911F910F9108952FB75F
:10159000F8946091AB027091AC028091AD02909191
:1015A000AE022FBF08958F929F92AF92BF92CF92BB
:1015B000DF92EF92FF920F931F93CF93DF931F92CF
:1015C000CDB7DEB78C010E94C70AD8011E96CD9018
:1015D000DD90ED90FC905197DC01CB018C199D09B9
:1015E000AE09BF09F801C284D384E484F5848C1564
:1015F0009D05AE05BF0508F45EC10E94C70AD8016B
:101600001E966D937D938D939C93519718968D9113
:101610009C9119970E946914F801808591850E9418
:10162000311D40E06EEBD80118968D919C91199771
:101630000E9427142AE9822E22E0922EF801A0842B
:10164000B18498E0C92ED12CEE24E394F12CC5018D
:101650000E94D4138111FE28EE0CF1E0CF1AD108BC
:10166000B1F7D401FD924D01B3EA8B16B2E09B06AF
:1016700029F7D8011896ED91FC91199713861586D4
:101680001486DF011B9633961E92AE17BF07E1F753
:1016900060919B0270E0762F662780919A02682BFA
:1016A000072E000C880B990B0E94652820E030E083
:1016B00040E85DE30E94C42860939602709397020D
:1016C0008093980290939902F801648375838683CE
:1016D0009783A084B184D5011D968C91811163C03C
:1016E000C5010E946914882309F45DC040E060EFE1
:1016F000C5010E942714EE24E394D12CC12CFF24B1
:10170000F394C5010E94D413682FC50169830E9418
:10171000D4136981613019F48130D1F437C02D2D93
:1017200030E068131EC0D5011B968C91F81638F472
:10173000F501E20FF31F83818E2151F402C0F816E8
:1017400039F060E0B8E0BF1558F0F501F48608C044
:10175000F501ED0DF11D83818E29838361E009C0C0
:10176000CF2CF501E20FF31F93818E2D80958923F5
:101770008383C5010E94F813F394EE0C19F4D394FB
:10178000EE24E394F7E0FD1508F0BBCF80E48F155D
:1017900050F4D5011B96CC921B97C1101EC081E05E
:1017A0001D968C931AC0F50113861586148662EC7B
:1017B00071E084EF94E00E943F1FD8011896ED91EC
:1017C000FC911997138615861486DF011B963396B4
:1017D0001E92AE17BF07E1F76EC0F5018381882323
:1017E00011F3D5011396EAEEF2E08D91819382E038
:1017F000E23FF807D1F7AAEEB2E0E0E0CD01895F61
:101800008A1739F09D91E927F0E0E356FE4FE49105
:10181000F7CF8091F102E81799F066E971E084EF63
:1018200094E00F90DF91CF911F910F91FF90EF9077
:10183000DF90CF90BF90AF909F908F900C943F1F00
:101840008091EA028031A9F0883299F068EA71E06B
:1018500084EF94E00F90DF91CF911F910F91FF9053
:10186000EF90DF90CF90BF90AF909F908F900C94AF
:101870002A1FD80118968D919C9119970E9469147E
:10188000F801808591850E94311D41E064E4D80112
:1018900018968D919C9119970F90DF91CF911F9180
:1018A0000F91FF90EF90DF90CF90BF90AF909F90FF
:1018B0008F900C9427140F90DF91CF911F910F916F
:1018C000FF90EF90DF90CF90BF90AF909F908F9060
:1018D0000895CF92DF92EF92FF920F931F93CF93D1
:1018E000DF93CDB7DEB7A1970FB6F894DEBF0FBE7A
:1018F000CDBF8C010E94C70AD8019196CD90DD9092
:10190000ED90FC909497DC01CB018C199D09AE09F8
:10191000BF09813D9740A105B10508F45BC16CEE9C
:1019200071E08FE096E00E94DE1D8091FC059091B1
:10193000FD051D8E1C8E1F8E1E8E19A218A24AE058
:10194000BE016F5F7F4F0E945024BE016F5F7F4FCB
:10195000CE014C960E94DE1DCE014C960E94AA1D1F
:10196000CE014C960E94FF1D0E94A21D4AE060918C
:10197000FE05CE0101960E94FD1ECE0101960E9439
:10198000AA1DCE0101960E94FF1D0E94A21D4AE0E1
:101990006091FF05CE0101960E94FD1ECE010196C9
:1019A0000E94AA1DCE0101960E94FF1D0E94A21D49
:1019B0004AE060910106CE0101960E94FD1ECE0113
:1019C00001960E94AA1DCE0101960E94FF1D0E9451
:1019D000A21D4AE060910206CE0101960E94FD1E02
:1019E000CE0101960E94AA1DCE0101960E94FF1D04
:1019F0000E94A21D4AE060910306CE0101960E945A
:101A0000FD1ECE0101960E94AA1DCE0101960E94E4
:101A1000FF1D0E94A21DD8011496ED91FC9115970F
:101A200080819181009751F0DC01ED91FC9104805F
:101A3000F581E02D0995AB01BC0103C040E050E009
:101A4000BA01C8010E94920AD8011496ED91FC9146
:101A5000159782819381009751F0DC01ED91FC9103
:101A60000480F581E02D0995AB01BC0103C040E085
:101A700050E0BA01C8010E94920AD8011496ED9173
:101A8000FC91159784819581009751F0DC01ED91CF
:101A9000FC910480F581E02D0995AB01BC0103C0E8
:101AA00040E050E0BA01C8010E94920AD8011496A1
:101AB000ED91FC91159786819781009751F0DC019B
:101AC000ED91FC910480F581E02D0995AB01BC01FD
:101AD00003C040E050E0BA01C8010E94920AD80158
:101AE0001496ED91FC91159780859185009751F0A2
:101AF000DC01ED91FC910480F581E02D0995AB01AD
:101B0000BC0103C040E050E0BA01C8010E94920A43
:101B1000CE0101960E94B71C8B819C81F8019187B0
:101B200080878D819E81AF81B88582879387A487C6
:101B3000B58789859A85AB85BC8586879787A08B75
:101B4000B18B8DE0FE013D96D801529601900D9229
:101B50008A95E1F7EA8DFB8DD8019096FC93EE9380
:101B60005F97309771F18581882359F11696ED9131
:101B7000FC911797409113065091140660910F063F
:101B8000709110060280F381E02D7801B6E0EB0E33
:101B9000F11CC70109956AEE71E0C7010E942A1F76
:101BA000F801878D90A1009761F00E94B604D801DA
:101BB0005F968D919C9190970E94AB2BF80110A29B
:101BC000178E0E94C70AD80191966D937D938D93CD
:101BD0009C939497A1960FB6F894DEBF0FBECDBF2D
:101BE000DF91CF911F910F91FF90EF90DF90CF90F9
:101BF00008958F929F92AF92BF92CF92DF92EF9211
:101C0000FF920F931F93CF93DF93CDB7DEB76B9700
:101C10000FB6F894DEBF0FBECDBF8C0161E08AE045
:101C20000E94F71FD80112968C9110929E05109277
:101C30009C051092990510929805809397050E9433
:101C4000C70A4B015C0161E0809197050E94F71F74
:101C500061E0809197050E94AB1FFFB6F8948091D8
:101C60009502811127C0E1ECF2E08491E5EDF2E00C
:101C70009491E82FF0E0EE0FFF1FE152FD4FA59188
:101C8000B491EC91E92321F461E08AE00E94AB1F5A
:101C900061E08AE00E94F71F8CB580618CBD8CB535
:101CA00080648CBD61E08DE00E94F71F61E08BE0F5
:101CB0000E94F71F809195028F5F80939502FFBE6F
:101CC00082E5809391051092920580919105909103
:101CD00092050E9415065AE0F52E8FEF0E94D60558
:101CE000FA94F110FACF83E995E00E94180620E0FB
:101CF00030E0A90160E083E995E00E942E06F82E0D
:101D000080939D05E1E08E1749F00E94C70A68198B
:101D10007909613D774058F381E056C02AEA31E005
:101D200040E050E068E083E995E00E942E0682FFE3
:101D300003C0F0929E0510C044E0F42E0E94DD0521
:101D400080939D05FA94F110F9CF8A3A11F082E060
:101D50003BC082E080939E0580919E05823021F0F9
:101D6000C12CD12C760105C0C12CD12CE12C30E442
:101D7000F32E20E030E0A90167E383E995E00E94BB
:101D80002E06A701960169E283E995E00E942E06DE
:101D900080939D05882349F00E94C70A6819790934
:101DA000613D774030F388E00FC080919E0582301E
:101DB00001F520E030E0A9016AE383E995E00E94A3
:101DC0002E06882341F086E08093980583E995E00C
:101DD0000E94CB05DFC00E94DD05807C803C19F4A9
:101DE00083E080939E050E94DD050E94DD050E9430
:101DF000DD0583E995E00E94CB0580E580939105A0
:101E00001092920581E00E94881B882329F080911E
:101E1000C205882341F0BEC080E00E94881B882351
:101E200009F4B8C0F4CF8091B605803109F582E09D
:101E30008093C2051092D4051092D5051092D60554
:101E40001092D7058091B7059091B805A0E0B0E059
:101E500025E0880F991FAA1FBB1F2A95D1F78093F1
:101E6000D0059093D105A093D205B093D3051FC0A0
:101E7000803209F08FC083E08093C2054091B9059C
:101E80005091BA056091BB057091BC054093D40593
:101E90005093D5056093D6057093D70520ED35E0B6
:101EA0008FE995E00E944716882309F473C08FE9F3
:101EB00095E09093D9058093D80581E08093C10582
:101EC0001092C3051092C4051092C5051092C60564
:101ED0001092C7051092C8051092C9051092CA0544
:101EE0001092CB051092CC051092CD051092CE0524
:101EF0001092CF05CE0101960E94B71C8B819C8168
:101F0000D80119969C938E9318978D819E81AF81ED
:101F1000B885F80182879387A487B58789859A85D4
:101F2000AB85BC8586879787A08BB18B8DE0FE0142
:101F30003D96D801529601900D928A95E1F7EA8D6F
:101F4000FB8DD8019096FC93EE935F97309711F13B
:101F500085818823F9F082859385A485B585892BB1
:101F60008A2B8B2BB9F46DEE71E0C80106960E94A6
:101F70003F1FF801878D90A1009761F00E94B60481
:101F8000D8015F968D919C9190970E94AB2BF801A0
:101F900010A2178E6B960FB6F894DEBF0FBECDBFA2
:101FA000DF91CF911F910F91FF90EF90DF90CF9035
:101FB000BF90AF909F908F9008951F920F920FB691
:101FC0000F9211242F933F938F939F93AF93BF93BF
:101FD0008091AB029091AC02A091AD02B091AE02A3
:101FE0003091AA0223E0230F2D3720F40196A11D82
:101FF000B11D05C026E8230F0296A11DB11D209337
:10200000AA028093AB029093AC02A093AD02B0936E
:10201000AE028091A6029091A702A091A802B09171
:10202000A9020196A11DB11D8093A6029093A7025B
:10203000A093A802B093A902BF91AF919F918F91F5
:102040003F912F910F900FBE0F901F901895FC019C
:10205000648575858685978508950895FC0164815A
:102060007581868197810895FC01608571858285DF
:1020700093850895AF92BF92CF92DF92EF92FF9235
:102080000F931F93CF93DF93EC018091E2028111B4
:102090000DC00E94C70A6093DE027093DF02809336
:1020A000E0029093E10281E08093E2028091D60207
:1020B00081110DC00E94C70A6093D2027093D302AF
:1020C0008093D4029093D50281E08093D6020E943F
:1020D000C70A0091DE021091DF022091E0023091E8
:1020E000E102AB01BC01401B510B620B730B8885F5
:1020F0009985092E000CAA0BBB0B84179507A60720
:10210000B70708F078C00E94C70A6093DE02709398
:10211000DF028093E0029093E1020091D0021091DF
:10212000D10278018FEFE81AF80AF092D102E0921A
:10213000D0028A810E943320F8013596EE0FFF1FEE
:10214000EC0FFD1F91838083E5E0EE16F10409F0AA
:1021500052C01092D1021092D002C8A0D9A0EAA019
:10216000FBA08E01065F1F4F5E01F4E1AF0EB11CB4
:10217000F801619171918F01072E000C880B990B6A
:102180000E9465289B01AC01C701B6010E94D729B6
:102190006B017C010A151B0559F720E030E040EA8D
:1021A00050E40E94432A6C8F7D8F8E8F9F8F18A2E0
:1021B00019A21AA21BA220E030E040EA50E40E94DB
:1021C000C42820E030E040E85AE30E94C428688F29
:1021D000798F8A8F9B8F20E030E040E650E40E94A8
:1021E000C4282C813D814E815F810E94D7296C8B50
:1021F0007D8B8E8B9F8BDF91CF911F910F91FF90E5
:10220000EF90DF90CF90BF90AF9008954F925F9284
:102210006F927F928F929F92AF92BF92CF92DF92F6
:10222000EF92FF920F931F93CF93DF93EC01809176
:10223000C80281110DC00E94C70A6093C402709346
:10224000C5028093C6029093C70281E08093C802C2
:102250008091BC0281110DC00E94C70A6093B80230
:102260007093B9028093BA029093BB0281E080938D
:10227000BC020E94C70A0091C4021091C5022091BD
:10228000C6023091C702601771078207930708F4EE
:10229000A1C00E94C70ADC01CB014496A11DB11D5B
:1022A0008093C4029093C502A093C602B093C70264
:1022B0000091B6021091B70278018FEFE81AF80A80
:1022C000F092B702E092B6028A810E943320F801B0
:1022D0003896EE0FFF1FEC0FFD1F91838083E5E022
:1022E000EE16F10409F076C01092B7021092B60211
:1022F000CA8CDB8CEC8CFD8C8E01005F1F4F5E0165
:10230000FAE1AF0EB11CF801619171918F01072EB6
:10231000000C880B990B0E9465289B01AC01C7013A
:10232000B6010E94D7296B017C010A151B0559F7DC
:1023300020E030E040EA50E40E94432A4B015C0177
:102340006EA37FA388A799A71A8E1B8E1C8E1D8E45
:10235000CC80DD80EE80FF8020E030E040EF51E473
:10236000C701B6010E94C42820E030E04AE754E4E7
:102370000E94C4282B013C0120E030E046E952E4F1
:10238000C501B4010E94C428A70196010E94C42877
:1023900020E030E04AE754E40E94C42820E030E026
:1023A00040E85AE30E94C4289B01AC01C301B2017A
:1023B0000E94D62920E030E046E952E40E94432AF8
:1023C000288539854A855B850E94D6296C877D875B
:1023D0008E879F87DF91CF911F910F91FF90EF9094
:1023E000DF90CF90BF90AF909F908F907F906F9035
:1023F0005F904F9008958F929F92AF92BF92CF922D
:10240000DF92EF92FF920F931F93CF93DF93EC0134
:102410000E94C70A0AA11BA12CA13DA1DC01CB018E
:10242000801B910BA20BB30B0EA51FA528A939A9E0
:1024300080179107A207B30708F449C00E94C70A92
:102440006AA37BA38CA39DA30C891D89C801019657
:102450009D8B8C8B8A810E943320F8013596EE0F7C
:10246000FF1FEC0FFD1F918380838C899D89059749
:1024700071F51D8A1C8ACE88DF88E88CF98C8E0164
:10248000065F1F4F5E0184E1A80EB11CD8016D915B
:102490007D918D0180E090E00E9463289B01AC015A
:1024A000C701B6010E94D7296B017C010A151B05E3
:1024B00069F720E030E040EA50E40E94432A0E949D
:1024C000B52A7F8F6E8F1E8A1F8A188E198E0E94E2
:1024D000C70A0EA11FA128A539A5DC01CB01801BCD
:1024E000910BA20BB30B0AA91BA92CA93DA980171C
:1024F0009107A207B30708F4BCC00E94C70A6EA3E5
:102500007FA388A799A76E8D7F8D80E090E00E94C1
:10251000632820E030E44CE955E40E94C42820E020
:1025200030E040E85AE30E94C4280E94B52A79A30B
:1025300068A388859985DC01ED91FC910480F58183
:10254000E02D09956B017C0188A199A1BC0180E077
:1025500090E00E9463284B015C0120E030E048ECF1
:1025600051E4C701B6010E94D62920E53DE847E9BC
:102570005CE30E94C42820E030E040E85FE30E9472
:10258000D7299B01AC01C501B4010E94432A6B010C
:102590007C0120E030E046E153E40E945E2887FFA2
:1025A00005C01C821D821E821F8263C020E030E4B1
:1025B0004EE455E4C701B6010E94E42A18164CF413
:1025C00080E090E0A0EAB1E48C839D83AE83BF837A
:1025D00050C020E030E040EE53E4C701B6010E9455
:1025E0005E2818166CF028E431EE4AED50E4C7017D
:1025F000B6010E94C42827ED33EA40E852E416C031
:1026000020E030E246EB54E4C701B6010E945E28A8
:1026100018167CF029E23CE54FED50E4C701B60105
:102620000E94C42820E030E04EEF52E40E94D629F8
:102630000EC02AE939E949EA50E4C701B6010E940F
:10264000C42820E030E64EE055E40E94D7296C8390
:102650007D838E839F8320E030E04AE754E46C81E1
:102660007D818E819F810E94432A6C837D838E832E
:102670009F83DF91CF911F910F91FF90EF90DF909B
:10268000CF90BF90AF909F908F90089560E0FC0135
:1026900082810C94F71FCF93DF93EC0160E08A8175
:1026A0000E94F71F1B861A861D861C861F861E86A3
:1026B000198A188A1B8A1A8ADF91CF910895EF929E
:1026C000FF920F931F93CF93DF9300D0CDB7DEB768
:1026D0008C0184EF94E00E94511E18161906B4F480
:1026E00084EF94E00E942F1EF82E89831A8241E025
:1026F00050E0BE016F5F7F4FC80102960E94741DBB
:102700008DE0F81203C081E08093B5028091B5029C
:102710008823A1F17801A2E0EA0EF11CF80186817C
:102720009781892B29F00280F381E02D309721F4E5
:102730001092B402E4EBF2E02081022E000C330B85
:10274000205331092A30310590F4D80112968D9129
:102750009C911397009719F00E94412403C060E0F8
:1027600070E0CB01F80160877187828793876CEEF8
:1027700071E0C7010E94DE1D1092B5020F900F900C
:10278000DF91CF911F910F91FF90EF900895CF931C
:10279000DF93EC010E944B1A6EE170E0CE010296CD
:1027A000DF91CF910C944D1DFC0190810180F2814D
:1027B000E02DF8948181892B81832281892F809556
:1027C00028232283A7E0B0E01197F1F7218182232B
:1027D0008183A3E2B0E01197F1F780817894EFEC68
:1027E000F0E03197F1F7982381E009F480E0089553
:1027F000FC0190810180F281E02D892F809560FF9E
:1028000012C0F8942281822382838181892B818363
:10281000A3E2B0E01197F1F78281982B928378942C
:1028200087ED90E011C0F894228182238283818118
:10283000892B8183AFEFB0E01197F1F78281982B5C
:10284000928378948FE090E00197F1F70895CF920A
:10285000DF92EF92FF920F931F93CF93DF931F921C
:10286000CDB7DEB76C01E62E08E010E0FF24F3944C
:1028700061E08F2D8E2109F460E0C60149830E943A
:10288000F813FF0C0150110949810115110581F759
:10289000411115C0F894D6011196ED91FC91129753
:1028A00091818C918095892381831196ED91FC9182
:1028B000129792818C9180958923828378940F90CE
:1028C000DF91CF911F910F91FF90EF90DF90CF900C
:1028D0000895FC0190810180F281E02DF8948181BE
:1028E000292F20958223818378948DE743E050E05F
:1028F000815021F1DA011197F1F730813923C1F3C9
:10290000F8948281822382838181892B81837894C8
:10291000ABE7B7E01197F1F7F89481812823218381
:10292000A3E1B1E01197F1F78081982381E009F0EC
:1029300080E07894E3E6F6E03197F1F7089580912E
:10294000AF028823A9F140910001509101016091EB
:1029500002017091030122EF32E08091F204909124
:10296000F3040E942407811102C080E00895409181
:10297000B0025091B1026091B2027091B302411560
:1029800051056105710591F022EF32E08091F2046A
:102990009091F3040E942407882339F31092B00227
:1029A0001092B1021092B2021092B3021092AF02D2
:1029B00081E008958F929F92AF92BF92EF92FF9223
:1029C0000F931F93CF934B015C01C42F80910001A3
:1029D00090910101A0910201B09103018815990520
:1029E000AA05BB0501F10E949F14811102C080E07D
:1029F00020C082EFE82E82E0F82E00E012E020E016
:102A000030E0B501A4018091F2049091F3040E949A
:102A10009006882361F38092000190920101A092B8
:102A20000201B09203018091AF02C82BC093AF02A4
:102A300081E0CF911F910F91FF90EF90BF90AF90E9
:102A40009F908F9008954F925F926F927F928F9296
:102A50009F92AF92BF92CF92DF92EF92FF920F932D
:102A60001F93CF93DF93EC016A017B0128013901A9
:102A7000423051056105710510F480E073C089850D
:102A80009A85AB85BC850196A11DB11D841795075C
:102A9000A607B70790F38B889C88AD88BE888F897E
:102AA000803129F4BB27AF2D9E2D8D2D09C0DB0170
:102AB000CA0147E0B695A795979587954A95D1F7AE
:102AC000880E991EAA1EBB1E8091000190910101E3
:102AD000A0910201B091030188169906AA06BB06CF
:102AE00079F48F898031A1F4DD24EE24FF24C6011E
:102AF000880F991FFC01EE50FD4F5182408219C092
:102B000040E0C501B4010E94DA148111EACFB5CFCB
:102B1000E894C7F8DD24EE24FF24C601880F991F2E
:102B2000880F991FFC01EE50FD4F40825182628256
:102B300073828091AF0281608093AF028A89823074
:102B400080F08D819E81AF81B885880E991EAA1E66
:102B5000BB1E8092B0029092B102A092B202B092DB
:102B6000B30281E0DF91CF911F910F91FF90EF9021
:102B7000DF90CF90BF90AF909F908F907F906F909D
:102B80005F904F9008958F929F92AF92BF92CF9295
:102B9000DF92EF92FF920F931F93CF93DF93FC018D
:102BA00081859285A385B4850196A11DB11D8417E9
:102BB0009507A607B70710F480E05CC08389948965
:102BC000A589B689C789C03129F4852E962EA72EEE
:102BD000BB2409C04A015B01C7E0B694A79497944F
:102BE0008794CA95D1F7E9016A017B018F01BC0185
:102BF000CD01680D791D8A1D9B1D8090000190906C
:102C00000101A0900201B0900301681579058A05C1
:102C10009B0599F4F80187898031A9F4B701A601D1
:102C2000552766277727440F551FFA01EE50FD4FB1
:102C300080819181A0E0B0E018C040E00E94DA14E9
:102C40008111E8CFB9CFB701A6014F775527662785
:102C50007727440F551F440F551FFA01EE50FD4FC3
:102C600080819181A281B381BF7088839983AA8377
:102C7000BB8381E0DF91CF911F910F91FF90EF9087
:102C8000DF90CF90BF90AF909F908F9008954F921C
:102C90005F926F927F92AF92BF92CF92DF92EF924C
:102CA000FF920F931F93CF93DF9300D000D0CDB747
:102CB000DEB78C0149835A836B837C835901C12C15
:102CC000D12C7601412C82E0582E612C712C498147
:102CD0005A816B817C819E012F5F3F4FC8010E940A
:102CE000C315882351F1D301C201F801058404C042
:102CF000880F991FAA1FBB1F0A94D2F7C80ED91EAE
:102D0000EA1EFB1E49815A816B817C818789803153
:102D100029F088EF9FEFAFEFBFE004C088EF9FEF8F
:102D2000A0E0B0E0481759076A077B0780F2F50179
:102D3000C082D182E282F38281E00F900F900F90E7
:102D40000F90DF91CF911F910F91FF90EF90DF9047
:102D5000CF90BF90AF907F906F905F904F9008950D
:102D60004F925F926F927F92AF92BF92CF92DF921B
:102D7000EF92FF920F931F93CF93DF93CDB7DEB700
:102D80002B970FB6F894DEBF0FBECDBF7C01CE01EE
:102D900001966C01FC0190E28BE08C0D91938E13F7
:102DA000FDCFDA0130E047E09D91992339F19E3261
:102DB00019F0EDE9F2E00AC04A3009F472C138E0D6
:102DC0004AE0F2CF3196891709F46BC184918111E1
:102DD000F9CF431708F465C18FED890F8E3508F0E0
:102DE00060C181E0830FF601E30FF11D3FE9390F68
:102DF0003A3108F490529083382FD6CF89818032AF
:102E000009F44FC1B22E8B01DB015B968D919C9131
:102E10005C97F701948F838F16961D921D921D92D9
:102E20001C921997FB011286138614861586712C45
:102E3000F80182859385A485B58543895489658980
:102E4000768984179507A607B70708F061C025E0C3
:102E5000B695A795979587952A95D1F7F82FFF7086
:102E60006F2ED80115968C91823008F41AC1C801D2
:102E70000E94150897FD15C1F80182859385A485E8
:102E8000B5854F96A11DB11D82879387A487B5870D
:102E9000F0E26F9EC0011124BC016E507D4F6115A0
:102EA000710509F4FEC0DB012C91222319F0253EA7
:102EB000C1F427C071100EC0F701628A4091000171
:102EC000509101016091020170910301468757877B
:102ED000608B718BFC01EE50FD4F8081811113C01E
:102EE00015C04BE050E0C6010E94122D892B09F05D
:102EF0009FCF8B2D8073803309F4D3C04B2D662D6B
:102F0000CCC07720C9F27724739492CF772473943E
:102F10008B2D8271823109F0C4C07720D1F0D701A6
:102F20001E966D917D918D919C91519741E00E94EB
:102F3000DA14882309F4B5C0F7016289F0E26F9FC3
:102F4000B00111246E507D4F6115710509F079C0F3
:102F5000A8C0D80115968C91823009F4A2C0C8018E
:102F60000E94C204882309F49CC0D8015B96ED91AD
:102F7000FC915C9716964D905D906D907C901997A2
:102F8000B2E04B1A510861087108058404C0440C72
:102F9000551C661C771C0A94D2F786859785A089F4
:102FA000B189480E591E6A1E7B1EA480E1E04E1AAC
:102FB000510861087108AA2009F10E949F14882312
:102FC00009F46FC0E2EFF2E0119224E0E23FF20771
:102FD000D9F7D301C2018A0D911DA11DB11D8093A6
:102FE000000190930101A0930201B093030180912D
:102FF000AF0281608093AF02AA94DDCFD8015B96C7
:10300000ED91FC915C9780E092E0A0E0B0E0058457
:1030100004C0880F991FAA1FBB1F0A94D2F7F8019A
:103020004389548965897689840F951FA61FB71F28
:10303000838B948BA58BB68BD70152961C9262EF33
:1030400072E080E2FB0111928A95E9F78BE0F601CC
:10305000DB0101900D928A95E1F781E298E2DB01B4
:1030600051969C938E93509720E038E01F963C93A6
:103070002E931E9753969C938E93529759969C939A
:103080008E93589757963C932E9356970E949F1471
:10309000882339F04B2DF7016289C7010E94AE03E6
:1030A00001C080E02B960FB6F894DEBF0FBECDBFF7
:1030B000DF91CF911F910F91FF90EF90DF90CF9014
:1030C000BF90AF907F906F905F904F9008952F9238
:1030D0003F924F925F926F927F928F929F92AF92A8
:1030E000BF92CF92DF92EF92FF920F931F93CF93F5
:1030F000DF9300D000D0CDB7DEB78C015B011A01A1
:10310000DC0115968C9115978130C9F414968C9139
:1031100081FF15C082FF1BC0F8014389548965896E
:10312000768982859385A485B58584179507A6073A
:10313000B70769F0C8010E941803811108C081E037
:1031400090E0F8019383828380E090E039C16101CF
:1031500083C0D8015B968D919C915C97FC01248182
:1031600021502A013B0139E07694679457944794A3
:103170003A95D1F7722E74207A01F1E0FF22772080
:1031800009F476C080E092E08E199F0946018C1503
:103190009D0508F44C01D8015B962D913C915C97FC
:1031A00016968D919D910D90BC91A02D0297A1092D
:1031B000B109F901058404C0880F991FAA1FBB1F1C
:1031C0000A94D2F74685578560897189840F951FC7
:1031D000A61FB71F9C01AD01270D311D411D511DBB
:1031E00029013A01811432E0930609F088C08091E8
:1031F000000190910101A0910201B0910301841599
:103200009505A605B70559F48FEF9FEFDC01809374
:10321000000190930101A0930201B0930301950175
:10322000B301A2018091F2049091F3040E9424075B
:10323000882309F484CF9EEFB91AC818D908F80179
:1032400082859385A485B585880D991DA11DB11D25
:1032500082879387A487B587D8011A964D915D918F
:103260006D917C911D97C114D10409F072CF87C074
:10327000E114F10409F086CF16964D915D916D91A0
:103280007C911997411551056105710559F45796BF
:103290008D919D910D90BC91A02D0097A105B10538
:1032A00041F521C09E012F5F3F4F0E94C315882327
:1032B00009F44BCF89819A81AB81BC81F801238DC0
:1032C000348DF9012789203129F048EF5FEF6FEF46
:1032D0007FE004C048EF5FEF60E070E0841795077F
:1032E000A607B70730F0C8010E94C20481114ACF77
:1032F00026CFF80186839783A087B18743CFE11457
:10330000F10429F5D8011A964D915D916D917C914A
:103310001D9753968D919D910D90BC91A02D4817AE
:1033200059076A077B0798F00E949F14882309F4C5
:1033300006CF40920001509201016092020170920A
:1033400003018091AF0281608093AF0208C041E029
:10335000C301B2010E94DA14882309F4F0CED5012A
:10336000F701EE50FD4FCF01880D991DE817F907C1
:1033700019F02D912193FACFA80CB91C5ECF53966A
:103380008D919D910D90BC91A02D84179507A60756
:10339000B70740F4F801438B548B658B768B84819F
:1033A00080688483D80114968C9183FD02C0C1018A
:1033B00007C0C8010E94D202882309F4C0CEF7CF0B
:1033C0000F900F900F900F90DF91CF911F910F9161
:1033D000FF90EF90DF90CF90BF90AF909F908F9035
:1033E0007F906F905F904F903F902F900895CF9374
:1033F000DF931F92CDB7DEB7698341E050E0BE0195
:103400006F5F7F4F0E9467180F90DF91CF910895F3
:103410008F929F92AF92BF920F931F93CF93DF93A0
:10342000CDB7DEB7A1970FB6F894DEBF0FBECDBF04
:1034300019A2423008F44AE08E010F5D1F4F842E1E
:10344000912CA12CB12CA50194010E94EE2AE62F0B
:10345000B901CA0101501109EA3014F4E05D01C05C
:10346000E95CD801EC93232B242B252B61F7B801C1
:1034700084EF94E00E942A1FA1960FB6F894DEBF55
:103480000FBECDBFDF91CF911F910F91BF90AF9035
:103490009F908F900895E4EFF4E0A089B18982E0D5
:1034A0008C93A485B5851C92A685B7858FEC8C93EB
:1034B000108EA489B58986E08C93A289B3898C91FA
:1034C00080618C93A289B3898C9188608C93A28946
:1034D000B3898C9180688C930288F389E02D808178
:1034E0008F7D808308954F925F926F927F928F922B
:1034F0009F92AF92BF92CF92DF92EF92FF926B01B9
:103500007C01B42E9B01AC010E94E92A882319F0AA
:1035100063E372E027C026013701E89477F82FEFC4
:103520003FEF4FE75FE7C301B2010E94E92A811133
:103530000DC02FEF3FEF4FE75FE7C301B2010E94DD
:103540005E2818161CF467E372E00CC02FEF3FEF03
:103550004FE75FE4C701B6010E94E42A181694F40D
:103560006BE372E084EF94E0FF90EF90DF90CF90F8
:10357000BF90AF909F908F907F906F905F904F9093
:103580000C942A1F2FEF3FEF4FE75FECC701B60106
:103590000E945E2887FDE4CF20E030E0A901C7014A
:1035A000B6010E945E2887FF11C0E091F404F091FB
:1035B000F5040190F081E02D6DE284EF94E009952F
:1035C0004C01F7FAF094F7F8F09402C0812C912C9A
:1035D000A12C60E070E080E09FE3AB1441F020E0BC
:1035E00030E040E251E40E94432AA394F6CF9B01CD
:1035F000AC01C701B6010E94D7292B013C010E94F2
:10360000B52A6B017C010E9463289B01AC01C301B8
:10361000B2010E94D6292B013C014AE0C701B60144
:103620000E94081A7C01E80CF91CBB2069F0E091AB
:10363000F404F091F5040190F081E02D6EE284EF46
:1036400094E00995E80EF91EDB2CDD2021F120E045
:1036500030E040E251E4C301B2010E94C4282B01D2
:103660003C010E94B52A4B01A12CB12C4AE0C501B6
:10367000B4010E94081AE80EF91EC501B4010E94A7
:1036800063289B01AC01C301B2010E94D6292B0122
:103690003C01DA94DACFC701FF90EF90DF90CF9032
:1036A000BF90AF909F908F907F906F905F904F9062
:1036B0000895880F991FFC01E851FA4F808191818C
:1036C000DC01ED91FC910480F581E02D09940F93CC
:1036D0001F93CF93DF938C01C0E0D0E0F801EC0F93
:1036E000FD1F6491662371F0E091F404F091F504FC
:1036F0000190F081E02D84EF94E00995892B11F081
:103700002196ECCFCE01DF91CF911F910F910895BB
:103710008F929F92AF92BF92CF92DF92EF92FF92E1
:10372000CF93DF93C82F83E995E09093F3048093C0
:10373000F204CC2369F1C53010F080E00DC140E007
:1037400060E070E0CB010E94DA148823B1F320E13D
:10375000C29FC00111248E519D4FFC01E254FE4FC7
:1037600020812F7751F73C9640815181628173818E
:10377000443651056105710500F33497C080D1804E
:10378000E280F380C114D104E104F10421F4D5CF27
:10379000C12CD12C760140E0C701B6010E94DA1499
:1037A000882359F28091FD029091FE02811592408A
:1037B00021F6A0910203AA2309F4BFCF6091000370
:1037C000709101036115710509F4B7CF2091FF02D3
:1037D000222309F4B2CFA093B1052093A30580E082
:1037E00030E0E1E0F0E0C82FAF01082E02C0440F46
:1037F000551F0A94E2F72417350741F0982F8F5F81
:10380000983089F789E08093AC0597CF8093AC0519
:1038100020910803309109032115310519F040E08A
:1038200050E008C02091160330911703409118030F
:10383000509119032093A4053093A5054093A60544
:103840005093A70546015701860E971EA11CB11C77
:103850008092B2059092B305A092B405B092B505DE
:10386000E0910303F0910403F093B805E093B705EA
:10387000B0E00E948529860E971EA81EB91E809270
:10388000B9059092BA05A092BB05B092BC0585E03F
:10389000EE0FFF1F8A95E1F7E150FE4FEF2FFF2754
:1038A000E6958E0E9F1EA11CB11C8092AD059092D4
:1038B000AE05A092AF05B092B005209105033091FE
:1038C00006032115310521F0A90160E070E008C070
:1038D00040911203509113036091140370911503EA
:1038E000D701C60188199909AA09BB09840F951F38
:1038F000A61FB71F04C0B695A79597958795CA953B
:10390000D2F78093A8059093A905A093AA05B09338
:10391000AB05853F2FE09207A105B10510F48CE0BF
:1039200018C0853F9F4FA105B10510F480E111C07B
:1039300080911E0390911F03A0912003B091210359
:103940008093B9059093BA05A093BB05B093BC05CD
:1039500080E28093B60581E0DF91CF91FF90EF90F8
:10396000DF90CF90BF90AF909F908F9008950F936E
:103970001F93CF93DF93CDB7DEB7C755D1090FB6ED
:10398000F894DEBF0FBECDBF8C016DEB75E0CE01AC
:1039900001960E948F07BE016F5F7F4FCE01CB96CD
:1039A0000E948F0719A218A28EE191E09F8F8E8F3F
:1039B0001BA221968FAD2197811113C0F8011382AC
:1039C000128288EE93E0A0E0B0E084839583A68322
:1039D000B78388E691E091838083128E118E1486DE
:1039E00033C0825023E14FE352E0823048F46DEB64
:1039F00075E0CE014E960E94B01681110EC0DECF4A
:103A0000BE01655C7F4FCE014E960E94B0168823A2
:103A1000A9F2CE01CB960E94B60449A95AA96BA976
:103A20007CA9CE014E960E941803BE01625E7F4FB4
:103A3000CE0101960E948F074FE352E0BE016F5FF7
:103A40007F4FC8010E94E007C801C95ADF4F0FB677
:103A5000F894DEBF0FBECDBFDF91CF911F910F91C4
:103A60000895FF920F931F93CF93DF938C0140E053
:103A700065E50E942714CAEED2E0FC2E88E0F80E1D
:103A8000699140E0C8010E942714FC12F9CFDF9130
:103A9000CF911F910F91FF9008950F931F93CF9394
:103AA000DF93EC0188819981009729F02A813B817D
:103AB0002617370788F48B016F5F7F4F0E94432CD6
:103AC000009761F0998388831B830A832C813D8151
:103AD000232B11F4FC01108281E001C080E0DF9112
:103AE000CF911F910F910895EF92FF920F931F9323
:103AF000CF93DF93FC01248135816115710511F4A9
:103B000080E019C041155105A9F07B01EC018A0143
:103B1000020F131FB8010E944D1D882389F32881CD
:103B200039818C819D81B701820F931F0E94282DBE
:103B30001D830C8381E0DF91CF911F910F91FF9046
:103B4000EF90089541E050E06AE472E08FE096E083
:103B50000C94741DFC0144815581608171818FE05A
:103B600096E00C94741DEF92FF920F931F93CF93E6
:103B7000DF93EC017B018A01BA010E944D1D28816F
:103B8000398181110DC02115310519F0C9010E943B
:103B9000AB2B198218821D821C821B821A8206C0DE
:103BA0001D830C83B701C9010E94282DCE01DF912E
:103BB000CF911F910F91FF90EF900895CF93DF93D6
:103BC000EC016115710559F0FB0101900020E9F746
:103BD0003197AF01461B570B0E94B31D0CC0888163
:103BE0009981009711F00E94AB2B198218821D82D7
:103BF0001C821B821A82CE01DF91CF910895FC01B5
:103C0000808191810C94AB2BCF92DF92EF92FF9247
:103C10000F931F93CF93DF936C017A018B01C0E068
:103C2000D0E0CE15DF0589F0D8016D918D01D60168
:103C3000ED91FC910190F081E02DC6010995892B51
:103C400011F47E0102C02196ECCFC701DF91CF9124
:103C50001F910F91FF90EF90DF90CF900895FC019E
:103C6000918D828D981761F0828DDF01A80FB11DB3
:103C70005D968C91928D9F5F9F73928F90E00895D7
:103C80008FEF9FEF0895FC01918D828D981731F091
:103C9000828DE80FF11D858D90E008958FEF9FEFE5
:103CA0000895FC01918D228D892F90E0805C9F4FBB
:103CB000821B91098F739927089584EF94E00E94E5
:103CC000511E21E0892B09F420E0822F0895FC0188
:103CD000848DDF01A80FB11DA35ABF4F2C91848D95
:103CE00090E001968F739927848FA689B7892C93CA
:103CF000A089B1898C9180648C93938D848D981365
:103D000006C00288F389E02D80818F7D808308952D
:103D1000EF92FF920F931F93CF93DF93EC0181E01B
:103D2000888F9B8D8C8D981305C0E889F9898081D7
:103D300085FD24C0F62E0B8D10E00F5F1F4F0F7313
:103D40001127E02E8C8DE8120CC00FB607FCFACFBD
:103D5000E889F989808185FFF5CFCE010E94671E31
:103D6000F1CF8B8DFE01E80FF11DE35AFF4FF0827A
:103D70000B8FEA89FB898081806207C0EE89FF8909
:103D80006083E889F98980818064808381E090E0A4
:103D9000DF91CF911F910F91FF90EF900895CF93F6
:103DA000DF93EC01888D8823C9F0EA89FB89808143
:103DB00085FD05C0A889B9898C9186FD0FC00FB615
:103DC00007FCF5CF808185FFF2CFA889B9898C9156
:103DD00085FFEDCFCE010E94671EE7CFDF91CF9127
:103DE000089580E090E0892B29F00E945D1E8111EA
:103DF0000C94000008950E940D2D0F931F93CF93F4
:103E0000DF93CDB7DEB729970FB6F894DEBF0FBEAC
:103E1000CDBF8C01862FF80111821082138212828D
:103E20001582148250E0BE016F5F7F4F90E00E94C8
:103E30004524BE016F5F7F4FC8010E94DE1D299699
:103E40000FB6F894DEBF0FBECDBFDF91CF911F91AB
:103E50000F9108956115710579F0FB010190002023
:103E6000E9F73197AF01461B570BDC01ED91FC914F
:103E70000280F381E02D099480E090E008950F9393
:103E80001F93CF93DF93EC010E942A1F8C016AEEEF
:103E900071E0CE010E942A1F800F911FDF91CF9108
:103EA0001F910F9108951F920F920FB60F92112438
:103EB0002F933F934F935F936F937F938F939F9332
:103EC000AF93BF93EF93FF9384EF94E00E94671E3C
:103ED000FF91EF91BF91AF919F918F917F916F91E2
:103EE0005F914F913F912F910F900FBE0F901F90B8
:103EF00018951F920F920FB60F9211242F938F9344
:103F00009F93EF93FF93E0910405F0910505808165
:103F1000E0910A05F0910B0582FD12C0908180911D
:103F20000D058F5F8F7320910E05821751F0E09180
:103F30000D05F0E0EC50FB4F958F80930D0501C00F
:103F40008081FF91EF919F918F912F910F900FBEE4
:103F50000F901F90189590E0FC01ED50FD4F3491AB
:103F6000FC01E553FD4F2491FC01E954FD4FE49120
:103F7000EE2309F43BC0332339F1333091F038F4A8
:103F80003130A9F0323001F584B58F7D12C0373061
:103F900091F03830A1F03430B9F4809180008F7DF9
:103FA00003C0809180008F77809380000DC084B51E
:103FB0008F7784BD09C08091B0008F7703C0809156
:103FC000B0008F7D8093B000F0E0EE0FFF1FE7514F
:103FD000FD4FA591B4918FB7F894EC91611103C096
:103FE00020952E2301C02E2B2C938FBF0895CF93A5
:103FF000DF9390E0FC01E553FD4F2491FC01E9546F
:10400000FD4F8491882361F190E0880F991FFC0196
:10401000E152FD4FC591D491FC01E751FD4FA591AF
:10402000B491611109C09FB7F894888120958223CB
:104030008883EC912E230BC0623061F49FB7F89413
:104040003881822F809583238883EC912E2B2C93AB
:104050009FBF06C08FB7F894E8812E2B28838FBFAF
:10406000DF91CF9108958E3008F08E508770806474
:1040700080937C0080917A00806480937A008091A4
:104080007A0086FDFCCF809178002091790090E045
:10409000922B0895CF93DF93C8EED5E08991999143
:1040A000009711F00E94AB2B85E0CC3FD807B1F709
:1040B0008FE096E0DF91CF910C94FF1DCF92DF92BD
:1040C000EF92FF92CF93DF931092F7041092F604D1
:1040D00088EEC82E83E0D82EE12CF12CC092F80493
:1040E000D092F904E092FA04F092FB048EE091E0A1
:1040F0009093F5048093F40485EC90E0909301058F
:104100008093000584EC90E0909303058093020572
:1041100080EC90E0909305058093040581EC90E09D
:10412000909307058093060582EC90E09093090533
:104130008093080586EC90E090930B0580930A0528
:1041400010920D0510920E0510920F051092100599
:104150001092100610920F0610921206109211067D
:10416000109214061092130640E050E06CEE71E0DD
:104170008FE096E00E94B31D80E580939105109238
:104180009205109298051092990510929C05109234
:104190009E0582E090E0A0E0B0E080939F059093C0
:1041A000A005A093A105B093A2051092B6051092A8
:1041B000C0051092BF058EE191E09093BE058093FB
:1041C000BD051092C2051092DF051092DE05C09267
:1041D000E005D092E105E092E205F092E30586E287
:1041E00091E09093DD058093DC0560E085E00E941E
:1041F000F71FE0EDF2E0E491E0931506ECEBF2E05E
:10420000E491F0E0EE0FFF1FE355FD4F859194918F
:10421000909317068093160610922006109222069D
:1042200010922106E0E2F6E0129286E0E831F8070B
:10423000D9F781EE97E09093FD058093FC0584E02B
:104240008093FE0591E19093FF05809300068EE038
:104250008093010685E08093020610920306E8EE43
:10426000F5E084E1DF011D928A95E9F71192119240
:10427000B5E0EC3FFB07D1F784E290E00E94162BFB
:10428000FC0186E391E09183808380E190E0938359
:10429000828314821582168217828EE190E09187C4
:1042A0008087148A158A168A178A108E118E128EAC
:1042B000138E10A211A212A213A2F093E905E093AB
:1042C000E80582E190E00E94162BFC0180E491E079
:1042D0009183808382E593E0A0E0B0E082879387BA
:1042E000A487B58785E196E091878087F093EB05F9
:1042F000E093EA058CE090E00E94162BEC018AE442
:1043000091E0998388831B821A821D821C821F82FE
:104310001E8240E050E06CEE71E0CE0102960E94F9
:10432000B31DD093ED05C093EC0586E390E00E94A9
:10433000162BFC018091EA059091EB0524E531E014
:10434000318320832FE030E033832283148215826F
:1043500016821782DF011A962AE0ED0119922A953A
:10436000E9F7158A148A168A178A108E118E128E12
:10437000138E148E158E178E168E11A210A212A2F5
:1043800013A214A215A216A217A210A611A612A675
:1043900013A614A615A649E150E060E070E046A718
:1043A00057A760AB71AB4CEB52E060E070E042AB02
:1043B00053AB64AB75AB91878087F093EF05E093C7
:1043C000EE058AE290E00E94162BFC018EE591E05A
:1043D0009183808381E190E09383828380E090E009
:1043E000A0EAB0E484839583A683B7831086118600
:1043F000128613861486158616861786128E138EDD
:10440000148E158EF093F105E093F00585E290E0AF
:104410000E94162BFC0180E991E09183808384E067
:1044200090E0938382831186108688EE93E0A0E06B
:10443000B0E082879387A487B58788E691E0978369
:10444000868310A2178E128A11A212A213A214A29E
:1044500088EE95E095838483F093F305E093F2056D
:10446000DF91CF91FF90EF90DF90CF9008957894F7
:1044700084B5826084BD84B5816084BD85B5826069
:1044800085BD85B5816085BD80916E00816080931A
:104490006E00109281008091810082608093810083
:1044A0008091810081608093810080918000816093
:1044B000809380008091B10084608093B1008091EE
:1044C000B00081608093B00080917A008460809316
:1044D0007A0080917A00826080937A0080917A00DD
:1044E000816080937A0080917A00806880937A005E
:1044F0001092C1000E944B1A10926E0610926D0627
:10450000109224061092450610926C0681E080936A
:104510006B061092660661E082E10E94AB1F61E0CB
:1045200083E10E94AB1F8091B9008E7F8093B90018
:104530008091B9008D7F8093B90088E48093B800A2
:1045400085E48093BC00C8EED5E0899199910097ED
:1045500039F0DC01ED91FC910190F081E02D09959D
:10456000B5E0CC3FDB0789F7D1E0DD24DA9426E023
:10457000A22E06E416E03FE6E32E36E0F32E42E0FC
:10458000942E55EEC52E65ECB62E0E94C70A4090BB
:104590000B0650900C0660900D0670900E06DC0124
:1045A000CB0184199509A609B709893E9340A10555
:1045B000B10508F4F0C00E94C70A60930B0670931F
:1045C0000C0680930D0690930E0680916C06811167
:1045D000FCCFD0936C06D0936B06D0926A061092F3
:1045E0006906A0926806D093670680916706846684
:1045F0008093670680916606813069F410926606A2
:10460000809167068093BB008091BC0083FDF8CF4A
:10461000B092BC0002C0C092BC0080916C06813098
:10462000E1F380916906873018F48090690602C032
:1046300097E0892EEFE6F6E0A6E4B6E08E2F8E191D
:10464000881518F48D918193F9CF10926E0680929F
:104650006D06C0E080916E06881671F07724739421
:104660007C0E8CED95E00E943B02EC2FF0E0E450D4
:10467000FA4F8087C72DEECF80914506813208F032
:1046800040C090916C069111FCCF90926C06D09333
:104690006B06D0926A061092690680936806A5E2BE
:1046A000B6E0E6E4F6E09E2F901B981718F49D9173
:1046B0009193F9CF10926706809167068093670601
:1046C00080916606813069F41092660680916706D3
:1046D0008093BB008091BC0083FDF8CFB092BC00FA
:1046E00002C0C092BC0080916C068230E1F38091E0
:1046F0006A068F3F31F080916A06803211F0809116
:104700006A06109224061092450610922306E4E0F1
:10471000F6E090E0923059F08081282F22952F709A
:104720008F703AE0239F800D112480830FC0809109
:104730000606282F2695269526952E70322F330FA4
:10474000330F230F8F70820F809306069F5F319681
:10475000973001F780910A0690E08053984F90932C
:10476000FD058093FC05809109068093FE058091EC
:1047700008068093FF0580910706809300068091CC
:1047800006068093010680910506809302068091BB
:1047900004068093030688EE682E85E0782ED30108
:1047A0008D919D913D01009739F0DC01ED91FC91D7
:1047B0000280F381E02D0995BCEF6B16B5E07B0616
:1047C00071F786E293E00E94671B80E090E00E9410
:1047D000591B42E00E94731A8DE193E00E94671B0F
:1047E00081E090E00E94591B42E00E94731A86E12A
:1047F00093E00E94671B82E090E00E94591B42E018
:104800000E94731A8FE093E00E94671B83E090E0A0
:104810000E94591B42E00E94731A87E093E00E94B5
:10482000671B84E090E00E94591B42E00E94731ACB
:104830006AEE71E084EF94E00E942A1F0E94F11E4C
:10484000A4CEEF920F931F93CF93DF93E80147FD20
:1048500002C034E001C034E1E42F440FFF0BF7FF46
:1048600003C0F195E195F109E32E022F2E2FAE0141
:104870000E946A24CE01DF91CF911F910F91EF909A
:104880000895662777270C94F8254532510520F4C2
:10489000423010F00C945024FB011082CB0108959B
:1048A000BB27FB015527AA27880F991FAA1FA4170A
:1048B00010F0A41B83955051B9F7A05DAA3308F0FE
:1048C000A95DA193009779F7B111B1931192CB0132
:1048D0000C944E284F925F926F927F929F92AF926C
:1048E000BF92CF92DF92EF92FF920F931F93CF93DD
:1048F000DF93CDB7DEB729970FB6F894DEBF0FBEB2
:10490000CDBF6A01122FB02E2BE3201720F0FF2419
:10491000F394F00E02C0BCE3FB2E0F2D27E0AE0196
:104920004F5F5F4F0E945527AC018981982F997086
:10493000913031F0E1FC06C0E0FE06C090E205C017
:104940009DE203C09BE201C090E0EE2DE07183FF89
:104950003CC0911102C083E001C084E0811718F4CB
:10496000212F281B01C020E0E1110BC0F601822F8E
:1049700030E2882319F031938150FBCFC20ED11C55
:1049800020E0992329F0D6019C93F60131966F011E
:10499000C6010396E2FE0AC03EE4D6013C9341E420
:1049A00011964C93119712963C9306C03EE6F60181
:1049B000308341E641833283FC01322F40E23323CE
:1049C00009F442C041933150FACF82FF44C09111A3
:1049D00002C083E001C084E0811718F4212F281B56
:1049E00001C020E0E1110BC0F601822F30E28823E4
:1049F00019F031938150FBCFC20ED11C20E09923D6
:104A000029F0D6019C93F60131966F01C6010396F9
:104A1000E2FE0BC039E4D6013C933EE411963C9390
:104A2000119736E412963C9307C039E6F6013083BD
:104A30003EE6318336E63283FC01322F40E23323F7
:104A400019F041933150FBCFFC01E20FF11D1082B0
:104A50008EEF9FEFB7C0F1E0911101C0F0E06F2F32
:104A600070E01416150624F49A012F5F3F4F02C020
:104A700021E030E0260F371FBB2029F06B2D70E0BE
:104A80006F5F7F4F02C060E070E0260F371F612F1D
:104A900070E0261737071CF4121B212F01C020E0FD
:104AA0003E2D387159F4D601322F60E2332319F0CC
:104AB0006D933150FBCFC20ED11C20E0FF2331F0AB
:104AC000D6019C93B6016F5F7F4F6B01E1110BC064
:104AD000F601922F30E3992319F031939150FBCFD7
:104AE000C20ED11C20E09F2D940F3A81782F707157
:104AF000A72E84FF03C0313309F49150191624F412
:104B0000993018F098E001C091E0E42F852F57FF0D
:104B100002C0E0E080E06E2F782FE0E0F0E0AEE24F
:104B20009A2E3A01691A71082A01461A570A0B2D62
:104B300010E01195019511096F3F8FEF780729F467
:104B4000D6019C92C60101966C014617570784F066
:104B5000661677066CF47F01E40CF51CA1E0B0E06A
:104B6000AC0FBD1FEA0EFB1ED7011196BC9002C010
:104B700090E3B92E615071093196C60101967C010E
:104B80006017710724F0D601BC926C01D5CF641771
:104B9000750741F4363320F4353321F4A11002C0F7
:104BA00081E3B82EF601B082F701822F90E28823CC
:104BB00019F091938150FBCFF701E20FF11D1082A4
:104BC00080E090E029960FB6F894DEBF0FBECDBF0F
:104BD000DF91CF911F910F91FF90EF90DF90CF90D9
:104BE000BF90AF909F907F906F905F904F9008958F
:104BF000A0E0B0E0EEEFF5E20C949429EC017B012B
:104C00006115710519F0DB018D939C938E010F5F87
:104C10001F4F7880872D90E00E942D28892B11F05E
:104C2000E801F4CFBDE27B1205C00F5F1F4F798012
:104C3000C1E008C0EBE27E1204C08E010E5F1F4F80
:104C40007980C0E06801F1E0CF1AD10843E050E07C
:104C500060E770E0C6010E943628892BF1F46801F4
:104C600022E0C20ED11C45E050E06BE670E0C601C8
:104C70000E943628892B21F4680187E0C80ED11CD8
:104C8000E114F10419F0D701CD92DC92C111FFC0FB
:104C900060E070E080E89FE703C143E050E068E631
:104CA00070E0C6010E943628892B51F4E114F1040A
:104CB00009F4F2C00E5F1F4FF70111830083ECC0AF
:104CC000680160E070E0CB0100E010E0F601D0ED9B
:104CD000D70DDA3058F52C2F2260622E2C2F287039
:104CE000C2FF05C0211128C00F5F1F4F25C022231E
:104CF00011F001501109A5E0B0E09B01AC010E9448
:104D000085294B015C01880C991CAA1CBB1CC501A0
:104D1000B4016D0F711D811D911D6839A9E97A07D4
:104D20008A07A9E19A0740F0C66005C0DE3F51F44A
:104D3000C3FD44C0C8606C2EBFEFCB1ADB0A708085
:104D4000C62DC4CF2D2F2F7D2531C1F540814D3289
:104D500011F4C06106C04B3221F0319621E030E001
:104D600006C03296D60111964C9122E030E0A0EDBB
:104D7000A40FAA3018F0E21BF30B20C040E050E073
:104D80004038BCE05B075CF49A01220F331F220F0E
:104D9000331F420F531F440F551F4A0F511D3196A9
:104DA000DF0111972C91A0EDA20FAA3048F3C4FFA8
:104DB00003C0519541955109040F151FC1FF07C04C
:104DC000E114F10421F03197D701ED93FC930E9497
:104DD0006328C370C33019F06B017C0106C06B01FE
:104DE0007C01F7FAF094F7F8F09420E030E0A901A4
:104DF000C701B6010E945E28882309F445C017FF49
:104E000006C0119501951109C7E8D0E002C0CFE9AD
:104E1000D0E05E01B8E1AB1AB1084601BE2DAF2D5E
:104E200090E2E92EF12C0E151F0584F0FE0125916C
:104E3000359145915491B4018B2F9A2F0E94C4282B
:104E40004B01B82FA92F0E191F09EDCF2497F59408
:104E5000E794CA15DB0539F76401EB2EFA2E8E2D87
:104E6000880F8F2D881F8F3F49F020E030E0A90187
:104E7000C701B6010E945E28811106C082E290E05F
:104E80009093900680938F06C701B60109C060E039
:104E900070E080E89FEF04C060E070E080EC9FE786
:104EA000CDB7DEB7EEE00C94B029283008F027E04B
:104EB0003327DA01990F311D87FD91600096610556
:104EC000710539F432602E5F3D9330E32A95E1F7A6
:104ED00008959F3F30F080387105610509F03C5F0F
:104EE0003C5F3D93913008F08068911DDF93CF9334
:104EF0001F930F93FF92EF92192F987F9695E92FAA
:104F000096959695E90FFF27E350FF4F9927332792
:104F1000EE24FF24A701E70105900894079428F4E4
:104F2000360FE71EF81E491F511D660F771F881F99
:104F3000991F0694A1F70590079428F4E70EF81E30
:104F4000491F561FC11D770F881F991F661F0694A2
:104F5000A1F70590079428F4F80E491F561FC71FA4
:104F6000D11D880F991F661F771F0694A1F7059022
:104F7000079420F4490F561FC71FD81F990F661FAB
:104F8000771F881F0694A9F784911095177041F038
:104F9000D695C79557954795F794E7941A95C1F715
:104FA000E3EAF0E06894159015913591659195913B
:104FB00005907FE27395E118F10A430B560BC90B7C
:104FC000D009C0F7E10CF11E431F561FC91FD01DA9
:104FD0007EF4703311F48A95E6CFE894015030F0F6
:104FE000080F0AF40027021708F4202F2395022F38
:104FF0007A3328F079E37D932A95E9F710C07D9301
:105000002A9589F60694979567953795179517947D
:10501000E118F10A430B560BC90BD00998F0239500
:105020007E9173957A3308F070E37C932013B8F780
:105030007E9170617D9330F0839571E37D9370E391
:105040002A95E1F71124EF90FF900F911F91CF91D6
:10505000DF91992787FD9095089591110C9431293E
:10506000803219F089508550C8F70895FB01DC01A2
:105070004150504088F08D9181341CF08B350CF4F8
:10508000805E659161341CF06B350CF4605E861BAC
:10509000611171F3990B0895881BFCCFDC01FC01B1
:1050A000672F71917723E1F7329704C07C916D935C
:1050B00070836291AE17BF07C8F308950E94A028BD
:1050C00008F481E00895E89409C097FB3EF49095B8
:1050D0008095709561957F4F8F4F9F4F9923A9F0D1
:1050E000F92F96E9BB279395F69587957795679560
:1050F000B795F111F8CFFAF4BB0F11F460FF1BC0A4
:105100006F5F7F4F8F4F9F4F16C0882311F096E936
:1051100011C0772321F09EE8872F762F05C06623E4
:1051200071F096E8862F70E060E02AF09A95660F9D
:10513000771F881FDAF7880F9695879597F9089556
:10514000990F0008550FAA0BE0E8FEEF1616170698
:10515000E807F907C0F012161306E407F50798F000
:10516000621B730B840B950B39F40A2661F0232B19
:10517000242B252B21F408950A2609F4A140A69595
:105180008FEF811D811D08950E94D7280C944B2913
:105190000E943D2938F00E94442920F0952311F007
:1051A0000C9434290C943A2911240C947F290E94E0
:1051B0005C2970F3959FC1F3950F50E0551F629FD6
:1051C000F001729FBB27F00DB11D639FAA27F00D60
:1051D000B11DAA1F649F6627B00DA11D661F829F87
:1051E0002227B00DA11D621F739FB00DA11D621F6C
:1051F000839FA00D611D221F749F3327A00D611D89
:10520000231F849F600D211D822F762F6A2F11246A
:105210009F5750409AF0F1F088234AF0EE0FFF1F9D
:10522000BB1F661F771F881F91505040A9F79E3FF4
:10523000510580F00C9434290C947F295F3FE4F3EE
:10524000983ED4F3869577956795B795F795E7954A
:105250009F5FC1F7FE2B880F911D9695879597F953
:10526000089599278827089597F99F6780E870E047
:1052700060E008959FEF80EC089500240A941616CC
:10528000170618060906089500240A941216130634
:10529000140605060895092E0394000C11F48823C2
:1052A00052F0BB0F40F4BF2B11F460FF04C06F5FDE
:1052B0007F4F8F4F9F4F089557FD9058440F551FB4
:1052C00059F05F3F71F04795880F97FB991F61F088
:1052D0009F3F79F087950895121613061406551FFF
:1052E000F2CF4695F1DF08C0161617061806991F6B
:1052F000F1CF86957105610508940895E894BB2760
:1053000066277727CB0197F908950E94C729A59FA3
:10531000900DB49F900DA49F800D911D11240895B0
:105320002F923F924F925F926F927F928F929F92B5
:10533000AF92BF92CF92DF92EF92FF920F931F93A3
:10534000CF93DF93CDB7DEB7CA1BDB0B0FB6F89454
:10535000DEBF0FBECDBF09942A88398848885F8494
:105360006E847D848C849B84AA84B984C884DF8005
:10537000EE80FD800C811B81AA81B981CE0FD11DE9
:105380000FB6F894DEBF0FBECDBFED010895A29F0A
:10539000B001B39FC001A39F700D811D1124911D09
:1053A000B29F700D811D1124911D08955058BB2787
:1053B000AA270E94EE290C944B290E943D2938F01F
:1053C0000E94442920F039F49F3F19F426F40C94EC
:1053D0003A290EF4E095E7FB0C943429E92F0E945A
:1053E0005C2958F3BA17620773078407950720F002
:1053F00079F4A6F50C947E290EF4E0950B2EBA2FC5
:10540000A02D0B01B90190010C01CA01A0011124CA
:10541000FF27591B99F0593F50F4503E68F11A1676
:10542000F040A22F232F342F4427585FF3CF469507
:1054300037952795A795F0405395C9F77EF41F1629
:10544000BA0B620B730B840BBAF09150A1F0FF0FF3
:10545000BB1F661F771F881FC2F70EC0BA0F621FDF
:10546000731F841F48F4879577956795B795F795CF
:105470009E3F08F0B0CF9395880F08F09927EE0F64
:105480009795879508950E94572A0C944B290E945E
:10549000442958F00E943D2940F029F45F3F29F04B
:1054A0000C94342951110C947F290C943A290E94B0
:1054B0005C2968F39923B1F3552391F3951B550BA0
:1054C000BB27AA2762177307840738F09F5F5F4FD7
:1054D000220F331F441FAA1FA9F335D00E2E3AF016
:1054E000E0E832D091505040E695001CCAF72BD02E
:1054F000FE2F29D0660F771F881FBB1F261737077F
:105500004807AB07B0E809F0BB0B802DBF01FF27B0
:1055100093585F4F3AF09E3F510578F00C94342930
:105520000C947F295F3FE4F3983ED4F386957795FA
:105530006795B795F7959F5FC9F7880F911D969569
:10554000879597F90895E1E0660F771F881FBB1FC5
:10555000621773078407BA0720F0621B730B840B72
:10556000BA0BEE1F88F7E09508950E94642988F031
:105570009F5798F0B92F9927B751B0F0E1F0660F17
:10558000771F881F991F1AF0BA95C9F714C0B13058
:1055900091F00E947E29B1E008950C947E29672F36
:1055A000782F8827B85F39F0B93FCCF38695779587
:1055B0006795B395D9F73EF4909580957095619570
:1055C0007F4F8F4F9F4F08950E94A02808F48FEFC0
:1055D00008950E94A028880B990B0895A1E21A2E25
:1055E000AA1BBB1BFD010DC0AA1FBB1FEE1FFF1F87
:1055F000A217B307E407F50720F0A21BB30BE40BD7
:10560000F50B661F771F881F991F1A9469F760951D
:105610007095809590959B01AC01BD01CF010895D7
:10562000EE0FFF1F0590F491E02D0994CF93DF93C7
:105630008230910510F482E090E0E0919306F091C1
:10564000940620E030E0C0E0D0E0309711F14081D6
:10565000518148175907C0F04817590761F48281F2
:105660009381209719F09B838A832BC09093940693
:105670008093930626C02115310519F04217530770
:1056800018F49A01BE01DF01EF010280F381E02DE1
:10569000DCCF2115310509F1281B390B24303105E8
:1056A00090F412968D919C9113976115710521F0DC
:1056B000FB019383828304C09093940680939306A6
:1056C000FD01329644C0FD01E20FF31F81939193D7
:1056D000225031092D933C933AC02091910630918C
:1056E0009206232B41F4209106013091070130935B
:1056F0009206209391062091040130910501211515
:10570000310541F42DB73EB7409108015091090190
:10571000241B350BE0919106F0919206E217F307F6
:10572000A0F42E1B3F0B2817390778F0AC014E5F11
:105730005F4F2417350748F04E0F5F1F50939206B6
:10574000409391068193919302C0E0E0F0E0CF0195
:10575000DF91CF9108950F931F93CF93DF9300971D
:1057600009F48CC0FC0132971382128200919306D7
:10577000109194060115110581F420813181820F69
:10578000931F20919106309192062817390779F5D9
:10579000F0939206E093910671C0D80140E050E08A
:1057A000AE17BF0750F412962D913C911397AD019F
:1057B0002115310509F1D901F3CF9D01DA013383B8
:1057C000228360817181860F971F8217930769F486
:1057D000EC0128813981260F371F2E5F3F4F31831F
:1057E00020838A819B8193838283452B29F4F093C4
:1057F0009406E093930642C01396FC93EE9312979F
:10580000ED01499159919E01240F351FE217F307CD
:1058100071F480819181840F951F029611969C935B
:105820008E938281938113969C938E931297E0E0DE
:10583000F0E0D80112968D919C911397009719F082
:10584000F8018C01F6CF8D919C9198012E5F3F4F0E
:10585000820F931F209191063091920628173907E5
:1058600069F4309729F4109294061092930602C0BE
:10587000138212821093920600939106DF91CF91CA
:105880001F910F910895A0E0B0E0E9E4FCE20C94D0
:105890009429EC01009721F4CB010E94162BB8C08B
:1058A000FC01E60FF71F9C0122503109E217F307B4
:1058B00008F4ACC0D9010D911C9111970617170778
:1058C000B0F00530110508F49FC0C8010497861791
:1058D000970708F499C002501109061B170B019392
:1058E00011936D937C93CF010E94AB2B8DC05B0114
:1058F000A01AB10A4C01800E911EA0919306B0919E
:10590000940640E050E0E12CF12C109709F44AC0D5
:10591000A815B905D1F56D907C901197630182E0CF
:10592000C80ED11CCA14DB0480F1A3014A195B091B
:105930006A0182E0C80ED11C1296BC901297139691
:10594000AC91B5E0CB16D10440F0B282A383518371
:105950004083D9016D937C930AC00E5F1F4FC30132
:10596000800F911FF90191838083EB2DFA2FE114B1
:10597000F10431F0D7011396FC93EE93129744C0D3
:10598000F0939406E09393063FC08D919C911197FC
:105990004817590708F4AC017D0112960D90BC918F
:1059A000A02DB3CF8091910690919206881599050C
:1059B000E1F446175707C8F480910401909105015E
:1059C000009741F48DB79EB74091080150910901AD
:1059D000841B950BE817F907C8F4F0939206E0933F
:1059E0009106F901718360830FC0CB010E94162BD1
:1059F0007C01009759F0A801BE010E941F2DCE0125
:105A00000E94AB2BC70104C0CE0102C080E090E031
:105A1000CDB7DEB7EEE00C94B02981E090E0F894C9
:105A20000C943E2DFB01DC0104C08D910190801986
:105A300021F441505040C8F7881B990B0895FB0191
:105A4000DC0102C001900D9241505040D8F70895FA
:105A5000FB01DC0101900D920020E1F70895FB01AC
:105A6000DC014150504048F001900D920020C9F7F0
:105A700001C01D9241505040E0F7089511E0C7E980
:105A8000D1E004C0FE010E94102B2196C839D10735
:065A9000C9F7F894FFCFF6
:105A9600FFFFFFFF00009506800000000000881E43
:105AA600041E511E2F1E431ECF1E00000000F719B4
:105AB600041E00000000870257024F023B022C0220
:105AC6002B020000000046133A108C0A000000006A
:105AD600870AD30A810A00000000C7135F13341037
